{
	"Contracts/FundMe.sol": {
		"FundMe": {
			"abi": [
				{
					"inputs": [
						{
							"internalType": "address",
							"name": "",
							"type": "address"
						}
					],
					"name": "addressToAmountFunded",
					"outputs": [
						{
							"internalType": "uint256",
							"name": "",
							"type": "uint256"
						}
					],
					"stateMutability": "view",
					"type": "function"
				},
				{
					"inputs": [
						{
							"internalType": "uint256",
							"name": "ethAmount",
							"type": "uint256"
						}
					],
					"name": "convert",
					"outputs": [
						{
							"internalType": "uint256",
							"name": "",
							"type": "uint256"
						}
					],
					"stateMutability": "pure",
					"type": "function"
				},
				{
					"inputs": [],
					"name": "fund",
					"outputs": [],
					"stateMutability": "payable",
					"type": "function"
				},
				{
					"inputs": [
						{
							"internalType": "uint256",
							"name": "",
							"type": "uint256"
						}
					],
					"name": "funders",
					"outputs": [
						{
							"internalType": "address",
							"name": "",
							"type": "address"
						}
					],
					"stateMutability": "view",
					"type": "function"
				},
				{
					"inputs": [],
					"name": "getPrice",
					"outputs": [
						{
							"internalType": "uint256",
							"name": "",
							"type": "uint256"
						}
					],
					"stateMutability": "pure",
					"type": "function"
				}
			],
			"devdoc": {
				"kind": "dev",
				"methods": {},
				"version": 1
			},
			"evm": {
				"assembly": "    /* \"Contracts/FundMe.sol\":57:2916  contract FundMe {... */\n  mstore(0x40, 0x80)\n    /* \"Contracts/FundMe.sol\":163:172  50 * 1e18 */\n  0x02b5e3af16b1880000\n    /* \"Contracts/FundMe.sol\":142:172  uint256 minimumUSD = 50 * 1e18 */\n  0x00\n  sstore\n    /* \"Contracts/FundMe.sol\":57:2916  contract FundMe {... */\n  callvalue\n  dup1\n  iszero\n  tag_1\n  jumpi\n  0x00\n  dup1\n  revert\ntag_1:\n  pop\n  dataSize(sub_0)\n  dup1\n  dataOffset(sub_0)\n  0x00\n  codecopy\n  0x00\n  return\nstop\n\nsub_0: assembly {\n        /* \"Contracts/FundMe.sol\":57:2916  contract FundMe {... */\n      mstore(0x40, 0x80)\n      jumpi(tag_1, lt(calldatasize, 0x04))\n      shr(0xe0, calldataload(0x00))\n      dup1\n      0x3e47d6f3\n      eq\n      tag_2\n      jumpi\n      dup1\n      0x98d5fdca\n      eq\n      tag_3\n      jumpi\n      dup1\n      0xa3908e1b\n      eq\n      tag_4\n      jumpi\n      dup1\n      0xb60d4288\n      eq\n      tag_5\n      jumpi\n      dup1\n      0xdc0d3dff\n      eq\n      tag_6\n      jumpi\n    tag_1:\n      0x00\n      dup1\n      revert\n        /* \"Contracts/FundMe.sol\":333:389  mapping(address => uint256) public addressToAmountFunded */\n    tag_2:\n      callvalue\n      dup1\n      iszero\n      tag_7\n      jumpi\n      0x00\n      dup1\n      revert\n    tag_7:\n      pop\n      tag_8\n      0x04\n      dup1\n      calldatasize\n      sub\n      dup2\n      add\n      swap1\n      tag_9\n      swap2\n      swap1\n      tag_10\n      jump\t// in\n    tag_9:\n      tag_11\n      jump\t// in\n    tag_8:\n      mload(0x40)\n      tag_12\n      swap2\n      swap1\n      tag_13\n      jump\t// in\n    tag_12:\n      mload(0x40)\n      dup1\n      swap2\n      sub\n      swap1\n      return\n        /* \"Contracts/FundMe.sol\":1609:2387  function getPrice() public pure returns(uint256) {... */\n    tag_3:\n      callvalue\n      dup1\n      iszero\n      tag_14\n      jumpi\n      0x00\n      dup1\n      revert\n    tag_14:\n      pop\n      tag_15\n      tag_16\n      jump\t// in\n    tag_15:\n      mload(0x40)\n      tag_17\n      swap2\n      swap1\n      tag_13\n      jump\t// in\n    tag_17:\n      mload(0x40)\n      dup1\n      swap2\n      sub\n      swap1\n      return\n        /* \"Contracts/FundMe.sol\":2394:2913  function convert(uint256 ethAmount) public pure returns(uint256) {... */\n    tag_4:\n      callvalue\n      dup1\n      iszero\n      tag_18\n      jumpi\n      0x00\n      dup1\n      revert\n    tag_18:\n      pop\n      tag_19\n      0x04\n      dup1\n      calldatasize\n      sub\n      dup2\n      add\n      swap1\n      tag_20\n      swap2\n      swap1\n      tag_21\n      jump\t// in\n    tag_20:\n      tag_22\n      jump\t// in\n    tag_19:\n      mload(0x40)\n      tag_23\n      swap2\n      swap1\n      tag_13\n      jump\t// in\n    tag_23:\n      mload(0x40)\n      dup1\n      swap2\n      sub\n      swap1\n      return\n        /* \"Contracts/FundMe.sol\":396:1602  function fund() public payable {... */\n    tag_5:\n      tag_24\n      tag_25\n      jump\t// in\n    tag_24:\n      stop\n        /* \"Contracts/FundMe.sol\":232:256  address[] public funders */\n    tag_6:\n      callvalue\n      dup1\n      iszero\n      tag_26\n      jumpi\n      0x00\n      dup1\n      revert\n    tag_26:\n      pop\n      tag_27\n      0x04\n      dup1\n      calldatasize\n      sub\n      dup2\n      add\n      swap1\n      tag_28\n      swap2\n      swap1\n      tag_21\n      jump\t// in\n    tag_28:\n      tag_29\n      jump\t// in\n    tag_27:\n      mload(0x40)\n      tag_30\n      swap2\n      swap1\n      tag_31\n      jump\t// in\n    tag_30:\n      mload(0x40)\n      dup1\n      swap2\n      sub\n      swap1\n      return\n        /* \"Contracts/FundMe.sol\":333:389  mapping(address => uint256) public addressToAmountFunded */\n    tag_11:\n      mstore(0x20, 0x02)\n      dup1\n      0x00\n      mstore\n      keccak256(0x00, 0x40)\n      0x00\n      swap2\n      pop\n      swap1\n      pop\n      sload\n      dup2\n      jump\t// out\n        /* \"Contracts/FundMe.sol\":1609:2387  function getPrice() public pure returns(uint256) {... */\n    tag_16:\n        /* \"Contracts/FundMe.sol\":1649:1656  uint256 */\n      0x00\n        /* \"Contracts/FundMe.sol\":1715:1728  uint256 price */\n      dup1\n        /* \"Contracts/FundMe.sol\":2269:2282  3000 * 10**18 */\n      0xa2a15d09519be00000\n        /* \"Contracts/FundMe.sol\":2261:2282  price = 3000 * 10**18 */\n      swap1\n      pop\n        /* \"Contracts/FundMe.sol\":2375:2380  price */\n      dup1\n        /* \"Contracts/FundMe.sol\":2368:2380  return price */\n      swap2\n      pop\n      pop\n        /* \"Contracts/FundMe.sol\":1609:2387  function getPrice() public pure returns(uint256) {... */\n      swap1\n      jump\t// out\n        /* \"Contracts/FundMe.sol\":2394:2913  function convert(uint256 ethAmount) public pure returns(uint256) {... */\n    tag_22:\n        /* \"Contracts/FundMe.sol\":2450:2457  uint256 */\n      0x00\n        /* \"Contracts/FundMe.sol\":2687:2703  uint256 ethPrice */\n      dup1\n        /* \"Contracts/FundMe.sol\":2706:2716  getPrice() */\n      tag_34\n        /* \"Contracts/FundMe.sol\":2706:2714  getPrice */\n      tag_16\n        /* \"Contracts/FundMe.sol\":2706:2716  getPrice() */\n      jump\t// in\n    tag_34:\n        /* \"Contracts/FundMe.sol\":2687:2716  uint256 ethPrice = getPrice() */\n      swap1\n      pop\n        /* \"Contracts/FundMe.sol\":2797:2814  uint256 usdAmount */\n      0x00\n        /* \"Contracts/FundMe.sol\":2840:2846  10**18 */\n      0x0de0b6b3a7640000\n        /* \"Contracts/FundMe.sol\":2829:2837  ethPrice */\n      dup3\n        /* \"Contracts/FundMe.sol\":2817:2826  ethAmount */\n      dup6\n        /* \"Contracts/FundMe.sol\":2817:2837  ethAmount * ethPrice */\n      tag_35\n      swap2\n      swap1\n      tag_36\n      jump\t// in\n    tag_35:\n        /* \"Contracts/FundMe.sol\":2817:2846  ethAmount * ethPrice / 10**18 */\n      tag_37\n      swap2\n      swap1\n      tag_38\n      jump\t// in\n    tag_37:\n        /* \"Contracts/FundMe.sol\":2797:2846  uint256 usdAmount = ethAmount * ethPrice / 10**18 */\n      swap1\n      pop\n        /* \"Contracts/FundMe.sol\":2897:2906  usdAmount */\n      dup1\n        /* \"Contracts/FundMe.sol\":2890:2906  return usdAmount */\n      swap3\n      pop\n      pop\n      pop\n        /* \"Contracts/FundMe.sol\":2394:2913  function convert(uint256 ethAmount) public pure returns(uint256) {... */\n      swap2\n      swap1\n      pop\n      jump\t// out\n        /* \"Contracts/FundMe.sol\":396:1602  function fund() public payable {... */\n    tag_25:\n        /* \"Contracts/FundMe.sol\":1174:1184  minimumUSD */\n      sload(0x00)\n        /* \"Contracts/FundMe.sol\":1152:1170  convert(msg.value) */\n      tag_40\n        /* \"Contracts/FundMe.sol\":1160:1169  msg.value */\n      callvalue\n        /* \"Contracts/FundMe.sol\":1152:1159  convert */\n      tag_22\n        /* \"Contracts/FundMe.sol\":1152:1170  convert(msg.value) */\n      jump\t// in\n    tag_40:\n        /* \"Contracts/FundMe.sol\":1152:1184  convert(msg.value) >= minimumUSD */\n      lt\n      iszero\n        /* \"Contracts/FundMe.sol\":1144:1218  require(convert(msg.value) >= minimumUSD, \"You didn't send enough money.\") */\n      tag_41\n      jumpi\n      mload(0x40)\n      0x08c379a000000000000000000000000000000000000000000000000000000000\n      dup2\n      mstore\n      0x04\n      add\n      tag_42\n      swap1\n      tag_43\n      jump\t// in\n    tag_42:\n      mload(0x40)\n      dup1\n      swap2\n      sub\n      swap1\n      revert\n    tag_41:\n        /* \"Contracts/FundMe.sol\":1453:1460  funders */\n      0x01\n        /* \"Contracts/FundMe.sol\":1466:1476  msg.sender */\n      caller\n        /* \"Contracts/FundMe.sol\":1453:1477  funders.push(msg.sender) */\n      swap1\n      dup1\n      0x01\n      dup2\n      sload\n      add\n      dup1\n      dup3\n      sstore\n      dup1\n      swap2\n      pop\n      pop\n      0x01\n      swap1\n      sub\n      swap1\n      0x00\n      mstore\n      keccak256(0x00, 0x20)\n      add\n      0x00\n      swap1\n      swap2\n      swap1\n      swap2\n      swap1\n      swap2\n      0x0100\n      exp\n      dup2\n      sload\n      dup2\n      0xffffffffffffffffffffffffffffffffffffffff\n      mul\n      not\n      and\n      swap1\n      dup4\n      0xffffffffffffffffffffffffffffffffffffffff\n      and\n      mul\n      or\n      swap1\n      sstore\n      pop\n        /* \"Contracts/FundMe.sol\":1586:1595  msg.value */\n      callvalue\n        /* \"Contracts/FundMe.sol\":1549:1570  addressToAmountFunded */\n      0x02\n        /* \"Contracts/FundMe.sol\":1549:1582  addressToAmountFunded[msg.sender] */\n      0x00\n        /* \"Contracts/FundMe.sol\":1571:1581  msg.sender */\n      caller\n        /* \"Contracts/FundMe.sol\":1549:1582  addressToAmountFunded[msg.sender] */\n      0xffffffffffffffffffffffffffffffffffffffff\n      and\n      0xffffffffffffffffffffffffffffffffffffffff\n      and\n      dup2\n      mstore\n      0x20\n      add\n      swap1\n      dup2\n      mstore\n      0x20\n      add\n      0x00\n      keccak256\n      0x00\n        /* \"Contracts/FundMe.sol\":1549:1595  addressToAmountFunded[msg.sender] += msg.value */\n      dup3\n      dup3\n      sload\n      tag_45\n      swap2\n      swap1\n      tag_46\n      jump\t// in\n    tag_45:\n      swap3\n      pop\n      pop\n      dup2\n      swap1\n      sstore\n      pop\n        /* \"Contracts/FundMe.sol\":396:1602  function fund() public payable {... */\n      jump\t// out\n        /* \"Contracts/FundMe.sol\":232:256  address[] public funders */\n    tag_29:\n      0x01\n      dup2\n      dup2\n      sload\n      dup2\n      lt\n      tag_47\n      jumpi\n      0x00\n      dup1\n      revert\n    tag_47:\n      swap1\n      0x00\n      mstore\n      keccak256(0x00, 0x20)\n      add\n      0x00\n      swap2\n      pop\n      sload\n      swap1\n      0x0100\n      exp\n      swap1\n      div\n      0xffffffffffffffffffffffffffffffffffffffff\n      and\n      dup2\n      jump\t// out\n        /* \"#utility.yul\":88:205   */\n    tag_50:\n        /* \"#utility.yul\":197:198   */\n      0x00\n        /* \"#utility.yul\":194:195   */\n      dup1\n        /* \"#utility.yul\":187:199   */\n      revert\n        /* \"#utility.yul\":334:460   */\n    tag_52:\n        /* \"#utility.yul\":371:378   */\n      0x00\n        /* \"#utility.yul\":411:453   */\n      0xffffffffffffffffffffffffffffffffffffffff\n        /* \"#utility.yul\":404:409   */\n      dup3\n        /* \"#utility.yul\":400:454   */\n      and\n        /* \"#utility.yul\":389:454   */\n      swap1\n      pop\n        /* \"#utility.yul\":334:460   */\n      swap2\n      swap1\n      pop\n      jump\t// out\n        /* \"#utility.yul\":466:562   */\n    tag_53:\n        /* \"#utility.yul\":503:510   */\n      0x00\n        /* \"#utility.yul\":532:556   */\n      tag_72\n        /* \"#utility.yul\":550:555   */\n      dup3\n        /* \"#utility.yul\":532:556   */\n      tag_52\n      jump\t// in\n    tag_72:\n        /* \"#utility.yul\":521:556   */\n      swap1\n      pop\n        /* \"#utility.yul\":466:562   */\n      swap2\n      swap1\n      pop\n      jump\t// out\n        /* \"#utility.yul\":568:690   */\n    tag_54:\n        /* \"#utility.yul\":641:665   */\n      tag_74\n        /* \"#utility.yul\":659:664   */\n      dup2\n        /* \"#utility.yul\":641:665   */\n      tag_53\n      jump\t// in\n    tag_74:\n        /* \"#utility.yul\":634:639   */\n      dup2\n        /* \"#utility.yul\":631:666   */\n      eq\n        /* \"#utility.yul\":621:684   */\n      tag_75\n      jumpi\n        /* \"#utility.yul\":680:681   */\n      0x00\n        /* \"#utility.yul\":677:678   */\n      dup1\n        /* \"#utility.yul\":670:682   */\n      revert\n        /* \"#utility.yul\":621:684   */\n    tag_75:\n        /* \"#utility.yul\":568:690   */\n      pop\n      jump\t// out\n        /* \"#utility.yul\":696:835   */\n    tag_55:\n        /* \"#utility.yul\":742:747   */\n      0x00\n        /* \"#utility.yul\":780:786   */\n      dup2\n        /* \"#utility.yul\":767:787   */\n      calldataload\n        /* \"#utility.yul\":758:787   */\n      swap1\n      pop\n        /* \"#utility.yul\":796:829   */\n      tag_77\n        /* \"#utility.yul\":823:828   */\n      dup2\n        /* \"#utility.yul\":796:829   */\n      tag_54\n      jump\t// in\n    tag_77:\n        /* \"#utility.yul\":696:835   */\n      swap3\n      swap2\n      pop\n      pop\n      jump\t// out\n        /* \"#utility.yul\":841:1170   */\n    tag_10:\n        /* \"#utility.yul\":900:906   */\n      0x00\n        /* \"#utility.yul\":949:951   */\n      0x20\n        /* \"#utility.yul\":937:946   */\n      dup3\n        /* \"#utility.yul\":928:935   */\n      dup5\n        /* \"#utility.yul\":924:947   */\n      sub\n        /* \"#utility.yul\":920:952   */\n      slt\n        /* \"#utility.yul\":917:1036   */\n      iszero\n      tag_79\n      jumpi\n        /* \"#utility.yul\":955:1034   */\n      tag_80\n      tag_50\n      jump\t// in\n    tag_80:\n        /* \"#utility.yul\":917:1036   */\n    tag_79:\n        /* \"#utility.yul\":1075:1076   */\n      0x00\n        /* \"#utility.yul\":1100:1153   */\n      tag_81\n        /* \"#utility.yul\":1145:1152   */\n      dup5\n        /* \"#utility.yul\":1136:1142   */\n      dup3\n        /* \"#utility.yul\":1125:1134   */\n      dup6\n        /* \"#utility.yul\":1121:1143   */\n      add\n        /* \"#utility.yul\":1100:1153   */\n      tag_55\n      jump\t// in\n    tag_81:\n        /* \"#utility.yul\":1090:1153   */\n      swap2\n      pop\n        /* \"#utility.yul\":1046:1163   */\n      pop\n        /* \"#utility.yul\":841:1170   */\n      swap3\n      swap2\n      pop\n      pop\n      jump\t// out\n        /* \"#utility.yul\":1176:1253   */\n    tag_56:\n        /* \"#utility.yul\":1213:1220   */\n      0x00\n        /* \"#utility.yul\":1242:1247   */\n      dup2\n        /* \"#utility.yul\":1231:1247   */\n      swap1\n      pop\n        /* \"#utility.yul\":1176:1253   */\n      swap2\n      swap1\n      pop\n      jump\t// out\n        /* \"#utility.yul\":1259:1377   */\n    tag_57:\n        /* \"#utility.yul\":1346:1370   */\n      tag_84\n        /* \"#utility.yul\":1364:1369   */\n      dup2\n        /* \"#utility.yul\":1346:1370   */\n      tag_56\n      jump\t// in\n    tag_84:\n        /* \"#utility.yul\":1341:1344   */\n      dup3\n        /* \"#utility.yul\":1334:1371   */\n      mstore\n        /* \"#utility.yul\":1259:1377   */\n      pop\n      pop\n      jump\t// out\n        /* \"#utility.yul\":1383:1605   */\n    tag_13:\n        /* \"#utility.yul\":1476:1480   */\n      0x00\n        /* \"#utility.yul\":1514:1516   */\n      0x20\n        /* \"#utility.yul\":1503:1512   */\n      dup3\n        /* \"#utility.yul\":1499:1517   */\n      add\n        /* \"#utility.yul\":1491:1517   */\n      swap1\n      pop\n        /* \"#utility.yul\":1527:1598   */\n      tag_86\n        /* \"#utility.yul\":1595:1596   */\n      0x00\n        /* \"#utility.yul\":1584:1593   */\n      dup4\n        /* \"#utility.yul\":1580:1597   */\n      add\n        /* \"#utility.yul\":1571:1577   */\n      dup5\n        /* \"#utility.yul\":1527:1598   */\n      tag_57\n      jump\t// in\n    tag_86:\n        /* \"#utility.yul\":1383:1605   */\n      swap3\n      swap2\n      pop\n      pop\n      jump\t// out\n        /* \"#utility.yul\":1611:1733   */\n    tag_58:\n        /* \"#utility.yul\":1684:1708   */\n      tag_88\n        /* \"#utility.yul\":1702:1707   */\n      dup2\n        /* \"#utility.yul\":1684:1708   */\n      tag_56\n      jump\t// in\n    tag_88:\n        /* \"#utility.yul\":1677:1682   */\n      dup2\n        /* \"#utility.yul\":1674:1709   */\n      eq\n        /* \"#utility.yul\":1664:1727   */\n      tag_89\n      jumpi\n        /* \"#utility.yul\":1723:1724   */\n      0x00\n        /* \"#utility.yul\":1720:1721   */\n      dup1\n        /* \"#utility.yul\":1713:1725   */\n      revert\n        /* \"#utility.yul\":1664:1727   */\n    tag_89:\n        /* \"#utility.yul\":1611:1733   */\n      pop\n      jump\t// out\n        /* \"#utility.yul\":1739:1878   */\n    tag_59:\n        /* \"#utility.yul\":1785:1790   */\n      0x00\n        /* \"#utility.yul\":1823:1829   */\n      dup2\n        /* \"#utility.yul\":1810:1830   */\n      calldataload\n        /* \"#utility.yul\":1801:1830   */\n      swap1\n      pop\n        /* \"#utility.yul\":1839:1872   */\n      tag_91\n        /* \"#utility.yul\":1866:1871   */\n      dup2\n        /* \"#utility.yul\":1839:1872   */\n      tag_58\n      jump\t// in\n    tag_91:\n        /* \"#utility.yul\":1739:1878   */\n      swap3\n      swap2\n      pop\n      pop\n      jump\t// out\n        /* \"#utility.yul\":1884:2213   */\n    tag_21:\n        /* \"#utility.yul\":1943:1949   */\n      0x00\n        /* \"#utility.yul\":1992:1994   */\n      0x20\n        /* \"#utility.yul\":1980:1989   */\n      dup3\n        /* \"#utility.yul\":1971:1978   */\n      dup5\n        /* \"#utility.yul\":1967:1990   */\n      sub\n        /* \"#utility.yul\":1963:1995   */\n      slt\n        /* \"#utility.yul\":1960:2079   */\n      iszero\n      tag_93\n      jumpi\n        /* \"#utility.yul\":1998:2077   */\n      tag_94\n      tag_50\n      jump\t// in\n    tag_94:\n        /* \"#utility.yul\":1960:2079   */\n    tag_93:\n        /* \"#utility.yul\":2118:2119   */\n      0x00\n        /* \"#utility.yul\":2143:2196   */\n      tag_95\n        /* \"#utility.yul\":2188:2195   */\n      dup5\n        /* \"#utility.yul\":2179:2185   */\n      dup3\n        /* \"#utility.yul\":2168:2177   */\n      dup6\n        /* \"#utility.yul\":2164:2186   */\n      add\n        /* \"#utility.yul\":2143:2196   */\n      tag_59\n      jump\t// in\n    tag_95:\n        /* \"#utility.yul\":2133:2196   */\n      swap2\n      pop\n        /* \"#utility.yul\":2089:2206   */\n      pop\n        /* \"#utility.yul\":1884:2213   */\n      swap3\n      swap2\n      pop\n      pop\n      jump\t// out\n        /* \"#utility.yul\":2219:2337   */\n    tag_60:\n        /* \"#utility.yul\":2306:2330   */\n      tag_97\n        /* \"#utility.yul\":2324:2329   */\n      dup2\n        /* \"#utility.yul\":2306:2330   */\n      tag_53\n      jump\t// in\n    tag_97:\n        /* \"#utility.yul\":2301:2304   */\n      dup3\n        /* \"#utility.yul\":2294:2331   */\n      mstore\n        /* \"#utility.yul\":2219:2337   */\n      pop\n      pop\n      jump\t// out\n        /* \"#utility.yul\":2343:2565   */\n    tag_31:\n        /* \"#utility.yul\":2436:2440   */\n      0x00\n        /* \"#utility.yul\":2474:2476   */\n      0x20\n        /* \"#utility.yul\":2463:2472   */\n      dup3\n        /* \"#utility.yul\":2459:2477   */\n      add\n        /* \"#utility.yul\":2451:2477   */\n      swap1\n      pop\n        /* \"#utility.yul\":2487:2558   */\n      tag_99\n        /* \"#utility.yul\":2555:2556   */\n      0x00\n        /* \"#utility.yul\":2544:2553   */\n      dup4\n        /* \"#utility.yul\":2540:2557   */\n      add\n        /* \"#utility.yul\":2531:2537   */\n      dup5\n        /* \"#utility.yul\":2487:2558   */\n      tag_60\n      jump\t// in\n    tag_99:\n        /* \"#utility.yul\":2343:2565   */\n      swap3\n      swap2\n      pop\n      pop\n      jump\t// out\n        /* \"#utility.yul\":2571:2751   */\n    tag_61:\n        /* \"#utility.yul\":2619:2696   */\n      0x4e487b7100000000000000000000000000000000000000000000000000000000\n        /* \"#utility.yul\":2616:2617   */\n      0x00\n        /* \"#utility.yul\":2609:2697   */\n      mstore\n        /* \"#utility.yul\":2716:2720   */\n      0x11\n        /* \"#utility.yul\":2713:2714   */\n      0x04\n        /* \"#utility.yul\":2706:2721   */\n      mstore\n        /* \"#utility.yul\":2740:2744   */\n      0x24\n        /* \"#utility.yul\":2737:2738   */\n      0x00\n        /* \"#utility.yul\":2730:2745   */\n      revert\n        /* \"#utility.yul\":2757:3167   */\n    tag_36:\n        /* \"#utility.yul\":2797:2804   */\n      0x00\n        /* \"#utility.yul\":2820:2840   */\n      tag_102\n        /* \"#utility.yul\":2838:2839   */\n      dup3\n        /* \"#utility.yul\":2820:2840   */\n      tag_56\n      jump\t// in\n    tag_102:\n        /* \"#utility.yul\":2815:2840   */\n      swap2\n      pop\n        /* \"#utility.yul\":2854:2874   */\n      tag_103\n        /* \"#utility.yul\":2872:2873   */\n      dup4\n        /* \"#utility.yul\":2854:2874   */\n      tag_56\n      jump\t// in\n    tag_103:\n        /* \"#utility.yul\":2849:2874   */\n      swap3\n      pop\n        /* \"#utility.yul\":2909:2910   */\n      dup3\n        /* \"#utility.yul\":2906:2907   */\n      dup3\n        /* \"#utility.yul\":2902:2911   */\n      mul\n        /* \"#utility.yul\":2931:2961   */\n      tag_104\n        /* \"#utility.yul\":2949:2960   */\n      dup2\n        /* \"#utility.yul\":2931:2961   */\n      tag_56\n      jump\t// in\n    tag_104:\n        /* \"#utility.yul\":2920:2961   */\n      swap2\n      pop\n        /* \"#utility.yul\":3110:3111   */\n      dup3\n        /* \"#utility.yul\":3101:3108   */\n      dup3\n        /* \"#utility.yul\":3097:3112   */\n      div\n        /* \"#utility.yul\":3094:3095   */\n      dup5\n        /* \"#utility.yul\":3091:3113   */\n      eq\n        /* \"#utility.yul\":3071:3072   */\n      dup4\n        /* \"#utility.yul\":3064:3073   */\n      iszero\n        /* \"#utility.yul\":3044:3127   */\n      or\n        /* \"#utility.yul\":3021:3160   */\n      tag_105\n      jumpi\n        /* \"#utility.yul\":3140:3158   */\n      tag_106\n      tag_61\n      jump\t// in\n    tag_106:\n        /* \"#utility.yul\":3021:3160   */\n    tag_105:\n        /* \"#utility.yul\":2805:3167   */\n      pop\n        /* \"#utility.yul\":2757:3167   */\n      swap3\n      swap2\n      pop\n      pop\n      jump\t// out\n        /* \"#utility.yul\":3173:3353   */\n    tag_62:\n        /* \"#utility.yul\":3221:3298   */\n      0x4e487b7100000000000000000000000000000000000000000000000000000000\n        /* \"#utility.yul\":3218:3219   */\n      0x00\n        /* \"#utility.yul\":3211:3299   */\n      mstore\n        /* \"#utility.yul\":3318:3322   */\n      0x12\n        /* \"#utility.yul\":3315:3316   */\n      0x04\n        /* \"#utility.yul\":3308:3323   */\n      mstore\n        /* \"#utility.yul\":3342:3346   */\n      0x24\n        /* \"#utility.yul\":3339:3340   */\n      0x00\n        /* \"#utility.yul\":3332:3347   */\n      revert\n        /* \"#utility.yul\":3359:3544   */\n    tag_38:\n        /* \"#utility.yul\":3399:3400   */\n      0x00\n        /* \"#utility.yul\":3416:3436   */\n      tag_109\n        /* \"#utility.yul\":3434:3435   */\n      dup3\n        /* \"#utility.yul\":3416:3436   */\n      tag_56\n      jump\t// in\n    tag_109:\n        /* \"#utility.yul\":3411:3436   */\n      swap2\n      pop\n        /* \"#utility.yul\":3450:3470   */\n      tag_110\n        /* \"#utility.yul\":3468:3469   */\n      dup4\n        /* \"#utility.yul\":3450:3470   */\n      tag_56\n      jump\t// in\n    tag_110:\n        /* \"#utility.yul\":3445:3470   */\n      swap3\n      pop\n        /* \"#utility.yul\":3489:3490   */\n      dup3\n        /* \"#utility.yul\":3479:3514   */\n      tag_111\n      jumpi\n        /* \"#utility.yul\":3494:3512   */\n      tag_112\n      tag_62\n      jump\t// in\n    tag_112:\n        /* \"#utility.yul\":3479:3514   */\n    tag_111:\n        /* \"#utility.yul\":3536:3537   */\n      dup3\n        /* \"#utility.yul\":3533:3534   */\n      dup3\n        /* \"#utility.yul\":3529:3538   */\n      div\n        /* \"#utility.yul\":3524:3538   */\n      swap1\n      pop\n        /* \"#utility.yul\":3359:3544   */\n      swap3\n      swap2\n      pop\n      pop\n      jump\t// out\n        /* \"#utility.yul\":3550:3719   */\n    tag_63:\n        /* \"#utility.yul\":3634:3645   */\n      0x00\n        /* \"#utility.yul\":3668:3674   */\n      dup3\n        /* \"#utility.yul\":3663:3666   */\n      dup3\n        /* \"#utility.yul\":3656:3675   */\n      mstore\n        /* \"#utility.yul\":3708:3712   */\n      0x20\n        /* \"#utility.yul\":3703:3706   */\n      dup3\n        /* \"#utility.yul\":3699:3713   */\n      add\n        /* \"#utility.yul\":3684:3713   */\n      swap1\n      pop\n        /* \"#utility.yul\":3550:3719   */\n      swap3\n      swap2\n      pop\n      pop\n      jump\t// out\n        /* \"#utility.yul\":3725:3904   */\n    tag_64:\n        /* \"#utility.yul\":3865:3896   */\n      0x596f75206469646e27742073656e6420656e6f756768206d6f6e65792e000000\n        /* \"#utility.yul\":3861:3862   */\n      0x00\n        /* \"#utility.yul\":3853:3859   */\n      dup3\n        /* \"#utility.yul\":3849:3863   */\n      add\n        /* \"#utility.yul\":3842:3897   */\n      mstore\n        /* \"#utility.yul\":3725:3904   */\n      pop\n      jump\t// out\n        /* \"#utility.yul\":3910:4276   */\n    tag_65:\n        /* \"#utility.yul\":4052:4055   */\n      0x00\n        /* \"#utility.yul\":4073:4140   */\n      tag_116\n        /* \"#utility.yul\":4137:4139   */\n      0x1d\n        /* \"#utility.yul\":4132:4135   */\n      dup4\n        /* \"#utility.yul\":4073:4140   */\n      tag_63\n      jump\t// in\n    tag_116:\n        /* \"#utility.yul\":4066:4140   */\n      swap2\n      pop\n        /* \"#utility.yul\":4149:4242   */\n      tag_117\n        /* \"#utility.yul\":4238:4241   */\n      dup3\n        /* \"#utility.yul\":4149:4242   */\n      tag_64\n      jump\t// in\n    tag_117:\n        /* \"#utility.yul\":4267:4269   */\n      0x20\n        /* \"#utility.yul\":4262:4265   */\n      dup3\n        /* \"#utility.yul\":4258:4270   */\n      add\n        /* \"#utility.yul\":4251:4270   */\n      swap1\n      pop\n        /* \"#utility.yul\":3910:4276   */\n      swap2\n      swap1\n      pop\n      jump\t// out\n        /* \"#utility.yul\":4282:4701   */\n    tag_43:\n        /* \"#utility.yul\":4448:4452   */\n      0x00\n        /* \"#utility.yul\":4486:4488   */\n      0x20\n        /* \"#utility.yul\":4475:4484   */\n      dup3\n        /* \"#utility.yul\":4471:4489   */\n      add\n        /* \"#utility.yul\":4463:4489   */\n      swap1\n      pop\n        /* \"#utility.yul\":4535:4544   */\n      dup2\n        /* \"#utility.yul\":4529:4533   */\n      dup2\n        /* \"#utility.yul\":4525:4545   */\n      sub\n        /* \"#utility.yul\":4521:4522   */\n      0x00\n        /* \"#utility.yul\":4510:4519   */\n      dup4\n        /* \"#utility.yul\":4506:4523   */\n      add\n        /* \"#utility.yul\":4499:4546   */\n      mstore\n        /* \"#utility.yul\":4563:4694   */\n      tag_119\n        /* \"#utility.yul\":4689:4693   */\n      dup2\n        /* \"#utility.yul\":4563:4694   */\n      tag_65\n      jump\t// in\n    tag_119:\n        /* \"#utility.yul\":4555:4694   */\n      swap1\n      pop\n        /* \"#utility.yul\":4282:4701   */\n      swap2\n      swap1\n      pop\n      jump\t// out\n        /* \"#utility.yul\":4707:4898   */\n    tag_46:\n        /* \"#utility.yul\":4747:4750   */\n      0x00\n        /* \"#utility.yul\":4766:4786   */\n      tag_121\n        /* \"#utility.yul\":4784:4785   */\n      dup3\n        /* \"#utility.yul\":4766:4786   */\n      tag_56\n      jump\t// in\n    tag_121:\n        /* \"#utility.yul\":4761:4786   */\n      swap2\n      pop\n        /* \"#utility.yul\":4800:4820   */\n      tag_122\n        /* \"#utility.yul\":4818:4819   */\n      dup4\n        /* \"#utility.yul\":4800:4820   */\n      tag_56\n      jump\t// in\n    tag_122:\n        /* \"#utility.yul\":4795:4820   */\n      swap3\n      pop\n        /* \"#utility.yul\":4843:4844   */\n      dup3\n        /* \"#utility.yul\":4840:4841   */\n      dup3\n        /* \"#utility.yul\":4836:4845   */\n      add\n        /* \"#utility.yul\":4829:4845   */\n      swap1\n      pop\n        /* \"#utility.yul\":4864:4867   */\n      dup1\n        /* \"#utility.yul\":4861:4862   */\n      dup3\n        /* \"#utility.yul\":4858:4868   */\n      gt\n        /* \"#utility.yul\":4855:4891   */\n      iszero\n      tag_123\n      jumpi\n        /* \"#utility.yul\":4871:4889   */\n      tag_124\n      tag_61\n      jump\t// in\n    tag_124:\n        /* \"#utility.yul\":4855:4891   */\n    tag_123:\n        /* \"#utility.yul\":4707:4898   */\n      swap3\n      swap2\n      pop\n      pop\n      jump\t// out\n\n    auxdata: 0xa2646970667358221220f521c5b07ab58a81e359c4eaf41c9fd11beee271568c9905e3ebc3fac6dc366464736f6c63430008140033\n}\n",
				"bytecode": {
					"linkReferences": {},
					"object": "60806040526802b5e3af16b18800005f5534801561001b575f80fd5b506105b6806100295f395ff3fe608060405260043610610049575f3560e01c80633e47d6f31461004d57806398d5fdca14610089578063a3908e1b146100b3578063b60d4288146100ef578063dc0d3dff146100f9575b5f80fd5b348015610058575f80fd5b50610073600480360381019061006e9190610331565b610135565b6040516100809190610374565b60405180910390f35b348015610094575f80fd5b5061009d61014a565b6040516100aa9190610374565b60405180910390f35b3480156100be575f80fd5b506100d960048036038101906100d491906103b7565b61015f565b6040516100e69190610374565b60405180910390f35b6100f7610197565b005b348015610104575f80fd5b5061011f600480360381019061011a91906103b7565b610298565b60405161012c91906103f1565b60405180910390f35b6002602052805f5260405f205f915090505481565b5f8068a2a15d09519be0000090508091505090565b5f8061016961014a565b90505f670de0b6b3a764000082856101819190610437565b61018b91906104a5565b90508092505050919050565b5f546101a23461015f565b10156101e3576040517f08c379a00000000000000000000000000000000000000000000000000000000081526004016101da9061052f565b60405180910390fd5b600133908060018154018082558091505060019003905f5260205f20015f9091909190916101000a81548173ffffffffffffffffffffffffffffffffffffffff021916908373ffffffffffffffffffffffffffffffffffffffff1602179055503460025f3373ffffffffffffffffffffffffffffffffffffffff1673ffffffffffffffffffffffffffffffffffffffff1681526020019081526020015f205f82825461028f919061054d565b92505081905550565b600181815481106102a7575f80fd5b905f5260205f20015f915054906101000a900473ffffffffffffffffffffffffffffffffffffffff1681565b5f80fd5b5f73ffffffffffffffffffffffffffffffffffffffff82169050919050565b5f610300826102d7565b9050919050565b610310816102f6565b811461031a575f80fd5b50565b5f8135905061032b81610307565b92915050565b5f60208284031215610346576103456102d3565b5b5f6103538482850161031d565b91505092915050565b5f819050919050565b61036e8161035c565b82525050565b5f6020820190506103875f830184610365565b92915050565b6103968161035c565b81146103a0575f80fd5b50565b5f813590506103b18161038d565b92915050565b5f602082840312156103cc576103cb6102d3565b5b5f6103d9848285016103a3565b91505092915050565b6103eb816102f6565b82525050565b5f6020820190506104045f8301846103e2565b92915050565b7f4e487b71000000000000000000000000000000000000000000000000000000005f52601160045260245ffd5b5f6104418261035c565b915061044c8361035c565b925082820261045a8161035c565b915082820484148315176104715761047061040a565b5b5092915050565b7f4e487b71000000000000000000000000000000000000000000000000000000005f52601260045260245ffd5b5f6104af8261035c565b91506104ba8361035c565b9250826104ca576104c9610478565b5b828204905092915050565b5f82825260208201905092915050565b7f596f75206469646e27742073656e6420656e6f756768206d6f6e65792e0000005f82015250565b5f610519601d836104d5565b9150610524826104e5565b602082019050919050565b5f6020820190508181035f8301526105468161050d565b9050919050565b5f6105578261035c565b91506105628361035c565b925082820190508082111561057a5761057961040a565b5b9291505056fea2646970667358221220f521c5b07ab58a81e359c4eaf41c9fd11beee271568c9905e3ebc3fac6dc366464736f6c63430008140033",
					"opcodes": "PUSH1 0x80 PUSH1 0x40 MSTORE PUSH9 0x2B5E3AF16B1880000 PUSH0 SSTORE CALLVALUE DUP1 ISZERO PUSH2 0x1B JUMPI PUSH0 DUP1 REVERT JUMPDEST POP PUSH2 0x5B6 DUP1 PUSH2 0x29 PUSH0 CODECOPY PUSH0 RETURN INVALID PUSH1 0x80 PUSH1 0x40 MSTORE PUSH1 0x4 CALLDATASIZE LT PUSH2 0x49 JUMPI PUSH0 CALLDATALOAD PUSH1 0xE0 SHR DUP1 PUSH4 0x3E47D6F3 EQ PUSH2 0x4D JUMPI DUP1 PUSH4 0x98D5FDCA EQ PUSH2 0x89 JUMPI DUP1 PUSH4 0xA3908E1B EQ PUSH2 0xB3 JUMPI DUP1 PUSH4 0xB60D4288 EQ PUSH2 0xEF JUMPI DUP1 PUSH4 0xDC0D3DFF EQ PUSH2 0xF9 JUMPI JUMPDEST PUSH0 DUP1 REVERT JUMPDEST CALLVALUE DUP1 ISZERO PUSH2 0x58 JUMPI PUSH0 DUP1 REVERT JUMPDEST POP PUSH2 0x73 PUSH1 0x4 DUP1 CALLDATASIZE SUB DUP2 ADD SWAP1 PUSH2 0x6E SWAP2 SWAP1 PUSH2 0x331 JUMP JUMPDEST PUSH2 0x135 JUMP JUMPDEST PUSH1 0x40 MLOAD PUSH2 0x80 SWAP2 SWAP1 PUSH2 0x374 JUMP JUMPDEST PUSH1 0x40 MLOAD DUP1 SWAP2 SUB SWAP1 RETURN JUMPDEST CALLVALUE DUP1 ISZERO PUSH2 0x94 JUMPI PUSH0 DUP1 REVERT JUMPDEST POP PUSH2 0x9D PUSH2 0x14A JUMP JUMPDEST PUSH1 0x40 MLOAD PUSH2 0xAA SWAP2 SWAP1 PUSH2 0x374 JUMP JUMPDEST PUSH1 0x40 MLOAD DUP1 SWAP2 SUB SWAP1 RETURN JUMPDEST CALLVALUE DUP1 ISZERO PUSH2 0xBE JUMPI PUSH0 DUP1 REVERT JUMPDEST POP PUSH2 0xD9 PUSH1 0x4 DUP1 CALLDATASIZE SUB DUP2 ADD SWAP1 PUSH2 0xD4 SWAP2 SWAP1 PUSH2 0x3B7 JUMP JUMPDEST PUSH2 0x15F JUMP JUMPDEST PUSH1 0x40 MLOAD PUSH2 0xE6 SWAP2 SWAP1 PUSH2 0x374 JUMP JUMPDEST PUSH1 0x40 MLOAD DUP1 SWAP2 SUB SWAP1 RETURN JUMPDEST PUSH2 0xF7 PUSH2 0x197 JUMP JUMPDEST STOP JUMPDEST CALLVALUE DUP1 ISZERO PUSH2 0x104 JUMPI PUSH0 DUP1 REVERT JUMPDEST POP PUSH2 0x11F PUSH1 0x4 DUP1 CALLDATASIZE SUB DUP2 ADD SWAP1 PUSH2 0x11A SWAP2 SWAP1 PUSH2 0x3B7 JUMP JUMPDEST PUSH2 0x298 JUMP JUMPDEST PUSH1 0x40 MLOAD PUSH2 0x12C SWAP2 SWAP1 PUSH2 0x3F1 JUMP JUMPDEST PUSH1 0x40 MLOAD DUP1 SWAP2 SUB SWAP1 RETURN JUMPDEST PUSH1 0x2 PUSH1 0x20 MSTORE DUP1 PUSH0 MSTORE PUSH1 0x40 PUSH0 KECCAK256 PUSH0 SWAP2 POP SWAP1 POP SLOAD DUP2 JUMP JUMPDEST PUSH0 DUP1 PUSH9 0xA2A15D09519BE00000 SWAP1 POP DUP1 SWAP2 POP POP SWAP1 JUMP JUMPDEST PUSH0 DUP1 PUSH2 0x169 PUSH2 0x14A JUMP JUMPDEST SWAP1 POP PUSH0 PUSH8 0xDE0B6B3A7640000 DUP3 DUP6 PUSH2 0x181 SWAP2 SWAP1 PUSH2 0x437 JUMP JUMPDEST PUSH2 0x18B SWAP2 SWAP1 PUSH2 0x4A5 JUMP JUMPDEST SWAP1 POP DUP1 SWAP3 POP POP POP SWAP2 SWAP1 POP JUMP JUMPDEST PUSH0 SLOAD PUSH2 0x1A2 CALLVALUE PUSH2 0x15F JUMP JUMPDEST LT ISZERO PUSH2 0x1E3 JUMPI PUSH1 0x40 MLOAD PUSH32 0x8C379A000000000000000000000000000000000000000000000000000000000 DUP2 MSTORE PUSH1 0x4 ADD PUSH2 0x1DA SWAP1 PUSH2 0x52F JUMP JUMPDEST PUSH1 0x40 MLOAD DUP1 SWAP2 SUB SWAP1 REVERT JUMPDEST PUSH1 0x1 CALLER SWAP1 DUP1 PUSH1 0x1 DUP2 SLOAD ADD DUP1 DUP3 SSTORE DUP1 SWAP2 POP POP PUSH1 0x1 SWAP1 SUB SWAP1 PUSH0 MSTORE PUSH1 0x20 PUSH0 KECCAK256 ADD PUSH0 SWAP1 SWAP2 SWAP1 SWAP2 SWAP1 SWAP2 PUSH2 0x100 EXP DUP2 SLOAD DUP2 PUSH20 0xFFFFFFFFFFFFFFFFFFFFFFFFFFFFFFFFFFFFFFFF MUL NOT AND SWAP1 DUP4 PUSH20 0xFFFFFFFFFFFFFFFFFFFFFFFFFFFFFFFFFFFFFFFF AND MUL OR SWAP1 SSTORE POP CALLVALUE PUSH1 0x2 PUSH0 CALLER PUSH20 0xFFFFFFFFFFFFFFFFFFFFFFFFFFFFFFFFFFFFFFFF AND PUSH20 0xFFFFFFFFFFFFFFFFFFFFFFFFFFFFFFFFFFFFFFFF AND DUP2 MSTORE PUSH1 0x20 ADD SWAP1 DUP2 MSTORE PUSH1 0x20 ADD PUSH0 KECCAK256 PUSH0 DUP3 DUP3 SLOAD PUSH2 0x28F SWAP2 SWAP1 PUSH2 0x54D JUMP JUMPDEST SWAP3 POP POP DUP2 SWAP1 SSTORE POP JUMP JUMPDEST PUSH1 0x1 DUP2 DUP2 SLOAD DUP2 LT PUSH2 0x2A7 JUMPI PUSH0 DUP1 REVERT JUMPDEST SWAP1 PUSH0 MSTORE PUSH1 0x20 PUSH0 KECCAK256 ADD PUSH0 SWAP2 POP SLOAD SWAP1 PUSH2 0x100 EXP SWAP1 DIV PUSH20 0xFFFFFFFFFFFFFFFFFFFFFFFFFFFFFFFFFFFFFFFF AND DUP2 JUMP JUMPDEST PUSH0 DUP1 REVERT JUMPDEST PUSH0 PUSH20 0xFFFFFFFFFFFFFFFFFFFFFFFFFFFFFFFFFFFFFFFF DUP3 AND SWAP1 POP SWAP2 SWAP1 POP JUMP JUMPDEST PUSH0 PUSH2 0x300 DUP3 PUSH2 0x2D7 JUMP JUMPDEST SWAP1 POP SWAP2 SWAP1 POP JUMP JUMPDEST PUSH2 0x310 DUP2 PUSH2 0x2F6 JUMP JUMPDEST DUP2 EQ PUSH2 0x31A JUMPI PUSH0 DUP1 REVERT JUMPDEST POP JUMP JUMPDEST PUSH0 DUP2 CALLDATALOAD SWAP1 POP PUSH2 0x32B DUP2 PUSH2 0x307 JUMP JUMPDEST SWAP3 SWAP2 POP POP JUMP JUMPDEST PUSH0 PUSH1 0x20 DUP3 DUP5 SUB SLT ISZERO PUSH2 0x346 JUMPI PUSH2 0x345 PUSH2 0x2D3 JUMP JUMPDEST JUMPDEST PUSH0 PUSH2 0x353 DUP5 DUP3 DUP6 ADD PUSH2 0x31D JUMP JUMPDEST SWAP2 POP POP SWAP3 SWAP2 POP POP JUMP JUMPDEST PUSH0 DUP2 SWAP1 POP SWAP2 SWAP1 POP JUMP JUMPDEST PUSH2 0x36E DUP2 PUSH2 0x35C JUMP JUMPDEST DUP3 MSTORE POP POP JUMP JUMPDEST PUSH0 PUSH1 0x20 DUP3 ADD SWAP1 POP PUSH2 0x387 PUSH0 DUP4 ADD DUP5 PUSH2 0x365 JUMP JUMPDEST SWAP3 SWAP2 POP POP JUMP JUMPDEST PUSH2 0x396 DUP2 PUSH2 0x35C JUMP JUMPDEST DUP2 EQ PUSH2 0x3A0 JUMPI PUSH0 DUP1 REVERT JUMPDEST POP JUMP JUMPDEST PUSH0 DUP2 CALLDATALOAD SWAP1 POP PUSH2 0x3B1 DUP2 PUSH2 0x38D JUMP JUMPDEST SWAP3 SWAP2 POP POP JUMP JUMPDEST PUSH0 PUSH1 0x20 DUP3 DUP5 SUB SLT ISZERO PUSH2 0x3CC JUMPI PUSH2 0x3CB PUSH2 0x2D3 JUMP JUMPDEST JUMPDEST PUSH0 PUSH2 0x3D9 DUP5 DUP3 DUP6 ADD PUSH2 0x3A3 JUMP JUMPDEST SWAP2 POP POP SWAP3 SWAP2 POP POP JUMP JUMPDEST PUSH2 0x3EB DUP2 PUSH2 0x2F6 JUMP JUMPDEST DUP3 MSTORE POP POP JUMP JUMPDEST PUSH0 PUSH1 0x20 DUP3 ADD SWAP1 POP PUSH2 0x404 PUSH0 DUP4 ADD DUP5 PUSH2 0x3E2 JUMP JUMPDEST SWAP3 SWAP2 POP POP JUMP JUMPDEST PUSH32 0x4E487B7100000000000000000000000000000000000000000000000000000000 PUSH0 MSTORE PUSH1 0x11 PUSH1 0x4 MSTORE PUSH1 0x24 PUSH0 REVERT JUMPDEST PUSH0 PUSH2 0x441 DUP3 PUSH2 0x35C JUMP JUMPDEST SWAP2 POP PUSH2 0x44C DUP4 PUSH2 0x35C JUMP JUMPDEST SWAP3 POP DUP3 DUP3 MUL PUSH2 0x45A DUP2 PUSH2 0x35C JUMP JUMPDEST SWAP2 POP DUP3 DUP3 DIV DUP5 EQ DUP4 ISZERO OR PUSH2 0x471 JUMPI PUSH2 0x470 PUSH2 0x40A JUMP JUMPDEST JUMPDEST POP SWAP3 SWAP2 POP POP JUMP JUMPDEST PUSH32 0x4E487B7100000000000000000000000000000000000000000000000000000000 PUSH0 MSTORE PUSH1 0x12 PUSH1 0x4 MSTORE PUSH1 0x24 PUSH0 REVERT JUMPDEST PUSH0 PUSH2 0x4AF DUP3 PUSH2 0x35C JUMP JUMPDEST SWAP2 POP PUSH2 0x4BA DUP4 PUSH2 0x35C JUMP JUMPDEST SWAP3 POP DUP3 PUSH2 0x4CA JUMPI PUSH2 0x4C9 PUSH2 0x478 JUMP JUMPDEST JUMPDEST DUP3 DUP3 DIV SWAP1 POP SWAP3 SWAP2 POP POP JUMP JUMPDEST PUSH0 DUP3 DUP3 MSTORE PUSH1 0x20 DUP3 ADD SWAP1 POP SWAP3 SWAP2 POP POP JUMP JUMPDEST PUSH32 0x596F75206469646E27742073656E6420656E6F756768206D6F6E65792E000000 PUSH0 DUP3 ADD MSTORE POP JUMP JUMPDEST PUSH0 PUSH2 0x519 PUSH1 0x1D DUP4 PUSH2 0x4D5 JUMP JUMPDEST SWAP2 POP PUSH2 0x524 DUP3 PUSH2 0x4E5 JUMP JUMPDEST PUSH1 0x20 DUP3 ADD SWAP1 POP SWAP2 SWAP1 POP JUMP JUMPDEST PUSH0 PUSH1 0x20 DUP3 ADD SWAP1 POP DUP2 DUP2 SUB PUSH0 DUP4 ADD MSTORE PUSH2 0x546 DUP2 PUSH2 0x50D JUMP JUMPDEST SWAP1 POP SWAP2 SWAP1 POP JUMP JUMPDEST PUSH0 PUSH2 0x557 DUP3 PUSH2 0x35C JUMP JUMPDEST SWAP2 POP PUSH2 0x562 DUP4 PUSH2 0x35C JUMP JUMPDEST SWAP3 POP DUP3 DUP3 ADD SWAP1 POP DUP1 DUP3 GT ISZERO PUSH2 0x57A JUMPI PUSH2 0x579 PUSH2 0x40A JUMP JUMPDEST JUMPDEST SWAP3 SWAP2 POP POP JUMP INVALID LOG2 PUSH5 0x6970667358 0x22 SLT KECCAK256 CREATE2 0x21 0xC5 0xB0 PUSH27 0xB58A81E359C4EAF41C9FD11BEEE271568C9905E3EBC3FAC6DC3664 PUSH5 0x736F6C6343 STOP ADDMOD EQ STOP CALLER "
				},
				"gasEstimates": {
					"creation": {
						"codeDepositCost": "292400",
						"executionCost": "22434",
						"totalCost": "314834"
					},
					"external": {
						"addressToAmountFunded(address)": "2780",
						"convert(uint256)": "infinite",
						"fund()": "infinite",
						"funders(uint256)": "5010",
						"getPrice()": "345"
					}
				},
				"methodIdentifiers": {
					"addressToAmountFunded(address)": "3e47d6f3",
					"convert(uint256)": "a3908e1b",
					"fund()": "b60d4288",
					"funders(uint256)": "dc0d3dff",
					"getPrice()": "98d5fdca"
				}
			},
			"storageLayout": {
				"storage": [
					{
						"astId": 6,
						"contract": "Contracts/FundMe.sol:FundMe",
						"label": "minimumUSD",
						"offset": 0,
						"slot": "0",
						"type": "t_uint256"
					},
					{
						"astId": 9,
						"contract": "Contracts/FundMe.sol:FundMe",
						"label": "funders",
						"offset": 0,
						"slot": "1",
						"type": "t_array(t_address)dyn_storage"
					},
					{
						"astId": 13,
						"contract": "Contracts/FundMe.sol:FundMe",
						"label": "addressToAmountFunded",
						"offset": 0,
						"slot": "2",
						"type": "t_mapping(t_address,t_uint256)"
					}
				],
				"types": {
					"t_address": {
						"encoding": "inplace",
						"label": "address",
						"numberOfBytes": "20"
					},
					"t_array(t_address)dyn_storage": {
						"base": "t_address",
						"encoding": "dynamic_array",
						"label": "address[]",
						"numberOfBytes": "32"
					},
					"t_mapping(t_address,t_uint256)": {
						"encoding": "mapping",
						"key": "t_address",
						"label": "mapping(address => uint256)",
						"numberOfBytes": "32",
						"value": "t_uint256"
					},
					"t_uint256": {
						"encoding": "inplace",
						"label": "uint256",
						"numberOfBytes": "32"
					}
				}
			},
			"userdoc": {
				"kind": "user",
				"methods": {},
				"version": 1
			}
		}
	}
}