{
	"Contracts/CoinFlip.sol": {
		"CoinFlip": {
			"abi": [
				{
					"inputs": [],
					"name": "betAmount",
					"outputs": [
						{
							"internalType": "uint256",
							"name": "",
							"type": "uint256"
						}
					],
					"stateMutability": "view",
					"type": "function"
				},
				{
					"inputs": [],
					"name": "betExpiration",
					"outputs": [
						{
							"internalType": "uint256",
							"name": "",
							"type": "uint256"
						}
					],
					"stateMutability": "view",
					"type": "function"
				},
				{
					"inputs": [],
					"name": "cancel",
					"outputs": [],
					"stateMutability": "nonpayable",
					"type": "function"
				},
				{
					"inputs": [
						{
							"internalType": "bytes32",
							"name": "hash",
							"type": "bytes32"
						}
					],
					"name": "makeBet",
					"outputs": [],
					"stateMutability": "payable",
					"type": "function"
				},
				{
					"inputs": [
						{
							"internalType": "bool",
							"name": "choice",
							"type": "bool"
						},
						{
							"internalType": "uint256",
							"name": "nonce",
							"type": "uint256"
						}
					],
					"name": "player1CommitmentHash",
					"outputs": [
						{
							"internalType": "bytes32",
							"name": "",
							"type": "bytes32"
						}
					],
					"stateMutability": "pure",
					"type": "function"
				},
				{
					"inputs": [
						{
							"internalType": "bool",
							"name": "choice",
							"type": "bool"
						},
						{
							"internalType": "uint256",
							"name": "nonce",
							"type": "uint256"
						}
					],
					"name": "revealWinner",
					"outputs": [],
					"stateMutability": "nonpayable",
					"type": "function"
				},
				{
					"inputs": [
						{
							"internalType": "bool",
							"name": "choice",
							"type": "bool"
						}
					],
					"name": "takeBet",
					"outputs": [],
					"stateMutability": "payable",
					"type": "function"
				},
				{
					"inputs": [],
					"name": "timeOut",
					"outputs": [],
					"stateMutability": "nonpayable",
					"type": "function"
				}
			],
			"devdoc": {
				"kind": "dev",
				"methods": {},
				"version": 1
			},
			"evm": {
				"assembly": "    /* \"Contracts/CoinFlip.sol\":65:4342  contract CoinFlip {... */\n  mstore(0x40, 0x80)\n    /* \"Contracts/CoinFlip.sol\":188:191  0x0 */\n  0x00\n    /* \"Contracts/CoinFlip.sol\":146:192  address payable player1Address = payable (0x0) */\n  dup1\n  exp(0x0100, 0x00)\n  dup2\n  sload\n  dup2\n  0xffffffffffffffffffffffffffffffffffffffff\n  mul\n  not\n  and\n  swap1\n  dup4\n  0xffffffffffffffffffffffffffffffffffffffff\n  and\n  mul\n  or\n  swap1\n  sstore\n  pop\n    /* \"Contracts/CoinFlip.sol\":267:270  0x0 */\n  0x00\n    /* \"Contracts/CoinFlip.sol\":225:271  address payable player2Address = payable (0x0) */\n  0x01\n  exp(0x0100, 0x00)\n  dup2\n  sload\n  dup2\n  0xffffffffffffffffffffffffffffffffffffffff\n  mul\n  not\n  and\n  swap1\n  dup4\n  0xffffffffffffffffffffffffffffffffffffffff\n  and\n  mul\n  or\n  swap1\n  sstore\n  pop\n    /* \"Contracts/CoinFlip.sol\":568:578  2**256 - 1 */\n  0xffffffffffffffffffffffffffffffffffffffffffffffffffffffffffffffff\n    /* \"Contracts/CoinFlip.sol\":537:578  uint256 public betExpiration = 2**256 - 1 */\n  0x05\n  sstore\n    /* \"Contracts/CoinFlip.sol\":65:4342  contract CoinFlip {... */\n  callvalue\n  dup1\n  iszero\n  tag_1\n  jumpi\n  0x00\n  dup1\n  revert\ntag_1:\n  pop\n  dataSize(sub_0)\n  dup1\n  dataOffset(sub_0)\n  0x00\n  codecopy\n  0x00\n  return\nstop\n\nsub_0: assembly {\n        /* \"Contracts/CoinFlip.sol\":65:4342  contract CoinFlip {... */\n      mstore(0x40, 0x80)\n      jumpi(tag_1, lt(calldatasize, 0x04))\n      shr(0xe0, calldataload(0x00))\n      dup1\n      0xd24257c0\n      gt\n      tag_10\n      jumpi\n      dup1\n      0xd24257c0\n      eq\n      tag_6\n      jumpi\n      dup1\n      0xd97310af\n      eq\n      tag_7\n      jumpi\n      dup1\n      0xea05a57f\n      eq\n      tag_8\n      jumpi\n      dup1\n      0xea8a1af0\n      eq\n      tag_9\n      jumpi\n      jump(tag_1)\n    tag_10:\n      dup1\n      0x08fb69c6\n      eq\n      tag_2\n      jumpi\n      dup1\n      0x284152dc\n      eq\n      tag_3\n      jumpi\n      dup1\n      0x38a3fde7\n      eq\n      tag_4\n      jumpi\n      dup1\n      0x614d85e1\n      eq\n      tag_5\n      jumpi\n    tag_1:\n      0x00\n      dup1\n      revert\n        /* \"Contracts/CoinFlip.sol\":2378:3401  function revealWinner (bool choice, uint256 nonce) external {... */\n    tag_2:\n      callvalue\n      dup1\n      iszero\n      tag_11\n      jumpi\n      0x00\n      dup1\n      revert\n    tag_11:\n      pop\n      tag_12\n      0x04\n      dup1\n      calldatasize\n      sub\n      dup2\n      add\n      swap1\n      tag_13\n      swap2\n      swap1\n      tag_14\n      jump\t// in\n    tag_13:\n      tag_15\n      jump\t// in\n    tag_12:\n      stop\n        /* \"Contracts/CoinFlip.sol\":762:1473  function makeBet (bytes32 hash) external payable {... */\n    tag_3:\n      tag_16\n      0x04\n      dup1\n      calldatasize\n      sub\n      dup2\n      add\n      swap1\n      tag_17\n      swap2\n      swap1\n      tag_18\n      jump\t// in\n    tag_17:\n      tag_19\n      jump\t// in\n    tag_16:\n      stop\n        /* \"Contracts/CoinFlip.sol\":1479:2372  function takeBet (bool choice) external payable {... */\n    tag_4:\n      tag_20\n      0x04\n      dup1\n      calldatasize\n      sub\n      dup2\n      add\n      swap1\n      tag_21\n      swap2\n      swap1\n      tag_22\n      jump\t// in\n    tag_21:\n      tag_23\n      jump\t// in\n    tag_20:\n      stop\n        /* \"Contracts/CoinFlip.sol\":3859:4340  function timeOut () external {... */\n    tag_5:\n      callvalue\n      dup1\n      iszero\n      tag_24\n      jumpi\n      0x00\n      dup1\n      revert\n    tag_24:\n      pop\n      tag_25\n      tag_26\n      jump\t// in\n    tag_25:\n      stop\n        /* \"Contracts/CoinFlip.sol\":478:502  uint256 public betAmount */\n    tag_6:\n      callvalue\n      dup1\n      iszero\n      tag_27\n      jumpi\n      0x00\n      dup1\n      revert\n    tag_27:\n      pop\n      tag_28\n      tag_29\n      jump\t// in\n    tag_28:\n      mload(0x40)\n      tag_30\n      swap2\n      swap1\n      tag_31\n      jump\t// in\n    tag_30:\n      mload(0x40)\n      dup1\n      swap2\n      sub\n      swap1\n      return\n        /* \"Contracts/CoinFlip.sol\":537:578  uint256 public betExpiration = 2**256 - 1 */\n    tag_7:\n      callvalue\n      dup1\n      iszero\n      tag_32\n      jumpi\n      0x00\n      dup1\n      revert\n    tag_32:\n      pop\n      tag_33\n      tag_34\n      jump\t// in\n    tag_33:\n      mload(0x40)\n      tag_35\n      swap2\n      swap1\n      tag_31\n      jump\t// in\n    tag_35:\n      mload(0x40)\n      dup1\n      swap2\n      sub\n      swap1\n      return\n        /* \"Contracts/CoinFlip.sol\":604:756  function player1CommitmentHash (bool choice, uint256 nonce) external pure returns (bytes32) {... */\n    tag_8:\n      callvalue\n      dup1\n      iszero\n      tag_36\n      jumpi\n      0x00\n      dup1\n      revert\n    tag_36:\n      pop\n      tag_37\n      0x04\n      dup1\n      calldatasize\n      sub\n      dup2\n      add\n      swap1\n      tag_38\n      swap2\n      swap1\n      tag_14\n      jump\t// in\n    tag_38:\n      tag_39\n      jump\t// in\n    tag_37:\n      mload(0x40)\n      tag_40\n      swap2\n      swap1\n      tag_41\n      jump\t// in\n    tag_40:\n      mload(0x40)\n      dup1\n      swap2\n      sub\n      swap1\n      return\n        /* \"Contracts/CoinFlip.sol\":3407:3853  function cancel () external {... */\n    tag_9:\n      callvalue\n      dup1\n      iszero\n      tag_42\n      jumpi\n      0x00\n      dup1\n      revert\n    tag_42:\n      pop\n      tag_43\n      tag_44\n      jump\t// in\n    tag_43:\n      stop\n        /* \"Contracts/CoinFlip.sol\":2378:3401  function revealWinner (bool choice, uint256 nonce) external {... */\n    tag_15:\n        /* \"Contracts/CoinFlip.sol\":2628:2631  0x0 */\n      0x00\n        /* \"Contracts/CoinFlip.sol\":2602:2632  player2Address != payable(0x0) */\n      0xffffffffffffffffffffffffffffffffffffffff\n      and\n        /* \"Contracts/CoinFlip.sol\":2602:2616  player2Address */\n      0x01\n      0x00\n      swap1\n      sload\n      swap1\n      0x0100\n      exp\n      swap1\n      div\n      0xffffffffffffffffffffffffffffffffffffffff\n      and\n        /* \"Contracts/CoinFlip.sol\":2602:2632  player2Address != payable(0x0) */\n      0xffffffffffffffffffffffffffffffffffffffff\n      and\n      sub\n        /* \"Contracts/CoinFlip.sol\":2594:2633  require(player2Address != payable(0x0)) */\n      tag_46\n      jumpi\n      0x00\n      dup1\n      revert\n    tag_46:\n        /* \"Contracts/CoinFlip.sol\":2898:2915  player1Commitment */\n      sload(0x02)\n        /* \"Contracts/CoinFlip.sol\":2879:2885  choice */\n      dup3\n        /* \"Contracts/CoinFlip.sol\":2887:2892  nonce */\n      dup3\n        /* \"Contracts/CoinFlip.sol\":2868:2893  abi.encode(choice, nonce) */\n      add(0x20, mload(0x40))\n      tag_47\n      swap3\n      swap2\n      swap1\n      tag_48\n      jump\t// in\n    tag_47:\n      mload(0x40)\n      0x20\n      dup2\n      dup4\n      sub\n      sub\n      dup2\n      mstore\n      swap1\n      0x40\n      mstore\n        /* \"Contracts/CoinFlip.sol\":2858:2894  keccak256(abi.encode(choice, nonce)) */\n      dup1\n      mload\n      swap1\n      0x20\n      add\n      keccak256\n        /* \"Contracts/CoinFlip.sol\":2858:2915  keccak256(abi.encode(choice, nonce)) == player1Commitment */\n      eq\n        /* \"Contracts/CoinFlip.sol\":2850:2916  require(keccak256(abi.encode(choice, nonce)) == player1Commitment) */\n      tag_49\n      jumpi\n      0x00\n      dup1\n      revert\n    tag_49:\n        /* \"Contracts/CoinFlip.sol\":3003:3016  betExpiration */\n      sload(0x05)\n        /* \"Contracts/CoinFlip.sol\":2985:3000  block.timestamp */\n      timestamp\n        /* \"Contracts/CoinFlip.sol\":2985:3016  block.timestamp < betExpiration */\n      lt\n        /* \"Contracts/CoinFlip.sol\":2977:3017  require(block.timestamp < betExpiration) */\n      tag_50\n      jumpi\n      0x00\n      dup1\n      revert\n    tag_50:\n        /* \"Contracts/CoinFlip.sol\":3153:3159  choice */\n      dup2\n        /* \"Contracts/CoinFlip.sol\":3137:3159  player2Guess == choice */\n      iszero\n      iszero\n        /* \"Contracts/CoinFlip.sol\":3137:3149  player2Guess */\n      0x03\n      0x00\n      swap1\n      sload\n      swap1\n      0x0100\n      exp\n      swap1\n      div\n      0xff\n      and\n        /* \"Contracts/CoinFlip.sol\":3137:3159  player2Guess == choice */\n      iszero\n      iszero\n      sub\n        /* \"Contracts/CoinFlip.sol\":3133:3395  if (player2Guess == choice) {... */\n      tag_51\n      jumpi\n        /* \"Contracts/CoinFlip.sol\":3214:3228  player2Address */\n      0x01\n      0x00\n      swap1\n      sload\n      swap1\n      0x0100\n      exp\n      swap1\n      div\n      0xffffffffffffffffffffffffffffffffffffffff\n      and\n        /* \"Contracts/CoinFlip.sol\":3214:3237  player2Address.transfer */\n      0xffffffffffffffffffffffffffffffffffffffff\n      and\n        /* \"Contracts/CoinFlip.sol\":3214:3260  player2Address.transfer(address(this).balance) */\n      0x08fc\n        /* \"Contracts/CoinFlip.sol\":3238:3259  address(this).balance */\n      selfbalance\n        /* \"Contracts/CoinFlip.sol\":3214:3260  player2Address.transfer(address(this).balance) */\n      swap1\n      dup2\n      iszero\n      mul\n      swap1\n      mload(0x40)\n      0x00\n      mload(0x40)\n      dup1\n      dup4\n      sub\n      dup2\n      dup6\n      dup9\n      dup9\n      call\n      swap4\n      pop\n      pop\n      pop\n      pop\n      iszero\n      dup1\n      iszero\n      tag_53\n      jumpi\n      returndatasize\n      0x00\n      dup1\n      returndatacopy\n      revert(0x00, returndatasize)\n    tag_53:\n      pop\n        /* \"Contracts/CoinFlip.sol\":3133:3395  if (player2Guess == choice) {... */\n      jump(tag_54)\n    tag_51:\n        /* \"Contracts/CoinFlip.sol\":3338:3352  player1Address */\n      0x00\n      dup1\n      sload\n      swap1\n      0x0100\n      exp\n      swap1\n      div\n      0xffffffffffffffffffffffffffffffffffffffff\n      and\n        /* \"Contracts/CoinFlip.sol\":3338:3361  player1Address.transfer */\n      0xffffffffffffffffffffffffffffffffffffffff\n      and\n        /* \"Contracts/CoinFlip.sol\":3338:3384  player1Address.transfer(address(this).balance) */\n      0x08fc\n        /* \"Contracts/CoinFlip.sol\":3362:3383  address(this).balance */\n      selfbalance\n        /* \"Contracts/CoinFlip.sol\":3338:3384  player1Address.transfer(address(this).balance) */\n      swap1\n      dup2\n      iszero\n      mul\n      swap1\n      mload(0x40)\n      0x00\n      mload(0x40)\n      dup1\n      dup4\n      sub\n      dup2\n      dup6\n      dup9\n      dup9\n      call\n      swap4\n      pop\n      pop\n      pop\n      pop\n      iszero\n      dup1\n      iszero\n      tag_56\n      jumpi\n      returndatasize\n      0x00\n      dup1\n      returndatacopy\n      revert(0x00, returndatasize)\n    tag_56:\n      pop\n        /* \"Contracts/CoinFlip.sol\":3133:3395  if (player2Guess == choice) {... */\n    tag_54:\n        /* \"Contracts/CoinFlip.sol\":2378:3401  function revealWinner (bool choice, uint256 nonce) external {... */\n      pop\n      pop\n      jump\t// out\n        /* \"Contracts/CoinFlip.sol\":762:1473  function makeBet (bytes32 hash) external payable {... */\n    tag_19:\n        /* \"Contracts/CoinFlip.sol\":1036:1039  0x0 */\n      0x00\n        /* \"Contracts/CoinFlip.sol\":1009:1040  player1Address == payable (0x0) */\n      0xffffffffffffffffffffffffffffffffffffffff\n      and\n        /* \"Contracts/CoinFlip.sol\":1009:1023  player1Address */\n      0x00\n      dup1\n      sload\n      swap1\n      0x0100\n      exp\n      swap1\n      div\n      0xffffffffffffffffffffffffffffffffffffffff\n      and\n        /* \"Contracts/CoinFlip.sol\":1009:1040  player1Address == payable (0x0) */\n      0xffffffffffffffffffffffffffffffffffffffff\n      and\n      eq\n        /* \"Contracts/CoinFlip.sol\":1001:1041  require(player1Address == payable (0x0)) */\n      tag_58\n      jumpi\n      0x00\n      dup1\n      revert\n    tag_58:\n        /* \"Contracts/CoinFlip.sol\":1158:1159  0 */\n      0x00\n        /* \"Contracts/CoinFlip.sol\":1146:1155  msg.value */\n      callvalue\n        /* \"Contracts/CoinFlip.sol\":1146:1159  msg.value > 0 */\n      gt\n        /* \"Contracts/CoinFlip.sol\":1138:1160  require(msg.value > 0) */\n      tag_59\n      jumpi\n      0x00\n      dup1\n      revert\n    tag_59:\n        /* \"Contracts/CoinFlip.sol\":1182:1191  msg.value */\n      callvalue\n        /* \"Contracts/CoinFlip.sol\":1170:1179  betAmount */\n      0x04\n        /* \"Contracts/CoinFlip.sol\":1170:1191  betAmount = msg.value */\n      dup2\n      swap1\n      sstore\n      pop\n        /* \"Contracts/CoinFlip.sol\":1378:1388  msg.sender */\n      caller\n        /* \"Contracts/CoinFlip.sol\":1353:1367  player1Address */\n      0x00\n      dup1\n        /* \"Contracts/CoinFlip.sol\":1353:1389  player1Address = payable(msg.sender) */\n      0x0100\n      exp\n      dup2\n      sload\n      dup2\n      0xffffffffffffffffffffffffffffffffffffffff\n      mul\n      not\n      and\n      swap1\n      dup4\n      0xffffffffffffffffffffffffffffffffffffffff\n      and\n      mul\n      or\n      swap1\n      sstore\n      pop\n        /* \"Contracts/CoinFlip.sol\":1462:1466  hash */\n      dup1\n        /* \"Contracts/CoinFlip.sol\":1442:1459  player1Commitment */\n      0x02\n        /* \"Contracts/CoinFlip.sol\":1442:1466  player1Commitment = hash */\n      dup2\n      swap1\n      sstore\n      pop\n        /* \"Contracts/CoinFlip.sol\":762:1473  function makeBet (bytes32 hash) external payable {... */\n      pop\n      jump\t// out\n        /* \"Contracts/CoinFlip.sol\":1479:2372  function takeBet (bool choice) external payable {... */\n    tag_23:\n        /* \"Contracts/CoinFlip.sol\":1627:1630  0x0 */\n      0x00\n        /* \"Contracts/CoinFlip.sol\":1601:1631  player1Address != payable(0x0) */\n      0xffffffffffffffffffffffffffffffffffffffff\n      and\n        /* \"Contracts/CoinFlip.sol\":1601:1615  player1Address */\n      0x00\n      dup1\n      sload\n      swap1\n      0x0100\n      exp\n      swap1\n      div\n      0xffffffffffffffffffffffffffffffffffffffff\n      and\n        /* \"Contracts/CoinFlip.sol\":1601:1631  player1Address != payable(0x0) */\n      0xffffffffffffffffffffffffffffffffffffffff\n      and\n      sub\n        /* \"Contracts/CoinFlip.sol\":1593:1632  require(player1Address != payable(0x0)) */\n      tag_61\n      jumpi\n      0x00\n      dup1\n      revert\n    tag_61:\n        /* \"Contracts/CoinFlip.sol\":1823:1826  0x0 */\n      0x00\n        /* \"Contracts/CoinFlip.sol\":1797:1827  player2Address == payable(0x0) */\n      0xffffffffffffffffffffffffffffffffffffffff\n      and\n        /* \"Contracts/CoinFlip.sol\":1797:1811  player2Address */\n      0x01\n      0x00\n      swap1\n      sload\n      swap1\n      0x0100\n      exp\n      swap1\n      div\n      0xffffffffffffffffffffffffffffffffffffffff\n      and\n        /* \"Contracts/CoinFlip.sol\":1797:1827  player2Address == payable(0x0) */\n      0xffffffffffffffffffffffffffffffffffffffff\n      and\n      eq\n        /* \"Contracts/CoinFlip.sol\":1789:1828  require(player2Address == payable(0x0)) */\n      tag_62\n      jumpi\n      0x00\n      dup1\n      revert\n    tag_62:\n        /* \"Contracts/CoinFlip.sol\":1989:1998  betAmount */\n      sload(0x04)\n        /* \"Contracts/CoinFlip.sol\":1976:1985  msg.value */\n      callvalue\n        /* \"Contracts/CoinFlip.sol\":1976:1998  msg.value == betAmount */\n      eq\n        /* \"Contracts/CoinFlip.sol\":1968:1999  require(msg.value == betAmount) */\n      tag_63\n      jumpi\n      0x00\n      dup1\n      revert\n    tag_63:\n        /* \"Contracts/CoinFlip.sol\":2186:2196  msg.sender */\n      caller\n        /* \"Contracts/CoinFlip.sol\":2161:2175  player2Address */\n      0x01\n      0x00\n        /* \"Contracts/CoinFlip.sol\":2161:2197  player2Address = payable(msg.sender) */\n      0x0100\n      exp\n      dup2\n      sload\n      dup2\n      0xffffffffffffffffffffffffffffffffffffffff\n      mul\n      not\n      and\n      swap1\n      dup4\n      0xffffffffffffffffffffffffffffffffffffffff\n      and\n      mul\n      or\n      swap1\n      sstore\n      pop\n        /* \"Contracts/CoinFlip.sol\":2255:2261  choice */\n      dup1\n        /* \"Contracts/CoinFlip.sol\":2240:2252  player2Guess */\n      0x03\n      0x00\n        /* \"Contracts/CoinFlip.sol\":2240:2261  player2Guess = choice */\n      0x0100\n      exp\n      dup2\n      sload\n      dup2\n      0xff\n      mul\n      not\n      and\n      swap1\n      dup4\n      iszero\n      iszero\n      mul\n      or\n      swap1\n      sstore\n      pop\n        /* \"Contracts/CoinFlip.sol\":2357:2365  24 hours */\n      0x015180\n        /* \"Contracts/CoinFlip.sol\":2339:2354  block.timestamp */\n      timestamp\n        /* \"Contracts/CoinFlip.sol\":2339:2365  block.timestamp + 24 hours */\n      tag_64\n      swap2\n      swap1\n      tag_65\n      jump\t// in\n    tag_64:\n        /* \"Contracts/CoinFlip.sol\":2323:2336  betExpiration */\n      0x05\n        /* \"Contracts/CoinFlip.sol\":2323:2365  betExpiration = block.timestamp + 24 hours */\n      dup2\n      swap1\n      sstore\n      pop\n        /* \"Contracts/CoinFlip.sol\":1479:2372  function takeBet (bool choice) external payable {... */\n      pop\n      jump\t// out\n        /* \"Contracts/CoinFlip.sol\":3859:4340  function timeOut () external {... */\n    tag_26:\n        /* \"Contracts/CoinFlip.sol\":4103:4117  player2Address */\n      0x01\n      0x00\n      swap1\n      sload\n      swap1\n      0x0100\n      exp\n      swap1\n      div\n      0xffffffffffffffffffffffffffffffffffffffff\n      and\n        /* \"Contracts/CoinFlip.sol\":4089:4117  msg.sender == player2Address */\n      0xffffffffffffffffffffffffffffffffffffffff\n      and\n        /* \"Contracts/CoinFlip.sol\":4089:4099  msg.sender */\n      caller\n        /* \"Contracts/CoinFlip.sol\":4089:4117  msg.sender == player2Address */\n      0xffffffffffffffffffffffffffffffffffffffff\n      and\n      eq\n        /* \"Contracts/CoinFlip.sol\":4081:4118  require(msg.sender == player2Address) */\n      tag_67\n      jumpi\n      0x00\n      dup1\n      revert\n    tag_67:\n        /* \"Contracts/CoinFlip.sol\":4198:4211  betExpiration */\n      sload(0x05)\n        /* \"Contracts/CoinFlip.sol\":4179:4194  block.timestamp */\n      timestamp\n        /* \"Contracts/CoinFlip.sol\":4179:4211  block.timestamp >= betExpiration */\n      lt\n      iszero\n        /* \"Contracts/CoinFlip.sol\":4171:4212  require(block.timestamp >= betExpiration) */\n      tag_68\n      jumpi\n      0x00\n      dup1\n      revert\n    tag_68:\n        /* \"Contracts/CoinFlip.sol\":4287:4301  player2Address */\n      0x01\n      0x00\n      swap1\n      sload\n      swap1\n      0x0100\n      exp\n      swap1\n      div\n      0xffffffffffffffffffffffffffffffffffffffff\n      and\n        /* \"Contracts/CoinFlip.sol\":4287:4310  player2Address.transfer */\n      0xffffffffffffffffffffffffffffffffffffffff\n      and\n        /* \"Contracts/CoinFlip.sol\":4287:4333  player2Address.transfer(address(this).balance) */\n      0x08fc\n        /* \"Contracts/CoinFlip.sol\":4311:4332  address(this).balance */\n      selfbalance\n        /* \"Contracts/CoinFlip.sol\":4287:4333  player2Address.transfer(address(this).balance) */\n      swap1\n      dup2\n      iszero\n      mul\n      swap1\n      mload(0x40)\n      0x00\n      mload(0x40)\n      dup1\n      dup4\n      sub\n      dup2\n      dup6\n      dup9\n      dup9\n      call\n      swap4\n      pop\n      pop\n      pop\n      pop\n      iszero\n      dup1\n      iszero\n      tag_70\n      jumpi\n      returndatasize\n      0x00\n      dup1\n      returndatacopy\n      revert(0x00, returndatasize)\n    tag_70:\n      pop\n        /* \"Contracts/CoinFlip.sol\":3859:4340  function timeOut () external {... */\n      jump\t// out\n        /* \"Contracts/CoinFlip.sol\":478:502  uint256 public betAmount */\n    tag_29:\n      sload(0x04)\n      dup2\n      jump\t// out\n        /* \"Contracts/CoinFlip.sol\":537:578  uint256 public betExpiration = 2**256 - 1 */\n    tag_34:\n      sload(0x05)\n      dup2\n      jump\t// out\n        /* \"Contracts/CoinFlip.sol\":604:756  function player1CommitmentHash (bool choice, uint256 nonce) external pure returns (bytes32) {... */\n    tag_39:\n        /* \"Contracts/CoinFlip.sol\":687:694  bytes32 */\n      0x00\n        /* \"Contracts/CoinFlip.sol\":734:740  choice */\n      dup3\n        /* \"Contracts/CoinFlip.sol\":742:747  nonce */\n      dup3\n        /* \"Contracts/CoinFlip.sol\":723:748  abi.encode(choice, nonce) */\n      add(0x20, mload(0x40))\n      tag_72\n      swap3\n      swap2\n      swap1\n      tag_48\n      jump\t// in\n    tag_72:\n      mload(0x40)\n      0x20\n      dup2\n      dup4\n      sub\n      sub\n      dup2\n      mstore\n      swap1\n      0x40\n      mstore\n        /* \"Contracts/CoinFlip.sol\":713:749  keccak256(abi.encode(choice, nonce)) */\n      dup1\n      mload\n      swap1\n      0x20\n      add\n      keccak256\n        /* \"Contracts/CoinFlip.sol\":706:749  return keccak256(abi.encode(choice, nonce)) */\n      swap1\n      pop\n        /* \"Contracts/CoinFlip.sol\":604:756  function player1CommitmentHash (bool choice, uint256 nonce) external pure returns (bytes32) {... */\n      swap3\n      swap2\n      pop\n      pop\n      jump\t// out\n        /* \"Contracts/CoinFlip.sol\":3407:3853  function cancel () external {... */\n    tag_44:\n        /* \"Contracts/CoinFlip.sol\":3595:3609  player1Address */\n      0x00\n      dup1\n      sload\n      swap1\n      0x0100\n      exp\n      swap1\n      div\n      0xffffffffffffffffffffffffffffffffffffffff\n      and\n        /* \"Contracts/CoinFlip.sol\":3581:3609  msg.sender == player1Address */\n      0xffffffffffffffffffffffffffffffffffffffff\n      and\n        /* \"Contracts/CoinFlip.sol\":3581:3591  msg.sender */\n      caller\n        /* \"Contracts/CoinFlip.sol\":3581:3609  msg.sender == player1Address */\n      0xffffffffffffffffffffffffffffffffffffffff\n      and\n      eq\n        /* \"Contracts/CoinFlip.sol\":3573:3610  require(msg.sender == player1Address) */\n      tag_74\n      jumpi\n      0x00\n      dup1\n      revert\n    tag_74:\n        /* \"Contracts/CoinFlip.sol\":3715:3718  0x0 */\n      0x00\n        /* \"Contracts/CoinFlip.sol\":3689:3719  player2Address == payable(0x0) */\n      0xffffffffffffffffffffffffffffffffffffffff\n      and\n        /* \"Contracts/CoinFlip.sol\":3689:3703  player2Address */\n      0x01\n      0x00\n      swap1\n      sload\n      swap1\n      0x0100\n      exp\n      swap1\n      div\n      0xffffffffffffffffffffffffffffffffffffffff\n      and\n        /* \"Contracts/CoinFlip.sol\":3689:3719  player2Address == payable(0x0) */\n      0xffffffffffffffffffffffffffffffffffffffff\n      and\n      eq\n        /* \"Contracts/CoinFlip.sol\":3681:3720  require(player2Address == payable(0x0)) */\n      tag_75\n      jumpi\n      0x00\n      dup1\n      revert\n    tag_75:\n        /* \"Contracts/CoinFlip.sol\":3800:3814  player1Address */\n      0x00\n      dup1\n      sload\n      swap1\n      0x0100\n      exp\n      swap1\n      div\n      0xffffffffffffffffffffffffffffffffffffffff\n      and\n        /* \"Contracts/CoinFlip.sol\":3800:3823  player1Address.transfer */\n      0xffffffffffffffffffffffffffffffffffffffff\n      and\n        /* \"Contracts/CoinFlip.sol\":3800:3846  player1Address.transfer(address(this).balance) */\n      0x08fc\n        /* \"Contracts/CoinFlip.sol\":3824:3845  address(this).balance */\n      selfbalance\n        /* \"Contracts/CoinFlip.sol\":3800:3846  player1Address.transfer(address(this).balance) */\n      swap1\n      dup2\n      iszero\n      mul\n      swap1\n      mload(0x40)\n      0x00\n      mload(0x40)\n      dup1\n      dup4\n      sub\n      dup2\n      dup6\n      dup9\n      dup9\n      call\n      swap4\n      pop\n      pop\n      pop\n      pop\n      iszero\n      dup1\n      iszero\n      tag_77\n      jumpi\n      returndatasize\n      0x00\n      dup1\n      returndatacopy\n      revert(0x00, returndatasize)\n    tag_77:\n      pop\n        /* \"Contracts/CoinFlip.sol\":3407:3853  function cancel () external {... */\n      jump\t// out\n        /* \"#utility.yul\":88:205   */\n    tag_79:\n        /* \"#utility.yul\":197:198   */\n      0x00\n        /* \"#utility.yul\":194:195   */\n      dup1\n        /* \"#utility.yul\":187:199   */\n      revert\n        /* \"#utility.yul\":334:424   */\n    tag_81:\n        /* \"#utility.yul\":368:375   */\n      0x00\n        /* \"#utility.yul\":411:416   */\n      dup2\n        /* \"#utility.yul\":404:417   */\n      iszero\n        /* \"#utility.yul\":397:418   */\n      iszero\n        /* \"#utility.yul\":386:418   */\n      swap1\n      pop\n        /* \"#utility.yul\":334:424   */\n      swap2\n      swap1\n      pop\n      jump\t// out\n        /* \"#utility.yul\":430:546   */\n    tag_82:\n        /* \"#utility.yul\":500:521   */\n      tag_100\n        /* \"#utility.yul\":515:520   */\n      dup2\n        /* \"#utility.yul\":500:521   */\n      tag_81\n      jump\t// in\n    tag_100:\n        /* \"#utility.yul\":493:498   */\n      dup2\n        /* \"#utility.yul\":490:522   */\n      eq\n        /* \"#utility.yul\":480:540   */\n      tag_101\n      jumpi\n        /* \"#utility.yul\":536:537   */\n      0x00\n        /* \"#utility.yul\":533:534   */\n      dup1\n        /* \"#utility.yul\":526:538   */\n      revert\n        /* \"#utility.yul\":480:540   */\n    tag_101:\n        /* \"#utility.yul\":430:546   */\n      pop\n      jump\t// out\n        /* \"#utility.yul\":552:685   */\n    tag_83:\n        /* \"#utility.yul\":595:600   */\n      0x00\n        /* \"#utility.yul\":633:639   */\n      dup2\n        /* \"#utility.yul\":620:640   */\n      calldataload\n        /* \"#utility.yul\":611:640   */\n      swap1\n      pop\n        /* \"#utility.yul\":649:679   */\n      tag_103\n        /* \"#utility.yul\":673:678   */\n      dup2\n        /* \"#utility.yul\":649:679   */\n      tag_82\n      jump\t// in\n    tag_103:\n        /* \"#utility.yul\":552:685   */\n      swap3\n      swap2\n      pop\n      pop\n      jump\t// out\n        /* \"#utility.yul\":691:768   */\n    tag_84:\n        /* \"#utility.yul\":728:735   */\n      0x00\n        /* \"#utility.yul\":757:762   */\n      dup2\n        /* \"#utility.yul\":746:762   */\n      swap1\n      pop\n        /* \"#utility.yul\":691:768   */\n      swap2\n      swap1\n      pop\n      jump\t// out\n        /* \"#utility.yul\":774:896   */\n    tag_85:\n        /* \"#utility.yul\":847:871   */\n      tag_106\n        /* \"#utility.yul\":865:870   */\n      dup2\n        /* \"#utility.yul\":847:871   */\n      tag_84\n      jump\t// in\n    tag_106:\n        /* \"#utility.yul\":840:845   */\n      dup2\n        /* \"#utility.yul\":837:872   */\n      eq\n        /* \"#utility.yul\":827:890   */\n      tag_107\n      jumpi\n        /* \"#utility.yul\":886:887   */\n      0x00\n        /* \"#utility.yul\":883:884   */\n      dup1\n        /* \"#utility.yul\":876:888   */\n      revert\n        /* \"#utility.yul\":827:890   */\n    tag_107:\n        /* \"#utility.yul\":774:896   */\n      pop\n      jump\t// out\n        /* \"#utility.yul\":902:1041   */\n    tag_86:\n        /* \"#utility.yul\":948:953   */\n      0x00\n        /* \"#utility.yul\":986:992   */\n      dup2\n        /* \"#utility.yul\":973:993   */\n      calldataload\n        /* \"#utility.yul\":964:993   */\n      swap1\n      pop\n        /* \"#utility.yul\":1002:1035   */\n      tag_109\n        /* \"#utility.yul\":1029:1034   */\n      dup2\n        /* \"#utility.yul\":1002:1035   */\n      tag_85\n      jump\t// in\n    tag_109:\n        /* \"#utility.yul\":902:1041   */\n      swap3\n      swap2\n      pop\n      pop\n      jump\t// out\n        /* \"#utility.yul\":1047:1515   */\n    tag_14:\n        /* \"#utility.yul\":1112:1118   */\n      0x00\n        /* \"#utility.yul\":1120:1126   */\n      dup1\n        /* \"#utility.yul\":1169:1171   */\n      0x40\n        /* \"#utility.yul\":1157:1166   */\n      dup4\n        /* \"#utility.yul\":1148:1155   */\n      dup6\n        /* \"#utility.yul\":1144:1167   */\n      sub\n        /* \"#utility.yul\":1140:1172   */\n      slt\n        /* \"#utility.yul\":1137:1256   */\n      iszero\n      tag_111\n      jumpi\n        /* \"#utility.yul\":1175:1254   */\n      tag_112\n      tag_79\n      jump\t// in\n    tag_112:\n        /* \"#utility.yul\":1137:1256   */\n    tag_111:\n        /* \"#utility.yul\":1295:1296   */\n      0x00\n        /* \"#utility.yul\":1320:1370   */\n      tag_113\n        /* \"#utility.yul\":1362:1369   */\n      dup6\n        /* \"#utility.yul\":1353:1359   */\n      dup3\n        /* \"#utility.yul\":1342:1351   */\n      dup7\n        /* \"#utility.yul\":1338:1360   */\n      add\n        /* \"#utility.yul\":1320:1370   */\n      tag_83\n      jump\t// in\n    tag_113:\n        /* \"#utility.yul\":1310:1370   */\n      swap3\n      pop\n        /* \"#utility.yul\":1266:1380   */\n      pop\n        /* \"#utility.yul\":1419:1421   */\n      0x20\n        /* \"#utility.yul\":1445:1498   */\n      tag_114\n        /* \"#utility.yul\":1490:1497   */\n      dup6\n        /* \"#utility.yul\":1481:1487   */\n      dup3\n        /* \"#utility.yul\":1470:1479   */\n      dup7\n        /* \"#utility.yul\":1466:1488   */\n      add\n        /* \"#utility.yul\":1445:1498   */\n      tag_86\n      jump\t// in\n    tag_114:\n        /* \"#utility.yul\":1435:1498   */\n      swap2\n      pop\n        /* \"#utility.yul\":1390:1508   */\n      pop\n        /* \"#utility.yul\":1047:1515   */\n      swap3\n      pop\n      swap3\n      swap1\n      pop\n      jump\t// out\n        /* \"#utility.yul\":1521:1598   */\n    tag_87:\n        /* \"#utility.yul\":1558:1565   */\n      0x00\n        /* \"#utility.yul\":1587:1592   */\n      dup2\n        /* \"#utility.yul\":1576:1592   */\n      swap1\n      pop\n        /* \"#utility.yul\":1521:1598   */\n      swap2\n      swap1\n      pop\n      jump\t// out\n        /* \"#utility.yul\":1604:1726   */\n    tag_88:\n        /* \"#utility.yul\":1677:1701   */\n      tag_117\n        /* \"#utility.yul\":1695:1700   */\n      dup2\n        /* \"#utility.yul\":1677:1701   */\n      tag_87\n      jump\t// in\n    tag_117:\n        /* \"#utility.yul\":1670:1675   */\n      dup2\n        /* \"#utility.yul\":1667:1702   */\n      eq\n        /* \"#utility.yul\":1657:1720   */\n      tag_118\n      jumpi\n        /* \"#utility.yul\":1716:1717   */\n      0x00\n        /* \"#utility.yul\":1713:1714   */\n      dup1\n        /* \"#utility.yul\":1706:1718   */\n      revert\n        /* \"#utility.yul\":1657:1720   */\n    tag_118:\n        /* \"#utility.yul\":1604:1726   */\n      pop\n      jump\t// out\n        /* \"#utility.yul\":1732:1871   */\n    tag_89:\n        /* \"#utility.yul\":1778:1783   */\n      0x00\n        /* \"#utility.yul\":1816:1822   */\n      dup2\n        /* \"#utility.yul\":1803:1823   */\n      calldataload\n        /* \"#utility.yul\":1794:1823   */\n      swap1\n      pop\n        /* \"#utility.yul\":1832:1865   */\n      tag_120\n        /* \"#utility.yul\":1859:1864   */\n      dup2\n        /* \"#utility.yul\":1832:1865   */\n      tag_88\n      jump\t// in\n    tag_120:\n        /* \"#utility.yul\":1732:1871   */\n      swap3\n      swap2\n      pop\n      pop\n      jump\t// out\n        /* \"#utility.yul\":1877:2206   */\n    tag_18:\n        /* \"#utility.yul\":1936:1942   */\n      0x00\n        /* \"#utility.yul\":1985:1987   */\n      0x20\n        /* \"#utility.yul\":1973:1982   */\n      dup3\n        /* \"#utility.yul\":1964:1971   */\n      dup5\n        /* \"#utility.yul\":1960:1983   */\n      sub\n        /* \"#utility.yul\":1956:1988   */\n      slt\n        /* \"#utility.yul\":1953:2072   */\n      iszero\n      tag_122\n      jumpi\n        /* \"#utility.yul\":1991:2070   */\n      tag_123\n      tag_79\n      jump\t// in\n    tag_123:\n        /* \"#utility.yul\":1953:2072   */\n    tag_122:\n        /* \"#utility.yul\":2111:2112   */\n      0x00\n        /* \"#utility.yul\":2136:2189   */\n      tag_124\n        /* \"#utility.yul\":2181:2188   */\n      dup5\n        /* \"#utility.yul\":2172:2178   */\n      dup3\n        /* \"#utility.yul\":2161:2170   */\n      dup6\n        /* \"#utility.yul\":2157:2179   */\n      add\n        /* \"#utility.yul\":2136:2189   */\n      tag_89\n      jump\t// in\n    tag_124:\n        /* \"#utility.yul\":2126:2189   */\n      swap2\n      pop\n        /* \"#utility.yul\":2082:2199   */\n      pop\n        /* \"#utility.yul\":1877:2206   */\n      swap3\n      swap2\n      pop\n      pop\n      jump\t// out\n        /* \"#utility.yul\":2212:2535   */\n    tag_22:\n        /* \"#utility.yul\":2268:2274   */\n      0x00\n        /* \"#utility.yul\":2317:2319   */\n      0x20\n        /* \"#utility.yul\":2305:2314   */\n      dup3\n        /* \"#utility.yul\":2296:2303   */\n      dup5\n        /* \"#utility.yul\":2292:2315   */\n      sub\n        /* \"#utility.yul\":2288:2320   */\n      slt\n        /* \"#utility.yul\":2285:2404   */\n      iszero\n      tag_126\n      jumpi\n        /* \"#utility.yul\":2323:2402   */\n      tag_127\n      tag_79\n      jump\t// in\n    tag_127:\n        /* \"#utility.yul\":2285:2404   */\n    tag_126:\n        /* \"#utility.yul\":2443:2444   */\n      0x00\n        /* \"#utility.yul\":2468:2518   */\n      tag_128\n        /* \"#utility.yul\":2510:2517   */\n      dup5\n        /* \"#utility.yul\":2501:2507   */\n      dup3\n        /* \"#utility.yul\":2490:2499   */\n      dup6\n        /* \"#utility.yul\":2486:2508   */\n      add\n        /* \"#utility.yul\":2468:2518   */\n      tag_83\n      jump\t// in\n    tag_128:\n        /* \"#utility.yul\":2458:2518   */\n      swap2\n      pop\n        /* \"#utility.yul\":2414:2528   */\n      pop\n        /* \"#utility.yul\":2212:2535   */\n      swap3\n      swap2\n      pop\n      pop\n      jump\t// out\n        /* \"#utility.yul\":2541:2659   */\n    tag_90:\n        /* \"#utility.yul\":2628:2652   */\n      tag_130\n        /* \"#utility.yul\":2646:2651   */\n      dup2\n        /* \"#utility.yul\":2628:2652   */\n      tag_84\n      jump\t// in\n    tag_130:\n        /* \"#utility.yul\":2623:2626   */\n      dup3\n        /* \"#utility.yul\":2616:2653   */\n      mstore\n        /* \"#utility.yul\":2541:2659   */\n      pop\n      pop\n      jump\t// out\n        /* \"#utility.yul\":2665:2887   */\n    tag_31:\n        /* \"#utility.yul\":2758:2762   */\n      0x00\n        /* \"#utility.yul\":2796:2798   */\n      0x20\n        /* \"#utility.yul\":2785:2794   */\n      dup3\n        /* \"#utility.yul\":2781:2799   */\n      add\n        /* \"#utility.yul\":2773:2799   */\n      swap1\n      pop\n        /* \"#utility.yul\":2809:2880   */\n      tag_132\n        /* \"#utility.yul\":2877:2878   */\n      0x00\n        /* \"#utility.yul\":2866:2875   */\n      dup4\n        /* \"#utility.yul\":2862:2879   */\n      add\n        /* \"#utility.yul\":2853:2859   */\n      dup5\n        /* \"#utility.yul\":2809:2880   */\n      tag_90\n      jump\t// in\n    tag_132:\n        /* \"#utility.yul\":2665:2887   */\n      swap3\n      swap2\n      pop\n      pop\n      jump\t// out\n        /* \"#utility.yul\":2893:3011   */\n    tag_91:\n        /* \"#utility.yul\":2980:3004   */\n      tag_134\n        /* \"#utility.yul\":2998:3003   */\n      dup2\n        /* \"#utility.yul\":2980:3004   */\n      tag_87\n      jump\t// in\n    tag_134:\n        /* \"#utility.yul\":2975:2978   */\n      dup3\n        /* \"#utility.yul\":2968:3005   */\n      mstore\n        /* \"#utility.yul\":2893:3011   */\n      pop\n      pop\n      jump\t// out\n        /* \"#utility.yul\":3017:3239   */\n    tag_41:\n        /* \"#utility.yul\":3110:3114   */\n      0x00\n        /* \"#utility.yul\":3148:3150   */\n      0x20\n        /* \"#utility.yul\":3137:3146   */\n      dup3\n        /* \"#utility.yul\":3133:3151   */\n      add\n        /* \"#utility.yul\":3125:3151   */\n      swap1\n      pop\n        /* \"#utility.yul\":3161:3232   */\n      tag_136\n        /* \"#utility.yul\":3229:3230   */\n      0x00\n        /* \"#utility.yul\":3218:3227   */\n      dup4\n        /* \"#utility.yul\":3214:3231   */\n      add\n        /* \"#utility.yul\":3205:3211   */\n      dup5\n        /* \"#utility.yul\":3161:3232   */\n      tag_91\n      jump\t// in\n    tag_136:\n        /* \"#utility.yul\":3017:3239   */\n      swap3\n      swap2\n      pop\n      pop\n      jump\t// out\n        /* \"#utility.yul\":3245:3354   */\n    tag_92:\n        /* \"#utility.yul\":3326:3347   */\n      tag_138\n        /* \"#utility.yul\":3341:3346   */\n      dup2\n        /* \"#utility.yul\":3326:3347   */\n      tag_81\n      jump\t// in\n    tag_138:\n        /* \"#utility.yul\":3321:3324   */\n      dup3\n        /* \"#utility.yul\":3314:3348   */\n      mstore\n        /* \"#utility.yul\":3245:3354   */\n      pop\n      pop\n      jump\t// out\n        /* \"#utility.yul\":3360:3680   */\n    tag_48:\n        /* \"#utility.yul\":3475:3479   */\n      0x00\n        /* \"#utility.yul\":3513:3515   */\n      0x40\n        /* \"#utility.yul\":3502:3511   */\n      dup3\n        /* \"#utility.yul\":3498:3516   */\n      add\n        /* \"#utility.yul\":3490:3516   */\n      swap1\n      pop\n        /* \"#utility.yul\":3526:3591   */\n      tag_140\n        /* \"#utility.yul\":3588:3589   */\n      0x00\n        /* \"#utility.yul\":3577:3586   */\n      dup4\n        /* \"#utility.yul\":3573:3590   */\n      add\n        /* \"#utility.yul\":3564:3570   */\n      dup6\n        /* \"#utility.yul\":3526:3591   */\n      tag_92\n      jump\t// in\n    tag_140:\n        /* \"#utility.yul\":3601:3673   */\n      tag_141\n        /* \"#utility.yul\":3669:3671   */\n      0x20\n        /* \"#utility.yul\":3658:3667   */\n      dup4\n        /* \"#utility.yul\":3654:3672   */\n      add\n        /* \"#utility.yul\":3645:3651   */\n      dup5\n        /* \"#utility.yul\":3601:3673   */\n      tag_90\n      jump\t// in\n    tag_141:\n        /* \"#utility.yul\":3360:3680   */\n      swap4\n      swap3\n      pop\n      pop\n      pop\n      jump\t// out\n        /* \"#utility.yul\":3686:3866   */\n    tag_93:\n        /* \"#utility.yul\":3734:3811   */\n      0x4e487b7100000000000000000000000000000000000000000000000000000000\n        /* \"#utility.yul\":3731:3732   */\n      0x00\n        /* \"#utility.yul\":3724:3812   */\n      mstore\n        /* \"#utility.yul\":3831:3835   */\n      0x11\n        /* \"#utility.yul\":3828:3829   */\n      0x04\n        /* \"#utility.yul\":3821:3836   */\n      mstore\n        /* \"#utility.yul\":3855:3859   */\n      0x24\n        /* \"#utility.yul\":3852:3853   */\n      0x00\n        /* \"#utility.yul\":3845:3860   */\n      revert\n        /* \"#utility.yul\":3872:4063   */\n    tag_65:\n        /* \"#utility.yul\":3912:3915   */\n      0x00\n        /* \"#utility.yul\":3931:3951   */\n      tag_144\n        /* \"#utility.yul\":3949:3950   */\n      dup3\n        /* \"#utility.yul\":3931:3951   */\n      tag_84\n      jump\t// in\n    tag_144:\n        /* \"#utility.yul\":3926:3951   */\n      swap2\n      pop\n        /* \"#utility.yul\":3965:3985   */\n      tag_145\n        /* \"#utility.yul\":3983:3984   */\n      dup4\n        /* \"#utility.yul\":3965:3985   */\n      tag_84\n      jump\t// in\n    tag_145:\n        /* \"#utility.yul\":3960:3985   */\n      swap3\n      pop\n        /* \"#utility.yul\":4008:4009   */\n      dup3\n        /* \"#utility.yul\":4005:4006   */\n      dup3\n        /* \"#utility.yul\":4001:4010   */\n      add\n        /* \"#utility.yul\":3994:4010   */\n      swap1\n      pop\n        /* \"#utility.yul\":4029:4032   */\n      dup1\n        /* \"#utility.yul\":4026:4027   */\n      dup3\n        /* \"#utility.yul\":4023:4033   */\n      gt\n        /* \"#utility.yul\":4020:4056   */\n      iszero\n      tag_146\n      jumpi\n        /* \"#utility.yul\":4036:4054   */\n      tag_147\n      tag_93\n      jump\t// in\n    tag_147:\n        /* \"#utility.yul\":4020:4056   */\n    tag_146:\n        /* \"#utility.yul\":3872:4063   */\n      swap3\n      swap2\n      pop\n      pop\n      jump\t// out\n\n    auxdata: 0xa26469706673582212207920414288552ead6dd5a2364734502684ad4576e4a94c27f930176e8158cc2e64736f6c634300081a0033\n}\n",
				"bytecode": {
					"linkReferences": {},
					"object": "60806040525f805f6101000a81548173ffffffffffffffffffffffffffffffffffffffff021916908373ffffffffffffffffffffffffffffffffffffffff1602179055505f60015f6101000a81548173ffffffffffffffffffffffffffffffffffffffff021916908373ffffffffffffffffffffffffffffffffffffffff1602179055507fffffffffffffffffffffffffffffffffffffffffffffffffffffffffffffffff60055534801560b1575f80fd5b50610969806100bf5f395ff3fe60806040526004361061007a575f3560e01c8063d24257c01161004d578063d24257c0146100f4578063d97310af1461011e578063ea05a57f14610148578063ea8a1af0146101845761007a565b806308fb69c61461007e578063284152dc146100a657806338a3fde7146100c2578063614d85e1146100de575b5f80fd5b348015610089575f80fd5b506100a4600480360381019061009f9190610786565b61019a565b005b6100c060048036038101906100bb91906107f7565b61031f565b005b6100dc60048036038101906100d79190610822565b6103d0565b005b3480156100e9575f80fd5b506100f26104fc565b005b3480156100ff575f80fd5b506101086105c9565b604051610115919061085c565b60405180910390f35b348015610129575f80fd5b506101326105cf565b60405161013f919061085c565b60405180910390f35b348015610153575f80fd5b5061016e60048036038101906101699190610786565b6105d5565b60405161017b9190610884565b60405180910390f35b34801561018f575f80fd5b50610198610607565b005b5f73ffffffffffffffffffffffffffffffffffffffff1660015f9054906101000a900473ffffffffffffffffffffffffffffffffffffffff1673ffffffffffffffffffffffffffffffffffffffff16036101f2575f80fd5b60025482826040516020016102089291906108ac565b6040516020818303038152906040528051906020012014610227575f80fd5b6005544210610234575f80fd5b81151560035f9054906101000a900460ff161515036102b75760015f9054906101000a900473ffffffffffffffffffffffffffffffffffffffff1673ffffffffffffffffffffffffffffffffffffffff166108fc4790811502906040515f60405180830381858888f193505050501580156102b1573d5f803e3d5ffd5b5061031b565b5f8054906101000a900473ffffffffffffffffffffffffffffffffffffffff1673ffffffffffffffffffffffffffffffffffffffff166108fc4790811502906040515f60405180830381858888f19350505050158015610319573d5f803e3d5ffd5b505b5050565b5f73ffffffffffffffffffffffffffffffffffffffff165f8054906101000a900473ffffffffffffffffffffffffffffffffffffffff1673ffffffffffffffffffffffffffffffffffffffff1614610375575f80fd5b5f3411610380575f80fd5b34600481905550335f806101000a81548173ffffffffffffffffffffffffffffffffffffffff021916908373ffffffffffffffffffffffffffffffffffffffff1602179055508060028190555050565b5f73ffffffffffffffffffffffffffffffffffffffff165f8054906101000a900473ffffffffffffffffffffffffffffffffffffffff1673ffffffffffffffffffffffffffffffffffffffff1603610426575f80fd5b5f73ffffffffffffffffffffffffffffffffffffffff1660015f9054906101000a900473ffffffffffffffffffffffffffffffffffffffff1673ffffffffffffffffffffffffffffffffffffffff161461047e575f80fd5b600454341461048b575f80fd5b3360015f6101000a81548173ffffffffffffffffffffffffffffffffffffffff021916908373ffffffffffffffffffffffffffffffffffffffff1602179055508060035f6101000a81548160ff02191690831515021790555062015180426104f39190610900565b60058190555050565b60015f9054906101000a900473ffffffffffffffffffffffffffffffffffffffff1673ffffffffffffffffffffffffffffffffffffffff163373ffffffffffffffffffffffffffffffffffffffff1614610554575f80fd5b600554421015610562575f80fd5b60015f9054906101000a900473ffffffffffffffffffffffffffffffffffffffff1673ffffffffffffffffffffffffffffffffffffffff166108fc4790811502906040515f60405180830381858888f193505050501580156105c6573d5f803e3d5ffd5b50565b60045481565b60055481565b5f82826040516020016105e99291906108ac565b60405160208183030381529060405280519060200120905092915050565b5f8054906101000a900473ffffffffffffffffffffffffffffffffffffffff1673ffffffffffffffffffffffffffffffffffffffff163373ffffffffffffffffffffffffffffffffffffffff161461065d575f80fd5b5f73ffffffffffffffffffffffffffffffffffffffff1660015f9054906101000a900473ffffffffffffffffffffffffffffffffffffffff1673ffffffffffffffffffffffffffffffffffffffff16146106b5575f80fd5b5f8054906101000a900473ffffffffffffffffffffffffffffffffffffffff1673ffffffffffffffffffffffffffffffffffffffff166108fc4790811502906040515f60405180830381858888f19350505050158015610717573d5f803e3d5ffd5b50565b5f80fd5b5f8115159050919050565b6107328161071e565b811461073c575f80fd5b50565b5f8135905061074d81610729565b92915050565b5f819050919050565b61076581610753565b811461076f575f80fd5b50565b5f813590506107808161075c565b92915050565b5f806040838503121561079c5761079b61071a565b5b5f6107a98582860161073f565b92505060206107ba85828601610772565b9150509250929050565b5f819050919050565b6107d6816107c4565b81146107e0575f80fd5b50565b5f813590506107f1816107cd565b92915050565b5f6020828403121561080c5761080b61071a565b5b5f610819848285016107e3565b91505092915050565b5f602082840312156108375761083661071a565b5b5f6108448482850161073f565b91505092915050565b61085681610753565b82525050565b5f60208201905061086f5f83018461084d565b92915050565b61087e816107c4565b82525050565b5f6020820190506108975f830184610875565b92915050565b6108a68161071e565b82525050565b5f6040820190506108bf5f83018561089d565b6108cc602083018461084d565b9392505050565b7f4e487b71000000000000000000000000000000000000000000000000000000005f52601160045260245ffd5b5f61090a82610753565b915061091583610753565b925082820190508082111561092d5761092c6108d3565b5b9291505056fea26469706673582212207920414288552ead6dd5a2364734502684ad4576e4a94c27f930176e8158cc2e64736f6c634300081a0033",
					"opcodes": "PUSH1 0x80 PUSH1 0x40 MSTORE PUSH0 DUP1 PUSH0 PUSH2 0x100 EXP DUP2 SLOAD DUP2 PUSH20 0xFFFFFFFFFFFFFFFFFFFFFFFFFFFFFFFFFFFFFFFF MUL NOT AND SWAP1 DUP4 PUSH20 0xFFFFFFFFFFFFFFFFFFFFFFFFFFFFFFFFFFFFFFFF AND MUL OR SWAP1 SSTORE POP PUSH0 PUSH1 0x1 PUSH0 PUSH2 0x100 EXP DUP2 SLOAD DUP2 PUSH20 0xFFFFFFFFFFFFFFFFFFFFFFFFFFFFFFFFFFFFFFFF MUL NOT AND SWAP1 DUP4 PUSH20 0xFFFFFFFFFFFFFFFFFFFFFFFFFFFFFFFFFFFFFFFF AND MUL OR SWAP1 SSTORE POP PUSH32 0xFFFFFFFFFFFFFFFFFFFFFFFFFFFFFFFFFFFFFFFFFFFFFFFFFFFFFFFFFFFFFFFF PUSH1 0x5 SSTORE CALLVALUE DUP1 ISZERO PUSH1 0xB1 JUMPI PUSH0 DUP1 REVERT JUMPDEST POP PUSH2 0x969 DUP1 PUSH2 0xBF PUSH0 CODECOPY PUSH0 RETURN INVALID PUSH1 0x80 PUSH1 0x40 MSTORE PUSH1 0x4 CALLDATASIZE LT PUSH2 0x7A JUMPI PUSH0 CALLDATALOAD PUSH1 0xE0 SHR DUP1 PUSH4 0xD24257C0 GT PUSH2 0x4D JUMPI DUP1 PUSH4 0xD24257C0 EQ PUSH2 0xF4 JUMPI DUP1 PUSH4 0xD97310AF EQ PUSH2 0x11E JUMPI DUP1 PUSH4 0xEA05A57F EQ PUSH2 0x148 JUMPI DUP1 PUSH4 0xEA8A1AF0 EQ PUSH2 0x184 JUMPI PUSH2 0x7A JUMP JUMPDEST DUP1 PUSH4 0x8FB69C6 EQ PUSH2 0x7E JUMPI DUP1 PUSH4 0x284152DC EQ PUSH2 0xA6 JUMPI DUP1 PUSH4 0x38A3FDE7 EQ PUSH2 0xC2 JUMPI DUP1 PUSH4 0x614D85E1 EQ PUSH2 0xDE JUMPI JUMPDEST PUSH0 DUP1 REVERT JUMPDEST CALLVALUE DUP1 ISZERO PUSH2 0x89 JUMPI PUSH0 DUP1 REVERT JUMPDEST POP PUSH2 0xA4 PUSH1 0x4 DUP1 CALLDATASIZE SUB DUP2 ADD SWAP1 PUSH2 0x9F SWAP2 SWAP1 PUSH2 0x786 JUMP JUMPDEST PUSH2 0x19A JUMP JUMPDEST STOP JUMPDEST PUSH2 0xC0 PUSH1 0x4 DUP1 CALLDATASIZE SUB DUP2 ADD SWAP1 PUSH2 0xBB SWAP2 SWAP1 PUSH2 0x7F7 JUMP JUMPDEST PUSH2 0x31F JUMP JUMPDEST STOP JUMPDEST PUSH2 0xDC PUSH1 0x4 DUP1 CALLDATASIZE SUB DUP2 ADD SWAP1 PUSH2 0xD7 SWAP2 SWAP1 PUSH2 0x822 JUMP JUMPDEST PUSH2 0x3D0 JUMP JUMPDEST STOP JUMPDEST CALLVALUE DUP1 ISZERO PUSH2 0xE9 JUMPI PUSH0 DUP1 REVERT JUMPDEST POP PUSH2 0xF2 PUSH2 0x4FC JUMP JUMPDEST STOP JUMPDEST CALLVALUE DUP1 ISZERO PUSH2 0xFF JUMPI PUSH0 DUP1 REVERT JUMPDEST POP PUSH2 0x108 PUSH2 0x5C9 JUMP JUMPDEST PUSH1 0x40 MLOAD PUSH2 0x115 SWAP2 SWAP1 PUSH2 0x85C JUMP JUMPDEST PUSH1 0x40 MLOAD DUP1 SWAP2 SUB SWAP1 RETURN JUMPDEST CALLVALUE DUP1 ISZERO PUSH2 0x129 JUMPI PUSH0 DUP1 REVERT JUMPDEST POP PUSH2 0x132 PUSH2 0x5CF JUMP JUMPDEST PUSH1 0x40 MLOAD PUSH2 0x13F SWAP2 SWAP1 PUSH2 0x85C JUMP JUMPDEST PUSH1 0x40 MLOAD DUP1 SWAP2 SUB SWAP1 RETURN JUMPDEST CALLVALUE DUP1 ISZERO PUSH2 0x153 JUMPI PUSH0 DUP1 REVERT JUMPDEST POP PUSH2 0x16E PUSH1 0x4 DUP1 CALLDATASIZE SUB DUP2 ADD SWAP1 PUSH2 0x169 SWAP2 SWAP1 PUSH2 0x786 JUMP JUMPDEST PUSH2 0x5D5 JUMP JUMPDEST PUSH1 0x40 MLOAD PUSH2 0x17B SWAP2 SWAP1 PUSH2 0x884 JUMP JUMPDEST PUSH1 0x40 MLOAD DUP1 SWAP2 SUB SWAP1 RETURN JUMPDEST CALLVALUE DUP1 ISZERO PUSH2 0x18F JUMPI PUSH0 DUP1 REVERT JUMPDEST POP PUSH2 0x198 PUSH2 0x607 JUMP JUMPDEST STOP JUMPDEST PUSH0 PUSH20 0xFFFFFFFFFFFFFFFFFFFFFFFFFFFFFFFFFFFFFFFF AND PUSH1 0x1 PUSH0 SWAP1 SLOAD SWAP1 PUSH2 0x100 EXP SWAP1 DIV PUSH20 0xFFFFFFFFFFFFFFFFFFFFFFFFFFFFFFFFFFFFFFFF AND PUSH20 0xFFFFFFFFFFFFFFFFFFFFFFFFFFFFFFFFFFFFFFFF AND SUB PUSH2 0x1F2 JUMPI PUSH0 DUP1 REVERT JUMPDEST PUSH1 0x2 SLOAD DUP3 DUP3 PUSH1 0x40 MLOAD PUSH1 0x20 ADD PUSH2 0x208 SWAP3 SWAP2 SWAP1 PUSH2 0x8AC JUMP JUMPDEST PUSH1 0x40 MLOAD PUSH1 0x20 DUP2 DUP4 SUB SUB DUP2 MSTORE SWAP1 PUSH1 0x40 MSTORE DUP1 MLOAD SWAP1 PUSH1 0x20 ADD KECCAK256 EQ PUSH2 0x227 JUMPI PUSH0 DUP1 REVERT JUMPDEST PUSH1 0x5 SLOAD TIMESTAMP LT PUSH2 0x234 JUMPI PUSH0 DUP1 REVERT JUMPDEST DUP2 ISZERO ISZERO PUSH1 0x3 PUSH0 SWAP1 SLOAD SWAP1 PUSH2 0x100 EXP SWAP1 DIV PUSH1 0xFF AND ISZERO ISZERO SUB PUSH2 0x2B7 JUMPI PUSH1 0x1 PUSH0 SWAP1 SLOAD SWAP1 PUSH2 0x100 EXP SWAP1 DIV PUSH20 0xFFFFFFFFFFFFFFFFFFFFFFFFFFFFFFFFFFFFFFFF AND PUSH20 0xFFFFFFFFFFFFFFFFFFFFFFFFFFFFFFFFFFFFFFFF AND PUSH2 0x8FC SELFBALANCE SWAP1 DUP2 ISZERO MUL SWAP1 PUSH1 0x40 MLOAD PUSH0 PUSH1 0x40 MLOAD DUP1 DUP4 SUB DUP2 DUP6 DUP9 DUP9 CALL SWAP4 POP POP POP POP ISZERO DUP1 ISZERO PUSH2 0x2B1 JUMPI RETURNDATASIZE PUSH0 DUP1 RETURNDATACOPY RETURNDATASIZE PUSH0 REVERT JUMPDEST POP PUSH2 0x31B JUMP JUMPDEST PUSH0 DUP1 SLOAD SWAP1 PUSH2 0x100 EXP SWAP1 DIV PUSH20 0xFFFFFFFFFFFFFFFFFFFFFFFFFFFFFFFFFFFFFFFF AND PUSH20 0xFFFFFFFFFFFFFFFFFFFFFFFFFFFFFFFFFFFFFFFF AND PUSH2 0x8FC SELFBALANCE SWAP1 DUP2 ISZERO MUL SWAP1 PUSH1 0x40 MLOAD PUSH0 PUSH1 0x40 MLOAD DUP1 DUP4 SUB DUP2 DUP6 DUP9 DUP9 CALL SWAP4 POP POP POP POP ISZERO DUP1 ISZERO PUSH2 0x319 JUMPI RETURNDATASIZE PUSH0 DUP1 RETURNDATACOPY RETURNDATASIZE PUSH0 REVERT JUMPDEST POP JUMPDEST POP POP JUMP JUMPDEST PUSH0 PUSH20 0xFFFFFFFFFFFFFFFFFFFFFFFFFFFFFFFFFFFFFFFF AND PUSH0 DUP1 SLOAD SWAP1 PUSH2 0x100 EXP SWAP1 DIV PUSH20 0xFFFFFFFFFFFFFFFFFFFFFFFFFFFFFFFFFFFFFFFF AND PUSH20 0xFFFFFFFFFFFFFFFFFFFFFFFFFFFFFFFFFFFFFFFF AND EQ PUSH2 0x375 JUMPI PUSH0 DUP1 REVERT JUMPDEST PUSH0 CALLVALUE GT PUSH2 0x380 JUMPI PUSH0 DUP1 REVERT JUMPDEST CALLVALUE PUSH1 0x4 DUP2 SWAP1 SSTORE POP CALLER PUSH0 DUP1 PUSH2 0x100 EXP DUP2 SLOAD DUP2 PUSH20 0xFFFFFFFFFFFFFFFFFFFFFFFFFFFFFFFFFFFFFFFF MUL NOT AND SWAP1 DUP4 PUSH20 0xFFFFFFFFFFFFFFFFFFFFFFFFFFFFFFFFFFFFFFFF AND MUL OR SWAP1 SSTORE POP DUP1 PUSH1 0x2 DUP2 SWAP1 SSTORE POP POP JUMP JUMPDEST PUSH0 PUSH20 0xFFFFFFFFFFFFFFFFFFFFFFFFFFFFFFFFFFFFFFFF AND PUSH0 DUP1 SLOAD SWAP1 PUSH2 0x100 EXP SWAP1 DIV PUSH20 0xFFFFFFFFFFFFFFFFFFFFFFFFFFFFFFFFFFFFFFFF AND PUSH20 0xFFFFFFFFFFFFFFFFFFFFFFFFFFFFFFFFFFFFFFFF AND SUB PUSH2 0x426 JUMPI PUSH0 DUP1 REVERT JUMPDEST PUSH0 PUSH20 0xFFFFFFFFFFFFFFFFFFFFFFFFFFFFFFFFFFFFFFFF AND PUSH1 0x1 PUSH0 SWAP1 SLOAD SWAP1 PUSH2 0x100 EXP SWAP1 DIV PUSH20 0xFFFFFFFFFFFFFFFFFFFFFFFFFFFFFFFFFFFFFFFF AND PUSH20 0xFFFFFFFFFFFFFFFFFFFFFFFFFFFFFFFFFFFFFFFF AND EQ PUSH2 0x47E JUMPI PUSH0 DUP1 REVERT JUMPDEST PUSH1 0x4 SLOAD CALLVALUE EQ PUSH2 0x48B JUMPI PUSH0 DUP1 REVERT JUMPDEST CALLER PUSH1 0x1 PUSH0 PUSH2 0x100 EXP DUP2 SLOAD DUP2 PUSH20 0xFFFFFFFFFFFFFFFFFFFFFFFFFFFFFFFFFFFFFFFF MUL NOT AND SWAP1 DUP4 PUSH20 0xFFFFFFFFFFFFFFFFFFFFFFFFFFFFFFFFFFFFFFFF AND MUL OR SWAP1 SSTORE POP DUP1 PUSH1 0x3 PUSH0 PUSH2 0x100 EXP DUP2 SLOAD DUP2 PUSH1 0xFF MUL NOT AND SWAP1 DUP4 ISZERO ISZERO MUL OR SWAP1 SSTORE POP PUSH3 0x15180 TIMESTAMP PUSH2 0x4F3 SWAP2 SWAP1 PUSH2 0x900 JUMP JUMPDEST PUSH1 0x5 DUP2 SWAP1 SSTORE POP POP JUMP JUMPDEST PUSH1 0x1 PUSH0 SWAP1 SLOAD SWAP1 PUSH2 0x100 EXP SWAP1 DIV PUSH20 0xFFFFFFFFFFFFFFFFFFFFFFFFFFFFFFFFFFFFFFFF AND PUSH20 0xFFFFFFFFFFFFFFFFFFFFFFFFFFFFFFFFFFFFFFFF AND CALLER PUSH20 0xFFFFFFFFFFFFFFFFFFFFFFFFFFFFFFFFFFFFFFFF AND EQ PUSH2 0x554 JUMPI PUSH0 DUP1 REVERT JUMPDEST PUSH1 0x5 SLOAD TIMESTAMP LT ISZERO PUSH2 0x562 JUMPI PUSH0 DUP1 REVERT JUMPDEST PUSH1 0x1 PUSH0 SWAP1 SLOAD SWAP1 PUSH2 0x100 EXP SWAP1 DIV PUSH20 0xFFFFFFFFFFFFFFFFFFFFFFFFFFFFFFFFFFFFFFFF AND PUSH20 0xFFFFFFFFFFFFFFFFFFFFFFFFFFFFFFFFFFFFFFFF AND PUSH2 0x8FC SELFBALANCE SWAP1 DUP2 ISZERO MUL SWAP1 PUSH1 0x40 MLOAD PUSH0 PUSH1 0x40 MLOAD DUP1 DUP4 SUB DUP2 DUP6 DUP9 DUP9 CALL SWAP4 POP POP POP POP ISZERO DUP1 ISZERO PUSH2 0x5C6 JUMPI RETURNDATASIZE PUSH0 DUP1 RETURNDATACOPY RETURNDATASIZE PUSH0 REVERT JUMPDEST POP JUMP JUMPDEST PUSH1 0x4 SLOAD DUP2 JUMP JUMPDEST PUSH1 0x5 SLOAD DUP2 JUMP JUMPDEST PUSH0 DUP3 DUP3 PUSH1 0x40 MLOAD PUSH1 0x20 ADD PUSH2 0x5E9 SWAP3 SWAP2 SWAP1 PUSH2 0x8AC JUMP JUMPDEST PUSH1 0x40 MLOAD PUSH1 0x20 DUP2 DUP4 SUB SUB DUP2 MSTORE SWAP1 PUSH1 0x40 MSTORE DUP1 MLOAD SWAP1 PUSH1 0x20 ADD KECCAK256 SWAP1 POP SWAP3 SWAP2 POP POP JUMP JUMPDEST PUSH0 DUP1 SLOAD SWAP1 PUSH2 0x100 EXP SWAP1 DIV PUSH20 0xFFFFFFFFFFFFFFFFFFFFFFFFFFFFFFFFFFFFFFFF AND PUSH20 0xFFFFFFFFFFFFFFFFFFFFFFFFFFFFFFFFFFFFFFFF AND CALLER PUSH20 0xFFFFFFFFFFFFFFFFFFFFFFFFFFFFFFFFFFFFFFFF AND EQ PUSH2 0x65D JUMPI PUSH0 DUP1 REVERT JUMPDEST PUSH0 PUSH20 0xFFFFFFFFFFFFFFFFFFFFFFFFFFFFFFFFFFFFFFFF AND PUSH1 0x1 PUSH0 SWAP1 SLOAD SWAP1 PUSH2 0x100 EXP SWAP1 DIV PUSH20 0xFFFFFFFFFFFFFFFFFFFFFFFFFFFFFFFFFFFFFFFF AND PUSH20 0xFFFFFFFFFFFFFFFFFFFFFFFFFFFFFFFFFFFFFFFF AND EQ PUSH2 0x6B5 JUMPI PUSH0 DUP1 REVERT JUMPDEST PUSH0 DUP1 SLOAD SWAP1 PUSH2 0x100 EXP SWAP1 DIV PUSH20 0xFFFFFFFFFFFFFFFFFFFFFFFFFFFFFFFFFFFFFFFF AND PUSH20 0xFFFFFFFFFFFFFFFFFFFFFFFFFFFFFFFFFFFFFFFF AND PUSH2 0x8FC SELFBALANCE SWAP1 DUP2 ISZERO MUL SWAP1 PUSH1 0x40 MLOAD PUSH0 PUSH1 0x40 MLOAD DUP1 DUP4 SUB DUP2 DUP6 DUP9 DUP9 CALL SWAP4 POP POP POP POP ISZERO DUP1 ISZERO PUSH2 0x717 JUMPI RETURNDATASIZE PUSH0 DUP1 RETURNDATACOPY RETURNDATASIZE PUSH0 REVERT JUMPDEST POP JUMP JUMPDEST PUSH0 DUP1 REVERT JUMPDEST PUSH0 DUP2 ISZERO ISZERO SWAP1 POP SWAP2 SWAP1 POP JUMP JUMPDEST PUSH2 0x732 DUP2 PUSH2 0x71E JUMP JUMPDEST DUP2 EQ PUSH2 0x73C JUMPI PUSH0 DUP1 REVERT JUMPDEST POP JUMP JUMPDEST PUSH0 DUP2 CALLDATALOAD SWAP1 POP PUSH2 0x74D DUP2 PUSH2 0x729 JUMP JUMPDEST SWAP3 SWAP2 POP POP JUMP JUMPDEST PUSH0 DUP2 SWAP1 POP SWAP2 SWAP1 POP JUMP JUMPDEST PUSH2 0x765 DUP2 PUSH2 0x753 JUMP JUMPDEST DUP2 EQ PUSH2 0x76F JUMPI PUSH0 DUP1 REVERT JUMPDEST POP JUMP JUMPDEST PUSH0 DUP2 CALLDATALOAD SWAP1 POP PUSH2 0x780 DUP2 PUSH2 0x75C JUMP JUMPDEST SWAP3 SWAP2 POP POP JUMP JUMPDEST PUSH0 DUP1 PUSH1 0x40 DUP4 DUP6 SUB SLT ISZERO PUSH2 0x79C JUMPI PUSH2 0x79B PUSH2 0x71A JUMP JUMPDEST JUMPDEST PUSH0 PUSH2 0x7A9 DUP6 DUP3 DUP7 ADD PUSH2 0x73F JUMP JUMPDEST SWAP3 POP POP PUSH1 0x20 PUSH2 0x7BA DUP6 DUP3 DUP7 ADD PUSH2 0x772 JUMP JUMPDEST SWAP2 POP POP SWAP3 POP SWAP3 SWAP1 POP JUMP JUMPDEST PUSH0 DUP2 SWAP1 POP SWAP2 SWAP1 POP JUMP JUMPDEST PUSH2 0x7D6 DUP2 PUSH2 0x7C4 JUMP JUMPDEST DUP2 EQ PUSH2 0x7E0 JUMPI PUSH0 DUP1 REVERT JUMPDEST POP JUMP JUMPDEST PUSH0 DUP2 CALLDATALOAD SWAP1 POP PUSH2 0x7F1 DUP2 PUSH2 0x7CD JUMP JUMPDEST SWAP3 SWAP2 POP POP JUMP JUMPDEST PUSH0 PUSH1 0x20 DUP3 DUP5 SUB SLT ISZERO PUSH2 0x80C JUMPI PUSH2 0x80B PUSH2 0x71A JUMP JUMPDEST JUMPDEST PUSH0 PUSH2 0x819 DUP5 DUP3 DUP6 ADD PUSH2 0x7E3 JUMP JUMPDEST SWAP2 POP POP SWAP3 SWAP2 POP POP JUMP JUMPDEST PUSH0 PUSH1 0x20 DUP3 DUP5 SUB SLT ISZERO PUSH2 0x837 JUMPI PUSH2 0x836 PUSH2 0x71A JUMP JUMPDEST JUMPDEST PUSH0 PUSH2 0x844 DUP5 DUP3 DUP6 ADD PUSH2 0x73F JUMP JUMPDEST SWAP2 POP POP SWAP3 SWAP2 POP POP JUMP JUMPDEST PUSH2 0x856 DUP2 PUSH2 0x753 JUMP JUMPDEST DUP3 MSTORE POP POP JUMP JUMPDEST PUSH0 PUSH1 0x20 DUP3 ADD SWAP1 POP PUSH2 0x86F PUSH0 DUP4 ADD DUP5 PUSH2 0x84D JUMP JUMPDEST SWAP3 SWAP2 POP POP JUMP JUMPDEST PUSH2 0x87E DUP2 PUSH2 0x7C4 JUMP JUMPDEST DUP3 MSTORE POP POP JUMP JUMPDEST PUSH0 PUSH1 0x20 DUP3 ADD SWAP1 POP PUSH2 0x897 PUSH0 DUP4 ADD DUP5 PUSH2 0x875 JUMP JUMPDEST SWAP3 SWAP2 POP POP JUMP JUMPDEST PUSH2 0x8A6 DUP2 PUSH2 0x71E JUMP JUMPDEST DUP3 MSTORE POP POP JUMP JUMPDEST PUSH0 PUSH1 0x40 DUP3 ADD SWAP1 POP PUSH2 0x8BF PUSH0 DUP4 ADD DUP6 PUSH2 0x89D JUMP JUMPDEST PUSH2 0x8CC PUSH1 0x20 DUP4 ADD DUP5 PUSH2 0x84D JUMP JUMPDEST SWAP4 SWAP3 POP POP POP JUMP JUMPDEST PUSH32 0x4E487B7100000000000000000000000000000000000000000000000000000000 PUSH0 MSTORE PUSH1 0x11 PUSH1 0x4 MSTORE PUSH1 0x24 PUSH0 REVERT JUMPDEST PUSH0 PUSH2 0x90A DUP3 PUSH2 0x753 JUMP JUMPDEST SWAP2 POP PUSH2 0x915 DUP4 PUSH2 0x753 JUMP JUMPDEST SWAP3 POP DUP3 DUP3 ADD SWAP1 POP DUP1 DUP3 GT ISZERO PUSH2 0x92D JUMPI PUSH2 0x92C PUSH2 0x8D3 JUMP JUMPDEST JUMPDEST SWAP3 SWAP2 POP POP JUMP INVALID LOG2 PUSH5 0x6970667358 0x22 SLT KECCAK256 PUSH26 0x20414288552EAD6DD5A2364734502684AD4576E4A94C27F93017 PUSH15 0x8158CC2E64736F6C634300081A0033 "
				},
				"gasEstimates": {
					"creation": {
						"codeDepositCost": "481800",
						"executionCost": "71152",
						"totalCost": "552952"
					},
					"external": {
						"betAmount()": "2425",
						"betExpiration()": "2447",
						"cancel()": "infinite",
						"makeBet(bytes32)": "71079",
						"player1CommitmentHash(bool,uint256)": "infinite",
						"revealWinner(bool,uint256)": "infinite",
						"takeBet(bool)": "infinite",
						"timeOut()": "infinite"
					}
				},
				"methodIdentifiers": {
					"betAmount()": "d24257c0",
					"betExpiration()": "d97310af",
					"cancel()": "ea8a1af0",
					"makeBet(bytes32)": "284152dc",
					"player1CommitmentHash(bool,uint256)": "ea05a57f",
					"revealWinner(bool,uint256)": "08fb69c6",
					"takeBet(bool)": "38a3fde7",
					"timeOut()": "614d85e1"
				}
			},
			"storageLayout": {
				"storage": [
					{
						"astId": 7,
						"contract": "Contracts/CoinFlip.sol:CoinFlip",
						"label": "player1Address",
						"offset": 0,
						"slot": "0",
						"type": "t_address_payable"
					},
					{
						"astId": 13,
						"contract": "Contracts/CoinFlip.sol:CoinFlip",
						"label": "player2Address",
						"offset": 0,
						"slot": "1",
						"type": "t_address_payable"
					},
					{
						"astId": 15,
						"contract": "Contracts/CoinFlip.sol:CoinFlip",
						"label": "player1Commitment",
						"offset": 0,
						"slot": "2",
						"type": "t_bytes32"
					},
					{
						"astId": 17,
						"contract": "Contracts/CoinFlip.sol:CoinFlip",
						"label": "player2Guess",
						"offset": 0,
						"slot": "3",
						"type": "t_bool"
					},
					{
						"astId": 19,
						"contract": "Contracts/CoinFlip.sol:CoinFlip",
						"label": "betAmount",
						"offset": 0,
						"slot": "4",
						"type": "t_uint256"
					},
					{
						"astId": 26,
						"contract": "Contracts/CoinFlip.sol:CoinFlip",
						"label": "betExpiration",
						"offset": 0,
						"slot": "5",
						"type": "t_uint256"
					}
				],
				"types": {
					"t_address_payable": {
						"encoding": "inplace",
						"label": "address payable",
						"numberOfBytes": "20"
					},
					"t_bool": {
						"encoding": "inplace",
						"label": "bool",
						"numberOfBytes": "1"
					},
					"t_bytes32": {
						"encoding": "inplace",
						"label": "bytes32",
						"numberOfBytes": "32"
					},
					"t_uint256": {
						"encoding": "inplace",
						"label": "uint256",
						"numberOfBytes": "32"
					}
				}
			},
			"userdoc": {
				"kind": "user",
				"methods": {},
				"version": 1
			}
		}
	}
}