{
	"Contracts/FirstToken.sol": {
		"FirstToken": {
			"abi": [
				{
					"inputs": [],
					"stateMutability": "nonpayable",
					"type": "constructor"
				},
				{
					"inputs": [
						{
							"internalType": "address",
							"name": "spender",
							"type": "address"
						},
						{
							"internalType": "uint256",
							"name": "allowance",
							"type": "uint256"
						},
						{
							"internalType": "uint256",
							"name": "needed",
							"type": "uint256"
						}
					],
					"name": "ERC20InsufficientAllowance",
					"type": "error"
				},
				{
					"inputs": [
						{
							"internalType": "address",
							"name": "sender",
							"type": "address"
						},
						{
							"internalType": "uint256",
							"name": "balance",
							"type": "uint256"
						},
						{
							"internalType": "uint256",
							"name": "needed",
							"type": "uint256"
						}
					],
					"name": "ERC20InsufficientBalance",
					"type": "error"
				},
				{
					"inputs": [
						{
							"internalType": "address",
							"name": "approver",
							"type": "address"
						}
					],
					"name": "ERC20InvalidApprover",
					"type": "error"
				},
				{
					"inputs": [
						{
							"internalType": "address",
							"name": "receiver",
							"type": "address"
						}
					],
					"name": "ERC20InvalidReceiver",
					"type": "error"
				},
				{
					"inputs": [
						{
							"internalType": "address",
							"name": "sender",
							"type": "address"
						}
					],
					"name": "ERC20InvalidSender",
					"type": "error"
				},
				{
					"inputs": [
						{
							"internalType": "address",
							"name": "spender",
							"type": "address"
						}
					],
					"name": "ERC20InvalidSpender",
					"type": "error"
				},
				{
					"anonymous": false,
					"inputs": [
						{
							"indexed": true,
							"internalType": "address",
							"name": "owner",
							"type": "address"
						},
						{
							"indexed": true,
							"internalType": "address",
							"name": "spender",
							"type": "address"
						},
						{
							"indexed": false,
							"internalType": "uint256",
							"name": "value",
							"type": "uint256"
						}
					],
					"name": "Approval",
					"type": "event"
				},
				{
					"anonymous": false,
					"inputs": [
						{
							"indexed": true,
							"internalType": "address",
							"name": "from",
							"type": "address"
						},
						{
							"indexed": true,
							"internalType": "address",
							"name": "to",
							"type": "address"
						},
						{
							"indexed": false,
							"internalType": "uint256",
							"name": "value",
							"type": "uint256"
						}
					],
					"name": "Transfer",
					"type": "event"
				},
				{
					"stateMutability": "payable",
					"type": "fallback"
				},
				{
					"inputs": [
						{
							"internalType": "address",
							"name": "owner",
							"type": "address"
						},
						{
							"internalType": "address",
							"name": "spender",
							"type": "address"
						}
					],
					"name": "allowance",
					"outputs": [
						{
							"internalType": "uint256",
							"name": "",
							"type": "uint256"
						}
					],
					"stateMutability": "view",
					"type": "function"
				},
				{
					"inputs": [
						{
							"internalType": "address",
							"name": "spender",
							"type": "address"
						},
						{
							"internalType": "uint256",
							"name": "value",
							"type": "uint256"
						}
					],
					"name": "approve",
					"outputs": [
						{
							"internalType": "bool",
							"name": "",
							"type": "bool"
						}
					],
					"stateMutability": "nonpayable",
					"type": "function"
				},
				{
					"inputs": [
						{
							"internalType": "address",
							"name": "account",
							"type": "address"
						}
					],
					"name": "balanceOf",
					"outputs": [
						{
							"internalType": "uint256",
							"name": "",
							"type": "uint256"
						}
					],
					"stateMutability": "view",
					"type": "function"
				},
				{
					"inputs": [
						{
							"internalType": "uint256",
							"name": "quantity",
							"type": "uint256"
						}
					],
					"name": "buyTokens",
					"outputs": [],
					"stateMutability": "payable",
					"type": "function"
				},
				{
					"inputs": [],
					"name": "decimals",
					"outputs": [
						{
							"internalType": "uint8",
							"name": "",
							"type": "uint8"
						}
					],
					"stateMutability": "view",
					"type": "function"
				},
				{
					"inputs": [
						{
							"internalType": "uint256",
							"name": "quantity",
							"type": "uint256"
						},
						{
							"internalType": "uint256",
							"name": "hypotheticalSupply",
							"type": "uint256"
						}
					],
					"name": "getHypotheticalPrice",
					"outputs": [],
					"stateMutability": "nonpayable",
					"type": "function"
				},
				{
					"inputs": [
						{
							"internalType": "uint256",
							"name": "quantity",
							"type": "uint256"
						}
					],
					"name": "getPurchasePrice",
					"outputs": [
						{
							"internalType": "uint256",
							"name": "",
							"type": "uint256"
						}
					],
					"stateMutability": "nonpayable",
					"type": "function"
				},
				{
					"inputs": [
						{
							"internalType": "uint256",
							"name": "quantity",
							"type": "uint256"
						}
					],
					"name": "getSalePrice",
					"outputs": [
						{
							"internalType": "uint256",
							"name": "",
							"type": "uint256"
						}
					],
					"stateMutability": "nonpayable",
					"type": "function"
				},
				{
					"inputs": [],
					"name": "hypotheticalPrice",
					"outputs": [
						{
							"internalType": "uint256",
							"name": "",
							"type": "uint256"
						}
					],
					"stateMutability": "view",
					"type": "function"
				},
				{
					"inputs": [],
					"name": "name",
					"outputs": [
						{
							"internalType": "string",
							"name": "",
							"type": "string"
						}
					],
					"stateMutability": "view",
					"type": "function"
				},
				{
					"inputs": [],
					"name": "purchasePrice",
					"outputs": [
						{
							"internalType": "uint256",
							"name": "",
							"type": "uint256"
						}
					],
					"stateMutability": "view",
					"type": "function"
				},
				{
					"inputs": [],
					"name": "reserveBalance",
					"outputs": [
						{
							"internalType": "uint256",
							"name": "",
							"type": "uint256"
						}
					],
					"stateMutability": "view",
					"type": "function"
				},
				{
					"inputs": [],
					"name": "salePrice",
					"outputs": [
						{
							"internalType": "uint256",
							"name": "",
							"type": "uint256"
						}
					],
					"stateMutability": "view",
					"type": "function"
				},
				{
					"inputs": [
						{
							"internalType": "uint256",
							"name": "quantity",
							"type": "uint256"
						}
					],
					"name": "sellTokens",
					"outputs": [],
					"stateMutability": "nonpayable",
					"type": "function"
				},
				{
					"inputs": [],
					"name": "symbol",
					"outputs": [
						{
							"internalType": "string",
							"name": "",
							"type": "string"
						}
					],
					"stateMutability": "view",
					"type": "function"
				},
				{
					"inputs": [],
					"name": "totalSupply",
					"outputs": [
						{
							"internalType": "uint256",
							"name": "",
							"type": "uint256"
						}
					],
					"stateMutability": "view",
					"type": "function"
				},
				{
					"inputs": [
						{
							"internalType": "address",
							"name": "to",
							"type": "address"
						},
						{
							"internalType": "uint256",
							"name": "value",
							"type": "uint256"
						}
					],
					"name": "transfer",
					"outputs": [
						{
							"internalType": "bool",
							"name": "",
							"type": "bool"
						}
					],
					"stateMutability": "nonpayable",
					"type": "function"
				},
				{
					"inputs": [
						{
							"internalType": "address",
							"name": "from",
							"type": "address"
						},
						{
							"internalType": "address",
							"name": "to",
							"type": "address"
						},
						{
							"internalType": "uint256",
							"name": "value",
							"type": "uint256"
						}
					],
					"name": "transferFrom",
					"outputs": [
						{
							"internalType": "bool",
							"name": "",
							"type": "bool"
						}
					],
					"stateMutability": "nonpayable",
					"type": "function"
				},
				{
					"stateMutability": "payable",
					"type": "receive"
				}
			],
			"devdoc": {
				"errors": {
					"ERC20InsufficientAllowance(address,uint256,uint256)": [
						{
							"details": "Indicates a failure with the `spender`’s `allowance`. Used in transfers.",
							"params": {
								"allowance": "Amount of tokens a `spender` is allowed to operate with.",
								"needed": "Minimum amount required to perform a transfer.",
								"spender": "Address that may be allowed to operate on tokens without being their owner."
							}
						}
					],
					"ERC20InsufficientBalance(address,uint256,uint256)": [
						{
							"details": "Indicates an error related to the current `balance` of a `sender`. Used in transfers.",
							"params": {
								"balance": "Current balance for the interacting account.",
								"needed": "Minimum amount required to perform a transfer.",
								"sender": "Address whose tokens are being transferred."
							}
						}
					],
					"ERC20InvalidApprover(address)": [
						{
							"details": "Indicates a failure with the `approver` of a token to be approved. Used in approvals.",
							"params": {
								"approver": "Address initiating an approval operation."
							}
						}
					],
					"ERC20InvalidReceiver(address)": [
						{
							"details": "Indicates a failure with the token `receiver`. Used in transfers.",
							"params": {
								"receiver": "Address to which tokens are being transferred."
							}
						}
					],
					"ERC20InvalidSender(address)": [
						{
							"details": "Indicates a failure with the token `sender`. Used in transfers.",
							"params": {
								"sender": "Address whose tokens are being transferred."
							}
						}
					],
					"ERC20InvalidSpender(address)": [
						{
							"details": "Indicates a failure with the `spender` to be approved. Used in approvals.",
							"params": {
								"spender": "Address that may be allowed to operate on tokens without being their owner."
							}
						}
					]
				},
				"events": {
					"Approval(address,address,uint256)": {
						"details": "Emitted when the allowance of a `spender` for an `owner` is set by a call to {approve}. `value` is the new allowance."
					},
					"Transfer(address,address,uint256)": {
						"details": "Emitted when `value` tokens are moved from one account (`from`) to another (`to`). Note that `value` may be zero."
					}
				},
				"kind": "dev",
				"methods": {
					"allowance(address,address)": {
						"details": "Returns the remaining number of tokens that `spender` will be allowed to spend on behalf of `owner` through {transferFrom}. This is zero by default. This value changes when {approve} or {transferFrom} are called."
					},
					"approve(address,uint256)": {
						"details": "See {IERC20-approve}. NOTE: If `value` is the maximum `uint256`, the allowance is not updated on `transferFrom`. This is semantically equivalent to an infinite approval. Requirements: - `spender` cannot be the zero address."
					},
					"balanceOf(address)": {
						"details": "Returns the value of tokens owned by `account`."
					},
					"decimals()": {
						"details": "Returns the number of decimals used to get its user representation. For example, if `decimals` equals `2`, a balance of `505` tokens should be displayed to a user as `5.05` (`505 / 10 ** 2`). Tokens usually opt for a value of 18, imitating the relationship between Ether and Wei. This is the default value returned by this function, unless it's overridden. NOTE: This information is only used for _display_ purposes: it in no way affects any of the arithmetic of the contract, including {IERC20-balanceOf} and {IERC20-transfer}."
					},
					"name()": {
						"details": "Returns the name of the token."
					},
					"symbol()": {
						"details": "Returns the symbol of the token, usually a shorter version of the name."
					},
					"totalSupply()": {
						"details": "Returns the value of tokens in existence."
					},
					"transfer(address,uint256)": {
						"details": "See {IERC20-transfer}. Requirements: - `to` cannot be the zero address. - the caller must have a balance of at least `value`."
					},
					"transferFrom(address,address,uint256)": {
						"details": "See {IERC20-transferFrom}. Skips emitting an {Approval} event indicating an allowance update. This is not required by the ERC. See {xref-ERC20-_approve-address-address-uint256-bool-}[_approve]. NOTE: Does not update the allowance if the current allowance is the maximum `uint256`. Requirements: - `from` and `to` cannot be the zero address. - `from` must have a balance of at least `value`. - the caller must have allowance for ``from``'s tokens of at least `value`."
					}
				},
				"version": 1
			},
			"evm": {
				"assembly": "    /* \"Contracts/FirstToken.sol\":122:9053  contract FirstToken is ERC20 {... */\n  mstore(0x40, 0x80)\n    /* \"Contracts/FirstToken.sol\":337:338  0 */\n  0x00\n    /* \"Contracts/FirstToken.sol\":314:338  uint256 _totalSupply = 0 */\n  0x05\n  sstore\n    /* \"Contracts/FirstToken.sol\":691:692  0 */\n  0x00\n    /* \"Contracts/FirstToken.sol\":660:692  uint256 public purchasePrice = 0 */\n  0x06\n  sstore\n    /* \"Contracts/FirstToken.sol\":725:726  0 */\n  0x00\n    /* \"Contracts/FirstToken.sol\":698:726  uint256 public salePrice = 0 */\n  0x07\n  sstore\n    /* \"Contracts/FirstToken.sol\":823:824  0 */\n  0x00\n    /* \"Contracts/FirstToken.sol\":788:824  uint256 public hypotheticalPrice = 0 */\n  0x08\n  sstore\n    /* \"Contracts/FirstToken.sol\":921:922  0 */\n  0x00\n    /* \"Contracts/FirstToken.sol\":889:922  uint256 public reserveBalance = 0 */\n  0x09\n  sstore\n    /* \"Contracts/FirstToken.sol\":1327:1373  constructor() ERC20(tokenName, tokenSymbol) {} */\n  callvalue\n  dup1\n  iszero\n  tag_1\n  jumpi\n  0x00\n  dup1\n  revert\ntag_1:\n  pop\n    /* \"Contracts/FirstToken.sol\":1347:1356  tokenName */\n  mload(0x40)\n  dup1\n  0x40\n  add\n  0x40\n  mstore\n  dup1\n  0x0a\n  dup2\n  mstore\n  0x20\n  add\n  0x4669727374546f6b656e00000000000000000000000000000000000000000000\n  dup2\n  mstore\n  pop\n    /* \"Contracts/FirstToken.sol\":1358:1369  tokenSymbol */\n  mload(0x40)\n  dup1\n  0x40\n  add\n  0x40\n  mstore\n  dup1\n  0x03\n  dup2\n  mstore\n  0x20\n  add\n  0x46544b0000000000000000000000000000000000000000000000000000000000\n  dup2\n  mstore\n  pop\n    /* \"@openzeppelin/contracts/token/ERC20/ERC20.sol\":1656:1661  name_ */\n  dup2\n    /* \"@openzeppelin/contracts/token/ERC20/ERC20.sol\":1648:1653  _name */\n  0x03\n    /* \"@openzeppelin/contracts/token/ERC20/ERC20.sol\":1648:1661  _name = name_ */\n  swap1\n  dup2\n  tag_5\n  swap2\n  swap1\n  tag_6\n  jump\t// in\ntag_5:\n  pop\n    /* \"@openzeppelin/contracts/token/ERC20/ERC20.sol\":1681:1688  symbol_ */\n  dup1\n    /* \"@openzeppelin/contracts/token/ERC20/ERC20.sol\":1671:1678  _symbol */\n  0x04\n    /* \"@openzeppelin/contracts/token/ERC20/ERC20.sol\":1671:1688  _symbol = symbol_ */\n  swap1\n  dup2\n  tag_7\n  swap2\n  swap1\n  tag_6\n  jump\t// in\ntag_7:\n  pop\n    /* \"@openzeppelin/contracts/token/ERC20/ERC20.sol\":1582:1695  constructor(string memory name_, string memory symbol_) {... */\n  pop\n  pop\n    /* \"Contracts/FirstToken.sol\":122:9053  contract FirstToken is ERC20 {... */\n  jump(tag_9)\n    /* \"#utility.yul\":7:106   */\ntag_10:\n    /* \"#utility.yul\":59:65   */\n  0x00\n    /* \"#utility.yul\":93:98   */\n  dup2\n    /* \"#utility.yul\":87:99   */\n  mload\n    /* \"#utility.yul\":77:99   */\n  swap1\n  pop\n    /* \"#utility.yul\":7:106   */\n  swap2\n  swap1\n  pop\n  jump\t// out\n    /* \"#utility.yul\":112:292   */\ntag_11:\n    /* \"#utility.yul\":160:237   */\n  0x4e487b7100000000000000000000000000000000000000000000000000000000\n    /* \"#utility.yul\":157:158   */\n  0x00\n    /* \"#utility.yul\":150:238   */\n  mstore\n    /* \"#utility.yul\":257:261   */\n  0x41\n    /* \"#utility.yul\":254:255   */\n  0x04\n    /* \"#utility.yul\":247:262   */\n  mstore\n    /* \"#utility.yul\":281:285   */\n  0x24\n    /* \"#utility.yul\":278:279   */\n  0x00\n    /* \"#utility.yul\":271:286   */\n  revert\n    /* \"#utility.yul\":298:478   */\ntag_12:\n    /* \"#utility.yul\":346:423   */\n  0x4e487b7100000000000000000000000000000000000000000000000000000000\n    /* \"#utility.yul\":343:344   */\n  0x00\n    /* \"#utility.yul\":336:424   */\n  mstore\n    /* \"#utility.yul\":443:447   */\n  0x22\n    /* \"#utility.yul\":440:441   */\n  0x04\n    /* \"#utility.yul\":433:448   */\n  mstore\n    /* \"#utility.yul\":467:471   */\n  0x24\n    /* \"#utility.yul\":464:465   */\n  0x00\n    /* \"#utility.yul\":457:472   */\n  revert\n    /* \"#utility.yul\":484:804   */\ntag_13:\n    /* \"#utility.yul\":528:534   */\n  0x00\n    /* \"#utility.yul\":565:566   */\n  0x02\n    /* \"#utility.yul\":559:563   */\n  dup3\n    /* \"#utility.yul\":555:567   */\n  div\n    /* \"#utility.yul\":545:567   */\n  swap1\n  pop\n    /* \"#utility.yul\":612:613   */\n  0x01\n    /* \"#utility.yul\":606:610   */\n  dup3\n    /* \"#utility.yul\":602:614   */\n  and\n    /* \"#utility.yul\":633:651   */\n  dup1\n    /* \"#utility.yul\":623:704   */\n  tag_35\n  jumpi\n    /* \"#utility.yul\":689:693   */\n  0x7f\n    /* \"#utility.yul\":681:687   */\n  dup3\n    /* \"#utility.yul\":677:694   */\n  and\n    /* \"#utility.yul\":667:694   */\n  swap2\n  pop\n    /* \"#utility.yul\":623:704   */\ntag_35:\n    /* \"#utility.yul\":751:753   */\n  0x20\n    /* \"#utility.yul\":743:749   */\n  dup3\n    /* \"#utility.yul\":740:754   */\n  lt\n    /* \"#utility.yul\":720:738   */\n  dup2\n    /* \"#utility.yul\":717:755   */\n  sub\n    /* \"#utility.yul\":714:798   */\n  tag_36\n  jumpi\n    /* \"#utility.yul\":770:788   */\n  tag_37\n  tag_12\n  jump\t// in\ntag_37:\n    /* \"#utility.yul\":714:798   */\ntag_36:\n    /* \"#utility.yul\":535:804   */\n  pop\n    /* \"#utility.yul\":484:804   */\n  swap2\n  swap1\n  pop\n  jump\t// out\n    /* \"#utility.yul\":810:951   */\ntag_14:\n    /* \"#utility.yul\":859:863   */\n  0x00\n    /* \"#utility.yul\":882:885   */\n  dup2\n    /* \"#utility.yul\":874:885   */\n  swap1\n  pop\n    /* \"#utility.yul\":905:908   */\n  dup2\n    /* \"#utility.yul\":902:903   */\n  0x00\n    /* \"#utility.yul\":895:909   */\n  mstore\n    /* \"#utility.yul\":939:943   */\n  0x20\n    /* \"#utility.yul\":936:937   */\n  0x00\n    /* \"#utility.yul\":926:944   */\n  keccak256\n    /* \"#utility.yul\":918:944   */\n  swap1\n  pop\n    /* \"#utility.yul\":810:951   */\n  swap2\n  swap1\n  pop\n  jump\t// out\n    /* \"#utility.yul\":957:1050   */\ntag_15:\n    /* \"#utility.yul\":994:1000   */\n  0x00\n    /* \"#utility.yul\":1041:1043   */\n  0x20\n    /* \"#utility.yul\":1036:1038   */\n  0x1f\n    /* \"#utility.yul\":1029:1034   */\n  dup4\n    /* \"#utility.yul\":1025:1039   */\n  add\n    /* \"#utility.yul\":1021:1044   */\n  div\n    /* \"#utility.yul\":1011:1044   */\n  swap1\n  pop\n    /* \"#utility.yul\":957:1050   */\n  swap2\n  swap1\n  pop\n  jump\t// out\n    /* \"#utility.yul\":1056:1163   */\ntag_16:\n    /* \"#utility.yul\":1100:1108   */\n  0x00\n    /* \"#utility.yul\":1150:1155   */\n  dup3\n    /* \"#utility.yul\":1144:1148   */\n  dup3\n    /* \"#utility.yul\":1140:1156   */\n  shl\n    /* \"#utility.yul\":1119:1156   */\n  swap1\n  pop\n    /* \"#utility.yul\":1056:1163   */\n  swap3\n  swap2\n  pop\n  pop\n  jump\t// out\n    /* \"#utility.yul\":1169:1562   */\ntag_17:\n    /* \"#utility.yul\":1238:1244   */\n  0x00\n    /* \"#utility.yul\":1288:1289   */\n  0x08\n    /* \"#utility.yul\":1276:1286   */\n  dup4\n    /* \"#utility.yul\":1272:1290   */\n  mul\n    /* \"#utility.yul\":1311:1408   */\n  tag_42\n    /* \"#utility.yul\":1341:1407   */\n  0xffffffffffffffffffffffffffffffffffffffffffffffffffffffffffffffff\n    /* \"#utility.yul\":1330:1339   */\n  dup3\n    /* \"#utility.yul\":1311:1408   */\n  tag_16\n  jump\t// in\ntag_42:\n    /* \"#utility.yul\":1429:1468   */\n  tag_43\n    /* \"#utility.yul\":1459:1467   */\n  dup7\n    /* \"#utility.yul\":1448:1457   */\n  dup4\n    /* \"#utility.yul\":1429:1468   */\n  tag_16\n  jump\t// in\ntag_43:\n    /* \"#utility.yul\":1417:1468   */\n  swap6\n  pop\n    /* \"#utility.yul\":1501:1505   */\n  dup1\n    /* \"#utility.yul\":1497:1506   */\n  not\n    /* \"#utility.yul\":1490:1495   */\n  dup5\n    /* \"#utility.yul\":1486:1507   */\n  and\n    /* \"#utility.yul\":1477:1507   */\n  swap4\n  pop\n    /* \"#utility.yul\":1550:1554   */\n  dup1\n    /* \"#utility.yul\":1540:1548   */\n  dup7\n    /* \"#utility.yul\":1536:1555   */\n  and\n    /* \"#utility.yul\":1529:1534   */\n  dup5\n    /* \"#utility.yul\":1526:1556   */\n  or\n    /* \"#utility.yul\":1516:1556   */\n  swap3\n  pop\n    /* \"#utility.yul\":1245:1562   */\n  pop\n  pop\n    /* \"#utility.yul\":1169:1562   */\n  swap4\n  swap3\n  pop\n  pop\n  pop\n  jump\t// out\n    /* \"#utility.yul\":1568:1645   */\ntag_18:\n    /* \"#utility.yul\":1605:1612   */\n  0x00\n    /* \"#utility.yul\":1634:1639   */\n  dup2\n    /* \"#utility.yul\":1623:1639   */\n  swap1\n  pop\n    /* \"#utility.yul\":1568:1645   */\n  swap2\n  swap1\n  pop\n  jump\t// out\n    /* \"#utility.yul\":1651:1711   */\ntag_19:\n    /* \"#utility.yul\":1679:1682   */\n  0x00\n    /* \"#utility.yul\":1700:1705   */\n  dup2\n    /* \"#utility.yul\":1693:1705   */\n  swap1\n  pop\n    /* \"#utility.yul\":1651:1711   */\n  swap2\n  swap1\n  pop\n  jump\t// out\n    /* \"#utility.yul\":1717:1859   */\ntag_20:\n    /* \"#utility.yul\":1767:1776   */\n  0x00\n    /* \"#utility.yul\":1800:1853   */\n  tag_47\n    /* \"#utility.yul\":1818:1852   */\n  tag_48\n    /* \"#utility.yul\":1827:1851   */\n  tag_49\n    /* \"#utility.yul\":1845:1850   */\n  dup5\n    /* \"#utility.yul\":1827:1851   */\n  tag_18\n  jump\t// in\ntag_49:\n    /* \"#utility.yul\":1818:1852   */\n  tag_19\n  jump\t// in\ntag_48:\n    /* \"#utility.yul\":1800:1853   */\n  tag_18\n  jump\t// in\ntag_47:\n    /* \"#utility.yul\":1787:1853   */\n  swap1\n  pop\n    /* \"#utility.yul\":1717:1859   */\n  swap2\n  swap1\n  pop\n  jump\t// out\n    /* \"#utility.yul\":1865:1940   */\ntag_21:\n    /* \"#utility.yul\":1908:1911   */\n  0x00\n    /* \"#utility.yul\":1929:1934   */\n  dup2\n    /* \"#utility.yul\":1922:1934   */\n  swap1\n  pop\n    /* \"#utility.yul\":1865:1940   */\n  swap2\n  swap1\n  pop\n  jump\t// out\n    /* \"#utility.yul\":1946:2215   */\ntag_22:\n    /* \"#utility.yul\":2056:2095   */\n  tag_52\n    /* \"#utility.yul\":2087:2094   */\n  dup4\n    /* \"#utility.yul\":2056:2095   */\n  tag_20\n  jump\t// in\ntag_52:\n    /* \"#utility.yul\":2117:2208   */\n  tag_53\n    /* \"#utility.yul\":2166:2207   */\n  tag_54\n    /* \"#utility.yul\":2190:2206   */\n  dup3\n    /* \"#utility.yul\":2166:2207   */\n  tag_21\n  jump\t// in\ntag_54:\n    /* \"#utility.yul\":2158:2164   */\n  dup5\n    /* \"#utility.yul\":2151:2155   */\n  dup5\n    /* \"#utility.yul\":2145:2156   */\n  sload\n    /* \"#utility.yul\":2117:2208   */\n  tag_17\n  jump\t// in\ntag_53:\n    /* \"#utility.yul\":2111:2115   */\n  dup3\n    /* \"#utility.yul\":2104:2209   */\n  sstore\n    /* \"#utility.yul\":2022:2215   */\n  pop\n    /* \"#utility.yul\":1946:2215   */\n  pop\n  pop\n  pop\n  jump\t// out\n    /* \"#utility.yul\":2221:2294   */\ntag_23:\n    /* \"#utility.yul\":2266:2269   */\n  0x00\n    /* \"#utility.yul\":2221:2294   */\n  swap1\n  jump\t// out\n    /* \"#utility.yul\":2300:2489   */\ntag_24:\n    /* \"#utility.yul\":2377:2409   */\n  tag_57\n  tag_23\n  jump\t// in\ntag_57:\n    /* \"#utility.yul\":2418:2483   */\n  tag_58\n    /* \"#utility.yul\":2476:2482   */\n  dup2\n    /* \"#utility.yul\":2468:2474   */\n  dup5\n    /* \"#utility.yul\":2462:2466   */\n  dup5\n    /* \"#utility.yul\":2418:2483   */\n  tag_22\n  jump\t// in\ntag_58:\n    /* \"#utility.yul\":2353:2489   */\n  pop\n    /* \"#utility.yul\":2300:2489   */\n  pop\n  pop\n  jump\t// out\n    /* \"#utility.yul\":2495:2681   */\ntag_25:\n    /* \"#utility.yul\":2555:2675   */\ntag_60:\n    /* \"#utility.yul\":2572:2575   */\n  dup2\n    /* \"#utility.yul\":2565:2570   */\n  dup2\n    /* \"#utility.yul\":2562:2576   */\n  lt\n    /* \"#utility.yul\":2555:2675   */\n  iszero\n  tag_62\n  jumpi\n    /* \"#utility.yul\":2626:2665   */\n  tag_63\n    /* \"#utility.yul\":2663:2664   */\n  0x00\n    /* \"#utility.yul\":2656:2661   */\n  dup3\n    /* \"#utility.yul\":2626:2665   */\n  tag_24\n  jump\t// in\ntag_63:\n    /* \"#utility.yul\":2599:2600   */\n  0x01\n    /* \"#utility.yul\":2592:2597   */\n  dup2\n    /* \"#utility.yul\":2588:2601   */\n  add\n    /* \"#utility.yul\":2579:2601   */\n  swap1\n  pop\n    /* \"#utility.yul\":2555:2675   */\n  jump(tag_60)\ntag_62:\n    /* \"#utility.yul\":2495:2681   */\n  pop\n  pop\n  jump\t// out\n    /* \"#utility.yul\":2687:3230   */\ntag_26:\n    /* \"#utility.yul\":2788:2790   */\n  0x1f\n    /* \"#utility.yul\":2783:2786   */\n  dup3\n    /* \"#utility.yul\":2780:2791   */\n  gt\n    /* \"#utility.yul\":2777:3223   */\n  iszero\n  tag_65\n  jumpi\n    /* \"#utility.yul\":2822:2860   */\n  tag_66\n    /* \"#utility.yul\":2854:2859   */\n  dup2\n    /* \"#utility.yul\":2822:2860   */\n  tag_14\n  jump\t// in\ntag_66:\n    /* \"#utility.yul\":2906:2935   */\n  tag_67\n    /* \"#utility.yul\":2924:2934   */\n  dup5\n    /* \"#utility.yul\":2906:2935   */\n  tag_15\n  jump\t// in\ntag_67:\n    /* \"#utility.yul\":2896:2904   */\n  dup2\n    /* \"#utility.yul\":2892:2936   */\n  add\n    /* \"#utility.yul\":3089:3091   */\n  0x20\n    /* \"#utility.yul\":3077:3087   */\n  dup6\n    /* \"#utility.yul\":3074:3092   */\n  lt\n    /* \"#utility.yul\":3071:3120   */\n  iszero\n  tag_68\n  jumpi\n    /* \"#utility.yul\":3110:3118   */\n  dup2\n    /* \"#utility.yul\":3095:3118   */\n  swap1\n  pop\n    /* \"#utility.yul\":3071:3120   */\ntag_68:\n    /* \"#utility.yul\":3133:3213   */\n  tag_69\n    /* \"#utility.yul\":3189:3211   */\n  tag_70\n    /* \"#utility.yul\":3207:3210   */\n  dup6\n    /* \"#utility.yul\":3189:3211   */\n  tag_15\n  jump\t// in\ntag_70:\n    /* \"#utility.yul\":3179:3187   */\n  dup4\n    /* \"#utility.yul\":3175:3212   */\n  add\n    /* \"#utility.yul\":3162:3173   */\n  dup3\n    /* \"#utility.yul\":3133:3213   */\n  tag_25\n  jump\t// in\ntag_69:\n    /* \"#utility.yul\":2792:3223   */\n  pop\n  pop\n    /* \"#utility.yul\":2777:3223   */\ntag_65:\n    /* \"#utility.yul\":2687:3230   */\n  pop\n  pop\n  pop\n  jump\t// out\n    /* \"#utility.yul\":3236:3353   */\ntag_27:\n    /* \"#utility.yul\":3290:3298   */\n  0x00\n    /* \"#utility.yul\":3340:3345   */\n  dup3\n    /* \"#utility.yul\":3334:3338   */\n  dup3\n    /* \"#utility.yul\":3330:3346   */\n  shr\n    /* \"#utility.yul\":3309:3346   */\n  swap1\n  pop\n    /* \"#utility.yul\":3236:3353   */\n  swap3\n  swap2\n  pop\n  pop\n  jump\t// out\n    /* \"#utility.yul\":3359:3528   */\ntag_28:\n    /* \"#utility.yul\":3403:3409   */\n  0x00\n    /* \"#utility.yul\":3436:3487   */\n  tag_73\n    /* \"#utility.yul\":3484:3485   */\n  0x00\n    /* \"#utility.yul\":3480:3486   */\n  not\n    /* \"#utility.yul\":3472:3477   */\n  dup5\n    /* \"#utility.yul\":3469:3470   */\n  0x08\n    /* \"#utility.yul\":3465:3478   */\n  mul\n    /* \"#utility.yul\":3436:3487   */\n  tag_27\n  jump\t// in\ntag_73:\n    /* \"#utility.yul\":3432:3488   */\n  not\n    /* \"#utility.yul\":3517:3521   */\n  dup1\n    /* \"#utility.yul\":3511:3515   */\n  dup4\n    /* \"#utility.yul\":3507:3522   */\n  and\n    /* \"#utility.yul\":3497:3522   */\n  swap2\n  pop\n    /* \"#utility.yul\":3410:3528   */\n  pop\n    /* \"#utility.yul\":3359:3528   */\n  swap3\n  swap2\n  pop\n  pop\n  jump\t// out\n    /* \"#utility.yul\":3533:3828   */\ntag_29:\n    /* \"#utility.yul\":3609:3613   */\n  0x00\n    /* \"#utility.yul\":3755:3784   */\n  tag_75\n    /* \"#utility.yul\":3780:3783   */\n  dup4\n    /* \"#utility.yul\":3774:3778   */\n  dup4\n    /* \"#utility.yul\":3755:3784   */\n  tag_28\n  jump\t// in\ntag_75:\n    /* \"#utility.yul\":3747:3784   */\n  swap2\n  pop\n    /* \"#utility.yul\":3817:3820   */\n  dup3\n    /* \"#utility.yul\":3814:3815   */\n  0x02\n    /* \"#utility.yul\":3810:3821   */\n  mul\n    /* \"#utility.yul\":3804:3808   */\n  dup3\n    /* \"#utility.yul\":3801:3822   */\n  or\n    /* \"#utility.yul\":3793:3822   */\n  swap1\n  pop\n    /* \"#utility.yul\":3533:3828   */\n  swap3\n  swap2\n  pop\n  pop\n  jump\t// out\n    /* \"#utility.yul\":3833:5228   */\ntag_6:\n    /* \"#utility.yul\":3950:3987   */\n  tag_77\n    /* \"#utility.yul\":3983:3986   */\n  dup3\n    /* \"#utility.yul\":3950:3987   */\n  tag_10\n  jump\t// in\ntag_77:\n    /* \"#utility.yul\":4052:4070   */\n  0xffffffffffffffff\n    /* \"#utility.yul\":4044:4050   */\n  dup2\n    /* \"#utility.yul\":4041:4071   */\n  gt\n    /* \"#utility.yul\":4038:4094   */\n  iszero\n  tag_78\n  jumpi\n    /* \"#utility.yul\":4074:4092   */\n  tag_79\n  tag_11\n  jump\t// in\ntag_79:\n    /* \"#utility.yul\":4038:4094   */\ntag_78:\n    /* \"#utility.yul\":4118:4156   */\n  tag_80\n    /* \"#utility.yul\":4150:4154   */\n  dup3\n    /* \"#utility.yul\":4144:4155   */\n  sload\n    /* \"#utility.yul\":4118:4156   */\n  tag_13\n  jump\t// in\ntag_80:\n    /* \"#utility.yul\":4203:4270   */\n  tag_81\n    /* \"#utility.yul\":4263:4269   */\n  dup3\n    /* \"#utility.yul\":4255:4261   */\n  dup3\n    /* \"#utility.yul\":4249:4253   */\n  dup6\n    /* \"#utility.yul\":4203:4270   */\n  tag_26\n  jump\t// in\ntag_81:\n    /* \"#utility.yul\":4297:4298   */\n  0x00\n    /* \"#utility.yul\":4321:4325   */\n  0x20\n    /* \"#utility.yul\":4308:4325   */\n  swap1\n  pop\n    /* \"#utility.yul\":4353:4355   */\n  0x1f\n    /* \"#utility.yul\":4345:4351   */\n  dup4\n    /* \"#utility.yul\":4342:4356   */\n  gt\n    /* \"#utility.yul\":4370:4371   */\n  0x01\n    /* \"#utility.yul\":4365:4983   */\n  dup2\n  eq\n  tag_83\n  jumpi\n    /* \"#utility.yul\":5027:5028   */\n  0x00\n    /* \"#utility.yul\":5044:5050   */\n  dup5\n    /* \"#utility.yul\":5041:5118   */\n  iszero\n  tag_84\n  jumpi\n    /* \"#utility.yul\":5093:5102   */\n  dup3\n    /* \"#utility.yul\":5088:5091   */\n  dup8\n    /* \"#utility.yul\":5084:5103   */\n  add\n    /* \"#utility.yul\":5078:5104   */\n  mload\n    /* \"#utility.yul\":5069:5104   */\n  swap1\n  pop\n    /* \"#utility.yul\":5041:5118   */\ntag_84:\n    /* \"#utility.yul\":5144:5211   */\n  tag_85\n    /* \"#utility.yul\":5204:5210   */\n  dup6\n    /* \"#utility.yul\":5197:5202   */\n  dup3\n    /* \"#utility.yul\":5144:5211   */\n  tag_29\n  jump\t// in\ntag_85:\n    /* \"#utility.yul\":5138:5142   */\n  dup7\n    /* \"#utility.yul\":5131:5212   */\n  sstore\n    /* \"#utility.yul\":5000:5222   */\n  pop\n    /* \"#utility.yul\":4335:5222   */\n  jump(tag_82)\n    /* \"#utility.yul\":4365:4983   */\ntag_83:\n    /* \"#utility.yul\":4417:4421   */\n  0x1f\n    /* \"#utility.yul\":4413:4422   */\n  not\n    /* \"#utility.yul\":4405:4411   */\n  dup5\n    /* \"#utility.yul\":4401:4423   */\n  and\n    /* \"#utility.yul\":4451:4488   */\n  tag_86\n    /* \"#utility.yul\":4483:4487   */\n  dup7\n    /* \"#utility.yul\":4451:4488   */\n  tag_14\n  jump\t// in\ntag_86:\n    /* \"#utility.yul\":4510:4511   */\n  0x00\n    /* \"#utility.yul\":4524:4732   */\ntag_87:\n    /* \"#utility.yul\":4538:4545   */\n  dup3\n    /* \"#utility.yul\":4535:4536   */\n  dup2\n    /* \"#utility.yul\":4532:4546   */\n  lt\n    /* \"#utility.yul\":4524:4732   */\n  iszero\n  tag_89\n  jumpi\n    /* \"#utility.yul\":4617:4626   */\n  dup5\n    /* \"#utility.yul\":4612:4615   */\n  dup10\n    /* \"#utility.yul\":4608:4627   */\n  add\n    /* \"#utility.yul\":4602:4628   */\n  mload\n    /* \"#utility.yul\":4594:4600   */\n  dup3\n    /* \"#utility.yul\":4587:4629   */\n  sstore\n    /* \"#utility.yul\":4668:4669   */\n  0x01\n    /* \"#utility.yul\":4660:4666   */\n  dup3\n    /* \"#utility.yul\":4656:4670   */\n  add\n    /* \"#utility.yul\":4646:4670   */\n  swap2\n  pop\n    /* \"#utility.yul\":4715:4717   */\n  0x20\n    /* \"#utility.yul\":4704:4713   */\n  dup6\n    /* \"#utility.yul\":4700:4718   */\n  add\n    /* \"#utility.yul\":4687:4718   */\n  swap5\n  pop\n    /* \"#utility.yul\":4561:4565   */\n  0x20\n    /* \"#utility.yul\":4558:4559   */\n  dup2\n    /* \"#utility.yul\":4554:4566   */\n  add\n    /* \"#utility.yul\":4549:4566   */\n  swap1\n  pop\n    /* \"#utility.yul\":4524:4732   */\n  jump(tag_87)\ntag_89:\n    /* \"#utility.yul\":4760:4766   */\n  dup7\n    /* \"#utility.yul\":4751:4758   */\n  dup4\n    /* \"#utility.yul\":4748:4767   */\n  lt\n    /* \"#utility.yul\":4745:4924   */\n  iszero\n  tag_90\n  jumpi\n    /* \"#utility.yul\":4818:4827   */\n  dup5\n    /* \"#utility.yul\":4813:4816   */\n  dup10\n    /* \"#utility.yul\":4809:4828   */\n  add\n    /* \"#utility.yul\":4803:4829   */\n  mload\n    /* \"#utility.yul\":4861:4909   */\n  tag_91\n    /* \"#utility.yul\":4903:4907   */\n  0x1f\n    /* \"#utility.yul\":4895:4901   */\n  dup10\n    /* \"#utility.yul\":4891:4908   */\n  and\n    /* \"#utility.yul\":4880:4889   */\n  dup3\n    /* \"#utility.yul\":4861:4909   */\n  tag_28\n  jump\t// in\ntag_91:\n    /* \"#utility.yul\":4853:4859   */\n  dup4\n    /* \"#utility.yul\":4846:4910   */\n  sstore\n    /* \"#utility.yul\":4768:4924   */\n  pop\n    /* \"#utility.yul\":4745:4924   */\ntag_90:\n    /* \"#utility.yul\":4970:4971   */\n  0x01\n    /* \"#utility.yul\":4966:4967   */\n  0x02\n    /* \"#utility.yul\":4958:4964   */\n  dup9\n    /* \"#utility.yul\":4954:4968   */\n  mul\n    /* \"#utility.yul\":4950:4972   */\n  add\n    /* \"#utility.yul\":4944:4948   */\n  dup9\n    /* \"#utility.yul\":4937:4973   */\n  sstore\n    /* \"#utility.yul\":4372:4983   */\n  pop\n  pop\n  pop\n    /* \"#utility.yul\":4335:5222   */\ntag_82:\n  pop\n    /* \"#utility.yul\":3925:5228   */\n  pop\n  pop\n  pop\n    /* \"#utility.yul\":3833:5228   */\n  pop\n  pop\n  jump\t// out\n    /* \"Contracts/FirstToken.sol\":122:9053  contract FirstToken is ERC20 {... */\ntag_9:\n  dataSize(sub_0)\n  dup1\n  dataOffset(sub_0)\n  0x00\n  codecopy\n  0x00\n  return\nstop\n\nsub_0: assembly {\n        /* \"Contracts/FirstToken.sol\":122:9053  contract FirstToken is ERC20 {... */\n      mstore(0x40, 0x80)\n      jumpi(tag_1, lt(calldatasize, 0x04))\n      shr(0xe0, calldataload(0x00))\n      dup1\n      0x8b667c79\n      gt\n      tag_21\n      jumpi\n      dup1\n      0xc59d5633\n      gt\n      tag_22\n      jumpi\n      dup1\n      0xc59d5633\n      eq\n      tag_16\n      jumpi\n      dup1\n      0xdd62ed3e\n      eq\n      tag_17\n      jumpi\n      dup1\n      0xdefd6c5f\n      eq\n      tag_18\n      jumpi\n      dup1\n      0xf51f96dd\n      eq\n      tag_19\n      jumpi\n      dup1\n      0xf8eb5fc5\n      eq\n      tag_20\n      jumpi\n      jump(tag_2)\n    tag_22:\n      dup1\n      0x8b667c79\n      eq\n      tag_12\n      jumpi\n      dup1\n      0x95d89b41\n      eq\n      tag_13\n      jumpi\n      dup1\n      0xa10954fe\n      eq\n      tag_14\n      jumpi\n      dup1\n      0xa9059cbb\n      eq\n      tag_15\n      jumpi\n      jump(tag_2)\n    tag_21:\n      dup1\n      0x313ce567\n      gt\n      tag_23\n      jumpi\n      dup1\n      0x313ce567\n      eq\n      tag_7\n      jumpi\n      dup1\n      0x3610724e\n      eq\n      tag_8\n      jumpi\n      dup1\n      0x4ef5af32\n      eq\n      tag_9\n      jumpi\n      dup1\n      0x6c11bcd3\n      eq\n      tag_10\n      jumpi\n      dup1\n      0x70a08231\n      eq\n      tag_11\n      jumpi\n      jump(tag_2)\n    tag_23:\n      dup1\n      0x06fdde03\n      eq\n      tag_3\n      jumpi\n      dup1\n      0x095ea7b3\n      eq\n      tag_4\n      jumpi\n      dup1\n      0x18160ddd\n      eq\n      tag_5\n      jumpi\n      dup1\n      0x23b872dd\n      eq\n      tag_6\n      jumpi\n      jump(tag_2)\n    tag_1:\n      jumpi(tag_2, calldatasize)\n        /* \"Contracts/FirstToken.sol\":8473:8489  uint256 quantity */\n      0x00\n        /* \"Contracts/FirstToken.sol\":8503:8522  buyTokens(quantity) */\n      tag_26\n        /* \"Contracts/FirstToken.sol\":8513:8521  quantity */\n      dup2\n        /* \"Contracts/FirstToken.sol\":8503:8512  buyTokens */\n      tag_27\n        /* \"Contracts/FirstToken.sol\":8503:8522  buyTokens(quantity) */\n      jump\t// in\n    tag_26:\n        /* \"Contracts/FirstToken.sol\":8042:8529  {... */\n      stop\n        /* \"Contracts/FirstToken.sol\":122:9053  contract FirstToken is ERC20 {... */\n    tag_2:\n        /* \"Contracts/FirstToken.sol\":8994:9010  uint256 quantity */\n      0x00\n        /* \"Contracts/FirstToken.sol\":9024:9043  buyTokens(quantity) */\n      tag_30\n        /* \"Contracts/FirstToken.sol\":9034:9042  quantity */\n      dup2\n        /* \"Contracts/FirstToken.sol\":9024:9033  buyTokens */\n      tag_27\n        /* \"Contracts/FirstToken.sol\":9024:9043  buyTokens(quantity) */\n      jump\t// in\n    tag_30:\n        /* \"Contracts/FirstToken.sol\":8563:9050  {... */\n      stop\n        /* \"@openzeppelin/contracts/token/ERC20/ERC20.sol\":1760:1849  function name() public view virtual returns (string memory) {... */\n    tag_3:\n      callvalue\n      dup1\n      iszero\n      tag_31\n      jumpi\n      0x00\n      dup1\n      revert\n    tag_31:\n      pop\n      tag_32\n      tag_33\n      jump\t// in\n    tag_32:\n      mload(0x40)\n      tag_34\n      swap2\n      swap1\n      tag_35\n      jump\t// in\n    tag_34:\n      mload(0x40)\n      dup1\n      swap2\n      sub\n      swap1\n      return\n        /* \"@openzeppelin/contracts/token/ERC20/ERC20.sol\":3902:4088  function approve(address spender, uint256 value) public virtual returns (bool) {... */\n    tag_4:\n      callvalue\n      dup1\n      iszero\n      tag_36\n      jumpi\n      0x00\n      dup1\n      revert\n    tag_36:\n      pop\n      tag_37\n      0x04\n      dup1\n      calldatasize\n      sub\n      dup2\n      add\n      swap1\n      tag_38\n      swap2\n      swap1\n      tag_39\n      jump\t// in\n    tag_38:\n      tag_40\n      jump\t// in\n    tag_37:\n      mload(0x40)\n      tag_41\n      swap2\n      swap1\n      tag_42\n      jump\t// in\n    tag_41:\n      mload(0x40)\n      dup1\n      swap2\n      sub\n      swap1\n      return\n        /* \"@openzeppelin/contracts/token/ERC20/ERC20.sol\":2803:2900  function totalSupply() public view virtual returns (uint256) {... */\n    tag_5:\n      callvalue\n      dup1\n      iszero\n      tag_43\n      jumpi\n      0x00\n      dup1\n      revert\n    tag_43:\n      pop\n      tag_44\n      tag_45\n      jump\t// in\n    tag_44:\n      mload(0x40)\n      tag_46\n      swap2\n      swap1\n      tag_47\n      jump\t// in\n    tag_46:\n      mload(0x40)\n      dup1\n      swap2\n      sub\n      swap1\n      return\n        /* \"@openzeppelin/contracts/token/ERC20/ERC20.sol\":4680:4924  function transferFrom(address from, address to, uint256 value) public virtual returns (bool) {... */\n    tag_6:\n      callvalue\n      dup1\n      iszero\n      tag_48\n      jumpi\n      0x00\n      dup1\n      revert\n    tag_48:\n      pop\n      tag_49\n      0x04\n      dup1\n      calldatasize\n      sub\n      dup2\n      add\n      swap1\n      tag_50\n      swap2\n      swap1\n      tag_51\n      jump\t// in\n    tag_50:\n      tag_52\n      jump\t// in\n    tag_49:\n      mload(0x40)\n      tag_53\n      swap2\n      swap1\n      tag_42\n      jump\t// in\n    tag_53:\n      mload(0x40)\n      dup1\n      swap2\n      sub\n      swap1\n      return\n        /* \"@openzeppelin/contracts/token/ERC20/ERC20.sol\":2688:2770  function decimals() public view virtual returns (uint8) {... */\n    tag_7:\n      callvalue\n      dup1\n      iszero\n      tag_54\n      jumpi\n      0x00\n      dup1\n      revert\n    tag_54:\n      pop\n      tag_55\n      tag_56\n      jump\t// in\n    tag_55:\n      mload(0x40)\n      tag_57\n      swap2\n      swap1\n      tag_58\n      jump\t// in\n    tag_57:\n      mload(0x40)\n      dup1\n      swap2\n      sub\n      swap1\n      return\n        /* \"Contracts/FirstToken.sol\":5220:6557  function buyTokens(uint256 quantity) public payable {... */\n    tag_8:\n      tag_59\n      0x04\n      dup1\n      calldatasize\n      sub\n      dup2\n      add\n      swap1\n      tag_60\n      swap2\n      swap1\n      tag_61\n      jump\t// in\n    tag_60:\n      tag_27\n      jump\t// in\n    tag_59:\n      stop\n        /* \"Contracts/FirstToken.sol\":4391:5162  function getHypotheticalPrice(uint256 quantity, uint256 hypotheticalSupply) public {... */\n    tag_9:\n      callvalue\n      dup1\n      iszero\n      tag_62\n      jumpi\n      0x00\n      dup1\n      revert\n    tag_62:\n      pop\n      tag_63\n      0x04\n      dup1\n      calldatasize\n      sub\n      dup2\n      add\n      swap1\n      tag_64\n      swap2\n      swap1\n      tag_65\n      jump\t// in\n    tag_64:\n      tag_66\n      jump\t// in\n    tag_63:\n      stop\n        /* \"Contracts/FirstToken.sol\":6612:8008  function sellTokens(uint256 quantity) public {... */\n    tag_10:\n      callvalue\n      dup1\n      iszero\n      tag_67\n      jumpi\n      0x00\n      dup1\n      revert\n    tag_67:\n      pop\n      tag_68\n      0x04\n      dup1\n      calldatasize\n      sub\n      dup2\n      add\n      swap1\n      tag_69\n      swap2\n      swap1\n      tag_61\n      jump\t// in\n    tag_69:\n      tag_70\n      jump\t// in\n    tag_68:\n      stop\n        /* \"@openzeppelin/contracts/token/ERC20/ERC20.sol\":2933:3049  function balanceOf(address account) public view virtual returns (uint256) {... */\n    tag_11:\n      callvalue\n      dup1\n      iszero\n      tag_71\n      jumpi\n      0x00\n      dup1\n      revert\n    tag_71:\n      pop\n      tag_72\n      0x04\n      dup1\n      calldatasize\n      sub\n      dup2\n      add\n      swap1\n      tag_73\n      swap2\n      swap1\n      tag_74\n      jump\t// in\n    tag_73:\n      tag_75\n      jump\t// in\n    tag_72:\n      mload(0x40)\n      tag_76\n      swap2\n      swap1\n      tag_47\n      jump\t// in\n    tag_76:\n      mload(0x40)\n      dup1\n      swap2\n      sub\n      swap1\n      return\n        /* \"Contracts/FirstToken.sol\":788:824  uint256 public hypotheticalPrice = 0 */\n    tag_12:\n      callvalue\n      dup1\n      iszero\n      tag_77\n      jumpi\n      0x00\n      dup1\n      revert\n    tag_77:\n      pop\n      tag_78\n      tag_79\n      jump\t// in\n    tag_78:\n      mload(0x40)\n      tag_80\n      swap2\n      swap1\n      tag_47\n      jump\t// in\n    tag_80:\n      mload(0x40)\n      dup1\n      swap2\n      sub\n      swap1\n      return\n        /* \"@openzeppelin/contracts/token/ERC20/ERC20.sol\":1962:2055  function symbol() public view virtual returns (string memory) {... */\n    tag_13:\n      callvalue\n      dup1\n      iszero\n      tag_81\n      jumpi\n      0x00\n      dup1\n      revert\n    tag_81:\n      pop\n      tag_82\n      tag_83\n      jump\t// in\n    tag_82:\n      mload(0x40)\n      tag_84\n      swap2\n      swap1\n      tag_35\n      jump\t// in\n    tag_84:\n      mload(0x40)\n      dup1\n      swap2\n      sub\n      swap1\n      return\n        /* \"Contracts/FirstToken.sol\":889:922  uint256 public reserveBalance = 0 */\n    tag_14:\n      callvalue\n      dup1\n      iszero\n      tag_85\n      jumpi\n      0x00\n      dup1\n      revert\n    tag_85:\n      pop\n      tag_86\n      tag_87\n      jump\t// in\n    tag_86:\n      mload(0x40)\n      tag_88\n      swap2\n      swap1\n      tag_47\n      jump\t// in\n    tag_88:\n      mload(0x40)\n      dup1\n      swap2\n      sub\n      swap1\n      return\n        /* \"@openzeppelin/contracts/token/ERC20/ERC20.sol\":3244:3422  function transfer(address to, uint256 value) public virtual returns (bool) {... */\n    tag_15:\n      callvalue\n      dup1\n      iszero\n      tag_89\n      jumpi\n      0x00\n      dup1\n      revert\n    tag_89:\n      pop\n      tag_90\n      0x04\n      dup1\n      calldatasize\n      sub\n      dup2\n      add\n      swap1\n      tag_91\n      swap2\n      swap1\n      tag_39\n      jump\t// in\n    tag_91:\n      tag_92\n      jump\t// in\n    tag_90:\n      mload(0x40)\n      tag_93\n      swap2\n      swap1\n      tag_42\n      jump\t// in\n    tag_93:\n      mload(0x40)\n      dup1\n      swap2\n      sub\n      swap1\n      return\n        /* \"Contracts/FirstToken.sol\":1468:3053  function getPurchasePrice(uint256 quantity) public returns(uint256) {... */\n    tag_16:\n      callvalue\n      dup1\n      iszero\n      tag_94\n      jumpi\n      0x00\n      dup1\n      revert\n    tag_94:\n      pop\n      tag_95\n      0x04\n      dup1\n      calldatasize\n      sub\n      dup2\n      add\n      swap1\n      tag_96\n      swap2\n      swap1\n      tag_61\n      jump\t// in\n    tag_96:\n      tag_97\n      jump\t// in\n    tag_95:\n      mload(0x40)\n      tag_98\n      swap2\n      swap1\n      tag_47\n      jump\t// in\n    tag_98:\n      mload(0x40)\n      dup1\n      swap2\n      sub\n      swap1\n      return\n        /* \"@openzeppelin/contracts/token/ERC20/ERC20.sol\":3455:3595  function allowance(address owner, address spender) public view virtual returns (uint256) {... */\n    tag_17:\n      callvalue\n      dup1\n      iszero\n      tag_99\n      jumpi\n      0x00\n      dup1\n      revert\n    tag_99:\n      pop\n      tag_100\n      0x04\n      dup1\n      calldatasize\n      sub\n      dup2\n      add\n      swap1\n      tag_101\n      swap2\n      swap1\n      tag_102\n      jump\t// in\n    tag_101:\n      tag_103\n      jump\t// in\n    tag_100:\n      mload(0x40)\n      tag_104\n      swap2\n      swap1\n      tag_47\n      jump\t// in\n    tag_104:\n      mload(0x40)\n      dup1\n      swap2\n      sub\n      swap1\n      return\n        /* \"Contracts/FirstToken.sol\":660:692  uint256 public purchasePrice = 0 */\n    tag_18:\n      callvalue\n      dup1\n      iszero\n      tag_105\n      jumpi\n      0x00\n      dup1\n      revert\n    tag_105:\n      pop\n      tag_106\n      tag_107\n      jump\t// in\n    tag_106:\n      mload(0x40)\n      tag_108\n      swap2\n      swap1\n      tag_47\n      jump\t// in\n    tag_108:\n      mload(0x40)\n      dup1\n      swap2\n      sub\n      swap1\n      return\n        /* \"Contracts/FirstToken.sol\":698:726  uint256 public salePrice = 0 */\n    tag_19:\n      callvalue\n      dup1\n      iszero\n      tag_109\n      jumpi\n      0x00\n      dup1\n      revert\n    tag_109:\n      pop\n      tag_110\n      tag_111\n      jump\t// in\n    tag_110:\n      mload(0x40)\n      tag_112\n      swap2\n      swap1\n      tag_47\n      jump\t// in\n    tag_112:\n      mload(0x40)\n      dup1\n      swap2\n      sub\n      swap1\n      return\n        /* \"Contracts/FirstToken.sol\":3184:4144  function getSalePrice(uint256 quantity) public returns(uint256) {... */\n    tag_20:\n      callvalue\n      dup1\n      iszero\n      tag_113\n      jumpi\n      0x00\n      dup1\n      revert\n    tag_113:\n      pop\n      tag_114\n      0x04\n      dup1\n      calldatasize\n      sub\n      dup2\n      add\n      swap1\n      tag_115\n      swap2\n      swap1\n      tag_61\n      jump\t// in\n    tag_115:\n      tag_116\n      jump\t// in\n    tag_114:\n      mload(0x40)\n      tag_117\n      swap2\n      swap1\n      tag_47\n      jump\t// in\n    tag_117:\n      mload(0x40)\n      dup1\n      swap2\n      sub\n      swap1\n      return\n        /* \"Contracts/FirstToken.sol\":5220:6557  function buyTokens(uint256 quantity) public payable {... */\n    tag_27:\n        /* \"Contracts/FirstToken.sol\":5283:5300  address recipient */\n      0x00\n        /* \"Contracts/FirstToken.sol\":5303:5313  msg.sender */\n      caller\n        /* \"Contracts/FirstToken.sol\":5283:5313  address recipient = msg.sender */\n      swap1\n      pop\n        /* \"Contracts/FirstToken.sol\":5436:5437  0 */\n      0x00\n        /* \"Contracts/FirstToken.sol\":5425:5433  quantity */\n      dup3\n        /* \"Contracts/FirstToken.sol\":5425:5437  quantity > 0 */\n      gt\n        /* \"Contracts/FirstToken.sol\":5417:5473  require(quantity > 0, \"Token quantity must be positive\") */\n      tag_119\n      jumpi\n      mload(0x40)\n      0x08c379a000000000000000000000000000000000000000000000000000000000\n      dup2\n      mstore\n      0x04\n      add\n      tag_120\n      swap1\n      tag_121\n      jump\t// in\n    tag_120:\n      mload(0x40)\n      dup1\n      swap2\n      sub\n      swap1\n      revert\n    tag_119:\n        /* \"Contracts/FirstToken.sol\":5560:5586  getPurchasePrice(quantity) */\n      tag_122\n        /* \"Contracts/FirstToken.sol\":5577:5585  quantity */\n      dup3\n        /* \"Contracts/FirstToken.sol\":5560:5576  getPurchasePrice */\n      tag_97\n        /* \"Contracts/FirstToken.sol\":5560:5586  getPurchasePrice(quantity) */\n      jump\t// in\n    tag_122:\n        /* \"Contracts/FirstToken.sol\":5544:5557  purchasePrice */\n      0x06\n        /* \"Contracts/FirstToken.sol\":5544:5586  purchasePrice = getPurchasePrice(quantity) */\n      dup2\n      swap1\n      sstore\n      pop\n        /* \"Contracts/FirstToken.sol\":5672:5685  purchasePrice */\n      sload(0x06)\n        /* \"Contracts/FirstToken.sol\":5659:5668  msg.value */\n      callvalue\n        /* \"Contracts/FirstToken.sol\":5659:5685  msg.value >= purchasePrice */\n      lt\n      iszero\n        /* \"Contracts/FirstToken.sol\":5651:5711  require(msg.value >= purchasePrice, \"Insufficient WEI sent\") */\n      tag_123\n      jumpi\n      mload(0x40)\n      0x08c379a000000000000000000000000000000000000000000000000000000000\n      dup2\n      mstore\n      0x04\n      add\n      tag_124\n      swap1\n      tag_125\n      jump\t// in\n    tag_124:\n      mload(0x40)\n      dup1\n      swap2\n      sub\n      swap1\n      revert\n    tag_123:\n        /* \"Contracts/FirstToken.sol\":5925:5951  _mint(recipient, quantity) */\n      tag_126\n        /* \"Contracts/FirstToken.sol\":5931:5940  recipient */\n      dup2\n        /* \"Contracts/FirstToken.sol\":5942:5950  quantity */\n      dup4\n        /* \"Contracts/FirstToken.sol\":5925:5930  _mint */\n      tag_127\n        /* \"Contracts/FirstToken.sol\":5925:5951  _mint(recipient, quantity) */\n      jump\t// in\n    tag_126:\n        /* \"Contracts/FirstToken.sol\":6128:6141  totalSupply() */\n      tag_128\n        /* \"Contracts/FirstToken.sol\":6128:6139  totalSupply */\n      tag_45\n        /* \"Contracts/FirstToken.sol\":6128:6141  totalSupply() */\n      jump\t// in\n    tag_128:\n        /* \"Contracts/FirstToken.sol\":6113:6125  _totalSupply */\n      0x05\n        /* \"Contracts/FirstToken.sol\":6113:6141  _totalSupply = totalSupply() */\n      dup2\n      swap1\n      sstore\n      pop\n        /* \"Contracts/FirstToken.sol\":6226:6246  balanceOf(recipient) */\n      tag_129\n        /* \"Contracts/FirstToken.sol\":6236:6245  recipient */\n      dup2\n        /* \"Contracts/FirstToken.sol\":6226:6235  balanceOf */\n      tag_75\n        /* \"Contracts/FirstToken.sol\":6226:6246  balanceOf(recipient) */\n      jump\t// in\n    tag_129:\n        /* \"Contracts/FirstToken.sol\":6205:6212  balance */\n      0x0a\n        /* \"Contracts/FirstToken.sol\":6205:6223  balance[recipient] */\n      0x00\n        /* \"Contracts/FirstToken.sol\":6213:6222  recipient */\n      dup4\n        /* \"Contracts/FirstToken.sol\":6205:6223  balance[recipient] */\n      0xffffffffffffffffffffffffffffffffffffffff\n      and\n      0xffffffffffffffffffffffffffffffffffffffff\n      and\n      dup2\n      mstore\n      0x20\n      add\n      swap1\n      dup2\n      mstore\n      0x20\n      add\n      0x00\n      keccak256\n        /* \"Contracts/FirstToken.sol\":6205:6246  balance[recipient] = balanceOf(recipient) */\n      dup2\n      swap1\n      sstore\n      pop\n        /* \"Contracts/FirstToken.sol\":6329:6342  purchasePrice */\n      sload(0x06)\n        /* \"Contracts/FirstToken.sol\":6311:6325  reserveBalance */\n      0x09\n      0x00\n        /* \"Contracts/FirstToken.sol\":6311:6342  reserveBalance += purchasePrice */\n      dup3\n      dup3\n      sload\n      tag_130\n      swap2\n      swap1\n      tag_131\n      jump\t// in\n    tag_130:\n      swap3\n      pop\n      pop\n      dup2\n      swap1\n      sstore\n      pop\n        /* \"Contracts/FirstToken.sol\":6549:6550  0 */\n      0x00\n        /* \"Contracts/FirstToken.sol\":6533:6546  purchasePrice */\n      0x06\n        /* \"Contracts/FirstToken.sol\":6533:6550  purchasePrice = 0 */\n      dup2\n      swap1\n      sstore\n      pop\n        /* \"Contracts/FirstToken.sol\":5272:6557  {... */\n      pop\n        /* \"Contracts/FirstToken.sol\":5220:6557  function buyTokens(uint256 quantity) public payable {... */\n      pop\n      jump\t// out\n        /* \"@openzeppelin/contracts/token/ERC20/ERC20.sol\":1760:1849  function name() public view virtual returns (string memory) {... */\n    tag_33:\n        /* \"@openzeppelin/contracts/token/ERC20/ERC20.sol\":1805:1818  string memory */\n      0x60\n        /* \"@openzeppelin/contracts/token/ERC20/ERC20.sol\":1837:1842  _name */\n      0x03\n        /* \"@openzeppelin/contracts/token/ERC20/ERC20.sol\":1830:1842  return _name */\n      dup1\n      sload\n      tag_133\n      swap1\n      tag_134\n      jump\t// in\n    tag_133:\n      dup1\n      0x1f\n      add\n      0x20\n      dup1\n      swap2\n      div\n      mul\n      0x20\n      add\n      mload(0x40)\n      swap1\n      dup2\n      add\n      0x40\n      mstore\n      dup1\n      swap3\n      swap2\n      swap1\n      dup2\n      dup2\n      mstore\n      0x20\n      add\n      dup3\n      dup1\n      sload\n      tag_135\n      swap1\n      tag_134\n      jump\t// in\n    tag_135:\n      dup1\n      iszero\n      tag_136\n      jumpi\n      dup1\n      0x1f\n      lt\n      tag_137\n      jumpi\n      0x0100\n      dup1\n      dup4\n      sload\n      div\n      mul\n      dup4\n      mstore\n      swap2\n      0x20\n      add\n      swap2\n      jump(tag_136)\n    tag_137:\n      dup3\n      add\n      swap2\n      swap1\n      0x00\n      mstore\n      keccak256(0x00, 0x20)\n      swap1\n    tag_138:\n      dup2\n      sload\n      dup2\n      mstore\n      swap1\n      0x01\n      add\n      swap1\n      0x20\n      add\n      dup1\n      dup4\n      gt\n      tag_138\n      jumpi\n      dup3\n      swap1\n      sub\n      0x1f\n      and\n      dup3\n      add\n      swap2\n    tag_136:\n      pop\n      pop\n      pop\n      pop\n      pop\n      swap1\n      pop\n        /* \"@openzeppelin/contracts/token/ERC20/ERC20.sol\":1760:1849  function name() public view virtual returns (string memory) {... */\n      swap1\n      jump\t// out\n        /* \"@openzeppelin/contracts/token/ERC20/ERC20.sol\":3902:4088  function approve(address spender, uint256 value) public virtual returns (bool) {... */\n    tag_40:\n        /* \"@openzeppelin/contracts/token/ERC20/ERC20.sol\":3975:3979  bool */\n      0x00\n        /* \"@openzeppelin/contracts/token/ERC20/ERC20.sol\":3991:4004  address owner */\n      dup1\n        /* \"@openzeppelin/contracts/token/ERC20/ERC20.sol\":4007:4019  _msgSender() */\n      tag_140\n        /* \"@openzeppelin/contracts/token/ERC20/ERC20.sol\":4007:4017  _msgSender */\n      tag_141\n        /* \"@openzeppelin/contracts/token/ERC20/ERC20.sol\":4007:4019  _msgSender() */\n      jump\t// in\n    tag_140:\n        /* \"@openzeppelin/contracts/token/ERC20/ERC20.sol\":3991:4019  address owner = _msgSender() */\n      swap1\n      pop\n        /* \"@openzeppelin/contracts/token/ERC20/ERC20.sol\":4029:4060  _approve(owner, spender, value) */\n      tag_142\n        /* \"@openzeppelin/contracts/token/ERC20/ERC20.sol\":4038:4043  owner */\n      dup2\n        /* \"@openzeppelin/contracts/token/ERC20/ERC20.sol\":4045:4052  spender */\n      dup6\n        /* \"@openzeppelin/contracts/token/ERC20/ERC20.sol\":4054:4059  value */\n      dup6\n        /* \"@openzeppelin/contracts/token/ERC20/ERC20.sol\":4029:4037  _approve */\n      tag_143\n        /* \"@openzeppelin/contracts/token/ERC20/ERC20.sol\":4029:4060  _approve(owner, spender, value) */\n      jump\t// in\n    tag_142:\n        /* \"@openzeppelin/contracts/token/ERC20/ERC20.sol\":4077:4081  true */\n      0x01\n        /* \"@openzeppelin/contracts/token/ERC20/ERC20.sol\":4070:4081  return true */\n      swap2\n      pop\n      pop\n        /* \"@openzeppelin/contracts/token/ERC20/ERC20.sol\":3902:4088  function approve(address spender, uint256 value) public virtual returns (bool) {... */\n      swap3\n      swap2\n      pop\n      pop\n      jump\t// out\n        /* \"@openzeppelin/contracts/token/ERC20/ERC20.sol\":2803:2900  function totalSupply() public view virtual returns (uint256) {... */\n    tag_45:\n        /* \"@openzeppelin/contracts/token/ERC20/ERC20.sol\":2855:2862  uint256 */\n      0x00\n        /* \"@openzeppelin/contracts/token/ERC20/ERC20.sol\":2881:2893  _totalSupply */\n      sload(0x02)\n        /* \"@openzeppelin/contracts/token/ERC20/ERC20.sol\":2874:2893  return _totalSupply */\n      swap1\n      pop\n        /* \"@openzeppelin/contracts/token/ERC20/ERC20.sol\":2803:2900  function totalSupply() public view virtual returns (uint256) {... */\n      swap1\n      jump\t// out\n        /* \"@openzeppelin/contracts/token/ERC20/ERC20.sol\":4680:4924  function transferFrom(address from, address to, uint256 value) public virtual returns (bool) {... */\n    tag_52:\n        /* \"@openzeppelin/contracts/token/ERC20/ERC20.sol\":4767:4771  bool */\n      0x00\n        /* \"@openzeppelin/contracts/token/ERC20/ERC20.sol\":4783:4798  address spender */\n      dup1\n        /* \"@openzeppelin/contracts/token/ERC20/ERC20.sol\":4801:4813  _msgSender() */\n      tag_146\n        /* \"@openzeppelin/contracts/token/ERC20/ERC20.sol\":4801:4811  _msgSender */\n      tag_141\n        /* \"@openzeppelin/contracts/token/ERC20/ERC20.sol\":4801:4813  _msgSender() */\n      jump\t// in\n    tag_146:\n        /* \"@openzeppelin/contracts/token/ERC20/ERC20.sol\":4783:4813  address spender = _msgSender() */\n      swap1\n      pop\n        /* \"@openzeppelin/contracts/token/ERC20/ERC20.sol\":4823:4860  _spendAllowance(from, spender, value) */\n      tag_147\n        /* \"@openzeppelin/contracts/token/ERC20/ERC20.sol\":4839:4843  from */\n      dup6\n        /* \"@openzeppelin/contracts/token/ERC20/ERC20.sol\":4845:4852  spender */\n      dup3\n        /* \"@openzeppelin/contracts/token/ERC20/ERC20.sol\":4854:4859  value */\n      dup6\n        /* \"@openzeppelin/contracts/token/ERC20/ERC20.sol\":4823:4838  _spendAllowance */\n      tag_148\n        /* \"@openzeppelin/contracts/token/ERC20/ERC20.sol\":4823:4860  _spendAllowance(from, spender, value) */\n      jump\t// in\n    tag_147:\n        /* \"@openzeppelin/contracts/token/ERC20/ERC20.sol\":4870:4896  _transfer(from, to, value) */\n      tag_149\n        /* \"@openzeppelin/contracts/token/ERC20/ERC20.sol\":4880:4884  from */\n      dup6\n        /* \"@openzeppelin/contracts/token/ERC20/ERC20.sol\":4886:4888  to */\n      dup6\n        /* \"@openzeppelin/contracts/token/ERC20/ERC20.sol\":4890:4895  value */\n      dup6\n        /* \"@openzeppelin/contracts/token/ERC20/ERC20.sol\":4870:4879  _transfer */\n      tag_150\n        /* \"@openzeppelin/contracts/token/ERC20/ERC20.sol\":4870:4896  _transfer(from, to, value) */\n      jump\t// in\n    tag_149:\n        /* \"@openzeppelin/contracts/token/ERC20/ERC20.sol\":4913:4917  true */\n      0x01\n        /* \"@openzeppelin/contracts/token/ERC20/ERC20.sol\":4906:4917  return true */\n      swap2\n      pop\n      pop\n        /* \"@openzeppelin/contracts/token/ERC20/ERC20.sol\":4680:4924  function transferFrom(address from, address to, uint256 value) public virtual returns (bool) {... */\n      swap4\n      swap3\n      pop\n      pop\n      pop\n      jump\t// out\n        /* \"@openzeppelin/contracts/token/ERC20/ERC20.sol\":2688:2770  function decimals() public view virtual returns (uint8) {... */\n    tag_56:\n        /* \"@openzeppelin/contracts/token/ERC20/ERC20.sol\":2737:2742  uint8 */\n      0x00\n        /* \"@openzeppelin/contracts/token/ERC20/ERC20.sol\":2761:2763  18 */\n      0x12\n        /* \"@openzeppelin/contracts/token/ERC20/ERC20.sol\":2754:2763  return 18 */\n      swap1\n      pop\n        /* \"@openzeppelin/contracts/token/ERC20/ERC20.sol\":2688:2770  function decimals() public view virtual returns (uint8) {... */\n      swap1\n      jump\t// out\n        /* \"Contracts/FirstToken.sol\":4391:5162  function getHypotheticalPrice(uint256 quantity, uint256 hypotheticalSupply) public {... */\n    tag_66:\n        /* \"Contracts/FirstToken.sol\":4546:4547  0 */\n      0x00\n        /* \"Contracts/FirstToken.sol\":4526:4543  hypotheticalPrice */\n      0x08\n        /* \"Contracts/FirstToken.sol\":4526:4547  hypotheticalPrice = 0 */\n      dup2\n      swap1\n      sstore\n      pop\n        /* \"Contracts/FirstToken.sol\":4667:4685  hypotheticalSupply */\n      dup1\n        /* \"Contracts/FirstToken.sol\":4655:4663  quantity */\n      dup3\n        /* \"Contracts/FirstToken.sol\":4655:4685  quantity <= hypotheticalSupply */\n      gt\n      iszero\n        /* \"Contracts/FirstToken.sol\":4647:4748  require(quantity <= hypotheticalSupply, \"Quantity must be less than or equal to hypothetical suuply\") */\n      tag_153\n      jumpi\n      mload(0x40)\n      0x08c379a000000000000000000000000000000000000000000000000000000000\n      dup2\n      mstore\n      0x04\n      add\n      tag_154\n      swap1\n      tag_155\n      jump\t// in\n    tag_154:\n      mload(0x40)\n      dup1\n      swap2\n      sub\n      swap1\n      revert\n    tag_153:\n        /* \"Contracts/FirstToken.sol\":4947:4961  uint256 supply */\n      0x00\n        /* \"Contracts/FirstToken.sol\":4964:4982  hypotheticalSupply */\n      dup2\n        /* \"Contracts/FirstToken.sol\":4947:4982  uint256 supply = hypotheticalSupply */\n      swap1\n      pop\n        /* \"Contracts/FirstToken.sol\":4943:5156  for(uint256 supply = hypotheticalSupply; supply > hypotheticalSupply - quantity; supply--) {... */\n    tag_156:\n        /* \"Contracts/FirstToken.sol\":5014:5022  quantity */\n      dup3\n        /* \"Contracts/FirstToken.sol\":4993:5011  hypotheticalSupply */\n      dup3\n        /* \"Contracts/FirstToken.sol\":4993:5022  hypotheticalSupply - quantity */\n      tag_159\n      swap2\n      swap1\n      tag_160\n      jump\t// in\n    tag_159:\n        /* \"Contracts/FirstToken.sol\":4984:4990  supply */\n      dup2\n        /* \"Contracts/FirstToken.sol\":4984:5022  supply > hypotheticalSupply - quantity */\n      gt\n        /* \"Contracts/FirstToken.sol\":4943:5156  for(uint256 supply = hypotheticalSupply; supply > hypotheticalSupply - quantity; supply--) {... */\n      iszero\n      tag_157\n      jumpi\n        /* \"Contracts/FirstToken.sol\":5048:5066  uint256 spot_price */\n      0x00\n        /* \"Contracts/FirstToken.sol\":1087:1088  1 */\n      0x01\n        /* \"Contracts/FirstToken.sol\":5081:5087  supply */\n      dup3\n        /* \"Contracts/FirstToken.sol\":1051:1052  1 */\n      0x01\n        /* \"Contracts/FirstToken.sol\":5070:5087  gradient * supply */\n      tag_161\n      swap2\n      swap1\n      tag_162\n      jump\t// in\n    tag_161:\n        /* \"Contracts/FirstToken.sol\":5069:5100  (gradient * supply) + intercept */\n      tag_163\n      swap2\n      swap1\n      tag_131\n      jump\t// in\n    tag_163:\n        /* \"Contracts/FirstToken.sol\":5048:5100  uint256 spot_price = (gradient * supply) + intercept */\n      swap1\n      pop\n        /* \"Contracts/FirstToken.sol\":5135:5145  spot_price */\n      dup1\n        /* \"Contracts/FirstToken.sol\":5114:5131  hypotheticalPrice */\n      0x08\n      0x00\n        /* \"Contracts/FirstToken.sol\":5114:5145  hypotheticalPrice += spot_price */\n      dup3\n      dup3\n      sload\n      tag_164\n      swap2\n      swap1\n      tag_131\n      jump\t// in\n    tag_164:\n      swap3\n      pop\n      pop\n      dup2\n      swap1\n      sstore\n      pop\n        /* \"Contracts/FirstToken.sol\":5034:5156  {... */\n      pop\n        /* \"Contracts/FirstToken.sol\":5024:5032  supply-- */\n      dup1\n      dup1\n      tag_165\n      swap1\n      tag_166\n      jump\t// in\n    tag_165:\n      swap2\n      pop\n      pop\n        /* \"Contracts/FirstToken.sol\":4943:5156  for(uint256 supply = hypotheticalSupply; supply > hypotheticalSupply - quantity; supply--) {... */\n      jump(tag_156)\n    tag_157:\n      pop\n        /* \"Contracts/FirstToken.sol\":4391:5162  function getHypotheticalPrice(uint256 quantity, uint256 hypotheticalSupply) public {... */\n      pop\n      pop\n      jump\t// out\n        /* \"Contracts/FirstToken.sol\":6612:8008  function sellTokens(uint256 quantity) public {... */\n    tag_70:\n        /* \"Contracts/FirstToken.sol\":6668:6682  address seller */\n      0x00\n        /* \"Contracts/FirstToken.sol\":6685:6695  msg.sender */\n      caller\n        /* \"Contracts/FirstToken.sol\":6668:6695  address seller = msg.sender */\n      swap1\n      pop\n        /* \"Contracts/FirstToken.sol\":6802:6803  0 */\n      0x00\n        /* \"Contracts/FirstToken.sol\":6791:6799  quantity */\n      dup3\n        /* \"Contracts/FirstToken.sol\":6791:6803  quantity > 0 */\n      gt\n        /* \"Contracts/FirstToken.sol\":6783:6839  require(quantity > 0, \"Token quantity must be positive\") */\n      tag_168\n      jumpi\n      mload(0x40)\n      0x08c379a000000000000000000000000000000000000000000000000000000000\n      dup2\n      mstore\n      0x04\n      add\n      tag_169\n      swap1\n      tag_121\n      jump\t// in\n    tag_169:\n      mload(0x40)\n      dup1\n      swap2\n      sub\n      swap1\n      revert\n    tag_168:\n        /* \"Contracts/FirstToken.sol\":6927:6935  quantity */\n      dup2\n        /* \"Contracts/FirstToken.sol\":6908:6915  balance */\n      0x0a\n        /* \"Contracts/FirstToken.sol\":6908:6923  balance[seller] */\n      0x00\n        /* \"Contracts/FirstToken.sol\":6916:6922  seller */\n      dup4\n        /* \"Contracts/FirstToken.sol\":6908:6923  balance[seller] */\n      0xffffffffffffffffffffffffffffffffffffffff\n      and\n      0xffffffffffffffffffffffffffffffffffffffff\n      and\n      dup2\n      mstore\n      0x20\n      add\n      swap1\n      dup2\n      mstore\n      0x20\n      add\n      0x00\n      keccak256\n      sload\n        /* \"Contracts/FirstToken.sol\":6908:6935  balance[seller] >= quantity */\n      lt\n      iszero\n        /* \"Contracts/FirstToken.sol\":6900:6968  require(balance[seller] >= quantity, \"Your balance is insufficient\") */\n      tag_170\n      jumpi\n      mload(0x40)\n      0x08c379a000000000000000000000000000000000000000000000000000000000\n      dup2\n      mstore\n      0x04\n      add\n      tag_171\n      swap1\n      tag_172\n      jump\t// in\n    tag_171:\n      mload(0x40)\n      dup1\n      swap2\n      sub\n      swap1\n      revert\n    tag_170:\n        /* \"Contracts/FirstToken.sol\":7051:7073  getSalePrice(quantity) */\n      tag_173\n        /* \"Contracts/FirstToken.sol\":7064:7072  quantity */\n      dup3\n        /* \"Contracts/FirstToken.sol\":7051:7063  getSalePrice */\n      tag_116\n        /* \"Contracts/FirstToken.sol\":7051:7073  getSalePrice(quantity) */\n      jump\t// in\n    tag_173:\n        /* \"Contracts/FirstToken.sol\":7039:7048  salePrice */\n      0x07\n        /* \"Contracts/FirstToken.sol\":7039:7073  salePrice = getSalePrice(quantity) */\n      dup2\n      swap1\n      sstore\n      pop\n        /* \"Contracts/FirstToken.sol\":7251:7274  _burn(seller, quantity) */\n      tag_174\n        /* \"Contracts/FirstToken.sol\":7257:7263  seller */\n      dup2\n        /* \"Contracts/FirstToken.sol\":7265:7273  quantity */\n      dup4\n        /* \"Contracts/FirstToken.sol\":7251:7256  _burn */\n      tag_175\n        /* \"Contracts/FirstToken.sol\":7251:7274  _burn(seller, quantity) */\n      jump\t// in\n    tag_174:\n        /* \"Contracts/FirstToken.sol\":7451:7464  totalSupply() */\n      tag_176\n        /* \"Contracts/FirstToken.sol\":7451:7462  totalSupply */\n      tag_45\n        /* \"Contracts/FirstToken.sol\":7451:7464  totalSupply() */\n      jump\t// in\n    tag_176:\n        /* \"Contracts/FirstToken.sol\":7436:7448  _totalSupply */\n      0x05\n        /* \"Contracts/FirstToken.sol\":7436:7464  _totalSupply = totalSupply() */\n      dup2\n      swap1\n      sstore\n      pop\n        /* \"Contracts/FirstToken.sol\":7548:7565  balanceOf(seller) */\n      tag_177\n        /* \"Contracts/FirstToken.sol\":7558:7564  seller */\n      dup2\n        /* \"Contracts/FirstToken.sol\":7548:7557  balanceOf */\n      tag_75\n        /* \"Contracts/FirstToken.sol\":7548:7565  balanceOf(seller) */\n      jump\t// in\n    tag_177:\n        /* \"Contracts/FirstToken.sol\":7530:7537  balance */\n      0x0a\n        /* \"Contracts/FirstToken.sol\":7530:7545  balance[seller] */\n      0x00\n        /* \"Contracts/FirstToken.sol\":7538:7544  seller */\n      dup4\n        /* \"Contracts/FirstToken.sol\":7530:7545  balance[seller] */\n      0xffffffffffffffffffffffffffffffffffffffff\n      and\n      0xffffffffffffffffffffffffffffffffffffffff\n      and\n      dup2\n      mstore\n      0x20\n      add\n      swap1\n      dup2\n      mstore\n      0x20\n      add\n      0x00\n      keccak256\n        /* \"Contracts/FirstToken.sol\":7530:7565  balance[seller] = balanceOf(seller) */\n      dup2\n      swap1\n      sstore\n      pop\n        /* \"Contracts/FirstToken.sol\":7603:7619  bool callSuccess */\n      0x00\n        /* \"Contracts/FirstToken.sol\":7633:7639  seller */\n      dup2\n        /* \"Contracts/FirstToken.sol\":7625:7645  payable(seller).call */\n      0xffffffffffffffffffffffffffffffffffffffff\n      and\n        /* \"Contracts/FirstToken.sol\":7653:7662  salePrice */\n      sload(0x07)\n        /* \"Contracts/FirstToken.sol\":7625:7667  payable(seller).call{value: salePrice}(\"\") */\n      mload(0x40)\n      tag_178\n      swap1\n      tag_179\n      jump\t// in\n    tag_178:\n      0x00\n      mload(0x40)\n      dup1\n      dup4\n      sub\n      dup2\n      dup6\n      dup8\n      gas\n      call\n      swap3\n      pop\n      pop\n      pop\n      returndatasize\n      dup1\n      0x00\n      dup2\n      eq\n      tag_182\n      jumpi\n      mload(0x40)\n      swap2\n      pop\n      and(add(returndatasize, 0x3f), not(0x1f))\n      dup3\n      add\n      0x40\n      mstore\n      returndatasize\n      dup3\n      mstore\n      returndatasize\n      0x00\n      0x20\n      dup5\n      add\n      returndatacopy\n      jump(tag_181)\n    tag_182:\n      0x60\n      swap2\n      pop\n    tag_181:\n      pop\n        /* \"Contracts/FirstToken.sol\":7602:7667  (bool callSuccess, ) = payable(seller).call{value: salePrice}(\"\") */\n      pop\n      swap1\n      pop\n        /* \"Contracts/FirstToken.sol\":7685:7696  callSuccess */\n      dup1\n        /* \"Contracts/FirstToken.sol\":7677:7715  require(callSuccess, \"Payment failed\") */\n      tag_183\n      jumpi\n      mload(0x40)\n      0x08c379a000000000000000000000000000000000000000000000000000000000\n      dup2\n      mstore\n      0x04\n      add\n      tag_184\n      swap1\n      tag_185\n      jump\t// in\n    tag_184:\n      mload(0x40)\n      dup1\n      swap2\n      sub\n      swap1\n      revert\n    tag_183:\n        /* \"Contracts/FirstToken.sol\":7799:7808  salePrice */\n      sload(0x07)\n        /* \"Contracts/FirstToken.sol\":7781:7795  reserveBalance */\n      0x09\n      0x00\n        /* \"Contracts/FirstToken.sol\":7781:7808  reserveBalance -= salePrice */\n      dup3\n      dup3\n      sload\n      tag_186\n      swap2\n      swap1\n      tag_160\n      jump\t// in\n    tag_186:\n      swap3\n      pop\n      pop\n      dup2\n      swap1\n      sstore\n      pop\n        /* \"Contracts/FirstToken.sol\":8000:8001  0 */\n      0x00\n        /* \"Contracts/FirstToken.sol\":7988:7997  salePrice */\n      0x07\n        /* \"Contracts/FirstToken.sol\":7988:8001  salePrice = 0 */\n      dup2\n      swap1\n      sstore\n      pop\n        /* \"Contracts/FirstToken.sol\":6657:8008  {... */\n      pop\n      pop\n        /* \"Contracts/FirstToken.sol\":6612:8008  function sellTokens(uint256 quantity) public {... */\n      pop\n      jump\t// out\n        /* \"@openzeppelin/contracts/token/ERC20/ERC20.sol\":2933:3049  function balanceOf(address account) public view virtual returns (uint256) {... */\n    tag_75:\n        /* \"@openzeppelin/contracts/token/ERC20/ERC20.sol\":2998:3005  uint256 */\n      0x00\n        /* \"@openzeppelin/contracts/token/ERC20/ERC20.sol\":3024:3033  _balances */\n      dup1\n        /* \"@openzeppelin/contracts/token/ERC20/ERC20.sol\":3024:3042  _balances[account] */\n      0x00\n        /* \"@openzeppelin/contracts/token/ERC20/ERC20.sol\":3034:3041  account */\n      dup4\n        /* \"@openzeppelin/contracts/token/ERC20/ERC20.sol\":3024:3042  _balances[account] */\n      0xffffffffffffffffffffffffffffffffffffffff\n      and\n      0xffffffffffffffffffffffffffffffffffffffff\n      and\n      dup2\n      mstore\n      0x20\n      add\n      swap1\n      dup2\n      mstore\n      0x20\n      add\n      0x00\n      keccak256\n      sload\n        /* \"@openzeppelin/contracts/token/ERC20/ERC20.sol\":3017:3042  return _balances[account] */\n      swap1\n      pop\n        /* \"@openzeppelin/contracts/token/ERC20/ERC20.sol\":2933:3049  function balanceOf(address account) public view virtual returns (uint256) {... */\n      swap2\n      swap1\n      pop\n      jump\t// out\n        /* \"Contracts/FirstToken.sol\":788:824  uint256 public hypotheticalPrice = 0 */\n    tag_79:\n      sload(0x08)\n      dup2\n      jump\t// out\n        /* \"@openzeppelin/contracts/token/ERC20/ERC20.sol\":1962:2055  function symbol() public view virtual returns (string memory) {... */\n    tag_83:\n        /* \"@openzeppelin/contracts/token/ERC20/ERC20.sol\":2009:2022  string memory */\n      0x60\n        /* \"@openzeppelin/contracts/token/ERC20/ERC20.sol\":2041:2048  _symbol */\n      0x04\n        /* \"@openzeppelin/contracts/token/ERC20/ERC20.sol\":2034:2048  return _symbol */\n      dup1\n      sload\n      tag_189\n      swap1\n      tag_134\n      jump\t// in\n    tag_189:\n      dup1\n      0x1f\n      add\n      0x20\n      dup1\n      swap2\n      div\n      mul\n      0x20\n      add\n      mload(0x40)\n      swap1\n      dup2\n      add\n      0x40\n      mstore\n      dup1\n      swap3\n      swap2\n      swap1\n      dup2\n      dup2\n      mstore\n      0x20\n      add\n      dup3\n      dup1\n      sload\n      tag_190\n      swap1\n      tag_134\n      jump\t// in\n    tag_190:\n      dup1\n      iszero\n      tag_191\n      jumpi\n      dup1\n      0x1f\n      lt\n      tag_192\n      jumpi\n      0x0100\n      dup1\n      dup4\n      sload\n      div\n      mul\n      dup4\n      mstore\n      swap2\n      0x20\n      add\n      swap2\n      jump(tag_191)\n    tag_192:\n      dup3\n      add\n      swap2\n      swap1\n      0x00\n      mstore\n      keccak256(0x00, 0x20)\n      swap1\n    tag_193:\n      dup2\n      sload\n      dup2\n      mstore\n      swap1\n      0x01\n      add\n      swap1\n      0x20\n      add\n      dup1\n      dup4\n      gt\n      tag_193\n      jumpi\n      dup3\n      swap1\n      sub\n      0x1f\n      and\n      dup3\n      add\n      swap2\n    tag_191:\n      pop\n      pop\n      pop\n      pop\n      pop\n      swap1\n      pop\n        /* \"@openzeppelin/contracts/token/ERC20/ERC20.sol\":1962:2055  function symbol() public view virtual returns (string memory) {... */\n      swap1\n      jump\t// out\n        /* \"Contracts/FirstToken.sol\":889:922  uint256 public reserveBalance = 0 */\n    tag_87:\n      sload(0x09)\n      dup2\n      jump\t// out\n        /* \"@openzeppelin/contracts/token/ERC20/ERC20.sol\":3244:3422  function transfer(address to, uint256 value) public virtual returns (bool) {... */\n    tag_92:\n        /* \"@openzeppelin/contracts/token/ERC20/ERC20.sol\":3313:3317  bool */\n      0x00\n        /* \"@openzeppelin/contracts/token/ERC20/ERC20.sol\":3329:3342  address owner */\n      dup1\n        /* \"@openzeppelin/contracts/token/ERC20/ERC20.sol\":3345:3357  _msgSender() */\n      tag_195\n        /* \"@openzeppelin/contracts/token/ERC20/ERC20.sol\":3345:3355  _msgSender */\n      tag_141\n        /* \"@openzeppelin/contracts/token/ERC20/ERC20.sol\":3345:3357  _msgSender() */\n      jump\t// in\n    tag_195:\n        /* \"@openzeppelin/contracts/token/ERC20/ERC20.sol\":3329:3357  address owner = _msgSender() */\n      swap1\n      pop\n        /* \"@openzeppelin/contracts/token/ERC20/ERC20.sol\":3367:3394  _transfer(owner, to, value) */\n      tag_196\n        /* \"@openzeppelin/contracts/token/ERC20/ERC20.sol\":3377:3382  owner */\n      dup2\n        /* \"@openzeppelin/contracts/token/ERC20/ERC20.sol\":3384:3386  to */\n      dup6\n        /* \"@openzeppelin/contracts/token/ERC20/ERC20.sol\":3388:3393  value */\n      dup6\n        /* \"@openzeppelin/contracts/token/ERC20/ERC20.sol\":3367:3376  _transfer */\n      tag_150\n        /* \"@openzeppelin/contracts/token/ERC20/ERC20.sol\":3367:3394  _transfer(owner, to, value) */\n      jump\t// in\n    tag_196:\n        /* \"@openzeppelin/contracts/token/ERC20/ERC20.sol\":3411:3415  true */\n      0x01\n        /* \"@openzeppelin/contracts/token/ERC20/ERC20.sol\":3404:3415  return true */\n      swap2\n      pop\n      pop\n        /* \"@openzeppelin/contracts/token/ERC20/ERC20.sol\":3244:3422  function transfer(address to, uint256 value) public virtual returns (bool) {... */\n      swap3\n      swap2\n      pop\n      pop\n      jump\t// out\n        /* \"Contracts/FirstToken.sol\":1468:3053  function getPurchasePrice(uint256 quantity) public returns(uint256) {... */\n    tag_97:\n        /* \"Contracts/FirstToken.sol\":1527:1534  uint256 */\n      0x00\n        /* \"Contracts/FirstToken.sol\":2040:2041  0 */\n      dup1\n        /* \"Contracts/FirstToken.sol\":2024:2037  purchasePrice */\n      0x06\n        /* \"Contracts/FirstToken.sol\":2024:2041  purchasePrice = 0 */\n      dup2\n      swap1\n      sstore\n      pop\n        /* \"Contracts/FirstToken.sol\":2582:2596  uint256 supply */\n      0x00\n        /* \"Contracts/FirstToken.sol\":2603:2615  _totalSupply */\n      sload(0x05)\n        /* \"Contracts/FirstToken.sol\":2599:2600  1 */\n      0x01\n        /* \"Contracts/FirstToken.sol\":2599:2615  1 + _totalSupply */\n      tag_201\n      swap2\n      swap1\n      tag_131\n      jump\t// in\n    tag_201:\n        /* \"Contracts/FirstToken.sol\":2582:2615  uint256 supply = 1 + _totalSupply */\n      swap1\n      pop\n        /* \"Contracts/FirstToken.sol\":2578:3016  for(uint256 supply = 1 + _totalSupply; supply <= quantity + _totalSupply; supply++) {... */\n    tag_198:\n        /* \"Contracts/FirstToken.sol\":2638:2650  _totalSupply */\n      sload(0x05)\n        /* \"Contracts/FirstToken.sol\":2627:2635  quantity */\n      dup4\n        /* \"Contracts/FirstToken.sol\":2627:2650  quantity + _totalSupply */\n      tag_202\n      swap2\n      swap1\n      tag_131\n      jump\t// in\n    tag_202:\n        /* \"Contracts/FirstToken.sol\":2617:2623  supply */\n      dup2\n        /* \"Contracts/FirstToken.sol\":2617:2650  supply <= quantity + _totalSupply */\n      gt\n        /* \"Contracts/FirstToken.sol\":2578:3016  for(uint256 supply = 1 + _totalSupply; supply <= quantity + _totalSupply; supply++) {... */\n      tag_199\n      jumpi\n        /* \"Contracts/FirstToken.sol\":2830:2848  uint256 spot_price */\n      0x00\n        /* \"Contracts/FirstToken.sol\":1087:1088  1 */\n      0x01\n        /* \"Contracts/FirstToken.sol\":2863:2869  supply */\n      dup3\n        /* \"Contracts/FirstToken.sol\":1051:1052  1 */\n      0x01\n        /* \"Contracts/FirstToken.sol\":2852:2869  gradient * supply */\n      tag_203\n      swap2\n      swap1\n      tag_162\n      jump\t// in\n    tag_203:\n        /* \"Contracts/FirstToken.sol\":2851:2882  (gradient * supply) + intercept */\n      tag_204\n      swap2\n      swap1\n      tag_131\n      jump\t// in\n    tag_204:\n        /* \"Contracts/FirstToken.sol\":2830:2882  uint256 spot_price = (gradient * supply) + intercept */\n      swap1\n      pop\n        /* \"Contracts/FirstToken.sol\":2995:3005  spot_price */\n      dup1\n        /* \"Contracts/FirstToken.sol\":2978:2991  purchasePrice */\n      0x06\n      0x00\n        /* \"Contracts/FirstToken.sol\":2978:3005  purchasePrice += spot_price */\n      dup3\n      dup3\n      sload\n      tag_205\n      swap2\n      swap1\n      tag_131\n      jump\t// in\n    tag_205:\n      swap3\n      pop\n      pop\n      dup2\n      swap1\n      sstore\n      pop\n        /* \"Contracts/FirstToken.sol\":2662:3016  {... */\n      pop\n        /* \"Contracts/FirstToken.sol\":2652:2660  supply++ */\n      dup1\n      dup1\n      tag_206\n      swap1\n      tag_207\n      jump\t// in\n    tag_206:\n      swap2\n      pop\n      pop\n        /* \"Contracts/FirstToken.sol\":2578:3016  for(uint256 supply = 1 + _totalSupply; supply <= quantity + _totalSupply; supply++) {... */\n      jump(tag_198)\n    tag_199:\n      pop\n        /* \"Contracts/FirstToken.sol\":3033:3046  purchasePrice */\n      sload(0x06)\n        /* \"Contracts/FirstToken.sol\":3026:3046  return purchasePrice */\n      swap1\n      pop\n        /* \"Contracts/FirstToken.sol\":1468:3053  function getPurchasePrice(uint256 quantity) public returns(uint256) {... */\n      swap2\n      swap1\n      pop\n      jump\t// out\n        /* \"@openzeppelin/contracts/token/ERC20/ERC20.sol\":3455:3595  function allowance(address owner, address spender) public view virtual returns (uint256) {... */\n    tag_103:\n        /* \"@openzeppelin/contracts/token/ERC20/ERC20.sol\":3535:3542  uint256 */\n      0x00\n        /* \"@openzeppelin/contracts/token/ERC20/ERC20.sol\":3561:3572  _allowances */\n      0x01\n        /* \"@openzeppelin/contracts/token/ERC20/ERC20.sol\":3561:3579  _allowances[owner] */\n      0x00\n        /* \"@openzeppelin/contracts/token/ERC20/ERC20.sol\":3573:3578  owner */\n      dup5\n        /* \"@openzeppelin/contracts/token/ERC20/ERC20.sol\":3561:3579  _allowances[owner] */\n      0xffffffffffffffffffffffffffffffffffffffff\n      and\n      0xffffffffffffffffffffffffffffffffffffffff\n      and\n      dup2\n      mstore\n      0x20\n      add\n      swap1\n      dup2\n      mstore\n      0x20\n      add\n      0x00\n      keccak256\n        /* \"@openzeppelin/contracts/token/ERC20/ERC20.sol\":3561:3588  _allowances[owner][spender] */\n      0x00\n        /* \"@openzeppelin/contracts/token/ERC20/ERC20.sol\":3580:3587  spender */\n      dup4\n        /* \"@openzeppelin/contracts/token/ERC20/ERC20.sol\":3561:3588  _allowances[owner][spender] */\n      0xffffffffffffffffffffffffffffffffffffffff\n      and\n      0xffffffffffffffffffffffffffffffffffffffff\n      and\n      dup2\n      mstore\n      0x20\n      add\n      swap1\n      dup2\n      mstore\n      0x20\n      add\n      0x00\n      keccak256\n      sload\n        /* \"@openzeppelin/contracts/token/ERC20/ERC20.sol\":3554:3588  return _allowances[owner][spender] */\n      swap1\n      pop\n        /* \"@openzeppelin/contracts/token/ERC20/ERC20.sol\":3455:3595  function allowance(address owner, address spender) public view virtual returns (uint256) {... */\n      swap3\n      swap2\n      pop\n      pop\n      jump\t// out\n        /* \"Contracts/FirstToken.sol\":660:692  uint256 public purchasePrice = 0 */\n    tag_107:\n      sload(0x06)\n      dup2\n      jump\t// out\n        /* \"Contracts/FirstToken.sol\":698:726  uint256 public salePrice = 0 */\n    tag_111:\n      sload(0x07)\n      dup2\n      jump\t// out\n        /* \"Contracts/FirstToken.sol\":3184:4144  function getSalePrice(uint256 quantity) public returns(uint256) {... */\n    tag_116:\n        /* \"Contracts/FirstToken.sol\":3239:3246  uint256 */\n      0x00\n        /* \"Contracts/FirstToken.sol\":3483:3495  _totalSupply */\n      sload(0x05)\n        /* \"Contracts/FirstToken.sol\":3471:3479  quantity */\n      dup3\n        /* \"Contracts/FirstToken.sol\":3471:3495  quantity <= _totalSupply */\n      gt\n      iszero\n        /* \"Contracts/FirstToken.sol\":3463:3561  require(quantity <= _totalSupply, \"That is more than total token supply. Use hypothetical price.\") */\n      tag_210\n      jumpi\n      mload(0x40)\n      0x08c379a000000000000000000000000000000000000000000000000000000000\n      dup2\n      mstore\n      0x04\n      add\n      tag_211\n      swap1\n      tag_212\n      jump\t// in\n    tag_211:\n      mload(0x40)\n      dup1\n      swap2\n      sub\n      swap1\n      revert\n    tag_210:\n        /* \"Contracts/FirstToken.sol\":3617:3618  0 */\n      0x00\n        /* \"Contracts/FirstToken.sol\":3605:3614  salePrice */\n      0x07\n        /* \"Contracts/FirstToken.sol\":3605:3618  salePrice = 0 */\n      dup2\n      swap1\n      sstore\n      pop\n        /* \"Contracts/FirstToken.sol\":3922:3936  uint256 supply */\n      0x00\n        /* \"Contracts/FirstToken.sol\":3939:3951  _totalSupply */\n      sload(0x05)\n        /* \"Contracts/FirstToken.sol\":3922:3951  uint256 supply = _totalSupply */\n      swap1\n      pop\n        /* \"Contracts/FirstToken.sol\":3918:4111  for(uint256 supply = _totalSupply; supply > _totalSupply - quantity; supply--) {... */\n    tag_213:\n        /* \"Contracts/FirstToken.sol\":3977:3985  quantity */\n      dup3\n        /* \"Contracts/FirstToken.sol\":3962:3974  _totalSupply */\n      sload(0x05)\n        /* \"Contracts/FirstToken.sol\":3962:3985  _totalSupply - quantity */\n      tag_216\n      swap2\n      swap1\n      tag_160\n      jump\t// in\n    tag_216:\n        /* \"Contracts/FirstToken.sol\":3953:3959  supply */\n      dup2\n        /* \"Contracts/FirstToken.sol\":3953:3985  supply > _totalSupply - quantity */\n      gt\n        /* \"Contracts/FirstToken.sol\":3918:4111  for(uint256 supply = _totalSupply; supply > _totalSupply - quantity; supply--) {... */\n      iszero\n      tag_214\n      jumpi\n        /* \"Contracts/FirstToken.sol\":4011:4029  uint256 spot_price */\n      0x00\n        /* \"Contracts/FirstToken.sol\":1087:1088  1 */\n      0x01\n        /* \"Contracts/FirstToken.sol\":4044:4050  supply */\n      dup3\n        /* \"Contracts/FirstToken.sol\":1051:1052  1 */\n      0x01\n        /* \"Contracts/FirstToken.sol\":4033:4050  gradient * supply */\n      tag_217\n      swap2\n      swap1\n      tag_162\n      jump\t// in\n    tag_217:\n        /* \"Contracts/FirstToken.sol\":4032:4063  (gradient * supply) + intercept */\n      tag_218\n      swap2\n      swap1\n      tag_131\n      jump\t// in\n    tag_218:\n        /* \"Contracts/FirstToken.sol\":4011:4063  uint256 spot_price = (gradient * supply) + intercept */\n      swap1\n      pop\n        /* \"Contracts/FirstToken.sol\":4090:4100  spot_price */\n      dup1\n        /* \"Contracts/FirstToken.sol\":4077:4086  salePrice */\n      0x07\n      0x00\n        /* \"Contracts/FirstToken.sol\":4077:4100  salePrice += spot_price */\n      dup3\n      dup3\n      sload\n      tag_219\n      swap2\n      swap1\n      tag_131\n      jump\t// in\n    tag_219:\n      swap3\n      pop\n      pop\n      dup2\n      swap1\n      sstore\n      pop\n        /* \"Contracts/FirstToken.sol\":3997:4111  {... */\n      pop\n        /* \"Contracts/FirstToken.sol\":3987:3995  supply-- */\n      dup1\n      dup1\n      tag_220\n      swap1\n      tag_166\n      jump\t// in\n    tag_220:\n      swap2\n      pop\n      pop\n        /* \"Contracts/FirstToken.sol\":3918:4111  for(uint256 supply = _totalSupply; supply > _totalSupply - quantity; supply--) {... */\n      jump(tag_213)\n    tag_214:\n      pop\n        /* \"Contracts/FirstToken.sol\":4128:4137  salePrice */\n      sload(0x07)\n        /* \"Contracts/FirstToken.sol\":4121:4137  return salePrice */\n      swap1\n      pop\n        /* \"Contracts/FirstToken.sol\":3184:4144  function getSalePrice(uint256 quantity) public returns(uint256) {... */\n      swap2\n      swap1\n      pop\n      jump\t// out\n        /* \"@openzeppelin/contracts/token/ERC20/ERC20.sol\":7362:7570  function _mint(address account, uint256 value) internal {... */\n    tag_127:\n        /* \"@openzeppelin/contracts/token/ERC20/ERC20.sol\":7451:7452  0 */\n      0x00\n        /* \"@openzeppelin/contracts/token/ERC20/ERC20.sol\":7432:7453  account == address(0) */\n      0xffffffffffffffffffffffffffffffffffffffff\n      and\n        /* \"@openzeppelin/contracts/token/ERC20/ERC20.sol\":7432:7439  account */\n      dup3\n        /* \"@openzeppelin/contracts/token/ERC20/ERC20.sol\":7432:7453  account == address(0) */\n      0xffffffffffffffffffffffffffffffffffffffff\n      and\n      sub\n        /* \"@openzeppelin/contracts/token/ERC20/ERC20.sol\":7428:7519  if (account == address(0)) {... */\n      tag_222\n      jumpi\n        /* \"@openzeppelin/contracts/token/ERC20/ERC20.sol\":7505:7506  0 */\n      0x00\n        /* \"@openzeppelin/contracts/token/ERC20/ERC20.sol\":7476:7508  ERC20InvalidReceiver(address(0)) */\n      mload(0x40)\n      0xec442f0500000000000000000000000000000000000000000000000000000000\n      dup2\n      mstore\n      0x04\n      add\n      tag_223\n      swap2\n      swap1\n      tag_224\n      jump\t// in\n    tag_223:\n      mload(0x40)\n      dup1\n      swap2\n      sub\n      swap1\n      revert\n        /* \"@openzeppelin/contracts/token/ERC20/ERC20.sol\":7428:7519  if (account == address(0)) {... */\n    tag_222:\n        /* \"@openzeppelin/contracts/token/ERC20/ERC20.sol\":7528:7563  _update(address(0), account, value) */\n      tag_225\n        /* \"@openzeppelin/contracts/token/ERC20/ERC20.sol\":7544:7545  0 */\n      0x00\n        /* \"@openzeppelin/contracts/token/ERC20/ERC20.sol\":7548:7555  account */\n      dup4\n        /* \"@openzeppelin/contracts/token/ERC20/ERC20.sol\":7557:7562  value */\n      dup4\n        /* \"@openzeppelin/contracts/token/ERC20/ERC20.sol\":7528:7535  _update */\n      tag_226\n        /* \"@openzeppelin/contracts/token/ERC20/ERC20.sol\":7528:7563  _update(address(0), account, value) */\n      jump\t// in\n    tag_225:\n        /* \"@openzeppelin/contracts/token/ERC20/ERC20.sol\":7362:7570  function _mint(address account, uint256 value) internal {... */\n      pop\n      pop\n      jump\t// out\n        /* \"@openzeppelin/contracts/utils/Context.sol\":656:752  function _msgSender() internal view virtual returns (address) {... */\n    tag_141:\n        /* \"@openzeppelin/contracts/utils/Context.sol\":709:716  address */\n      0x00\n        /* \"@openzeppelin/contracts/utils/Context.sol\":735:745  msg.sender */\n      caller\n        /* \"@openzeppelin/contracts/utils/Context.sol\":728:745  return msg.sender */\n      swap1\n      pop\n        /* \"@openzeppelin/contracts/utils/Context.sol\":656:752  function _msgSender() internal view virtual returns (address) {... */\n      swap1\n      jump\t// out\n        /* \"@openzeppelin/contracts/token/ERC20/ERC20.sol\":8630:8758  function _approve(address owner, address spender, uint256 value) internal {... */\n    tag_143:\n        /* \"@openzeppelin/contracts/token/ERC20/ERC20.sol\":8714:8751  _approve(owner, spender, value, true) */\n      tag_229\n        /* \"@openzeppelin/contracts/token/ERC20/ERC20.sol\":8723:8728  owner */\n      dup4\n        /* \"@openzeppelin/contracts/token/ERC20/ERC20.sol\":8730:8737  spender */\n      dup4\n        /* \"@openzeppelin/contracts/token/ERC20/ERC20.sol\":8739:8744  value */\n      dup4\n        /* \"@openzeppelin/contracts/token/ERC20/ERC20.sol\":8746:8750  true */\n      0x01\n        /* \"@openzeppelin/contracts/token/ERC20/ERC20.sol\":8714:8722  _approve */\n      tag_230\n        /* \"@openzeppelin/contracts/token/ERC20/ERC20.sol\":8714:8751  _approve(owner, spender, value, true) */\n      jump\t// in\n    tag_229:\n        /* \"@openzeppelin/contracts/token/ERC20/ERC20.sol\":8630:8758  function _approve(address owner, address spender, uint256 value) internal {... */\n      pop\n      pop\n      pop\n      jump\t// out\n        /* \"@openzeppelin/contracts/token/ERC20/ERC20.sol\":10319:10795  function _spendAllowance(address owner, address spender, uint256 value) internal virtual {... */\n    tag_148:\n        /* \"@openzeppelin/contracts/token/ERC20/ERC20.sol\":10418:10442  uint256 currentAllowance */\n      0x00\n        /* \"@openzeppelin/contracts/token/ERC20/ERC20.sol\":10445:10470  allowance(owner, spender) */\n      tag_232\n        /* \"@openzeppelin/contracts/token/ERC20/ERC20.sol\":10455:10460  owner */\n      dup5\n        /* \"@openzeppelin/contracts/token/ERC20/ERC20.sol\":10462:10469  spender */\n      dup5\n        /* \"@openzeppelin/contracts/token/ERC20/ERC20.sol\":10445:10454  allowance */\n      tag_103\n        /* \"@openzeppelin/contracts/token/ERC20/ERC20.sol\":10445:10470  allowance(owner, spender) */\n      jump\t// in\n    tag_232:\n        /* \"@openzeppelin/contracts/token/ERC20/ERC20.sol\":10418:10470  uint256 currentAllowance = allowance(owner, spender) */\n      swap1\n      pop\n        /* \"@openzeppelin/contracts/token/ERC20/ERC20.sol\":10503:10520  type(uint256).max */\n      0xffffffffffffffffffffffffffffffffffffffffffffffffffffffffffffffff\n        /* \"@openzeppelin/contracts/token/ERC20/ERC20.sol\":10484:10500  currentAllowance */\n      dup2\n        /* \"@openzeppelin/contracts/token/ERC20/ERC20.sol\":10484:10520  currentAllowance < type(uint256).max */\n      lt\n        /* \"@openzeppelin/contracts/token/ERC20/ERC20.sol\":10480:10789  if (currentAllowance < type(uint256).max) {... */\n      iszero\n      tag_233\n      jumpi\n        /* \"@openzeppelin/contracts/token/ERC20/ERC20.sol\":10559:10564  value */\n      dup2\n        /* \"@openzeppelin/contracts/token/ERC20/ERC20.sol\":10540:10556  currentAllowance */\n      dup2\n        /* \"@openzeppelin/contracts/token/ERC20/ERC20.sol\":10540:10564  currentAllowance < value */\n      lt\n        /* \"@openzeppelin/contracts/token/ERC20/ERC20.sol\":10536:10666  if (currentAllowance < value) {... */\n      iszero\n      tag_234\n      jumpi\n        /* \"@openzeppelin/contracts/token/ERC20/ERC20.sol\":10618:10625  spender */\n      dup3\n        /* \"@openzeppelin/contracts/token/ERC20/ERC20.sol\":10627:10643  currentAllowance */\n      dup2\n        /* \"@openzeppelin/contracts/token/ERC20/ERC20.sol\":10645:10650  value */\n      dup4\n        /* \"@openzeppelin/contracts/token/ERC20/ERC20.sol\":10591:10651  ERC20InsufficientAllowance(spender, currentAllowance, value) */\n      mload(0x40)\n      0xfb8f41b200000000000000000000000000000000000000000000000000000000\n      dup2\n      mstore\n      0x04\n      add\n      tag_235\n      swap4\n      swap3\n      swap2\n      swap1\n      tag_236\n      jump\t// in\n    tag_235:\n      mload(0x40)\n      dup1\n      swap2\n      sub\n      swap1\n      revert\n        /* \"@openzeppelin/contracts/token/ERC20/ERC20.sol\":10536:10666  if (currentAllowance < value) {... */\n    tag_234:\n        /* \"@openzeppelin/contracts/token/ERC20/ERC20.sol\":10707:10764  _approve(owner, spender, currentAllowance - value, false) */\n      tag_237\n        /* \"@openzeppelin/contracts/token/ERC20/ERC20.sol\":10716:10721  owner */\n      dup5\n        /* \"@openzeppelin/contracts/token/ERC20/ERC20.sol\":10723:10730  spender */\n      dup5\n        /* \"@openzeppelin/contracts/token/ERC20/ERC20.sol\":10751:10756  value */\n      dup5\n        /* \"@openzeppelin/contracts/token/ERC20/ERC20.sol\":10732:10748  currentAllowance */\n      dup5\n        /* \"@openzeppelin/contracts/token/ERC20/ERC20.sol\":10732:10756  currentAllowance - value */\n      sub\n        /* \"@openzeppelin/contracts/token/ERC20/ERC20.sol\":10758:10763  false */\n      0x00\n        /* \"@openzeppelin/contracts/token/ERC20/ERC20.sol\":10707:10715  _approve */\n      tag_230\n        /* \"@openzeppelin/contracts/token/ERC20/ERC20.sol\":10707:10764  _approve(owner, spender, currentAllowance - value, false) */\n      jump\t// in\n    tag_237:\n        /* \"@openzeppelin/contracts/token/ERC20/ERC20.sol\":10480:10789  if (currentAllowance < type(uint256).max) {... */\n    tag_233:\n        /* \"@openzeppelin/contracts/token/ERC20/ERC20.sol\":10408:10795  {... */\n      pop\n        /* \"@openzeppelin/contracts/token/ERC20/ERC20.sol\":10319:10795  function _spendAllowance(address owner, address spender, uint256 value) internal virtual {... */\n      pop\n      pop\n      pop\n      jump\t// out\n        /* \"@openzeppelin/contracts/token/ERC20/ERC20.sol\":5297:5597  function _transfer(address from, address to, uint256 value) internal {... */\n    tag_150:\n        /* \"@openzeppelin/contracts/token/ERC20/ERC20.sol\":5396:5397  0 */\n      0x00\n        /* \"@openzeppelin/contracts/token/ERC20/ERC20.sol\":5380:5398  from == address(0) */\n      0xffffffffffffffffffffffffffffffffffffffff\n      and\n        /* \"@openzeppelin/contracts/token/ERC20/ERC20.sol\":5380:5384  from */\n      dup4\n        /* \"@openzeppelin/contracts/token/ERC20/ERC20.sol\":5380:5398  from == address(0) */\n      0xffffffffffffffffffffffffffffffffffffffff\n      and\n      sub\n        /* \"@openzeppelin/contracts/token/ERC20/ERC20.sol\":5376:5462  if (from == address(0)) {... */\n      tag_239\n      jumpi\n        /* \"@openzeppelin/contracts/token/ERC20/ERC20.sol\":5448:5449  0 */\n      0x00\n        /* \"@openzeppelin/contracts/token/ERC20/ERC20.sol\":5421:5451  ERC20InvalidSender(address(0)) */\n      mload(0x40)\n      0x96c6fd1e00000000000000000000000000000000000000000000000000000000\n      dup2\n      mstore\n      0x04\n      add\n      tag_240\n      swap2\n      swap1\n      tag_224\n      jump\t// in\n    tag_240:\n      mload(0x40)\n      dup1\n      swap2\n      sub\n      swap1\n      revert\n        /* \"@openzeppelin/contracts/token/ERC20/ERC20.sol\":5376:5462  if (from == address(0)) {... */\n    tag_239:\n        /* \"@openzeppelin/contracts/token/ERC20/ERC20.sol\":5489:5490  0 */\n      0x00\n        /* \"@openzeppelin/contracts/token/ERC20/ERC20.sol\":5475:5491  to == address(0) */\n      0xffffffffffffffffffffffffffffffffffffffff\n      and\n        /* \"@openzeppelin/contracts/token/ERC20/ERC20.sol\":5475:5477  to */\n      dup3\n        /* \"@openzeppelin/contracts/token/ERC20/ERC20.sol\":5475:5491  to == address(0) */\n      0xffffffffffffffffffffffffffffffffffffffff\n      and\n      sub\n        /* \"@openzeppelin/contracts/token/ERC20/ERC20.sol\":5471:5557  if (to == address(0)) {... */\n      tag_241\n      jumpi\n        /* \"@openzeppelin/contracts/token/ERC20/ERC20.sol\":5543:5544  0 */\n      0x00\n        /* \"@openzeppelin/contracts/token/ERC20/ERC20.sol\":5514:5546  ERC20InvalidReceiver(address(0)) */\n      mload(0x40)\n      0xec442f0500000000000000000000000000000000000000000000000000000000\n      dup2\n      mstore\n      0x04\n      add\n      tag_242\n      swap2\n      swap1\n      tag_224\n      jump\t// in\n    tag_242:\n      mload(0x40)\n      dup1\n      swap2\n      sub\n      swap1\n      revert\n        /* \"@openzeppelin/contracts/token/ERC20/ERC20.sol\":5471:5557  if (to == address(0)) {... */\n    tag_241:\n        /* \"@openzeppelin/contracts/token/ERC20/ERC20.sol\":5566:5590  _update(from, to, value) */\n      tag_243\n        /* \"@openzeppelin/contracts/token/ERC20/ERC20.sol\":5574:5578  from */\n      dup4\n        /* \"@openzeppelin/contracts/token/ERC20/ERC20.sol\":5580:5582  to */\n      dup4\n        /* \"@openzeppelin/contracts/token/ERC20/ERC20.sol\":5584:5589  value */\n      dup4\n        /* \"@openzeppelin/contracts/token/ERC20/ERC20.sol\":5566:5573  _update */\n      tag_226\n        /* \"@openzeppelin/contracts/token/ERC20/ERC20.sol\":5566:5590  _update(from, to, value) */\n      jump\t// in\n    tag_243:\n        /* \"@openzeppelin/contracts/token/ERC20/ERC20.sol\":5297:5597  function _transfer(address from, address to, uint256 value) internal {... */\n      pop\n      pop\n      pop\n      jump\t// out\n        /* \"@openzeppelin/contracts/token/ERC20/ERC20.sol\":7888:8094  function _burn(address account, uint256 value) internal {... */\n    tag_175:\n        /* \"@openzeppelin/contracts/token/ERC20/ERC20.sol\":7977:7978  0 */\n      0x00\n        /* \"@openzeppelin/contracts/token/ERC20/ERC20.sol\":7958:7979  account == address(0) */\n      0xffffffffffffffffffffffffffffffffffffffff\n      and\n        /* \"@openzeppelin/contracts/token/ERC20/ERC20.sol\":7958:7965  account */\n      dup3\n        /* \"@openzeppelin/contracts/token/ERC20/ERC20.sol\":7958:7979  account == address(0) */\n      0xffffffffffffffffffffffffffffffffffffffff\n      and\n      sub\n        /* \"@openzeppelin/contracts/token/ERC20/ERC20.sol\":7954:8043  if (account == address(0)) {... */\n      tag_245\n      jumpi\n        /* \"@openzeppelin/contracts/token/ERC20/ERC20.sol\":8029:8030  0 */\n      0x00\n        /* \"@openzeppelin/contracts/token/ERC20/ERC20.sol\":8002:8032  ERC20InvalidSender(address(0)) */\n      mload(0x40)\n      0x96c6fd1e00000000000000000000000000000000000000000000000000000000\n      dup2\n      mstore\n      0x04\n      add\n      tag_246\n      swap2\n      swap1\n      tag_224\n      jump\t// in\n    tag_246:\n      mload(0x40)\n      dup1\n      swap2\n      sub\n      swap1\n      revert\n        /* \"@openzeppelin/contracts/token/ERC20/ERC20.sol\":7954:8043  if (account == address(0)) {... */\n    tag_245:\n        /* \"@openzeppelin/contracts/token/ERC20/ERC20.sol\":8052:8087  _update(account, address(0), value) */\n      tag_247\n        /* \"@openzeppelin/contracts/token/ERC20/ERC20.sol\":8060:8067  account */\n      dup3\n        /* \"@openzeppelin/contracts/token/ERC20/ERC20.sol\":8077:8078  0 */\n      0x00\n        /* \"@openzeppelin/contracts/token/ERC20/ERC20.sol\":8081:8086  value */\n      dup4\n        /* \"@openzeppelin/contracts/token/ERC20/ERC20.sol\":8052:8059  _update */\n      tag_226\n        /* \"@openzeppelin/contracts/token/ERC20/ERC20.sol\":8052:8087  _update(account, address(0), value) */\n      jump\t// in\n    tag_247:\n        /* \"@openzeppelin/contracts/token/ERC20/ERC20.sol\":7888:8094  function _burn(address account, uint256 value) internal {... */\n      pop\n      pop\n      jump\t// out\n        /* \"@openzeppelin/contracts/token/ERC20/ERC20.sol\":5912:7019  function _update(address from, address to, uint256 value) internal virtual {... */\n    tag_226:\n        /* \"@openzeppelin/contracts/token/ERC20/ERC20.sol\":6017:6018  0 */\n      0x00\n        /* \"@openzeppelin/contracts/token/ERC20/ERC20.sol\":6001:6019  from == address(0) */\n      0xffffffffffffffffffffffffffffffffffffffff\n      and\n        /* \"@openzeppelin/contracts/token/ERC20/ERC20.sol\":6001:6005  from */\n      dup4\n        /* \"@openzeppelin/contracts/token/ERC20/ERC20.sol\":6001:6019  from == address(0) */\n      0xffffffffffffffffffffffffffffffffffffffff\n      and\n      sub\n        /* \"@openzeppelin/contracts/token/ERC20/ERC20.sol\":5997:6537  if (from == address(0)) {... */\n      tag_249\n      jumpi\n        /* \"@openzeppelin/contracts/token/ERC20/ERC20.sol\":6153:6158  value */\n      dup1\n        /* \"@openzeppelin/contracts/token/ERC20/ERC20.sol\":6137:6149  _totalSupply */\n      0x02\n      0x00\n        /* \"@openzeppelin/contracts/token/ERC20/ERC20.sol\":6137:6158  _totalSupply += value */\n      dup3\n      dup3\n      sload\n      tag_250\n      swap2\n      swap1\n      tag_131\n      jump\t// in\n    tag_250:\n      swap3\n      pop\n      pop\n      dup2\n      swap1\n      sstore\n      pop\n        /* \"@openzeppelin/contracts/token/ERC20/ERC20.sol\":5997:6537  if (from == address(0)) {... */\n      jump(tag_251)\n    tag_249:\n        /* \"@openzeppelin/contracts/token/ERC20/ERC20.sol\":6189:6208  uint256 fromBalance */\n      0x00\n        /* \"@openzeppelin/contracts/token/ERC20/ERC20.sol\":6211:6220  _balances */\n      dup1\n        /* \"@openzeppelin/contracts/token/ERC20/ERC20.sol\":6211:6226  _balances[from] */\n      0x00\n        /* \"@openzeppelin/contracts/token/ERC20/ERC20.sol\":6221:6225  from */\n      dup6\n        /* \"@openzeppelin/contracts/token/ERC20/ERC20.sol\":6211:6226  _balances[from] */\n      0xffffffffffffffffffffffffffffffffffffffff\n      and\n      0xffffffffffffffffffffffffffffffffffffffff\n      and\n      dup2\n      mstore\n      0x20\n      add\n      swap1\n      dup2\n      mstore\n      0x20\n      add\n      0x00\n      keccak256\n      sload\n        /* \"@openzeppelin/contracts/token/ERC20/ERC20.sol\":6189:6226  uint256 fromBalance = _balances[from] */\n      swap1\n      pop\n        /* \"@openzeppelin/contracts/token/ERC20/ERC20.sol\":6258:6263  value */\n      dup2\n        /* \"@openzeppelin/contracts/token/ERC20/ERC20.sol\":6244:6255  fromBalance */\n      dup2\n        /* \"@openzeppelin/contracts/token/ERC20/ERC20.sol\":6244:6263  fromBalance < value */\n      lt\n        /* \"@openzeppelin/contracts/token/ERC20/ERC20.sol\":6240:6355  if (fromBalance < value) {... */\n      iszero\n      tag_252\n      jumpi\n        /* \"@openzeppelin/contracts/token/ERC20/ERC20.sol\":6315:6319  from */\n      dup4\n        /* \"@openzeppelin/contracts/token/ERC20/ERC20.sol\":6321:6332  fromBalance */\n      dup2\n        /* \"@openzeppelin/contracts/token/ERC20/ERC20.sol\":6334:6339  value */\n      dup4\n        /* \"@openzeppelin/contracts/token/ERC20/ERC20.sol\":6290:6340  ERC20InsufficientBalance(from, fromBalance, value) */\n      mload(0x40)\n      0xe450d38c00000000000000000000000000000000000000000000000000000000\n      dup2\n      mstore\n      0x04\n      add\n      tag_253\n      swap4\n      swap3\n      swap2\n      swap1\n      tag_236\n      jump\t// in\n    tag_253:\n      mload(0x40)\n      dup1\n      swap2\n      sub\n      swap1\n      revert\n        /* \"@openzeppelin/contracts/token/ERC20/ERC20.sol\":6240:6355  if (fromBalance < value) {... */\n    tag_252:\n        /* \"@openzeppelin/contracts/token/ERC20/ERC20.sol\":6507:6512  value */\n      dup2\n        /* \"@openzeppelin/contracts/token/ERC20/ERC20.sol\":6493:6504  fromBalance */\n      dup2\n        /* \"@openzeppelin/contracts/token/ERC20/ERC20.sol\":6493:6512  fromBalance - value */\n      sub\n        /* \"@openzeppelin/contracts/token/ERC20/ERC20.sol\":6475:6484  _balances */\n      0x00\n        /* \"@openzeppelin/contracts/token/ERC20/ERC20.sol\":6475:6490  _balances[from] */\n      dup1\n        /* \"@openzeppelin/contracts/token/ERC20/ERC20.sol\":6485:6489  from */\n      dup7\n        /* \"@openzeppelin/contracts/token/ERC20/ERC20.sol\":6475:6490  _balances[from] */\n      0xffffffffffffffffffffffffffffffffffffffff\n      and\n      0xffffffffffffffffffffffffffffffffffffffff\n      and\n      dup2\n      mstore\n      0x20\n      add\n      swap1\n      dup2\n      mstore\n      0x20\n      add\n      0x00\n      keccak256\n        /* \"@openzeppelin/contracts/token/ERC20/ERC20.sol\":6475:6512  _balances[from] = fromBalance - value */\n      dup2\n      swap1\n      sstore\n      pop\n        /* \"@openzeppelin/contracts/token/ERC20/ERC20.sol\":6175:6537  {... */\n      pop\n        /* \"@openzeppelin/contracts/token/ERC20/ERC20.sol\":5997:6537  if (from == address(0)) {... */\n    tag_251:\n        /* \"@openzeppelin/contracts/token/ERC20/ERC20.sol\":6565:6566  0 */\n      0x00\n        /* \"@openzeppelin/contracts/token/ERC20/ERC20.sol\":6551:6567  to == address(0) */\n      0xffffffffffffffffffffffffffffffffffffffff\n      and\n        /* \"@openzeppelin/contracts/token/ERC20/ERC20.sol\":6551:6553  to */\n      dup3\n        /* \"@openzeppelin/contracts/token/ERC20/ERC20.sol\":6551:6567  to == address(0) */\n      0xffffffffffffffffffffffffffffffffffffffff\n      and\n      sub\n        /* \"@openzeppelin/contracts/token/ERC20/ERC20.sol\":6547:6972  if (to == address(0)) {... */\n      tag_254\n      jumpi\n        /* \"@openzeppelin/contracts/token/ERC20/ERC20.sol\":6730:6735  value */\n      dup1\n        /* \"@openzeppelin/contracts/token/ERC20/ERC20.sol\":6714:6726  _totalSupply */\n      0x02\n      0x00\n        /* \"@openzeppelin/contracts/token/ERC20/ERC20.sol\":6714:6735  _totalSupply -= value */\n      dup3\n      dup3\n      sload\n      sub\n      swap3\n      pop\n      pop\n      dup2\n      swap1\n      sstore\n      pop\n        /* \"@openzeppelin/contracts/token/ERC20/ERC20.sol\":6547:6972  if (to == address(0)) {... */\n      jump(tag_255)\n    tag_254:\n        /* \"@openzeppelin/contracts/token/ERC20/ERC20.sol\":6942:6947  value */\n      dup1\n        /* \"@openzeppelin/contracts/token/ERC20/ERC20.sol\":6925:6934  _balances */\n      0x00\n        /* \"@openzeppelin/contracts/token/ERC20/ERC20.sol\":6925:6938  _balances[to] */\n      dup1\n        /* \"@openzeppelin/contracts/token/ERC20/ERC20.sol\":6935:6937  to */\n      dup5\n        /* \"@openzeppelin/contracts/token/ERC20/ERC20.sol\":6925:6938  _balances[to] */\n      0xffffffffffffffffffffffffffffffffffffffff\n      and\n      0xffffffffffffffffffffffffffffffffffffffff\n      and\n      dup2\n      mstore\n      0x20\n      add\n      swap1\n      dup2\n      mstore\n      0x20\n      add\n      0x00\n      keccak256\n      0x00\n        /* \"@openzeppelin/contracts/token/ERC20/ERC20.sol\":6925:6947  _balances[to] += value */\n      dup3\n      dup3\n      sload\n      add\n      swap3\n      pop\n      pop\n      dup2\n      swap1\n      sstore\n      pop\n        /* \"@openzeppelin/contracts/token/ERC20/ERC20.sol\":6547:6972  if (to == address(0)) {... */\n    tag_255:\n        /* \"@openzeppelin/contracts/token/ERC20/ERC20.sol\":7002:7004  to */\n      dup2\n        /* \"@openzeppelin/contracts/token/ERC20/ERC20.sol\":6987:7012  Transfer(from, to, value) */\n      0xffffffffffffffffffffffffffffffffffffffff\n      and\n        /* \"@openzeppelin/contracts/token/ERC20/ERC20.sol\":6996:7000  from */\n      dup4\n        /* \"@openzeppelin/contracts/token/ERC20/ERC20.sol\":6987:7012  Transfer(from, to, value) */\n      0xffffffffffffffffffffffffffffffffffffffff\n      and\n      0xddf252ad1be2c89b69c2b068fc378daa952ba7f163c4a11628f55a4df523b3ef\n        /* \"@openzeppelin/contracts/token/ERC20/ERC20.sol\":7006:7011  value */\n      dup4\n        /* \"@openzeppelin/contracts/token/ERC20/ERC20.sol\":6987:7012  Transfer(from, to, value) */\n      mload(0x40)\n      tag_256\n      swap2\n      swap1\n      tag_47\n      jump\t// in\n    tag_256:\n      mload(0x40)\n      dup1\n      swap2\n      sub\n      swap1\n      log3\n        /* \"@openzeppelin/contracts/token/ERC20/ERC20.sol\":5912:7019  function _update(address from, address to, uint256 value) internal virtual {... */\n      pop\n      pop\n      pop\n      jump\t// out\n        /* \"@openzeppelin/contracts/token/ERC20/ERC20.sol\":9605:10037  function _approve(address owner, address spender, uint256 value, bool emitEvent) internal virtual {... */\n    tag_230:\n        /* \"@openzeppelin/contracts/token/ERC20/ERC20.sol\":9734:9735  0 */\n      0x00\n        /* \"@openzeppelin/contracts/token/ERC20/ERC20.sol\":9717:9736  owner == address(0) */\n      0xffffffffffffffffffffffffffffffffffffffff\n      and\n        /* \"@openzeppelin/contracts/token/ERC20/ERC20.sol\":9717:9722  owner */\n      dup5\n        /* \"@openzeppelin/contracts/token/ERC20/ERC20.sol\":9717:9736  owner == address(0) */\n      0xffffffffffffffffffffffffffffffffffffffff\n      and\n      sub\n        /* \"@openzeppelin/contracts/token/ERC20/ERC20.sol\":9713:9802  if (owner == address(0)) {... */\n      tag_258\n      jumpi\n        /* \"@openzeppelin/contracts/token/ERC20/ERC20.sol\":9788:9789  0 */\n      0x00\n        /* \"@openzeppelin/contracts/token/ERC20/ERC20.sol\":9759:9791  ERC20InvalidApprover(address(0)) */\n      mload(0x40)\n      0xe602df0500000000000000000000000000000000000000000000000000000000\n      dup2\n      mstore\n      0x04\n      add\n      tag_259\n      swap2\n      swap1\n      tag_224\n      jump\t// in\n    tag_259:\n      mload(0x40)\n      dup1\n      swap2\n      sub\n      swap1\n      revert\n        /* \"@openzeppelin/contracts/token/ERC20/ERC20.sol\":9713:9802  if (owner == address(0)) {... */\n    tag_258:\n        /* \"@openzeppelin/contracts/token/ERC20/ERC20.sol\":9834:9835  0 */\n      0x00\n        /* \"@openzeppelin/contracts/token/ERC20/ERC20.sol\":9815:9836  spender == address(0) */\n      0xffffffffffffffffffffffffffffffffffffffff\n      and\n        /* \"@openzeppelin/contracts/token/ERC20/ERC20.sol\":9815:9822  spender */\n      dup4\n        /* \"@openzeppelin/contracts/token/ERC20/ERC20.sol\":9815:9836  spender == address(0) */\n      0xffffffffffffffffffffffffffffffffffffffff\n      and\n      sub\n        /* \"@openzeppelin/contracts/token/ERC20/ERC20.sol\":9811:9901  if (spender == address(0)) {... */\n      tag_260\n      jumpi\n        /* \"@openzeppelin/contracts/token/ERC20/ERC20.sol\":9887:9888  0 */\n      0x00\n        /* \"@openzeppelin/contracts/token/ERC20/ERC20.sol\":9859:9890  ERC20InvalidSpender(address(0)) */\n      mload(0x40)\n      0x94280d6200000000000000000000000000000000000000000000000000000000\n      dup2\n      mstore\n      0x04\n      add\n      tag_261\n      swap2\n      swap1\n      tag_224\n      jump\t// in\n    tag_261:\n      mload(0x40)\n      dup1\n      swap2\n      sub\n      swap1\n      revert\n        /* \"@openzeppelin/contracts/token/ERC20/ERC20.sol\":9811:9901  if (spender == address(0)) {... */\n    tag_260:\n        /* \"@openzeppelin/contracts/token/ERC20/ERC20.sol\":9940:9945  value */\n      dup2\n        /* \"@openzeppelin/contracts/token/ERC20/ERC20.sol\":9910:9921  _allowances */\n      0x01\n        /* \"@openzeppelin/contracts/token/ERC20/ERC20.sol\":9910:9928  _allowances[owner] */\n      0x00\n        /* \"@openzeppelin/contracts/token/ERC20/ERC20.sol\":9922:9927  owner */\n      dup7\n        /* \"@openzeppelin/contracts/token/ERC20/ERC20.sol\":9910:9928  _allowances[owner] */\n      0xffffffffffffffffffffffffffffffffffffffff\n      and\n      0xffffffffffffffffffffffffffffffffffffffff\n      and\n      dup2\n      mstore\n      0x20\n      add\n      swap1\n      dup2\n      mstore\n      0x20\n      add\n      0x00\n      keccak256\n        /* \"@openzeppelin/contracts/token/ERC20/ERC20.sol\":9910:9937  _allowances[owner][spender] */\n      0x00\n        /* \"@openzeppelin/contracts/token/ERC20/ERC20.sol\":9929:9936  spender */\n      dup6\n        /* \"@openzeppelin/contracts/token/ERC20/ERC20.sol\":9910:9937  _allowances[owner][spender] */\n      0xffffffffffffffffffffffffffffffffffffffff\n      and\n      0xffffffffffffffffffffffffffffffffffffffff\n      and\n      dup2\n      mstore\n      0x20\n      add\n      swap1\n      dup2\n      mstore\n      0x20\n      add\n      0x00\n      keccak256\n        /* \"@openzeppelin/contracts/token/ERC20/ERC20.sol\":9910:9945  _allowances[owner][spender] = value */\n      dup2\n      swap1\n      sstore\n      pop\n        /* \"@openzeppelin/contracts/token/ERC20/ERC20.sol\":9959:9968  emitEvent */\n      dup1\n        /* \"@openzeppelin/contracts/token/ERC20/ERC20.sol\":9955:10031  if (emitEvent) {... */\n      iszero\n      tag_262\n      jumpi\n        /* \"@openzeppelin/contracts/token/ERC20/ERC20.sol\":10005:10012  spender */\n      dup3\n        /* \"@openzeppelin/contracts/token/ERC20/ERC20.sol\":9989:10020  Approval(owner, spender, value) */\n      0xffffffffffffffffffffffffffffffffffffffff\n      and\n        /* \"@openzeppelin/contracts/token/ERC20/ERC20.sol\":9998:10003  owner */\n      dup5\n        /* \"@openzeppelin/contracts/token/ERC20/ERC20.sol\":9989:10020  Approval(owner, spender, value) */\n      0xffffffffffffffffffffffffffffffffffffffff\n      and\n      0x8c5be1e5ebec7d5bd14f71427d1e84f3dd0314c0f7b2291e5b200ac8c7c3b925\n        /* \"@openzeppelin/contracts/token/ERC20/ERC20.sol\":10014:10019  value */\n      dup5\n        /* \"@openzeppelin/contracts/token/ERC20/ERC20.sol\":9989:10020  Approval(owner, spender, value) */\n      mload(0x40)\n      tag_263\n      swap2\n      swap1\n      tag_47\n      jump\t// in\n    tag_263:\n      mload(0x40)\n      dup1\n      swap2\n      sub\n      swap1\n      log3\n        /* \"@openzeppelin/contracts/token/ERC20/ERC20.sol\":9955:10031  if (emitEvent) {... */\n    tag_262:\n        /* \"@openzeppelin/contracts/token/ERC20/ERC20.sol\":9605:10037  function _approve(address owner, address spender, uint256 value, bool emitEvent) internal virtual {... */\n      pop\n      pop\n      pop\n      pop\n      jump\t// out\n        /* \"#utility.yul\":7:106   */\n    tag_264:\n        /* \"#utility.yul\":59:65   */\n      0x00\n        /* \"#utility.yul\":93:98   */\n      dup2\n        /* \"#utility.yul\":87:99   */\n      mload\n        /* \"#utility.yul\":77:99   */\n      swap1\n      pop\n        /* \"#utility.yul\":7:106   */\n      swap2\n      swap1\n      pop\n      jump\t// out\n        /* \"#utility.yul\":112:281   */\n    tag_265:\n        /* \"#utility.yul\":196:207   */\n      0x00\n        /* \"#utility.yul\":230:236   */\n      dup3\n        /* \"#utility.yul\":225:228   */\n      dup3\n        /* \"#utility.yul\":218:237   */\n      mstore\n        /* \"#utility.yul\":270:274   */\n      0x20\n        /* \"#utility.yul\":265:268   */\n      dup3\n        /* \"#utility.yul\":261:275   */\n      add\n        /* \"#utility.yul\":246:275   */\n      swap1\n      pop\n        /* \"#utility.yul\":112:281   */\n      swap3\n      swap2\n      pop\n      pop\n      jump\t// out\n        /* \"#utility.yul\":287:533   */\n    tag_266:\n        /* \"#utility.yul\":368:369   */\n      0x00\n        /* \"#utility.yul\":378:491   */\n    tag_306:\n        /* \"#utility.yul\":392:398   */\n      dup4\n        /* \"#utility.yul\":389:390   */\n      dup2\n        /* \"#utility.yul\":386:399   */\n      lt\n        /* \"#utility.yul\":378:491   */\n      iszero\n      tag_308\n      jumpi\n        /* \"#utility.yul\":477:478   */\n      dup1\n        /* \"#utility.yul\":472:475   */\n      dup3\n        /* \"#utility.yul\":468:479   */\n      add\n        /* \"#utility.yul\":462:480   */\n      mload\n        /* \"#utility.yul\":458:459   */\n      dup2\n        /* \"#utility.yul\":453:456   */\n      dup5\n        /* \"#utility.yul\":449:460   */\n      add\n        /* \"#utility.yul\":442:481   */\n      mstore\n        /* \"#utility.yul\":414:416   */\n      0x20\n        /* \"#utility.yul\":411:412   */\n      dup2\n        /* \"#utility.yul\":407:417   */\n      add\n        /* \"#utility.yul\":402:417   */\n      swap1\n      pop\n        /* \"#utility.yul\":378:491   */\n      jump(tag_306)\n    tag_308:\n        /* \"#utility.yul\":525:526   */\n      0x00\n        /* \"#utility.yul\":516:522   */\n      dup5\n        /* \"#utility.yul\":511:514   */\n      dup5\n        /* \"#utility.yul\":507:523   */\n      add\n        /* \"#utility.yul\":500:527   */\n      mstore\n        /* \"#utility.yul\":349:533   */\n      pop\n        /* \"#utility.yul\":287:533   */\n      pop\n      pop\n      pop\n      jump\t// out\n        /* \"#utility.yul\":539:641   */\n    tag_267:\n        /* \"#utility.yul\":580:586   */\n      0x00\n        /* \"#utility.yul\":631:633   */\n      0x1f\n        /* \"#utility.yul\":627:634   */\n      not\n        /* \"#utility.yul\":622:624   */\n      0x1f\n        /* \"#utility.yul\":615:620   */\n      dup4\n        /* \"#utility.yul\":611:625   */\n      add\n        /* \"#utility.yul\":607:635   */\n      and\n        /* \"#utility.yul\":597:635   */\n      swap1\n      pop\n        /* \"#utility.yul\":539:641   */\n      swap2\n      swap1\n      pop\n      jump\t// out\n        /* \"#utility.yul\":647:1024   */\n    tag_268:\n        /* \"#utility.yul\":735:738   */\n      0x00\n        /* \"#utility.yul\":763:802   */\n      tag_311\n        /* \"#utility.yul\":796:801   */\n      dup3\n        /* \"#utility.yul\":763:802   */\n      tag_264\n      jump\t// in\n    tag_311:\n        /* \"#utility.yul\":818:889   */\n      tag_312\n        /* \"#utility.yul\":882:888   */\n      dup2\n        /* \"#utility.yul\":877:880   */\n      dup6\n        /* \"#utility.yul\":818:889   */\n      tag_265\n      jump\t// in\n    tag_312:\n        /* \"#utility.yul\":811:889   */\n      swap4\n      pop\n        /* \"#utility.yul\":898:963   */\n      tag_313\n        /* \"#utility.yul\":956:962   */\n      dup2\n        /* \"#utility.yul\":951:954   */\n      dup6\n        /* \"#utility.yul\":944:948   */\n      0x20\n        /* \"#utility.yul\":937:942   */\n      dup7\n        /* \"#utility.yul\":933:949   */\n      add\n        /* \"#utility.yul\":898:963   */\n      tag_266\n      jump\t// in\n    tag_313:\n        /* \"#utility.yul\":988:1017   */\n      tag_314\n        /* \"#utility.yul\":1010:1016   */\n      dup2\n        /* \"#utility.yul\":988:1017   */\n      tag_267\n      jump\t// in\n    tag_314:\n        /* \"#utility.yul\":983:986   */\n      dup5\n        /* \"#utility.yul\":979:1018   */\n      add\n        /* \"#utility.yul\":972:1018   */\n      swap2\n      pop\n        /* \"#utility.yul\":739:1024   */\n      pop\n        /* \"#utility.yul\":647:1024   */\n      swap3\n      swap2\n      pop\n      pop\n      jump\t// out\n        /* \"#utility.yul\":1030:1343   */\n    tag_35:\n        /* \"#utility.yul\":1143:1147   */\n      0x00\n        /* \"#utility.yul\":1181:1183   */\n      0x20\n        /* \"#utility.yul\":1170:1179   */\n      dup3\n        /* \"#utility.yul\":1166:1184   */\n      add\n        /* \"#utility.yul\":1158:1184   */\n      swap1\n      pop\n        /* \"#utility.yul\":1230:1239   */\n      dup2\n        /* \"#utility.yul\":1224:1228   */\n      dup2\n        /* \"#utility.yul\":1220:1240   */\n      sub\n        /* \"#utility.yul\":1216:1217   */\n      0x00\n        /* \"#utility.yul\":1205:1214   */\n      dup4\n        /* \"#utility.yul\":1201:1218   */\n      add\n        /* \"#utility.yul\":1194:1241   */\n      mstore\n        /* \"#utility.yul\":1258:1336   */\n      tag_316\n        /* \"#utility.yul\":1331:1335   */\n      dup2\n        /* \"#utility.yul\":1322:1328   */\n      dup5\n        /* \"#utility.yul\":1258:1336   */\n      tag_268\n      jump\t// in\n    tag_316:\n        /* \"#utility.yul\":1250:1336   */\n      swap1\n      pop\n        /* \"#utility.yul\":1030:1343   */\n      swap3\n      swap2\n      pop\n      pop\n      jump\t// out\n        /* \"#utility.yul\":1430:1547   */\n    tag_270:\n        /* \"#utility.yul\":1539:1540   */\n      0x00\n        /* \"#utility.yul\":1536:1537   */\n      dup1\n        /* \"#utility.yul\":1529:1541   */\n      revert\n        /* \"#utility.yul\":1676:1802   */\n    tag_272:\n        /* \"#utility.yul\":1713:1720   */\n      0x00\n        /* \"#utility.yul\":1753:1795   */\n      0xffffffffffffffffffffffffffffffffffffffff\n        /* \"#utility.yul\":1746:1751   */\n      dup3\n        /* \"#utility.yul\":1742:1796   */\n      and\n        /* \"#utility.yul\":1731:1796   */\n      swap1\n      pop\n        /* \"#utility.yul\":1676:1802   */\n      swap2\n      swap1\n      pop\n      jump\t// out\n        /* \"#utility.yul\":1808:1904   */\n    tag_273:\n        /* \"#utility.yul\":1845:1852   */\n      0x00\n        /* \"#utility.yul\":1874:1898   */\n      tag_322\n        /* \"#utility.yul\":1892:1897   */\n      dup3\n        /* \"#utility.yul\":1874:1898   */\n      tag_272\n      jump\t// in\n    tag_322:\n        /* \"#utility.yul\":1863:1898   */\n      swap1\n      pop\n        /* \"#utility.yul\":1808:1904   */\n      swap2\n      swap1\n      pop\n      jump\t// out\n        /* \"#utility.yul\":1910:2032   */\n    tag_274:\n        /* \"#utility.yul\":1983:2007   */\n      tag_324\n        /* \"#utility.yul\":2001:2006   */\n      dup2\n        /* \"#utility.yul\":1983:2007   */\n      tag_273\n      jump\t// in\n    tag_324:\n        /* \"#utility.yul\":1976:1981   */\n      dup2\n        /* \"#utility.yul\":1973:2008   */\n      eq\n        /* \"#utility.yul\":1963:2026   */\n      tag_325\n      jumpi\n        /* \"#utility.yul\":2022:2023   */\n      0x00\n        /* \"#utility.yul\":2019:2020   */\n      dup1\n        /* \"#utility.yul\":2012:2024   */\n      revert\n        /* \"#utility.yul\":1963:2026   */\n    tag_325:\n        /* \"#utility.yul\":1910:2032   */\n      pop\n      jump\t// out\n        /* \"#utility.yul\":2038:2177   */\n    tag_275:\n        /* \"#utility.yul\":2084:2089   */\n      0x00\n        /* \"#utility.yul\":2122:2128   */\n      dup2\n        /* \"#utility.yul\":2109:2129   */\n      calldataload\n        /* \"#utility.yul\":2100:2129   */\n      swap1\n      pop\n        /* \"#utility.yul\":2138:2171   */\n      tag_327\n        /* \"#utility.yul\":2165:2170   */\n      dup2\n        /* \"#utility.yul\":2138:2171   */\n      tag_274\n      jump\t// in\n    tag_327:\n        /* \"#utility.yul\":2038:2177   */\n      swap3\n      swap2\n      pop\n      pop\n      jump\t// out\n        /* \"#utility.yul\":2183:2260   */\n    tag_276:\n        /* \"#utility.yul\":2220:2227   */\n      0x00\n        /* \"#utility.yul\":2249:2254   */\n      dup2\n        /* \"#utility.yul\":2238:2254   */\n      swap1\n      pop\n        /* \"#utility.yul\":2183:2260   */\n      swap2\n      swap1\n      pop\n      jump\t// out\n        /* \"#utility.yul\":2266:2388   */\n    tag_277:\n        /* \"#utility.yul\":2339:2363   */\n      tag_330\n        /* \"#utility.yul\":2357:2362   */\n      dup2\n        /* \"#utility.yul\":2339:2363   */\n      tag_276\n      jump\t// in\n    tag_330:\n        /* \"#utility.yul\":2332:2337   */\n      dup2\n        /* \"#utility.yul\":2329:2364   */\n      eq\n        /* \"#utility.yul\":2319:2382   */\n      tag_331\n      jumpi\n        /* \"#utility.yul\":2378:2379   */\n      0x00\n        /* \"#utility.yul\":2375:2376   */\n      dup1\n        /* \"#utility.yul\":2368:2380   */\n      revert\n        /* \"#utility.yul\":2319:2382   */\n    tag_331:\n        /* \"#utility.yul\":2266:2388   */\n      pop\n      jump\t// out\n        /* \"#utility.yul\":2394:2533   */\n    tag_278:\n        /* \"#utility.yul\":2440:2445   */\n      0x00\n        /* \"#utility.yul\":2478:2484   */\n      dup2\n        /* \"#utility.yul\":2465:2485   */\n      calldataload\n        /* \"#utility.yul\":2456:2485   */\n      swap1\n      pop\n        /* \"#utility.yul\":2494:2527   */\n      tag_333\n        /* \"#utility.yul\":2521:2526   */\n      dup2\n        /* \"#utility.yul\":2494:2527   */\n      tag_277\n      jump\t// in\n    tag_333:\n        /* \"#utility.yul\":2394:2533   */\n      swap3\n      swap2\n      pop\n      pop\n      jump\t// out\n        /* \"#utility.yul\":2539:3013   */\n    tag_39:\n        /* \"#utility.yul\":2607:2613   */\n      0x00\n        /* \"#utility.yul\":2615:2621   */\n      dup1\n        /* \"#utility.yul\":2664:2666   */\n      0x40\n        /* \"#utility.yul\":2652:2661   */\n      dup4\n        /* \"#utility.yul\":2643:2650   */\n      dup6\n        /* \"#utility.yul\":2639:2662   */\n      sub\n        /* \"#utility.yul\":2635:2667   */\n      slt\n        /* \"#utility.yul\":2632:2751   */\n      iszero\n      tag_335\n      jumpi\n        /* \"#utility.yul\":2670:2749   */\n      tag_336\n      tag_270\n      jump\t// in\n    tag_336:\n        /* \"#utility.yul\":2632:2751   */\n    tag_335:\n        /* \"#utility.yul\":2790:2791   */\n      0x00\n        /* \"#utility.yul\":2815:2868   */\n      tag_337\n        /* \"#utility.yul\":2860:2867   */\n      dup6\n        /* \"#utility.yul\":2851:2857   */\n      dup3\n        /* \"#utility.yul\":2840:2849   */\n      dup7\n        /* \"#utility.yul\":2836:2858   */\n      add\n        /* \"#utility.yul\":2815:2868   */\n      tag_275\n      jump\t// in\n    tag_337:\n        /* \"#utility.yul\":2805:2868   */\n      swap3\n      pop\n        /* \"#utility.yul\":2761:2878   */\n      pop\n        /* \"#utility.yul\":2917:2919   */\n      0x20\n        /* \"#utility.yul\":2943:2996   */\n      tag_338\n        /* \"#utility.yul\":2988:2995   */\n      dup6\n        /* \"#utility.yul\":2979:2985   */\n      dup3\n        /* \"#utility.yul\":2968:2977   */\n      dup7\n        /* \"#utility.yul\":2964:2986   */\n      add\n        /* \"#utility.yul\":2943:2996   */\n      tag_278\n      jump\t// in\n    tag_338:\n        /* \"#utility.yul\":2933:2996   */\n      swap2\n      pop\n        /* \"#utility.yul\":2888:3006   */\n      pop\n        /* \"#utility.yul\":2539:3013   */\n      swap3\n      pop\n      swap3\n      swap1\n      pop\n      jump\t// out\n        /* \"#utility.yul\":3019:3109   */\n    tag_279:\n        /* \"#utility.yul\":3053:3060   */\n      0x00\n        /* \"#utility.yul\":3096:3101   */\n      dup2\n        /* \"#utility.yul\":3089:3102   */\n      iszero\n        /* \"#utility.yul\":3082:3103   */\n      iszero\n        /* \"#utility.yul\":3071:3103   */\n      swap1\n      pop\n        /* \"#utility.yul\":3019:3109   */\n      swap2\n      swap1\n      pop\n      jump\t// out\n        /* \"#utility.yul\":3115:3224   */\n    tag_280:\n        /* \"#utility.yul\":3196:3217   */\n      tag_341\n        /* \"#utility.yul\":3211:3216   */\n      dup2\n        /* \"#utility.yul\":3196:3217   */\n      tag_279\n      jump\t// in\n    tag_341:\n        /* \"#utility.yul\":3191:3194   */\n      dup3\n        /* \"#utility.yul\":3184:3218   */\n      mstore\n        /* \"#utility.yul\":3115:3224   */\n      pop\n      pop\n      jump\t// out\n        /* \"#utility.yul\":3230:3440   */\n    tag_42:\n        /* \"#utility.yul\":3317:3321   */\n      0x00\n        /* \"#utility.yul\":3355:3357   */\n      0x20\n        /* \"#utility.yul\":3344:3353   */\n      dup3\n        /* \"#utility.yul\":3340:3358   */\n      add\n        /* \"#utility.yul\":3332:3358   */\n      swap1\n      pop\n        /* \"#utility.yul\":3368:3433   */\n      tag_343\n        /* \"#utility.yul\":3430:3431   */\n      0x00\n        /* \"#utility.yul\":3419:3428   */\n      dup4\n        /* \"#utility.yul\":3415:3432   */\n      add\n        /* \"#utility.yul\":3406:3412   */\n      dup5\n        /* \"#utility.yul\":3368:3433   */\n      tag_280\n      jump\t// in\n    tag_343:\n        /* \"#utility.yul\":3230:3440   */\n      swap3\n      swap2\n      pop\n      pop\n      jump\t// out\n        /* \"#utility.yul\":3446:3564   */\n    tag_281:\n        /* \"#utility.yul\":3533:3557   */\n      tag_345\n        /* \"#utility.yul\":3551:3556   */\n      dup2\n        /* \"#utility.yul\":3533:3557   */\n      tag_276\n      jump\t// in\n    tag_345:\n        /* \"#utility.yul\":3528:3531   */\n      dup3\n        /* \"#utility.yul\":3521:3558   */\n      mstore\n        /* \"#utility.yul\":3446:3564   */\n      pop\n      pop\n      jump\t// out\n        /* \"#utility.yul\":3570:3792   */\n    tag_47:\n        /* \"#utility.yul\":3663:3667   */\n      0x00\n        /* \"#utility.yul\":3701:3703   */\n      0x20\n        /* \"#utility.yul\":3690:3699   */\n      dup3\n        /* \"#utility.yul\":3686:3704   */\n      add\n        /* \"#utility.yul\":3678:3704   */\n      swap1\n      pop\n        /* \"#utility.yul\":3714:3785   */\n      tag_347\n        /* \"#utility.yul\":3782:3783   */\n      0x00\n        /* \"#utility.yul\":3771:3780   */\n      dup4\n        /* \"#utility.yul\":3767:3784   */\n      add\n        /* \"#utility.yul\":3758:3764   */\n      dup5\n        /* \"#utility.yul\":3714:3785   */\n      tag_281\n      jump\t// in\n    tag_347:\n        /* \"#utility.yul\":3570:3792   */\n      swap3\n      swap2\n      pop\n      pop\n      jump\t// out\n        /* \"#utility.yul\":3798:4417   */\n    tag_51:\n        /* \"#utility.yul\":3875:3881   */\n      0x00\n        /* \"#utility.yul\":3883:3889   */\n      dup1\n        /* \"#utility.yul\":3891:3897   */\n      0x00\n        /* \"#utility.yul\":3940:3942   */\n      0x60\n        /* \"#utility.yul\":3928:3937   */\n      dup5\n        /* \"#utility.yul\":3919:3926   */\n      dup7\n        /* \"#utility.yul\":3915:3938   */\n      sub\n        /* \"#utility.yul\":3911:3943   */\n      slt\n        /* \"#utility.yul\":3908:4027   */\n      iszero\n      tag_349\n      jumpi\n        /* \"#utility.yul\":3946:4025   */\n      tag_350\n      tag_270\n      jump\t// in\n    tag_350:\n        /* \"#utility.yul\":3908:4027   */\n    tag_349:\n        /* \"#utility.yul\":4066:4067   */\n      0x00\n        /* \"#utility.yul\":4091:4144   */\n      tag_351\n        /* \"#utility.yul\":4136:4143   */\n      dup7\n        /* \"#utility.yul\":4127:4133   */\n      dup3\n        /* \"#utility.yul\":4116:4125   */\n      dup8\n        /* \"#utility.yul\":4112:4134   */\n      add\n        /* \"#utility.yul\":4091:4144   */\n      tag_275\n      jump\t// in\n    tag_351:\n        /* \"#utility.yul\":4081:4144   */\n      swap4\n      pop\n        /* \"#utility.yul\":4037:4154   */\n      pop\n        /* \"#utility.yul\":4193:4195   */\n      0x20\n        /* \"#utility.yul\":4219:4272   */\n      tag_352\n        /* \"#utility.yul\":4264:4271   */\n      dup7\n        /* \"#utility.yul\":4255:4261   */\n      dup3\n        /* \"#utility.yul\":4244:4253   */\n      dup8\n        /* \"#utility.yul\":4240:4262   */\n      add\n        /* \"#utility.yul\":4219:4272   */\n      tag_275\n      jump\t// in\n    tag_352:\n        /* \"#utility.yul\":4209:4272   */\n      swap3\n      pop\n        /* \"#utility.yul\":4164:4282   */\n      pop\n        /* \"#utility.yul\":4321:4323   */\n      0x40\n        /* \"#utility.yul\":4347:4400   */\n      tag_353\n        /* \"#utility.yul\":4392:4399   */\n      dup7\n        /* \"#utility.yul\":4383:4389   */\n      dup3\n        /* \"#utility.yul\":4372:4381   */\n      dup8\n        /* \"#utility.yul\":4368:4390   */\n      add\n        /* \"#utility.yul\":4347:4400   */\n      tag_278\n      jump\t// in\n    tag_353:\n        /* \"#utility.yul\":4337:4400   */\n      swap2\n      pop\n        /* \"#utility.yul\":4292:4410   */\n      pop\n        /* \"#utility.yul\":3798:4417   */\n      swap3\n      pop\n      swap3\n      pop\n      swap3\n      jump\t// out\n        /* \"#utility.yul\":4423:4509   */\n    tag_282:\n        /* \"#utility.yul\":4458:4465   */\n      0x00\n        /* \"#utility.yul\":4498:4502   */\n      0xff\n        /* \"#utility.yul\":4491:4496   */\n      dup3\n        /* \"#utility.yul\":4487:4503   */\n      and\n        /* \"#utility.yul\":4476:4503   */\n      swap1\n      pop\n        /* \"#utility.yul\":4423:4509   */\n      swap2\n      swap1\n      pop\n      jump\t// out\n        /* \"#utility.yul\":4515:4627   */\n    tag_283:\n        /* \"#utility.yul\":4598:4620   */\n      tag_356\n        /* \"#utility.yul\":4614:4619   */\n      dup2\n        /* \"#utility.yul\":4598:4620   */\n      tag_282\n      jump\t// in\n    tag_356:\n        /* \"#utility.yul\":4593:4596   */\n      dup3\n        /* \"#utility.yul\":4586:4621   */\n      mstore\n        /* \"#utility.yul\":4515:4627   */\n      pop\n      pop\n      jump\t// out\n        /* \"#utility.yul\":4633:4847   */\n    tag_58:\n        /* \"#utility.yul\":4722:4726   */\n      0x00\n        /* \"#utility.yul\":4760:4762   */\n      0x20\n        /* \"#utility.yul\":4749:4758   */\n      dup3\n        /* \"#utility.yul\":4745:4763   */\n      add\n        /* \"#utility.yul\":4737:4763   */\n      swap1\n      pop\n        /* \"#utility.yul\":4773:4840   */\n      tag_358\n        /* \"#utility.yul\":4837:4838   */\n      0x00\n        /* \"#utility.yul\":4826:4835   */\n      dup4\n        /* \"#utility.yul\":4822:4839   */\n      add\n        /* \"#utility.yul\":4813:4819   */\n      dup5\n        /* \"#utility.yul\":4773:4840   */\n      tag_283\n      jump\t// in\n    tag_358:\n        /* \"#utility.yul\":4633:4847   */\n      swap3\n      swap2\n      pop\n      pop\n      jump\t// out\n        /* \"#utility.yul\":4853:5182   */\n    tag_61:\n        /* \"#utility.yul\":4912:4918   */\n      0x00\n        /* \"#utility.yul\":4961:4963   */\n      0x20\n        /* \"#utility.yul\":4949:4958   */\n      dup3\n        /* \"#utility.yul\":4940:4947   */\n      dup5\n        /* \"#utility.yul\":4936:4959   */\n      sub\n        /* \"#utility.yul\":4932:4964   */\n      slt\n        /* \"#utility.yul\":4929:5048   */\n      iszero\n      tag_360\n      jumpi\n        /* \"#utility.yul\":4967:5046   */\n      tag_361\n      tag_270\n      jump\t// in\n    tag_361:\n        /* \"#utility.yul\":4929:5048   */\n    tag_360:\n        /* \"#utility.yul\":5087:5088   */\n      0x00\n        /* \"#utility.yul\":5112:5165   */\n      tag_362\n        /* \"#utility.yul\":5157:5164   */\n      dup5\n        /* \"#utility.yul\":5148:5154   */\n      dup3\n        /* \"#utility.yul\":5137:5146   */\n      dup6\n        /* \"#utility.yul\":5133:5155   */\n      add\n        /* \"#utility.yul\":5112:5165   */\n      tag_278\n      jump\t// in\n    tag_362:\n        /* \"#utility.yul\":5102:5165   */\n      swap2\n      pop\n        /* \"#utility.yul\":5058:5175   */\n      pop\n        /* \"#utility.yul\":4853:5182   */\n      swap3\n      swap2\n      pop\n      pop\n      jump\t// out\n        /* \"#utility.yul\":5188:5662   */\n    tag_65:\n        /* \"#utility.yul\":5256:5262   */\n      0x00\n        /* \"#utility.yul\":5264:5270   */\n      dup1\n        /* \"#utility.yul\":5313:5315   */\n      0x40\n        /* \"#utility.yul\":5301:5310   */\n      dup4\n        /* \"#utility.yul\":5292:5299   */\n      dup6\n        /* \"#utility.yul\":5288:5311   */\n      sub\n        /* \"#utility.yul\":5284:5316   */\n      slt\n        /* \"#utility.yul\":5281:5400   */\n      iszero\n      tag_364\n      jumpi\n        /* \"#utility.yul\":5319:5398   */\n      tag_365\n      tag_270\n      jump\t// in\n    tag_365:\n        /* \"#utility.yul\":5281:5400   */\n    tag_364:\n        /* \"#utility.yul\":5439:5440   */\n      0x00\n        /* \"#utility.yul\":5464:5517   */\n      tag_366\n        /* \"#utility.yul\":5509:5516   */\n      dup6\n        /* \"#utility.yul\":5500:5506   */\n      dup3\n        /* \"#utility.yul\":5489:5498   */\n      dup7\n        /* \"#utility.yul\":5485:5507   */\n      add\n        /* \"#utility.yul\":5464:5517   */\n      tag_278\n      jump\t// in\n    tag_366:\n        /* \"#utility.yul\":5454:5517   */\n      swap3\n      pop\n        /* \"#utility.yul\":5410:5527   */\n      pop\n        /* \"#utility.yul\":5566:5568   */\n      0x20\n        /* \"#utility.yul\":5592:5645   */\n      tag_367\n        /* \"#utility.yul\":5637:5644   */\n      dup6\n        /* \"#utility.yul\":5628:5634   */\n      dup3\n        /* \"#utility.yul\":5617:5626   */\n      dup7\n        /* \"#utility.yul\":5613:5635   */\n      add\n        /* \"#utility.yul\":5592:5645   */\n      tag_278\n      jump\t// in\n    tag_367:\n        /* \"#utility.yul\":5582:5645   */\n      swap2\n      pop\n        /* \"#utility.yul\":5537:5655   */\n      pop\n        /* \"#utility.yul\":5188:5662   */\n      swap3\n      pop\n      swap3\n      swap1\n      pop\n      jump\t// out\n        /* \"#utility.yul\":5668:5997   */\n    tag_74:\n        /* \"#utility.yul\":5727:5733   */\n      0x00\n        /* \"#utility.yul\":5776:5778   */\n      0x20\n        /* \"#utility.yul\":5764:5773   */\n      dup3\n        /* \"#utility.yul\":5755:5762   */\n      dup5\n        /* \"#utility.yul\":5751:5774   */\n      sub\n        /* \"#utility.yul\":5747:5779   */\n      slt\n        /* \"#utility.yul\":5744:5863   */\n      iszero\n      tag_369\n      jumpi\n        /* \"#utility.yul\":5782:5861   */\n      tag_370\n      tag_270\n      jump\t// in\n    tag_370:\n        /* \"#utility.yul\":5744:5863   */\n    tag_369:\n        /* \"#utility.yul\":5902:5903   */\n      0x00\n        /* \"#utility.yul\":5927:5980   */\n      tag_371\n        /* \"#utility.yul\":5972:5979   */\n      dup5\n        /* \"#utility.yul\":5963:5969   */\n      dup3\n        /* \"#utility.yul\":5952:5961   */\n      dup6\n        /* \"#utility.yul\":5948:5970   */\n      add\n        /* \"#utility.yul\":5927:5980   */\n      tag_275\n      jump\t// in\n    tag_371:\n        /* \"#utility.yul\":5917:5980   */\n      swap2\n      pop\n        /* \"#utility.yul\":5873:5990   */\n      pop\n        /* \"#utility.yul\":5668:5997   */\n      swap3\n      swap2\n      pop\n      pop\n      jump\t// out\n        /* \"#utility.yul\":6003:6477   */\n    tag_102:\n        /* \"#utility.yul\":6071:6077   */\n      0x00\n        /* \"#utility.yul\":6079:6085   */\n      dup1\n        /* \"#utility.yul\":6128:6130   */\n      0x40\n        /* \"#utility.yul\":6116:6125   */\n      dup4\n        /* \"#utility.yul\":6107:6114   */\n      dup6\n        /* \"#utility.yul\":6103:6126   */\n      sub\n        /* \"#utility.yul\":6099:6131   */\n      slt\n        /* \"#utility.yul\":6096:6215   */\n      iszero\n      tag_373\n      jumpi\n        /* \"#utility.yul\":6134:6213   */\n      tag_374\n      tag_270\n      jump\t// in\n    tag_374:\n        /* \"#utility.yul\":6096:6215   */\n    tag_373:\n        /* \"#utility.yul\":6254:6255   */\n      0x00\n        /* \"#utility.yul\":6279:6332   */\n      tag_375\n        /* \"#utility.yul\":6324:6331   */\n      dup6\n        /* \"#utility.yul\":6315:6321   */\n      dup3\n        /* \"#utility.yul\":6304:6313   */\n      dup7\n        /* \"#utility.yul\":6300:6322   */\n      add\n        /* \"#utility.yul\":6279:6332   */\n      tag_275\n      jump\t// in\n    tag_375:\n        /* \"#utility.yul\":6269:6332   */\n      swap3\n      pop\n        /* \"#utility.yul\":6225:6342   */\n      pop\n        /* \"#utility.yul\":6381:6383   */\n      0x20\n        /* \"#utility.yul\":6407:6460   */\n      tag_376\n        /* \"#utility.yul\":6452:6459   */\n      dup6\n        /* \"#utility.yul\":6443:6449   */\n      dup3\n        /* \"#utility.yul\":6432:6441   */\n      dup7\n        /* \"#utility.yul\":6428:6450   */\n      add\n        /* \"#utility.yul\":6407:6460   */\n      tag_275\n      jump\t// in\n    tag_376:\n        /* \"#utility.yul\":6397:6460   */\n      swap2\n      pop\n        /* \"#utility.yul\":6352:6470   */\n      pop\n        /* \"#utility.yul\":6003:6477   */\n      swap3\n      pop\n      swap3\n      swap1\n      pop\n      jump\t// out\n        /* \"#utility.yul\":6483:6664   */\n    tag_284:\n        /* \"#utility.yul\":6623:6656   */\n      0x546f6b656e207175616e74697479206d75737420626520706f73697469766500\n        /* \"#utility.yul\":6619:6620   */\n      0x00\n        /* \"#utility.yul\":6611:6617   */\n      dup3\n        /* \"#utility.yul\":6607:6621   */\n      add\n        /* \"#utility.yul\":6600:6657   */\n      mstore\n        /* \"#utility.yul\":6483:6664   */\n      pop\n      jump\t// out\n        /* \"#utility.yul\":6670:7036   */\n    tag_285:\n        /* \"#utility.yul\":6812:6815   */\n      0x00\n        /* \"#utility.yul\":6833:6900   */\n      tag_379\n        /* \"#utility.yul\":6897:6899   */\n      0x1f\n        /* \"#utility.yul\":6892:6895   */\n      dup4\n        /* \"#utility.yul\":6833:6900   */\n      tag_265\n      jump\t// in\n    tag_379:\n        /* \"#utility.yul\":6826:6900   */\n      swap2\n      pop\n        /* \"#utility.yul\":6909:7002   */\n      tag_380\n        /* \"#utility.yul\":6998:7001   */\n      dup3\n        /* \"#utility.yul\":6909:7002   */\n      tag_284\n      jump\t// in\n    tag_380:\n        /* \"#utility.yul\":7027:7029   */\n      0x20\n        /* \"#utility.yul\":7022:7025   */\n      dup3\n        /* \"#utility.yul\":7018:7030   */\n      add\n        /* \"#utility.yul\":7011:7030   */\n      swap1\n      pop\n        /* \"#utility.yul\":6670:7036   */\n      swap2\n      swap1\n      pop\n      jump\t// out\n        /* \"#utility.yul\":7042:7461   */\n    tag_121:\n        /* \"#utility.yul\":7208:7212   */\n      0x00\n        /* \"#utility.yul\":7246:7248   */\n      0x20\n        /* \"#utility.yul\":7235:7244   */\n      dup3\n        /* \"#utility.yul\":7231:7249   */\n      add\n        /* \"#utility.yul\":7223:7249   */\n      swap1\n      pop\n        /* \"#utility.yul\":7295:7304   */\n      dup2\n        /* \"#utility.yul\":7289:7293   */\n      dup2\n        /* \"#utility.yul\":7285:7305   */\n      sub\n        /* \"#utility.yul\":7281:7282   */\n      0x00\n        /* \"#utility.yul\":7270:7279   */\n      dup4\n        /* \"#utility.yul\":7266:7283   */\n      add\n        /* \"#utility.yul\":7259:7306   */\n      mstore\n        /* \"#utility.yul\":7323:7454   */\n      tag_382\n        /* \"#utility.yul\":7449:7453   */\n      dup2\n        /* \"#utility.yul\":7323:7454   */\n      tag_285\n      jump\t// in\n    tag_382:\n        /* \"#utility.yul\":7315:7454   */\n      swap1\n      pop\n        /* \"#utility.yul\":7042:7461   */\n      swap2\n      swap1\n      pop\n      jump\t// out\n        /* \"#utility.yul\":7467:7638   */\n    tag_286:\n        /* \"#utility.yul\":7607:7630   */\n      0x496e73756666696369656e74205745492073656e740000000000000000000000\n        /* \"#utility.yul\":7603:7604   */\n      0x00\n        /* \"#utility.yul\":7595:7601   */\n      dup3\n        /* \"#utility.yul\":7591:7605   */\n      add\n        /* \"#utility.yul\":7584:7631   */\n      mstore\n        /* \"#utility.yul\":7467:7638   */\n      pop\n      jump\t// out\n        /* \"#utility.yul\":7644:8010   */\n    tag_287:\n        /* \"#utility.yul\":7786:7789   */\n      0x00\n        /* \"#utility.yul\":7807:7874   */\n      tag_385\n        /* \"#utility.yul\":7871:7873   */\n      0x15\n        /* \"#utility.yul\":7866:7869   */\n      dup4\n        /* \"#utility.yul\":7807:7874   */\n      tag_265\n      jump\t// in\n    tag_385:\n        /* \"#utility.yul\":7800:7874   */\n      swap2\n      pop\n        /* \"#utility.yul\":7883:7976   */\n      tag_386\n        /* \"#utility.yul\":7972:7975   */\n      dup3\n        /* \"#utility.yul\":7883:7976   */\n      tag_286\n      jump\t// in\n    tag_386:\n        /* \"#utility.yul\":8001:8003   */\n      0x20\n        /* \"#utility.yul\":7996:7999   */\n      dup3\n        /* \"#utility.yul\":7992:8004   */\n      add\n        /* \"#utility.yul\":7985:8004   */\n      swap1\n      pop\n        /* \"#utility.yul\":7644:8010   */\n      swap2\n      swap1\n      pop\n      jump\t// out\n        /* \"#utility.yul\":8016:8435   */\n    tag_125:\n        /* \"#utility.yul\":8182:8186   */\n      0x00\n        /* \"#utility.yul\":8220:8222   */\n      0x20\n        /* \"#utility.yul\":8209:8218   */\n      dup3\n        /* \"#utility.yul\":8205:8223   */\n      add\n        /* \"#utility.yul\":8197:8223   */\n      swap1\n      pop\n        /* \"#utility.yul\":8269:8278   */\n      dup2\n        /* \"#utility.yul\":8263:8267   */\n      dup2\n        /* \"#utility.yul\":8259:8279   */\n      sub\n        /* \"#utility.yul\":8255:8256   */\n      0x00\n        /* \"#utility.yul\":8244:8253   */\n      dup4\n        /* \"#utility.yul\":8240:8257   */\n      add\n        /* \"#utility.yul\":8233:8280   */\n      mstore\n        /* \"#utility.yul\":8297:8428   */\n      tag_388\n        /* \"#utility.yul\":8423:8427   */\n      dup2\n        /* \"#utility.yul\":8297:8428   */\n      tag_287\n      jump\t// in\n    tag_388:\n        /* \"#utility.yul\":8289:8428   */\n      swap1\n      pop\n        /* \"#utility.yul\":8016:8435   */\n      swap2\n      swap1\n      pop\n      jump\t// out\n        /* \"#utility.yul\":8441:8621   */\n    tag_288:\n        /* \"#utility.yul\":8489:8566   */\n      0x4e487b7100000000000000000000000000000000000000000000000000000000\n        /* \"#utility.yul\":8486:8487   */\n      0x00\n        /* \"#utility.yul\":8479:8567   */\n      mstore\n        /* \"#utility.yul\":8586:8590   */\n      0x11\n        /* \"#utility.yul\":8583:8584   */\n      0x04\n        /* \"#utility.yul\":8576:8591   */\n      mstore\n        /* \"#utility.yul\":8610:8614   */\n      0x24\n        /* \"#utility.yul\":8607:8608   */\n      0x00\n        /* \"#utility.yul\":8600:8615   */\n      revert\n        /* \"#utility.yul\":8627:8818   */\n    tag_131:\n        /* \"#utility.yul\":8667:8670   */\n      0x00\n        /* \"#utility.yul\":8686:8706   */\n      tag_391\n        /* \"#utility.yul\":8704:8705   */\n      dup3\n        /* \"#utility.yul\":8686:8706   */\n      tag_276\n      jump\t// in\n    tag_391:\n        /* \"#utility.yul\":8681:8706   */\n      swap2\n      pop\n        /* \"#utility.yul\":8720:8740   */\n      tag_392\n        /* \"#utility.yul\":8738:8739   */\n      dup4\n        /* \"#utility.yul\":8720:8740   */\n      tag_276\n      jump\t// in\n    tag_392:\n        /* \"#utility.yul\":8715:8740   */\n      swap3\n      pop\n        /* \"#utility.yul\":8763:8764   */\n      dup3\n        /* \"#utility.yul\":8760:8761   */\n      dup3\n        /* \"#utility.yul\":8756:8765   */\n      add\n        /* \"#utility.yul\":8749:8765   */\n      swap1\n      pop\n        /* \"#utility.yul\":8784:8787   */\n      dup1\n        /* \"#utility.yul\":8781:8782   */\n      dup3\n        /* \"#utility.yul\":8778:8788   */\n      gt\n        /* \"#utility.yul\":8775:8811   */\n      iszero\n      tag_393\n      jumpi\n        /* \"#utility.yul\":8791:8809   */\n      tag_394\n      tag_288\n      jump\t// in\n    tag_394:\n        /* \"#utility.yul\":8775:8811   */\n    tag_393:\n        /* \"#utility.yul\":8627:8818   */\n      swap3\n      swap2\n      pop\n      pop\n      jump\t// out\n        /* \"#utility.yul\":8824:9004   */\n    tag_289:\n        /* \"#utility.yul\":8872:8949   */\n      0x4e487b7100000000000000000000000000000000000000000000000000000000\n        /* \"#utility.yul\":8869:8870   */\n      0x00\n        /* \"#utility.yul\":8862:8950   */\n      mstore\n        /* \"#utility.yul\":8969:8973   */\n      0x22\n        /* \"#utility.yul\":8966:8967   */\n      0x04\n        /* \"#utility.yul\":8959:8974   */\n      mstore\n        /* \"#utility.yul\":8993:8997   */\n      0x24\n        /* \"#utility.yul\":8990:8991   */\n      0x00\n        /* \"#utility.yul\":8983:8998   */\n      revert\n        /* \"#utility.yul\":9010:9330   */\n    tag_134:\n        /* \"#utility.yul\":9054:9060   */\n      0x00\n        /* \"#utility.yul\":9091:9092   */\n      0x02\n        /* \"#utility.yul\":9085:9089   */\n      dup3\n        /* \"#utility.yul\":9081:9093   */\n      div\n        /* \"#utility.yul\":9071:9093   */\n      swap1\n      pop\n        /* \"#utility.yul\":9138:9139   */\n      0x01\n        /* \"#utility.yul\":9132:9136   */\n      dup3\n        /* \"#utility.yul\":9128:9140   */\n      and\n        /* \"#utility.yul\":9159:9177   */\n      dup1\n        /* \"#utility.yul\":9149:9230   */\n      tag_397\n      jumpi\n        /* \"#utility.yul\":9215:9219   */\n      0x7f\n        /* \"#utility.yul\":9207:9213   */\n      dup3\n        /* \"#utility.yul\":9203:9220   */\n      and\n        /* \"#utility.yul\":9193:9220   */\n      swap2\n      pop\n        /* \"#utility.yul\":9149:9230   */\n    tag_397:\n        /* \"#utility.yul\":9277:9279   */\n      0x20\n        /* \"#utility.yul\":9269:9275   */\n      dup3\n        /* \"#utility.yul\":9266:9280   */\n      lt\n        /* \"#utility.yul\":9246:9264   */\n      dup2\n        /* \"#utility.yul\":9243:9281   */\n      sub\n        /* \"#utility.yul\":9240:9324   */\n      tag_398\n      jumpi\n        /* \"#utility.yul\":9296:9314   */\n      tag_399\n      tag_289\n      jump\t// in\n    tag_399:\n        /* \"#utility.yul\":9240:9324   */\n    tag_398:\n        /* \"#utility.yul\":9061:9330   */\n      pop\n        /* \"#utility.yul\":9010:9330   */\n      swap2\n      swap1\n      pop\n      jump\t// out\n        /* \"#utility.yul\":9336:9581   */\n    tag_290:\n        /* \"#utility.yul\":9476:9510   */\n      0x5175616e74697479206d757374206265206c657373207468616e206f72206571\n        /* \"#utility.yul\":9472:9473   */\n      0x00\n        /* \"#utility.yul\":9464:9470   */\n      dup3\n        /* \"#utility.yul\":9460:9474   */\n      add\n        /* \"#utility.yul\":9453:9511   */\n      mstore\n        /* \"#utility.yul\":9545:9573   */\n      0x75616c20746f206879706f746865746963616c20737575706c79000000000000\n        /* \"#utility.yul\":9540:9542   */\n      0x20\n        /* \"#utility.yul\":9532:9538   */\n      dup3\n        /* \"#utility.yul\":9528:9543   */\n      add\n        /* \"#utility.yul\":9521:9574   */\n      mstore\n        /* \"#utility.yul\":9336:9581   */\n      pop\n      jump\t// out\n        /* \"#utility.yul\":9587:9953   */\n    tag_291:\n        /* \"#utility.yul\":9729:9732   */\n      0x00\n        /* \"#utility.yul\":9750:9817   */\n      tag_402\n        /* \"#utility.yul\":9814:9816   */\n      0x3a\n        /* \"#utility.yul\":9809:9812   */\n      dup4\n        /* \"#utility.yul\":9750:9817   */\n      tag_265\n      jump\t// in\n    tag_402:\n        /* \"#utility.yul\":9743:9817   */\n      swap2\n      pop\n        /* \"#utility.yul\":9826:9919   */\n      tag_403\n        /* \"#utility.yul\":9915:9918   */\n      dup3\n        /* \"#utility.yul\":9826:9919   */\n      tag_290\n      jump\t// in\n    tag_403:\n        /* \"#utility.yul\":9944:9946   */\n      0x40\n        /* \"#utility.yul\":9939:9942   */\n      dup3\n        /* \"#utility.yul\":9935:9947   */\n      add\n        /* \"#utility.yul\":9928:9947   */\n      swap1\n      pop\n        /* \"#utility.yul\":9587:9953   */\n      swap2\n      swap1\n      pop\n      jump\t// out\n        /* \"#utility.yul\":9959:10378   */\n    tag_155:\n        /* \"#utility.yul\":10125:10129   */\n      0x00\n        /* \"#utility.yul\":10163:10165   */\n      0x20\n        /* \"#utility.yul\":10152:10161   */\n      dup3\n        /* \"#utility.yul\":10148:10166   */\n      add\n        /* \"#utility.yul\":10140:10166   */\n      swap1\n      pop\n        /* \"#utility.yul\":10212:10221   */\n      dup2\n        /* \"#utility.yul\":10206:10210   */\n      dup2\n        /* \"#utility.yul\":10202:10222   */\n      sub\n        /* \"#utility.yul\":10198:10199   */\n      0x00\n        /* \"#utility.yul\":10187:10196   */\n      dup4\n        /* \"#utility.yul\":10183:10200   */\n      add\n        /* \"#utility.yul\":10176:10223   */\n      mstore\n        /* \"#utility.yul\":10240:10371   */\n      tag_405\n        /* \"#utility.yul\":10366:10370   */\n      dup2\n        /* \"#utility.yul\":10240:10371   */\n      tag_291\n      jump\t// in\n    tag_405:\n        /* \"#utility.yul\":10232:10371   */\n      swap1\n      pop\n        /* \"#utility.yul\":9959:10378   */\n      swap2\n      swap1\n      pop\n      jump\t// out\n        /* \"#utility.yul\":10384:10578   */\n    tag_160:\n        /* \"#utility.yul\":10424:10428   */\n      0x00\n        /* \"#utility.yul\":10444:10464   */\n      tag_407\n        /* \"#utility.yul\":10462:10463   */\n      dup3\n        /* \"#utility.yul\":10444:10464   */\n      tag_276\n      jump\t// in\n    tag_407:\n        /* \"#utility.yul\":10439:10464   */\n      swap2\n      pop\n        /* \"#utility.yul\":10478:10498   */\n      tag_408\n        /* \"#utility.yul\":10496:10497   */\n      dup4\n        /* \"#utility.yul\":10478:10498   */\n      tag_276\n      jump\t// in\n    tag_408:\n        /* \"#utility.yul\":10473:10498   */\n      swap3\n      pop\n        /* \"#utility.yul\":10522:10523   */\n      dup3\n        /* \"#utility.yul\":10519:10520   */\n      dup3\n        /* \"#utility.yul\":10515:10524   */\n      sub\n        /* \"#utility.yul\":10507:10524   */\n      swap1\n      pop\n        /* \"#utility.yul\":10546:10547   */\n      dup2\n        /* \"#utility.yul\":10540:10544   */\n      dup2\n        /* \"#utility.yul\":10537:10548   */\n      gt\n        /* \"#utility.yul\":10534:10571   */\n      iszero\n      tag_409\n      jumpi\n        /* \"#utility.yul\":10551:10569   */\n      tag_410\n      tag_288\n      jump\t// in\n    tag_410:\n        /* \"#utility.yul\":10534:10571   */\n    tag_409:\n        /* \"#utility.yul\":10384:10578   */\n      swap3\n      swap2\n      pop\n      pop\n      jump\t// out\n        /* \"#utility.yul\":10584:10994   */\n    tag_162:\n        /* \"#utility.yul\":10624:10631   */\n      0x00\n        /* \"#utility.yul\":10647:10667   */\n      tag_412\n        /* \"#utility.yul\":10665:10666   */\n      dup3\n        /* \"#utility.yul\":10647:10667   */\n      tag_276\n      jump\t// in\n    tag_412:\n        /* \"#utility.yul\":10642:10667   */\n      swap2\n      pop\n        /* \"#utility.yul\":10681:10701   */\n      tag_413\n        /* \"#utility.yul\":10699:10700   */\n      dup4\n        /* \"#utility.yul\":10681:10701   */\n      tag_276\n      jump\t// in\n    tag_413:\n        /* \"#utility.yul\":10676:10701   */\n      swap3\n      pop\n        /* \"#utility.yul\":10736:10737   */\n      dup3\n        /* \"#utility.yul\":10733:10734   */\n      dup3\n        /* \"#utility.yul\":10729:10738   */\n      mul\n        /* \"#utility.yul\":10758:10788   */\n      tag_414\n        /* \"#utility.yul\":10776:10787   */\n      dup2\n        /* \"#utility.yul\":10758:10788   */\n      tag_276\n      jump\t// in\n    tag_414:\n        /* \"#utility.yul\":10747:10788   */\n      swap2\n      pop\n        /* \"#utility.yul\":10937:10938   */\n      dup3\n        /* \"#utility.yul\":10928:10935   */\n      dup3\n        /* \"#utility.yul\":10924:10939   */\n      div\n        /* \"#utility.yul\":10921:10922   */\n      dup5\n        /* \"#utility.yul\":10918:10940   */\n      eq\n        /* \"#utility.yul\":10898:10899   */\n      dup4\n        /* \"#utility.yul\":10891:10900   */\n      iszero\n        /* \"#utility.yul\":10871:10954   */\n      or\n        /* \"#utility.yul\":10848:10987   */\n      tag_415\n      jumpi\n        /* \"#utility.yul\":10967:10985   */\n      tag_416\n      tag_288\n      jump\t// in\n    tag_416:\n        /* \"#utility.yul\":10848:10987   */\n    tag_415:\n        /* \"#utility.yul\":10632:10994   */\n      pop\n        /* \"#utility.yul\":10584:10994   */\n      swap3\n      swap2\n      pop\n      pop\n      jump\t// out\n        /* \"#utility.yul\":11000:11171   */\n    tag_166:\n        /* \"#utility.yul\":11039:11042   */\n      0x00\n        /* \"#utility.yul\":11062:11086   */\n      tag_418\n        /* \"#utility.yul\":11080:11085   */\n      dup3\n        /* \"#utility.yul\":11062:11086   */\n      tag_276\n      jump\t// in\n    tag_418:\n        /* \"#utility.yul\":11053:11086   */\n      swap2\n      pop\n        /* \"#utility.yul\":11108:11112   */\n      0x00\n        /* \"#utility.yul\":11101:11106   */\n      dup3\n        /* \"#utility.yul\":11098:11113   */\n      sub\n        /* \"#utility.yul\":11095:11136   */\n      tag_419\n      jumpi\n        /* \"#utility.yul\":11116:11134   */\n      tag_420\n      tag_288\n      jump\t// in\n    tag_420:\n        /* \"#utility.yul\":11095:11136   */\n    tag_419:\n        /* \"#utility.yul\":11163:11164   */\n      0x01\n        /* \"#utility.yul\":11156:11161   */\n      dup3\n        /* \"#utility.yul\":11152:11165   */\n      sub\n        /* \"#utility.yul\":11145:11165   */\n      swap1\n      pop\n        /* \"#utility.yul\":11000:11171   */\n      swap2\n      swap1\n      pop\n      jump\t// out\n        /* \"#utility.yul\":11177:11355   */\n    tag_292:\n        /* \"#utility.yul\":11317:11347   */\n      0x596f75722062616c616e636520697320696e73756666696369656e7400000000\n        /* \"#utility.yul\":11313:11314   */\n      0x00\n        /* \"#utility.yul\":11305:11311   */\n      dup3\n        /* \"#utility.yul\":11301:11315   */\n      add\n        /* \"#utility.yul\":11294:11348   */\n      mstore\n        /* \"#utility.yul\":11177:11355   */\n      pop\n      jump\t// out\n        /* \"#utility.yul\":11361:11727   */\n    tag_293:\n        /* \"#utility.yul\":11503:11506   */\n      0x00\n        /* \"#utility.yul\":11524:11591   */\n      tag_423\n        /* \"#utility.yul\":11588:11590   */\n      0x1c\n        /* \"#utility.yul\":11583:11586   */\n      dup4\n        /* \"#utility.yul\":11524:11591   */\n      tag_265\n      jump\t// in\n    tag_423:\n        /* \"#utility.yul\":11517:11591   */\n      swap2\n      pop\n        /* \"#utility.yul\":11600:11693   */\n      tag_424\n        /* \"#utility.yul\":11689:11692   */\n      dup3\n        /* \"#utility.yul\":11600:11693   */\n      tag_292\n      jump\t// in\n    tag_424:\n        /* \"#utility.yul\":11718:11720   */\n      0x20\n        /* \"#utility.yul\":11713:11716   */\n      dup3\n        /* \"#utility.yul\":11709:11721   */\n      add\n        /* \"#utility.yul\":11702:11721   */\n      swap1\n      pop\n        /* \"#utility.yul\":11361:11727   */\n      swap2\n      swap1\n      pop\n      jump\t// out\n        /* \"#utility.yul\":11733:12152   */\n    tag_172:\n        /* \"#utility.yul\":11899:11903   */\n      0x00\n        /* \"#utility.yul\":11937:11939   */\n      0x20\n        /* \"#utility.yul\":11926:11935   */\n      dup3\n        /* \"#utility.yul\":11922:11940   */\n      add\n        /* \"#utility.yul\":11914:11940   */\n      swap1\n      pop\n        /* \"#utility.yul\":11986:11995   */\n      dup2\n        /* \"#utility.yul\":11980:11984   */\n      dup2\n        /* \"#utility.yul\":11976:11996   */\n      sub\n        /* \"#utility.yul\":11972:11973   */\n      0x00\n        /* \"#utility.yul\":11961:11970   */\n      dup4\n        /* \"#utility.yul\":11957:11974   */\n      add\n        /* \"#utility.yul\":11950:11997   */\n      mstore\n        /* \"#utility.yul\":12014:12145   */\n      tag_426\n        /* \"#utility.yul\":12140:12144   */\n      dup2\n        /* \"#utility.yul\":12014:12145   */\n      tag_293\n      jump\t// in\n    tag_426:\n        /* \"#utility.yul\":12006:12145   */\n      swap1\n      pop\n        /* \"#utility.yul\":11733:12152   */\n      swap2\n      swap1\n      pop\n      jump\t// out\n        /* \"#utility.yul\":12158:12305   */\n    tag_294:\n        /* \"#utility.yul\":12259:12270   */\n      0x00\n        /* \"#utility.yul\":12296:12299   */\n      dup2\n        /* \"#utility.yul\":12281:12299   */\n      swap1\n      pop\n        /* \"#utility.yul\":12158:12305   */\n      swap3\n      swap2\n      pop\n      pop\n      jump\t// out\n        /* \"#utility.yul\":12311:12425   */\n    tag_295:\n      pop\n      jump\t// out\n        /* \"#utility.yul\":12431:12829   */\n    tag_296:\n        /* \"#utility.yul\":12590:12593   */\n      0x00\n        /* \"#utility.yul\":12611:12694   */\n      tag_430\n        /* \"#utility.yul\":12692:12693   */\n      0x00\n        /* \"#utility.yul\":12687:12690   */\n      dup4\n        /* \"#utility.yul\":12611:12694   */\n      tag_294\n      jump\t// in\n    tag_430:\n        /* \"#utility.yul\":12604:12694   */\n      swap2\n      pop\n        /* \"#utility.yul\":12703:12796   */\n      tag_431\n        /* \"#utility.yul\":12792:12795   */\n      dup3\n        /* \"#utility.yul\":12703:12796   */\n      tag_295\n      jump\t// in\n    tag_431:\n        /* \"#utility.yul\":12821:12822   */\n      0x00\n        /* \"#utility.yul\":12816:12819   */\n      dup3\n        /* \"#utility.yul\":12812:12823   */\n      add\n        /* \"#utility.yul\":12805:12823   */\n      swap1\n      pop\n        /* \"#utility.yul\":12431:12829   */\n      swap2\n      swap1\n      pop\n      jump\t// out\n        /* \"#utility.yul\":12835:13214   */\n    tag_179:\n        /* \"#utility.yul\":13019:13022   */\n      0x00\n        /* \"#utility.yul\":13041:13188   */\n      tag_433\n        /* \"#utility.yul\":13184:13187   */\n      dup3\n        /* \"#utility.yul\":13041:13188   */\n      tag_296\n      jump\t// in\n    tag_433:\n        /* \"#utility.yul\":13034:13188   */\n      swap2\n      pop\n        /* \"#utility.yul\":13205:13208   */\n      dup2\n        /* \"#utility.yul\":13198:13208   */\n      swap1\n      pop\n        /* \"#utility.yul\":12835:13214   */\n      swap2\n      swap1\n      pop\n      jump\t// out\n        /* \"#utility.yul\":13220:13384   */\n    tag_297:\n        /* \"#utility.yul\":13360:13376   */\n      0x5061796d656e74206661696c6564000000000000000000000000000000000000\n        /* \"#utility.yul\":13356:13357   */\n      0x00\n        /* \"#utility.yul\":13348:13354   */\n      dup3\n        /* \"#utility.yul\":13344:13358   */\n      add\n        /* \"#utility.yul\":13337:13377   */\n      mstore\n        /* \"#utility.yul\":13220:13384   */\n      pop\n      jump\t// out\n        /* \"#utility.yul\":13390:13756   */\n    tag_298:\n        /* \"#utility.yul\":13532:13535   */\n      0x00\n        /* \"#utility.yul\":13553:13620   */\n      tag_436\n        /* \"#utility.yul\":13617:13619   */\n      0x0e\n        /* \"#utility.yul\":13612:13615   */\n      dup4\n        /* \"#utility.yul\":13553:13620   */\n      tag_265\n      jump\t// in\n    tag_436:\n        /* \"#utility.yul\":13546:13620   */\n      swap2\n      pop\n        /* \"#utility.yul\":13629:13722   */\n      tag_437\n        /* \"#utility.yul\":13718:13721   */\n      dup3\n        /* \"#utility.yul\":13629:13722   */\n      tag_297\n      jump\t// in\n    tag_437:\n        /* \"#utility.yul\":13747:13749   */\n      0x20\n        /* \"#utility.yul\":13742:13745   */\n      dup3\n        /* \"#utility.yul\":13738:13750   */\n      add\n        /* \"#utility.yul\":13731:13750   */\n      swap1\n      pop\n        /* \"#utility.yul\":13390:13756   */\n      swap2\n      swap1\n      pop\n      jump\t// out\n        /* \"#utility.yul\":13762:14181   */\n    tag_185:\n        /* \"#utility.yul\":13928:13932   */\n      0x00\n        /* \"#utility.yul\":13966:13968   */\n      0x20\n        /* \"#utility.yul\":13955:13964   */\n      dup3\n        /* \"#utility.yul\":13951:13969   */\n      add\n        /* \"#utility.yul\":13943:13969   */\n      swap1\n      pop\n        /* \"#utility.yul\":14015:14024   */\n      dup2\n        /* \"#utility.yul\":14009:14013   */\n      dup2\n        /* \"#utility.yul\":14005:14025   */\n      sub\n        /* \"#utility.yul\":14001:14002   */\n      0x00\n        /* \"#utility.yul\":13990:13999   */\n      dup4\n        /* \"#utility.yul\":13986:14003   */\n      add\n        /* \"#utility.yul\":13979:14026   */\n      mstore\n        /* \"#utility.yul\":14043:14174   */\n      tag_439\n        /* \"#utility.yul\":14169:14173   */\n      dup2\n        /* \"#utility.yul\":14043:14174   */\n      tag_298\n      jump\t// in\n    tag_439:\n        /* \"#utility.yul\":14035:14174   */\n      swap1\n      pop\n        /* \"#utility.yul\":13762:14181   */\n      swap2\n      swap1\n      pop\n      jump\t// out\n        /* \"#utility.yul\":14187:14420   */\n    tag_207:\n        /* \"#utility.yul\":14226:14229   */\n      0x00\n        /* \"#utility.yul\":14249:14273   */\n      tag_441\n        /* \"#utility.yul\":14267:14272   */\n      dup3\n        /* \"#utility.yul\":14249:14273   */\n      tag_276\n      jump\t// in\n    tag_441:\n        /* \"#utility.yul\":14240:14273   */\n      swap2\n      pop\n        /* \"#utility.yul\":14295:14361   */\n      0xffffffffffffffffffffffffffffffffffffffffffffffffffffffffffffffff\n        /* \"#utility.yul\":14288:14293   */\n      dup3\n        /* \"#utility.yul\":14285:14362   */\n      sub\n        /* \"#utility.yul\":14282:14385   */\n      tag_442\n      jumpi\n        /* \"#utility.yul\":14365:14383   */\n      tag_443\n      tag_288\n      jump\t// in\n    tag_443:\n        /* \"#utility.yul\":14282:14385   */\n    tag_442:\n        /* \"#utility.yul\":14412:14413   */\n      0x01\n        /* \"#utility.yul\":14405:14410   */\n      dup3\n        /* \"#utility.yul\":14401:14414   */\n      add\n        /* \"#utility.yul\":14394:14414   */\n      swap1\n      pop\n        /* \"#utility.yul\":14187:14420   */\n      swap2\n      swap1\n      pop\n      jump\t// out\n        /* \"#utility.yul\":14426:14674   */\n    tag_299:\n        /* \"#utility.yul\":14566:14600   */\n      0x54686174206973206d6f7265207468616e20746f74616c20746f6b656e207375\n        /* \"#utility.yul\":14562:14563   */\n      0x00\n        /* \"#utility.yul\":14554:14560   */\n      dup3\n        /* \"#utility.yul\":14550:14564   */\n      add\n        /* \"#utility.yul\":14543:14601   */\n      mstore\n        /* \"#utility.yul\":14635:14666   */\n      0x70706c792e20557365206879706f746865746963616c2070726963652e000000\n        /* \"#utility.yul\":14630:14632   */\n      0x20\n        /* \"#utility.yul\":14622:14628   */\n      dup3\n        /* \"#utility.yul\":14618:14633   */\n      add\n        /* \"#utility.yul\":14611:14667   */\n      mstore\n        /* \"#utility.yul\":14426:14674   */\n      pop\n      jump\t// out\n        /* \"#utility.yul\":14680:15046   */\n    tag_300:\n        /* \"#utility.yul\":14822:14825   */\n      0x00\n        /* \"#utility.yul\":14843:14910   */\n      tag_446\n        /* \"#utility.yul\":14907:14909   */\n      0x3d\n        /* \"#utility.yul\":14902:14905   */\n      dup4\n        /* \"#utility.yul\":14843:14910   */\n      tag_265\n      jump\t// in\n    tag_446:\n        /* \"#utility.yul\":14836:14910   */\n      swap2\n      pop\n        /* \"#utility.yul\":14919:15012   */\n      tag_447\n        /* \"#utility.yul\":15008:15011   */\n      dup3\n        /* \"#utility.yul\":14919:15012   */\n      tag_299\n      jump\t// in\n    tag_447:\n        /* \"#utility.yul\":15037:15039   */\n      0x40\n        /* \"#utility.yul\":15032:15035   */\n      dup3\n        /* \"#utility.yul\":15028:15040   */\n      add\n        /* \"#utility.yul\":15021:15040   */\n      swap1\n      pop\n        /* \"#utility.yul\":14680:15046   */\n      swap2\n      swap1\n      pop\n      jump\t// out\n        /* \"#utility.yul\":15052:15471   */\n    tag_212:\n        /* \"#utility.yul\":15218:15222   */\n      0x00\n        /* \"#utility.yul\":15256:15258   */\n      0x20\n        /* \"#utility.yul\":15245:15254   */\n      dup3\n        /* \"#utility.yul\":15241:15259   */\n      add\n        /* \"#utility.yul\":15233:15259   */\n      swap1\n      pop\n        /* \"#utility.yul\":15305:15314   */\n      dup2\n        /* \"#utility.yul\":15299:15303   */\n      dup2\n        /* \"#utility.yul\":15295:15315   */\n      sub\n        /* \"#utility.yul\":15291:15292   */\n      0x00\n        /* \"#utility.yul\":15280:15289   */\n      dup4\n        /* \"#utility.yul\":15276:15293   */\n      add\n        /* \"#utility.yul\":15269:15316   */\n      mstore\n        /* \"#utility.yul\":15333:15464   */\n      tag_449\n        /* \"#utility.yul\":15459:15463   */\n      dup2\n        /* \"#utility.yul\":15333:15464   */\n      tag_300\n      jump\t// in\n    tag_449:\n        /* \"#utility.yul\":15325:15464   */\n      swap1\n      pop\n        /* \"#utility.yul\":15052:15471   */\n      swap2\n      swap1\n      pop\n      jump\t// out\n        /* \"#utility.yul\":15477:15595   */\n    tag_301:\n        /* \"#utility.yul\":15564:15588   */\n      tag_451\n        /* \"#utility.yul\":15582:15587   */\n      dup2\n        /* \"#utility.yul\":15564:15588   */\n      tag_273\n      jump\t// in\n    tag_451:\n        /* \"#utility.yul\":15559:15562   */\n      dup3\n        /* \"#utility.yul\":15552:15589   */\n      mstore\n        /* \"#utility.yul\":15477:15595   */\n      pop\n      pop\n      jump\t// out\n        /* \"#utility.yul\":15601:15823   */\n    tag_224:\n        /* \"#utility.yul\":15694:15698   */\n      0x00\n        /* \"#utility.yul\":15732:15734   */\n      0x20\n        /* \"#utility.yul\":15721:15730   */\n      dup3\n        /* \"#utility.yul\":15717:15735   */\n      add\n        /* \"#utility.yul\":15709:15735   */\n      swap1\n      pop\n        /* \"#utility.yul\":15745:15816   */\n      tag_453\n        /* \"#utility.yul\":15813:15814   */\n      0x00\n        /* \"#utility.yul\":15802:15811   */\n      dup4\n        /* \"#utility.yul\":15798:15815   */\n      add\n        /* \"#utility.yul\":15789:15795   */\n      dup5\n        /* \"#utility.yul\":15745:15816   */\n      tag_301\n      jump\t// in\n    tag_453:\n        /* \"#utility.yul\":15601:15823   */\n      swap3\n      swap2\n      pop\n      pop\n      jump\t// out\n        /* \"#utility.yul\":15829:16271   */\n    tag_236:\n        /* \"#utility.yul\":15978:15982   */\n      0x00\n        /* \"#utility.yul\":16016:16018   */\n      0x60\n        /* \"#utility.yul\":16005:16014   */\n      dup3\n        /* \"#utility.yul\":16001:16019   */\n      add\n        /* \"#utility.yul\":15993:16019   */\n      swap1\n      pop\n        /* \"#utility.yul\":16029:16100   */\n      tag_455\n        /* \"#utility.yul\":16097:16098   */\n      0x00\n        /* \"#utility.yul\":16086:16095   */\n      dup4\n        /* \"#utility.yul\":16082:16099   */\n      add\n        /* \"#utility.yul\":16073:16079   */\n      dup7\n        /* \"#utility.yul\":16029:16100   */\n      tag_301\n      jump\t// in\n    tag_455:\n        /* \"#utility.yul\":16110:16182   */\n      tag_456\n        /* \"#utility.yul\":16178:16180   */\n      0x20\n        /* \"#utility.yul\":16167:16176   */\n      dup4\n        /* \"#utility.yul\":16163:16181   */\n      add\n        /* \"#utility.yul\":16154:16160   */\n      dup6\n        /* \"#utility.yul\":16110:16182   */\n      tag_281\n      jump\t// in\n    tag_456:\n        /* \"#utility.yul\":16192:16264   */\n      tag_457\n        /* \"#utility.yul\":16260:16262   */\n      0x40\n        /* \"#utility.yul\":16249:16258   */\n      dup4\n        /* \"#utility.yul\":16245:16263   */\n      add\n        /* \"#utility.yul\":16236:16242   */\n      dup5\n        /* \"#utility.yul\":16192:16264   */\n      tag_281\n      jump\t// in\n    tag_457:\n        /* \"#utility.yul\":15829:16271   */\n      swap5\n      swap4\n      pop\n      pop\n      pop\n      pop\n      jump\t// out\n\n    auxdata: 0xa26469706673582212204823c0cb16ebce6ce9dc3a430e23ea6085c0704400cf841ee9239e34759c9c3064736f6c63430008140033\n}\n",
				"bytecode": {
					"linkReferences": {},
					"object": "60806040525f6005555f6006555f6007555f6008555f60095534801562000024575f80fd5b506040518060400160405280600a81526020017f4669727374546f6b656e000000000000000000000000000000000000000000008152506040518060400160405280600381526020017f46544b00000000000000000000000000000000000000000000000000000000008152508160039081620000a2919062000321565b508060049081620000b4919062000321565b50505062000405565b5f81519050919050565b7f4e487b71000000000000000000000000000000000000000000000000000000005f52604160045260245ffd5b7f4e487b71000000000000000000000000000000000000000000000000000000005f52602260045260245ffd5b5f60028204905060018216806200013957607f821691505b6020821081036200014f576200014e620000f4565b5b50919050565b5f819050815f5260205f209050919050565b5f6020601f8301049050919050565b5f82821b905092915050565b5f60088302620001b37fffffffffffffffffffffffffffffffffffffffffffffffffffffffffffffffff8262000176565b620001bf868362000176565b95508019841693508086168417925050509392505050565b5f819050919050565b5f819050919050565b5f6200020962000203620001fd84620001d7565b620001e0565b620001d7565b9050919050565b5f819050919050565b6200022483620001e9565b6200023c620002338262000210565b84845462000182565b825550505050565b5f90565b6200025262000244565b6200025f81848462000219565b505050565b5b8181101562000286576200027a5f8262000248565b60018101905062000265565b5050565b601f821115620002d5576200029f8162000155565b620002aa8462000167565b81016020851015620002ba578190505b620002d2620002c98562000167565b83018262000264565b50505b505050565b5f82821c905092915050565b5f620002f75f1984600802620002da565b1980831691505092915050565b5f620003118383620002e6565b9150826002028217905092915050565b6200032c82620000bd565b67ffffffffffffffff811115620003485762000347620000c7565b5b62000354825462000121565b620003618282856200028a565b5f60209050601f83116001811462000397575f841562000382578287015190505b6200038e858262000304565b865550620003fd565b601f198416620003a78662000155565b5f5b82811015620003d057848901518255600182019150602085019450602081019050620003a9565b86831015620003f05784890151620003ec601f891682620002e6565b8355505b6001600288020188555050505b505050505050565b611afb80620004135f395ff3fe60806040526004361061010c575f3560e01c80638b667c7911610094578063c59d563311610063578063c59d563314610381578063dd62ed3e146103bd578063defd6c5f146103f9578063f51f96dd14610423578063f8eb5fc51461044d5761011d565b80638b667c79146102c757806395d89b41146102f1578063a10954fe1461031b578063a9059cbb146103455761011d565b8063313ce567116100db578063313ce567146101f55780633610724e1461021f5780634ef5af321461023b5780636c11bcd31461026357806370a082311461028b5761011d565b806306fdde0314610129578063095ea7b31461015357806318160ddd1461018f57806323b872dd146101b95761011d565b3661011d575f61011b81610489565b005b5f61012781610489565b005b348015610134575f80fd5b5061013d6105aa565b60405161014a919061132c565b60405180910390f35b34801561015e575f80fd5b50610179600480360381019061017491906113dd565b61063a565b6040516101869190611435565b60405180910390f35b34801561019a575f80fd5b506101a361065c565b6040516101b0919061145d565b60405180910390f35b3480156101c4575f80fd5b506101df60048036038101906101da9190611476565b610665565b6040516101ec9190611435565b60405180910390f35b348015610200575f80fd5b50610209610693565b60405161021691906114e1565b60405180910390f35b610239600480360381019061023491906114fa565b610489565b005b348015610246575f80fd5b50610261600480360381019061025c9190611525565b61069b565b005b34801561026e575f80fd5b50610289600480360381019061028491906114fa565b61074a565b005b348015610296575f80fd5b506102b160048036038101906102ac9190611563565b610951565b6040516102be919061145d565b60405180910390f35b3480156102d2575f80fd5b506102db610996565b6040516102e8919061145d565b60405180910390f35b3480156102fc575f80fd5b5061030561099c565b604051610312919061132c565b60405180910390f35b348015610326575f80fd5b5061032f610a2c565b60405161033c919061145d565b60405180910390f35b348015610350575f80fd5b5061036b600480360381019061036691906113dd565b610a32565b6040516103789190611435565b60405180910390f35b34801561038c575f80fd5b506103a760048036038101906103a291906114fa565b610a54565b6040516103b4919061145d565b60405180910390f35b3480156103c8575f80fd5b506103e360048036038101906103de919061158e565b610ad6565b6040516103f0919061145d565b60405180910390f35b348015610404575f80fd5b5061040d610b58565b60405161041a919061145d565b60405180910390f35b34801561042e575f80fd5b50610437610b5e565b604051610444919061145d565b60405180910390f35b348015610458575f80fd5b50610473600480360381019061046e91906114fa565b610b64565b604051610480919061145d565b60405180910390f35b5f3390505f82116104cf576040517f08c379a00000000000000000000000000000000000000000000000000000000081526004016104c690611616565b60405180910390fd5b6104d882610a54565b600681905550600654341015610523576040517f08c379a000000000000000000000000000000000000000000000000000000000815260040161051a9061167e565b60405180910390fd5b61052d8183610c20565b61053561065c565b60058190555061054481610951565b600a5f8373ffffffffffffffffffffffffffffffffffffffff1673ffffffffffffffffffffffffffffffffffffffff1681526020019081526020015f208190555060065460095f82825461059891906116c9565b925050819055505f6006819055505050565b6060600380546105b990611729565b80601f01602080910402602001604051908101604052809291908181526020018280546105e590611729565b80156106305780601f1061060757610100808354040283529160200191610630565b820191905f5260205f20905b81548152906001019060200180831161061357829003601f168201915b5050505050905090565b5f80610644610c9f565b9050610651818585610ca6565b600191505092915050565b5f600254905090565b5f8061066f610c9f565b905061067c858285610cb8565b610687858585610d4b565b60019150509392505050565b5f6012905090565b5f600881905550808211156106e5576040517f08c379a00000000000000000000000000000000000000000000000000000000081526004016106dc906117c9565b60405180910390fd5b5f8190505b82826106f691906117e7565b811115610745575f600182600161070d919061181a565b61071791906116c9565b90508060085f82825461072a91906116c9565b9250508190555050808061073d9061185b565b9150506106ea565b505050565b5f3390505f8211610790576040517f08c379a000000000000000000000000000000000000000000000000000000000815260040161078790611616565b60405180910390fd5b81600a5f8373ffffffffffffffffffffffffffffffffffffffff1673ffffffffffffffffffffffffffffffffffffffff1681526020019081526020015f20541015610810576040517f08c379a0000000000000000000000000000000000000000000000000000000008152600401610807906118cc565b60405180910390fd5b61081982610b64565b6007819055506108298183610e3b565b61083161065c565b60058190555061084081610951565b600a5f8373ffffffffffffffffffffffffffffffffffffffff1673ffffffffffffffffffffffffffffffffffffffff1681526020019081526020015f20819055505f8173ffffffffffffffffffffffffffffffffffffffff166007546040516108a890611917565b5f6040518083038185875af1925050503d805f81146108e2576040519150601f19603f3d011682016040523d82523d5f602084013e6108e7565b606091505b505090508061092b576040517f08c379a000000000000000000000000000000000000000000000000000000000815260040161092290611975565b60405180910390fd5b60075460095f82825461093e91906117e7565b925050819055505f600781905550505050565b5f805f8373ffffffffffffffffffffffffffffffffffffffff1673ffffffffffffffffffffffffffffffffffffffff1681526020019081526020015f20549050919050565b60085481565b6060600480546109ab90611729565b80601f01602080910402602001604051908101604052809291908181526020018280546109d790611729565b8015610a225780601f106109f957610100808354040283529160200191610a22565b820191905f5260205f20905b815481529060010190602001808311610a0557829003601f168201915b5050505050905090565b60095481565b5f80610a3c610c9f565b9050610a49818585610d4b565b600191505092915050565b5f806006819055505f6005546001610a6c91906116c9565b90505b60055483610a7d91906116c9565b8111610acb575f6001826001610a93919061181a565b610a9d91906116c9565b90508060065f828254610ab091906116c9565b92505081905550508080610ac390611993565b915050610a6f565b506006549050919050565b5f60015f8473ffffffffffffffffffffffffffffffffffffffff1673ffffffffffffffffffffffffffffffffffffffff1681526020019081526020015f205f8373ffffffffffffffffffffffffffffffffffffffff1673ffffffffffffffffffffffffffffffffffffffff1681526020019081526020015f2054905092915050565b60065481565b60075481565b5f600554821115610baa576040517f08c379a0000000000000000000000000000000000000000000000000000000008152600401610ba190611a4a565b60405180910390fd5b5f6007819055505f60055490505b82600554610bc691906117e7565b811115610c15575f6001826001610bdd919061181a565b610be791906116c9565b90508060075f828254610bfa91906116c9565b92505081905550508080610c0d9061185b565b915050610bb8565b506007549050919050565b5f73ffffffffffffffffffffffffffffffffffffffff168273ffffffffffffffffffffffffffffffffffffffff1603610c90575f6040517fec442f05000000000000000000000000000000000000000000000000000000008152600401610c879190611a77565b60405180910390fd5b610c9b5f8383610eba565b5050565b5f33905090565b610cb383838360016110d3565b505050565b5f610cc38484610ad6565b90507fffffffffffffffffffffffffffffffffffffffffffffffffffffffffffffffff811015610d455781811015610d36578281836040517ffb8f41b2000000000000000000000000000000000000000000000000000000008152600401610d2d93929190611a90565b60405180910390fd5b610d4484848484035f6110d3565b5b50505050565b5f73ffffffffffffffffffffffffffffffffffffffff168373ffffffffffffffffffffffffffffffffffffffff1603610dbb575f6040517f96c6fd1e000000000000000000000000000000000000000000000000000000008152600401610db29190611a77565b60405180910390fd5b5f73ffffffffffffffffffffffffffffffffffffffff168273ffffffffffffffffffffffffffffffffffffffff1603610e2b575f6040517fec442f05000000000000000000000000000000000000000000000000000000008152600401610e229190611a77565b60405180910390fd5b610e36838383610eba565b505050565b5f73ffffffffffffffffffffffffffffffffffffffff168273ffffffffffffffffffffffffffffffffffffffff1603610eab575f6040517f96c6fd1e000000000000000000000000000000000000000000000000000000008152600401610ea29190611a77565b60405180910390fd5b610eb6825f83610eba565b5050565b5f73ffffffffffffffffffffffffffffffffffffffff168373ffffffffffffffffffffffffffffffffffffffff1603610f0a578060025f828254610efe91906116c9565b92505081905550610fd8565b5f805f8573ffffffffffffffffffffffffffffffffffffffff1673ffffffffffffffffffffffffffffffffffffffff1681526020019081526020015f2054905081811015610f93578381836040517fe450d38c000000000000000000000000000000000000000000000000000000008152600401610f8a93929190611a90565b60405180910390fd5b8181035f808673ffffffffffffffffffffffffffffffffffffffff1673ffffffffffffffffffffffffffffffffffffffff1681526020019081526020015f2081905550505b5f73ffffffffffffffffffffffffffffffffffffffff168273ffffffffffffffffffffffffffffffffffffffff160361101f578060025f8282540392505081905550611069565b805f808473ffffffffffffffffffffffffffffffffffffffff1673ffffffffffffffffffffffffffffffffffffffff1681526020019081526020015f205f82825401925050819055505b8173ffffffffffffffffffffffffffffffffffffffff168373ffffffffffffffffffffffffffffffffffffffff167fddf252ad1be2c89b69c2b068fc378daa952ba7f163c4a11628f55a4df523b3ef836040516110c6919061145d565b60405180910390a3505050565b5f73ffffffffffffffffffffffffffffffffffffffff168473ffffffffffffffffffffffffffffffffffffffff1603611143575f6040517fe602df0500000000000000000000000000000000000000000000000000000000815260040161113a9190611a77565b60405180910390fd5b5f73ffffffffffffffffffffffffffffffffffffffff168373ffffffffffffffffffffffffffffffffffffffff16036111b3575f6040517f94280d620000000000000000000000000000000000000000000000000000000081526004016111aa9190611a77565b60405180910390fd5b8160015f8673ffffffffffffffffffffffffffffffffffffffff1673ffffffffffffffffffffffffffffffffffffffff1681526020019081526020015f205f8573ffffffffffffffffffffffffffffffffffffffff1673ffffffffffffffffffffffffffffffffffffffff1681526020019081526020015f2081905550801561129c578273ffffffffffffffffffffffffffffffffffffffff168473ffffffffffffffffffffffffffffffffffffffff167f8c5be1e5ebec7d5bd14f71427d1e84f3dd0314c0f7b2291e5b200ac8c7c3b92584604051611293919061145d565b60405180910390a35b50505050565b5f81519050919050565b5f82825260208201905092915050565b5f5b838110156112d95780820151818401526020810190506112be565b5f8484015250505050565b5f601f19601f8301169050919050565b5f6112fe826112a2565b61130881856112ac565b93506113188185602086016112bc565b611321816112e4565b840191505092915050565b5f6020820190508181035f83015261134481846112f4565b905092915050565b5f80fd5b5f73ffffffffffffffffffffffffffffffffffffffff82169050919050565b5f61137982611350565b9050919050565b6113898161136f565b8114611393575f80fd5b50565b5f813590506113a481611380565b92915050565b5f819050919050565b6113bc816113aa565b81146113c6575f80fd5b50565b5f813590506113d7816113b3565b92915050565b5f80604083850312156113f3576113f261134c565b5b5f61140085828601611396565b9250506020611411858286016113c9565b9150509250929050565b5f8115159050919050565b61142f8161141b565b82525050565b5f6020820190506114485f830184611426565b92915050565b611457816113aa565b82525050565b5f6020820190506114705f83018461144e565b92915050565b5f805f6060848603121561148d5761148c61134c565b5b5f61149a86828701611396565b93505060206114ab86828701611396565b92505060406114bc868287016113c9565b9150509250925092565b5f60ff82169050919050565b6114db816114c6565b82525050565b5f6020820190506114f45f8301846114d2565b92915050565b5f6020828403121561150f5761150e61134c565b5b5f61151c848285016113c9565b91505092915050565b5f806040838503121561153b5761153a61134c565b5b5f611548858286016113c9565b9250506020611559858286016113c9565b9150509250929050565b5f602082840312156115785761157761134c565b5b5f61158584828501611396565b91505092915050565b5f80604083850312156115a4576115a361134c565b5b5f6115b185828601611396565b92505060206115c285828601611396565b9150509250929050565b7f546f6b656e207175616e74697479206d75737420626520706f736974697665005f82015250565b5f611600601f836112ac565b915061160b826115cc565b602082019050919050565b5f6020820190508181035f83015261162d816115f4565b9050919050565b7f496e73756666696369656e74205745492073656e7400000000000000000000005f82015250565b5f6116686015836112ac565b915061167382611634565b602082019050919050565b5f6020820190508181035f8301526116958161165c565b9050919050565b7f4e487b71000000000000000000000000000000000000000000000000000000005f52601160045260245ffd5b5f6116d3826113aa565b91506116de836113aa565b92508282019050808211156116f6576116f561169c565b5b92915050565b7f4e487b71000000000000000000000000000000000000000000000000000000005f52602260045260245ffd5b5f600282049050600182168061174057607f821691505b602082108103611753576117526116fc565b5b50919050565b7f5175616e74697479206d757374206265206c657373207468616e206f722065715f8201527f75616c20746f206879706f746865746963616c20737575706c79000000000000602082015250565b5f6117b3603a836112ac565b91506117be82611759565b604082019050919050565b5f6020820190508181035f8301526117e0816117a7565b9050919050565b5f6117f1826113aa565b91506117fc836113aa565b92508282039050818111156118145761181361169c565b5b92915050565b5f611824826113aa565b915061182f836113aa565b925082820261183d816113aa565b915082820484148315176118545761185361169c565b5b5092915050565b5f611865826113aa565b91505f82036118775761187661169c565b5b600182039050919050565b7f596f75722062616c616e636520697320696e73756666696369656e74000000005f82015250565b5f6118b6601c836112ac565b91506118c182611882565b602082019050919050565b5f6020820190508181035f8301526118e3816118aa565b9050919050565b5f81905092915050565b50565b5f6119025f836118ea565b915061190d826118f4565b5f82019050919050565b5f611921826118f7565b9150819050919050565b7f5061796d656e74206661696c65640000000000000000000000000000000000005f82015250565b5f61195f600e836112ac565b915061196a8261192b565b602082019050919050565b5f6020820190508181035f83015261198c81611953565b9050919050565b5f61199d826113aa565b91507fffffffffffffffffffffffffffffffffffffffffffffffffffffffffffffffff82036119cf576119ce61169c565b5b600182019050919050565b7f54686174206973206d6f7265207468616e20746f74616c20746f6b656e2073755f8201527f70706c792e20557365206879706f746865746963616c2070726963652e000000602082015250565b5f611a34603d836112ac565b9150611a3f826119da565b604082019050919050565b5f6020820190508181035f830152611a6181611a28565b9050919050565b611a718161136f565b82525050565b5f602082019050611a8a5f830184611a68565b92915050565b5f606082019050611aa35f830186611a68565b611ab0602083018561144e565b611abd604083018461144e565b94935050505056fea26469706673582212204823c0cb16ebce6ce9dc3a430e23ea6085c0704400cf841ee9239e34759c9c3064736f6c63430008140033",
					"opcodes": "PUSH1 0x80 PUSH1 0x40 MSTORE PUSH0 PUSH1 0x5 SSTORE PUSH0 PUSH1 0x6 SSTORE PUSH0 PUSH1 0x7 SSTORE PUSH0 PUSH1 0x8 SSTORE PUSH0 PUSH1 0x9 SSTORE CALLVALUE DUP1 ISZERO PUSH3 0x24 JUMPI PUSH0 DUP1 REVERT JUMPDEST POP PUSH1 0x40 MLOAD DUP1 PUSH1 0x40 ADD PUSH1 0x40 MSTORE DUP1 PUSH1 0xA DUP2 MSTORE PUSH1 0x20 ADD PUSH32 0x4669727374546F6B656E00000000000000000000000000000000000000000000 DUP2 MSTORE POP PUSH1 0x40 MLOAD DUP1 PUSH1 0x40 ADD PUSH1 0x40 MSTORE DUP1 PUSH1 0x3 DUP2 MSTORE PUSH1 0x20 ADD PUSH32 0x46544B0000000000000000000000000000000000000000000000000000000000 DUP2 MSTORE POP DUP2 PUSH1 0x3 SWAP1 DUP2 PUSH3 0xA2 SWAP2 SWAP1 PUSH3 0x321 JUMP JUMPDEST POP DUP1 PUSH1 0x4 SWAP1 DUP2 PUSH3 0xB4 SWAP2 SWAP1 PUSH3 0x321 JUMP JUMPDEST POP POP POP PUSH3 0x405 JUMP JUMPDEST PUSH0 DUP2 MLOAD SWAP1 POP SWAP2 SWAP1 POP JUMP JUMPDEST PUSH32 0x4E487B7100000000000000000000000000000000000000000000000000000000 PUSH0 MSTORE PUSH1 0x41 PUSH1 0x4 MSTORE PUSH1 0x24 PUSH0 REVERT JUMPDEST PUSH32 0x4E487B7100000000000000000000000000000000000000000000000000000000 PUSH0 MSTORE PUSH1 0x22 PUSH1 0x4 MSTORE PUSH1 0x24 PUSH0 REVERT JUMPDEST PUSH0 PUSH1 0x2 DUP3 DIV SWAP1 POP PUSH1 0x1 DUP3 AND DUP1 PUSH3 0x139 JUMPI PUSH1 0x7F DUP3 AND SWAP2 POP JUMPDEST PUSH1 0x20 DUP3 LT DUP2 SUB PUSH3 0x14F JUMPI PUSH3 0x14E PUSH3 0xF4 JUMP JUMPDEST JUMPDEST POP SWAP2 SWAP1 POP JUMP JUMPDEST PUSH0 DUP2 SWAP1 POP DUP2 PUSH0 MSTORE PUSH1 0x20 PUSH0 KECCAK256 SWAP1 POP SWAP2 SWAP1 POP JUMP JUMPDEST PUSH0 PUSH1 0x20 PUSH1 0x1F DUP4 ADD DIV SWAP1 POP SWAP2 SWAP1 POP JUMP JUMPDEST PUSH0 DUP3 DUP3 SHL SWAP1 POP SWAP3 SWAP2 POP POP JUMP JUMPDEST PUSH0 PUSH1 0x8 DUP4 MUL PUSH3 0x1B3 PUSH32 0xFFFFFFFFFFFFFFFFFFFFFFFFFFFFFFFFFFFFFFFFFFFFFFFFFFFFFFFFFFFFFFFF DUP3 PUSH3 0x176 JUMP JUMPDEST PUSH3 0x1BF DUP7 DUP4 PUSH3 0x176 JUMP JUMPDEST SWAP6 POP DUP1 NOT DUP5 AND SWAP4 POP DUP1 DUP7 AND DUP5 OR SWAP3 POP POP POP SWAP4 SWAP3 POP POP POP JUMP JUMPDEST PUSH0 DUP2 SWAP1 POP SWAP2 SWAP1 POP JUMP JUMPDEST PUSH0 DUP2 SWAP1 POP SWAP2 SWAP1 POP JUMP JUMPDEST PUSH0 PUSH3 0x209 PUSH3 0x203 PUSH3 0x1FD DUP5 PUSH3 0x1D7 JUMP JUMPDEST PUSH3 0x1E0 JUMP JUMPDEST PUSH3 0x1D7 JUMP JUMPDEST SWAP1 POP SWAP2 SWAP1 POP JUMP JUMPDEST PUSH0 DUP2 SWAP1 POP SWAP2 SWAP1 POP JUMP JUMPDEST PUSH3 0x224 DUP4 PUSH3 0x1E9 JUMP JUMPDEST PUSH3 0x23C PUSH3 0x233 DUP3 PUSH3 0x210 JUMP JUMPDEST DUP5 DUP5 SLOAD PUSH3 0x182 JUMP JUMPDEST DUP3 SSTORE POP POP POP POP JUMP JUMPDEST PUSH0 SWAP1 JUMP JUMPDEST PUSH3 0x252 PUSH3 0x244 JUMP JUMPDEST PUSH3 0x25F DUP2 DUP5 DUP5 PUSH3 0x219 JUMP JUMPDEST POP POP POP JUMP JUMPDEST JUMPDEST DUP2 DUP2 LT ISZERO PUSH3 0x286 JUMPI PUSH3 0x27A PUSH0 DUP3 PUSH3 0x248 JUMP JUMPDEST PUSH1 0x1 DUP2 ADD SWAP1 POP PUSH3 0x265 JUMP JUMPDEST POP POP JUMP JUMPDEST PUSH1 0x1F DUP3 GT ISZERO PUSH3 0x2D5 JUMPI PUSH3 0x29F DUP2 PUSH3 0x155 JUMP JUMPDEST PUSH3 0x2AA DUP5 PUSH3 0x167 JUMP JUMPDEST DUP2 ADD PUSH1 0x20 DUP6 LT ISZERO PUSH3 0x2BA JUMPI DUP2 SWAP1 POP JUMPDEST PUSH3 0x2D2 PUSH3 0x2C9 DUP6 PUSH3 0x167 JUMP JUMPDEST DUP4 ADD DUP3 PUSH3 0x264 JUMP JUMPDEST POP POP JUMPDEST POP POP POP JUMP JUMPDEST PUSH0 DUP3 DUP3 SHR SWAP1 POP SWAP3 SWAP2 POP POP JUMP JUMPDEST PUSH0 PUSH3 0x2F7 PUSH0 NOT DUP5 PUSH1 0x8 MUL PUSH3 0x2DA JUMP JUMPDEST NOT DUP1 DUP4 AND SWAP2 POP POP SWAP3 SWAP2 POP POP JUMP JUMPDEST PUSH0 PUSH3 0x311 DUP4 DUP4 PUSH3 0x2E6 JUMP JUMPDEST SWAP2 POP DUP3 PUSH1 0x2 MUL DUP3 OR SWAP1 POP SWAP3 SWAP2 POP POP JUMP JUMPDEST PUSH3 0x32C DUP3 PUSH3 0xBD JUMP JUMPDEST PUSH8 0xFFFFFFFFFFFFFFFF DUP2 GT ISZERO PUSH3 0x348 JUMPI PUSH3 0x347 PUSH3 0xC7 JUMP JUMPDEST JUMPDEST PUSH3 0x354 DUP3 SLOAD PUSH3 0x121 JUMP JUMPDEST PUSH3 0x361 DUP3 DUP3 DUP6 PUSH3 0x28A JUMP JUMPDEST PUSH0 PUSH1 0x20 SWAP1 POP PUSH1 0x1F DUP4 GT PUSH1 0x1 DUP2 EQ PUSH3 0x397 JUMPI PUSH0 DUP5 ISZERO PUSH3 0x382 JUMPI DUP3 DUP8 ADD MLOAD SWAP1 POP JUMPDEST PUSH3 0x38E DUP6 DUP3 PUSH3 0x304 JUMP JUMPDEST DUP7 SSTORE POP PUSH3 0x3FD JUMP JUMPDEST PUSH1 0x1F NOT DUP5 AND PUSH3 0x3A7 DUP7 PUSH3 0x155 JUMP JUMPDEST PUSH0 JUMPDEST DUP3 DUP2 LT ISZERO PUSH3 0x3D0 JUMPI DUP5 DUP10 ADD MLOAD DUP3 SSTORE PUSH1 0x1 DUP3 ADD SWAP2 POP PUSH1 0x20 DUP6 ADD SWAP5 POP PUSH1 0x20 DUP2 ADD SWAP1 POP PUSH3 0x3A9 JUMP JUMPDEST DUP7 DUP4 LT ISZERO PUSH3 0x3F0 JUMPI DUP5 DUP10 ADD MLOAD PUSH3 0x3EC PUSH1 0x1F DUP10 AND DUP3 PUSH3 0x2E6 JUMP JUMPDEST DUP4 SSTORE POP JUMPDEST PUSH1 0x1 PUSH1 0x2 DUP9 MUL ADD DUP9 SSTORE POP POP POP JUMPDEST POP POP POP POP POP POP JUMP JUMPDEST PUSH2 0x1AFB DUP1 PUSH3 0x413 PUSH0 CODECOPY PUSH0 RETURN INVALID PUSH1 0x80 PUSH1 0x40 MSTORE PUSH1 0x4 CALLDATASIZE LT PUSH2 0x10C JUMPI PUSH0 CALLDATALOAD PUSH1 0xE0 SHR DUP1 PUSH4 0x8B667C79 GT PUSH2 0x94 JUMPI DUP1 PUSH4 0xC59D5633 GT PUSH2 0x63 JUMPI DUP1 PUSH4 0xC59D5633 EQ PUSH2 0x381 JUMPI DUP1 PUSH4 0xDD62ED3E EQ PUSH2 0x3BD JUMPI DUP1 PUSH4 0xDEFD6C5F EQ PUSH2 0x3F9 JUMPI DUP1 PUSH4 0xF51F96DD EQ PUSH2 0x423 JUMPI DUP1 PUSH4 0xF8EB5FC5 EQ PUSH2 0x44D JUMPI PUSH2 0x11D JUMP JUMPDEST DUP1 PUSH4 0x8B667C79 EQ PUSH2 0x2C7 JUMPI DUP1 PUSH4 0x95D89B41 EQ PUSH2 0x2F1 JUMPI DUP1 PUSH4 0xA10954FE EQ PUSH2 0x31B JUMPI DUP1 PUSH4 0xA9059CBB EQ PUSH2 0x345 JUMPI PUSH2 0x11D JUMP JUMPDEST DUP1 PUSH4 0x313CE567 GT PUSH2 0xDB JUMPI DUP1 PUSH4 0x313CE567 EQ PUSH2 0x1F5 JUMPI DUP1 PUSH4 0x3610724E EQ PUSH2 0x21F JUMPI DUP1 PUSH4 0x4EF5AF32 EQ PUSH2 0x23B JUMPI DUP1 PUSH4 0x6C11BCD3 EQ PUSH2 0x263 JUMPI DUP1 PUSH4 0x70A08231 EQ PUSH2 0x28B JUMPI PUSH2 0x11D JUMP JUMPDEST DUP1 PUSH4 0x6FDDE03 EQ PUSH2 0x129 JUMPI DUP1 PUSH4 0x95EA7B3 EQ PUSH2 0x153 JUMPI DUP1 PUSH4 0x18160DDD EQ PUSH2 0x18F JUMPI DUP1 PUSH4 0x23B872DD EQ PUSH2 0x1B9 JUMPI PUSH2 0x11D JUMP JUMPDEST CALLDATASIZE PUSH2 0x11D JUMPI PUSH0 PUSH2 0x11B DUP2 PUSH2 0x489 JUMP JUMPDEST STOP JUMPDEST PUSH0 PUSH2 0x127 DUP2 PUSH2 0x489 JUMP JUMPDEST STOP JUMPDEST CALLVALUE DUP1 ISZERO PUSH2 0x134 JUMPI PUSH0 DUP1 REVERT JUMPDEST POP PUSH2 0x13D PUSH2 0x5AA JUMP JUMPDEST PUSH1 0x40 MLOAD PUSH2 0x14A SWAP2 SWAP1 PUSH2 0x132C JUMP JUMPDEST PUSH1 0x40 MLOAD DUP1 SWAP2 SUB SWAP1 RETURN JUMPDEST CALLVALUE DUP1 ISZERO PUSH2 0x15E JUMPI PUSH0 DUP1 REVERT JUMPDEST POP PUSH2 0x179 PUSH1 0x4 DUP1 CALLDATASIZE SUB DUP2 ADD SWAP1 PUSH2 0x174 SWAP2 SWAP1 PUSH2 0x13DD JUMP JUMPDEST PUSH2 0x63A JUMP JUMPDEST PUSH1 0x40 MLOAD PUSH2 0x186 SWAP2 SWAP1 PUSH2 0x1435 JUMP JUMPDEST PUSH1 0x40 MLOAD DUP1 SWAP2 SUB SWAP1 RETURN JUMPDEST CALLVALUE DUP1 ISZERO PUSH2 0x19A JUMPI PUSH0 DUP1 REVERT JUMPDEST POP PUSH2 0x1A3 PUSH2 0x65C JUMP JUMPDEST PUSH1 0x40 MLOAD PUSH2 0x1B0 SWAP2 SWAP1 PUSH2 0x145D JUMP JUMPDEST PUSH1 0x40 MLOAD DUP1 SWAP2 SUB SWAP1 RETURN JUMPDEST CALLVALUE DUP1 ISZERO PUSH2 0x1C4 JUMPI PUSH0 DUP1 REVERT JUMPDEST POP PUSH2 0x1DF PUSH1 0x4 DUP1 CALLDATASIZE SUB DUP2 ADD SWAP1 PUSH2 0x1DA SWAP2 SWAP1 PUSH2 0x1476 JUMP JUMPDEST PUSH2 0x665 JUMP JUMPDEST PUSH1 0x40 MLOAD PUSH2 0x1EC SWAP2 SWAP1 PUSH2 0x1435 JUMP JUMPDEST PUSH1 0x40 MLOAD DUP1 SWAP2 SUB SWAP1 RETURN JUMPDEST CALLVALUE DUP1 ISZERO PUSH2 0x200 JUMPI PUSH0 DUP1 REVERT JUMPDEST POP PUSH2 0x209 PUSH2 0x693 JUMP JUMPDEST PUSH1 0x40 MLOAD PUSH2 0x216 SWAP2 SWAP1 PUSH2 0x14E1 JUMP JUMPDEST PUSH1 0x40 MLOAD DUP1 SWAP2 SUB SWAP1 RETURN JUMPDEST PUSH2 0x239 PUSH1 0x4 DUP1 CALLDATASIZE SUB DUP2 ADD SWAP1 PUSH2 0x234 SWAP2 SWAP1 PUSH2 0x14FA JUMP JUMPDEST PUSH2 0x489 JUMP JUMPDEST STOP JUMPDEST CALLVALUE DUP1 ISZERO PUSH2 0x246 JUMPI PUSH0 DUP1 REVERT JUMPDEST POP PUSH2 0x261 PUSH1 0x4 DUP1 CALLDATASIZE SUB DUP2 ADD SWAP1 PUSH2 0x25C SWAP2 SWAP1 PUSH2 0x1525 JUMP JUMPDEST PUSH2 0x69B JUMP JUMPDEST STOP JUMPDEST CALLVALUE DUP1 ISZERO PUSH2 0x26E JUMPI PUSH0 DUP1 REVERT JUMPDEST POP PUSH2 0x289 PUSH1 0x4 DUP1 CALLDATASIZE SUB DUP2 ADD SWAP1 PUSH2 0x284 SWAP2 SWAP1 PUSH2 0x14FA JUMP JUMPDEST PUSH2 0x74A JUMP JUMPDEST STOP JUMPDEST CALLVALUE DUP1 ISZERO PUSH2 0x296 JUMPI PUSH0 DUP1 REVERT JUMPDEST POP PUSH2 0x2B1 PUSH1 0x4 DUP1 CALLDATASIZE SUB DUP2 ADD SWAP1 PUSH2 0x2AC SWAP2 SWAP1 PUSH2 0x1563 JUMP JUMPDEST PUSH2 0x951 JUMP JUMPDEST PUSH1 0x40 MLOAD PUSH2 0x2BE SWAP2 SWAP1 PUSH2 0x145D JUMP JUMPDEST PUSH1 0x40 MLOAD DUP1 SWAP2 SUB SWAP1 RETURN JUMPDEST CALLVALUE DUP1 ISZERO PUSH2 0x2D2 JUMPI PUSH0 DUP1 REVERT JUMPDEST POP PUSH2 0x2DB PUSH2 0x996 JUMP JUMPDEST PUSH1 0x40 MLOAD PUSH2 0x2E8 SWAP2 SWAP1 PUSH2 0x145D JUMP JUMPDEST PUSH1 0x40 MLOAD DUP1 SWAP2 SUB SWAP1 RETURN JUMPDEST CALLVALUE DUP1 ISZERO PUSH2 0x2FC JUMPI PUSH0 DUP1 REVERT JUMPDEST POP PUSH2 0x305 PUSH2 0x99C JUMP JUMPDEST PUSH1 0x40 MLOAD PUSH2 0x312 SWAP2 SWAP1 PUSH2 0x132C JUMP JUMPDEST PUSH1 0x40 MLOAD DUP1 SWAP2 SUB SWAP1 RETURN JUMPDEST CALLVALUE DUP1 ISZERO PUSH2 0x326 JUMPI PUSH0 DUP1 REVERT JUMPDEST POP PUSH2 0x32F PUSH2 0xA2C JUMP JUMPDEST PUSH1 0x40 MLOAD PUSH2 0x33C SWAP2 SWAP1 PUSH2 0x145D JUMP JUMPDEST PUSH1 0x40 MLOAD DUP1 SWAP2 SUB SWAP1 RETURN JUMPDEST CALLVALUE DUP1 ISZERO PUSH2 0x350 JUMPI PUSH0 DUP1 REVERT JUMPDEST POP PUSH2 0x36B PUSH1 0x4 DUP1 CALLDATASIZE SUB DUP2 ADD SWAP1 PUSH2 0x366 SWAP2 SWAP1 PUSH2 0x13DD JUMP JUMPDEST PUSH2 0xA32 JUMP JUMPDEST PUSH1 0x40 MLOAD PUSH2 0x378 SWAP2 SWAP1 PUSH2 0x1435 JUMP JUMPDEST PUSH1 0x40 MLOAD DUP1 SWAP2 SUB SWAP1 RETURN JUMPDEST CALLVALUE DUP1 ISZERO PUSH2 0x38C JUMPI PUSH0 DUP1 REVERT JUMPDEST POP PUSH2 0x3A7 PUSH1 0x4 DUP1 CALLDATASIZE SUB DUP2 ADD SWAP1 PUSH2 0x3A2 SWAP2 SWAP1 PUSH2 0x14FA JUMP JUMPDEST PUSH2 0xA54 JUMP JUMPDEST PUSH1 0x40 MLOAD PUSH2 0x3B4 SWAP2 SWAP1 PUSH2 0x145D JUMP JUMPDEST PUSH1 0x40 MLOAD DUP1 SWAP2 SUB SWAP1 RETURN JUMPDEST CALLVALUE DUP1 ISZERO PUSH2 0x3C8 JUMPI PUSH0 DUP1 REVERT JUMPDEST POP PUSH2 0x3E3 PUSH1 0x4 DUP1 CALLDATASIZE SUB DUP2 ADD SWAP1 PUSH2 0x3DE SWAP2 SWAP1 PUSH2 0x158E JUMP JUMPDEST PUSH2 0xAD6 JUMP JUMPDEST PUSH1 0x40 MLOAD PUSH2 0x3F0 SWAP2 SWAP1 PUSH2 0x145D JUMP JUMPDEST PUSH1 0x40 MLOAD DUP1 SWAP2 SUB SWAP1 RETURN JUMPDEST CALLVALUE DUP1 ISZERO PUSH2 0x404 JUMPI PUSH0 DUP1 REVERT JUMPDEST POP PUSH2 0x40D PUSH2 0xB58 JUMP JUMPDEST PUSH1 0x40 MLOAD PUSH2 0x41A SWAP2 SWAP1 PUSH2 0x145D JUMP JUMPDEST PUSH1 0x40 MLOAD DUP1 SWAP2 SUB SWAP1 RETURN JUMPDEST CALLVALUE DUP1 ISZERO PUSH2 0x42E JUMPI PUSH0 DUP1 REVERT JUMPDEST POP PUSH2 0x437 PUSH2 0xB5E JUMP JUMPDEST PUSH1 0x40 MLOAD PUSH2 0x444 SWAP2 SWAP1 PUSH2 0x145D JUMP JUMPDEST PUSH1 0x40 MLOAD DUP1 SWAP2 SUB SWAP1 RETURN JUMPDEST CALLVALUE DUP1 ISZERO PUSH2 0x458 JUMPI PUSH0 DUP1 REVERT JUMPDEST POP PUSH2 0x473 PUSH1 0x4 DUP1 CALLDATASIZE SUB DUP2 ADD SWAP1 PUSH2 0x46E SWAP2 SWAP1 PUSH2 0x14FA JUMP JUMPDEST PUSH2 0xB64 JUMP JUMPDEST PUSH1 0x40 MLOAD PUSH2 0x480 SWAP2 SWAP1 PUSH2 0x145D JUMP JUMPDEST PUSH1 0x40 MLOAD DUP1 SWAP2 SUB SWAP1 RETURN JUMPDEST PUSH0 CALLER SWAP1 POP PUSH0 DUP3 GT PUSH2 0x4CF JUMPI PUSH1 0x40 MLOAD PUSH32 0x8C379A000000000000000000000000000000000000000000000000000000000 DUP2 MSTORE PUSH1 0x4 ADD PUSH2 0x4C6 SWAP1 PUSH2 0x1616 JUMP JUMPDEST PUSH1 0x40 MLOAD DUP1 SWAP2 SUB SWAP1 REVERT JUMPDEST PUSH2 0x4D8 DUP3 PUSH2 0xA54 JUMP JUMPDEST PUSH1 0x6 DUP2 SWAP1 SSTORE POP PUSH1 0x6 SLOAD CALLVALUE LT ISZERO PUSH2 0x523 JUMPI PUSH1 0x40 MLOAD PUSH32 0x8C379A000000000000000000000000000000000000000000000000000000000 DUP2 MSTORE PUSH1 0x4 ADD PUSH2 0x51A SWAP1 PUSH2 0x167E JUMP JUMPDEST PUSH1 0x40 MLOAD DUP1 SWAP2 SUB SWAP1 REVERT JUMPDEST PUSH2 0x52D DUP2 DUP4 PUSH2 0xC20 JUMP JUMPDEST PUSH2 0x535 PUSH2 0x65C JUMP JUMPDEST PUSH1 0x5 DUP2 SWAP1 SSTORE POP PUSH2 0x544 DUP2 PUSH2 0x951 JUMP JUMPDEST PUSH1 0xA PUSH0 DUP4 PUSH20 0xFFFFFFFFFFFFFFFFFFFFFFFFFFFFFFFFFFFFFFFF AND PUSH20 0xFFFFFFFFFFFFFFFFFFFFFFFFFFFFFFFFFFFFFFFF AND DUP2 MSTORE PUSH1 0x20 ADD SWAP1 DUP2 MSTORE PUSH1 0x20 ADD PUSH0 KECCAK256 DUP2 SWAP1 SSTORE POP PUSH1 0x6 SLOAD PUSH1 0x9 PUSH0 DUP3 DUP3 SLOAD PUSH2 0x598 SWAP2 SWAP1 PUSH2 0x16C9 JUMP JUMPDEST SWAP3 POP POP DUP2 SWAP1 SSTORE POP PUSH0 PUSH1 0x6 DUP2 SWAP1 SSTORE POP POP POP JUMP JUMPDEST PUSH1 0x60 PUSH1 0x3 DUP1 SLOAD PUSH2 0x5B9 SWAP1 PUSH2 0x1729 JUMP JUMPDEST DUP1 PUSH1 0x1F ADD PUSH1 0x20 DUP1 SWAP2 DIV MUL PUSH1 0x20 ADD PUSH1 0x40 MLOAD SWAP1 DUP2 ADD PUSH1 0x40 MSTORE DUP1 SWAP3 SWAP2 SWAP1 DUP2 DUP2 MSTORE PUSH1 0x20 ADD DUP3 DUP1 SLOAD PUSH2 0x5E5 SWAP1 PUSH2 0x1729 JUMP JUMPDEST DUP1 ISZERO PUSH2 0x630 JUMPI DUP1 PUSH1 0x1F LT PUSH2 0x607 JUMPI PUSH2 0x100 DUP1 DUP4 SLOAD DIV MUL DUP4 MSTORE SWAP2 PUSH1 0x20 ADD SWAP2 PUSH2 0x630 JUMP JUMPDEST DUP3 ADD SWAP2 SWAP1 PUSH0 MSTORE PUSH1 0x20 PUSH0 KECCAK256 SWAP1 JUMPDEST DUP2 SLOAD DUP2 MSTORE SWAP1 PUSH1 0x1 ADD SWAP1 PUSH1 0x20 ADD DUP1 DUP4 GT PUSH2 0x613 JUMPI DUP3 SWAP1 SUB PUSH1 0x1F AND DUP3 ADD SWAP2 JUMPDEST POP POP POP POP POP SWAP1 POP SWAP1 JUMP JUMPDEST PUSH0 DUP1 PUSH2 0x644 PUSH2 0xC9F JUMP JUMPDEST SWAP1 POP PUSH2 0x651 DUP2 DUP6 DUP6 PUSH2 0xCA6 JUMP JUMPDEST PUSH1 0x1 SWAP2 POP POP SWAP3 SWAP2 POP POP JUMP JUMPDEST PUSH0 PUSH1 0x2 SLOAD SWAP1 POP SWAP1 JUMP JUMPDEST PUSH0 DUP1 PUSH2 0x66F PUSH2 0xC9F JUMP JUMPDEST SWAP1 POP PUSH2 0x67C DUP6 DUP3 DUP6 PUSH2 0xCB8 JUMP JUMPDEST PUSH2 0x687 DUP6 DUP6 DUP6 PUSH2 0xD4B JUMP JUMPDEST PUSH1 0x1 SWAP2 POP POP SWAP4 SWAP3 POP POP POP JUMP JUMPDEST PUSH0 PUSH1 0x12 SWAP1 POP SWAP1 JUMP JUMPDEST PUSH0 PUSH1 0x8 DUP2 SWAP1 SSTORE POP DUP1 DUP3 GT ISZERO PUSH2 0x6E5 JUMPI PUSH1 0x40 MLOAD PUSH32 0x8C379A000000000000000000000000000000000000000000000000000000000 DUP2 MSTORE PUSH1 0x4 ADD PUSH2 0x6DC SWAP1 PUSH2 0x17C9 JUMP JUMPDEST PUSH1 0x40 MLOAD DUP1 SWAP2 SUB SWAP1 REVERT JUMPDEST PUSH0 DUP2 SWAP1 POP JUMPDEST DUP3 DUP3 PUSH2 0x6F6 SWAP2 SWAP1 PUSH2 0x17E7 JUMP JUMPDEST DUP2 GT ISZERO PUSH2 0x745 JUMPI PUSH0 PUSH1 0x1 DUP3 PUSH1 0x1 PUSH2 0x70D SWAP2 SWAP1 PUSH2 0x181A JUMP JUMPDEST PUSH2 0x717 SWAP2 SWAP1 PUSH2 0x16C9 JUMP JUMPDEST SWAP1 POP DUP1 PUSH1 0x8 PUSH0 DUP3 DUP3 SLOAD PUSH2 0x72A SWAP2 SWAP1 PUSH2 0x16C9 JUMP JUMPDEST SWAP3 POP POP DUP2 SWAP1 SSTORE POP POP DUP1 DUP1 PUSH2 0x73D SWAP1 PUSH2 0x185B JUMP JUMPDEST SWAP2 POP POP PUSH2 0x6EA JUMP JUMPDEST POP POP POP JUMP JUMPDEST PUSH0 CALLER SWAP1 POP PUSH0 DUP3 GT PUSH2 0x790 JUMPI PUSH1 0x40 MLOAD PUSH32 0x8C379A000000000000000000000000000000000000000000000000000000000 DUP2 MSTORE PUSH1 0x4 ADD PUSH2 0x787 SWAP1 PUSH2 0x1616 JUMP JUMPDEST PUSH1 0x40 MLOAD DUP1 SWAP2 SUB SWAP1 REVERT JUMPDEST DUP2 PUSH1 0xA PUSH0 DUP4 PUSH20 0xFFFFFFFFFFFFFFFFFFFFFFFFFFFFFFFFFFFFFFFF AND PUSH20 0xFFFFFFFFFFFFFFFFFFFFFFFFFFFFFFFFFFFFFFFF AND DUP2 MSTORE PUSH1 0x20 ADD SWAP1 DUP2 MSTORE PUSH1 0x20 ADD PUSH0 KECCAK256 SLOAD LT ISZERO PUSH2 0x810 JUMPI PUSH1 0x40 MLOAD PUSH32 0x8C379A000000000000000000000000000000000000000000000000000000000 DUP2 MSTORE PUSH1 0x4 ADD PUSH2 0x807 SWAP1 PUSH2 0x18CC JUMP JUMPDEST PUSH1 0x40 MLOAD DUP1 SWAP2 SUB SWAP1 REVERT JUMPDEST PUSH2 0x819 DUP3 PUSH2 0xB64 JUMP JUMPDEST PUSH1 0x7 DUP2 SWAP1 SSTORE POP PUSH2 0x829 DUP2 DUP4 PUSH2 0xE3B JUMP JUMPDEST PUSH2 0x831 PUSH2 0x65C JUMP JUMPDEST PUSH1 0x5 DUP2 SWAP1 SSTORE POP PUSH2 0x840 DUP2 PUSH2 0x951 JUMP JUMPDEST PUSH1 0xA PUSH0 DUP4 PUSH20 0xFFFFFFFFFFFFFFFFFFFFFFFFFFFFFFFFFFFFFFFF AND PUSH20 0xFFFFFFFFFFFFFFFFFFFFFFFFFFFFFFFFFFFFFFFF AND DUP2 MSTORE PUSH1 0x20 ADD SWAP1 DUP2 MSTORE PUSH1 0x20 ADD PUSH0 KECCAK256 DUP2 SWAP1 SSTORE POP PUSH0 DUP2 PUSH20 0xFFFFFFFFFFFFFFFFFFFFFFFFFFFFFFFFFFFFFFFF AND PUSH1 0x7 SLOAD PUSH1 0x40 MLOAD PUSH2 0x8A8 SWAP1 PUSH2 0x1917 JUMP JUMPDEST PUSH0 PUSH1 0x40 MLOAD DUP1 DUP4 SUB DUP2 DUP6 DUP8 GAS CALL SWAP3 POP POP POP RETURNDATASIZE DUP1 PUSH0 DUP2 EQ PUSH2 0x8E2 JUMPI PUSH1 0x40 MLOAD SWAP2 POP PUSH1 0x1F NOT PUSH1 0x3F RETURNDATASIZE ADD AND DUP3 ADD PUSH1 0x40 MSTORE RETURNDATASIZE DUP3 MSTORE RETURNDATASIZE PUSH0 PUSH1 0x20 DUP5 ADD RETURNDATACOPY PUSH2 0x8E7 JUMP JUMPDEST PUSH1 0x60 SWAP2 POP JUMPDEST POP POP SWAP1 POP DUP1 PUSH2 0x92B JUMPI PUSH1 0x40 MLOAD PUSH32 0x8C379A000000000000000000000000000000000000000000000000000000000 DUP2 MSTORE PUSH1 0x4 ADD PUSH2 0x922 SWAP1 PUSH2 0x1975 JUMP JUMPDEST PUSH1 0x40 MLOAD DUP1 SWAP2 SUB SWAP1 REVERT JUMPDEST PUSH1 0x7 SLOAD PUSH1 0x9 PUSH0 DUP3 DUP3 SLOAD PUSH2 0x93E SWAP2 SWAP1 PUSH2 0x17E7 JUMP JUMPDEST SWAP3 POP POP DUP2 SWAP1 SSTORE POP PUSH0 PUSH1 0x7 DUP2 SWAP1 SSTORE POP POP POP POP JUMP JUMPDEST PUSH0 DUP1 PUSH0 DUP4 PUSH20 0xFFFFFFFFFFFFFFFFFFFFFFFFFFFFFFFFFFFFFFFF AND PUSH20 0xFFFFFFFFFFFFFFFFFFFFFFFFFFFFFFFFFFFFFFFF AND DUP2 MSTORE PUSH1 0x20 ADD SWAP1 DUP2 MSTORE PUSH1 0x20 ADD PUSH0 KECCAK256 SLOAD SWAP1 POP SWAP2 SWAP1 POP JUMP JUMPDEST PUSH1 0x8 SLOAD DUP2 JUMP JUMPDEST PUSH1 0x60 PUSH1 0x4 DUP1 SLOAD PUSH2 0x9AB SWAP1 PUSH2 0x1729 JUMP JUMPDEST DUP1 PUSH1 0x1F ADD PUSH1 0x20 DUP1 SWAP2 DIV MUL PUSH1 0x20 ADD PUSH1 0x40 MLOAD SWAP1 DUP2 ADD PUSH1 0x40 MSTORE DUP1 SWAP3 SWAP2 SWAP1 DUP2 DUP2 MSTORE PUSH1 0x20 ADD DUP3 DUP1 SLOAD PUSH2 0x9D7 SWAP1 PUSH2 0x1729 JUMP JUMPDEST DUP1 ISZERO PUSH2 0xA22 JUMPI DUP1 PUSH1 0x1F LT PUSH2 0x9F9 JUMPI PUSH2 0x100 DUP1 DUP4 SLOAD DIV MUL DUP4 MSTORE SWAP2 PUSH1 0x20 ADD SWAP2 PUSH2 0xA22 JUMP JUMPDEST DUP3 ADD SWAP2 SWAP1 PUSH0 MSTORE PUSH1 0x20 PUSH0 KECCAK256 SWAP1 JUMPDEST DUP2 SLOAD DUP2 MSTORE SWAP1 PUSH1 0x1 ADD SWAP1 PUSH1 0x20 ADD DUP1 DUP4 GT PUSH2 0xA05 JUMPI DUP3 SWAP1 SUB PUSH1 0x1F AND DUP3 ADD SWAP2 JUMPDEST POP POP POP POP POP SWAP1 POP SWAP1 JUMP JUMPDEST PUSH1 0x9 SLOAD DUP2 JUMP JUMPDEST PUSH0 DUP1 PUSH2 0xA3C PUSH2 0xC9F JUMP JUMPDEST SWAP1 POP PUSH2 0xA49 DUP2 DUP6 DUP6 PUSH2 0xD4B JUMP JUMPDEST PUSH1 0x1 SWAP2 POP POP SWAP3 SWAP2 POP POP JUMP JUMPDEST PUSH0 DUP1 PUSH1 0x6 DUP2 SWAP1 SSTORE POP PUSH0 PUSH1 0x5 SLOAD PUSH1 0x1 PUSH2 0xA6C SWAP2 SWAP1 PUSH2 0x16C9 JUMP JUMPDEST SWAP1 POP JUMPDEST PUSH1 0x5 SLOAD DUP4 PUSH2 0xA7D SWAP2 SWAP1 PUSH2 0x16C9 JUMP JUMPDEST DUP2 GT PUSH2 0xACB JUMPI PUSH0 PUSH1 0x1 DUP3 PUSH1 0x1 PUSH2 0xA93 SWAP2 SWAP1 PUSH2 0x181A JUMP JUMPDEST PUSH2 0xA9D SWAP2 SWAP1 PUSH2 0x16C9 JUMP JUMPDEST SWAP1 POP DUP1 PUSH1 0x6 PUSH0 DUP3 DUP3 SLOAD PUSH2 0xAB0 SWAP2 SWAP1 PUSH2 0x16C9 JUMP JUMPDEST SWAP3 POP POP DUP2 SWAP1 SSTORE POP POP DUP1 DUP1 PUSH2 0xAC3 SWAP1 PUSH2 0x1993 JUMP JUMPDEST SWAP2 POP POP PUSH2 0xA6F JUMP JUMPDEST POP PUSH1 0x6 SLOAD SWAP1 POP SWAP2 SWAP1 POP JUMP JUMPDEST PUSH0 PUSH1 0x1 PUSH0 DUP5 PUSH20 0xFFFFFFFFFFFFFFFFFFFFFFFFFFFFFFFFFFFFFFFF AND PUSH20 0xFFFFFFFFFFFFFFFFFFFFFFFFFFFFFFFFFFFFFFFF AND DUP2 MSTORE PUSH1 0x20 ADD SWAP1 DUP2 MSTORE PUSH1 0x20 ADD PUSH0 KECCAK256 PUSH0 DUP4 PUSH20 0xFFFFFFFFFFFFFFFFFFFFFFFFFFFFFFFFFFFFFFFF AND PUSH20 0xFFFFFFFFFFFFFFFFFFFFFFFFFFFFFFFFFFFFFFFF AND DUP2 MSTORE PUSH1 0x20 ADD SWAP1 DUP2 MSTORE PUSH1 0x20 ADD PUSH0 KECCAK256 SLOAD SWAP1 POP SWAP3 SWAP2 POP POP JUMP JUMPDEST PUSH1 0x6 SLOAD DUP2 JUMP JUMPDEST PUSH1 0x7 SLOAD DUP2 JUMP JUMPDEST PUSH0 PUSH1 0x5 SLOAD DUP3 GT ISZERO PUSH2 0xBAA JUMPI PUSH1 0x40 MLOAD PUSH32 0x8C379A000000000000000000000000000000000000000000000000000000000 DUP2 MSTORE PUSH1 0x4 ADD PUSH2 0xBA1 SWAP1 PUSH2 0x1A4A JUMP JUMPDEST PUSH1 0x40 MLOAD DUP1 SWAP2 SUB SWAP1 REVERT JUMPDEST PUSH0 PUSH1 0x7 DUP2 SWAP1 SSTORE POP PUSH0 PUSH1 0x5 SLOAD SWAP1 POP JUMPDEST DUP3 PUSH1 0x5 SLOAD PUSH2 0xBC6 SWAP2 SWAP1 PUSH2 0x17E7 JUMP JUMPDEST DUP2 GT ISZERO PUSH2 0xC15 JUMPI PUSH0 PUSH1 0x1 DUP3 PUSH1 0x1 PUSH2 0xBDD SWAP2 SWAP1 PUSH2 0x181A JUMP JUMPDEST PUSH2 0xBE7 SWAP2 SWAP1 PUSH2 0x16C9 JUMP JUMPDEST SWAP1 POP DUP1 PUSH1 0x7 PUSH0 DUP3 DUP3 SLOAD PUSH2 0xBFA SWAP2 SWAP1 PUSH2 0x16C9 JUMP JUMPDEST SWAP3 POP POP DUP2 SWAP1 SSTORE POP POP DUP1 DUP1 PUSH2 0xC0D SWAP1 PUSH2 0x185B JUMP JUMPDEST SWAP2 POP POP PUSH2 0xBB8 JUMP JUMPDEST POP PUSH1 0x7 SLOAD SWAP1 POP SWAP2 SWAP1 POP JUMP JUMPDEST PUSH0 PUSH20 0xFFFFFFFFFFFFFFFFFFFFFFFFFFFFFFFFFFFFFFFF AND DUP3 PUSH20 0xFFFFFFFFFFFFFFFFFFFFFFFFFFFFFFFFFFFFFFFF AND SUB PUSH2 0xC90 JUMPI PUSH0 PUSH1 0x40 MLOAD PUSH32 0xEC442F0500000000000000000000000000000000000000000000000000000000 DUP2 MSTORE PUSH1 0x4 ADD PUSH2 0xC87 SWAP2 SWAP1 PUSH2 0x1A77 JUMP JUMPDEST PUSH1 0x40 MLOAD DUP1 SWAP2 SUB SWAP1 REVERT JUMPDEST PUSH2 0xC9B PUSH0 DUP4 DUP4 PUSH2 0xEBA JUMP JUMPDEST POP POP JUMP JUMPDEST PUSH0 CALLER SWAP1 POP SWAP1 JUMP JUMPDEST PUSH2 0xCB3 DUP4 DUP4 DUP4 PUSH1 0x1 PUSH2 0x10D3 JUMP JUMPDEST POP POP POP JUMP JUMPDEST PUSH0 PUSH2 0xCC3 DUP5 DUP5 PUSH2 0xAD6 JUMP JUMPDEST SWAP1 POP PUSH32 0xFFFFFFFFFFFFFFFFFFFFFFFFFFFFFFFFFFFFFFFFFFFFFFFFFFFFFFFFFFFFFFFF DUP2 LT ISZERO PUSH2 0xD45 JUMPI DUP2 DUP2 LT ISZERO PUSH2 0xD36 JUMPI DUP3 DUP2 DUP4 PUSH1 0x40 MLOAD PUSH32 0xFB8F41B200000000000000000000000000000000000000000000000000000000 DUP2 MSTORE PUSH1 0x4 ADD PUSH2 0xD2D SWAP4 SWAP3 SWAP2 SWAP1 PUSH2 0x1A90 JUMP JUMPDEST PUSH1 0x40 MLOAD DUP1 SWAP2 SUB SWAP1 REVERT JUMPDEST PUSH2 0xD44 DUP5 DUP5 DUP5 DUP5 SUB PUSH0 PUSH2 0x10D3 JUMP JUMPDEST JUMPDEST POP POP POP POP JUMP JUMPDEST PUSH0 PUSH20 0xFFFFFFFFFFFFFFFFFFFFFFFFFFFFFFFFFFFFFFFF AND DUP4 PUSH20 0xFFFFFFFFFFFFFFFFFFFFFFFFFFFFFFFFFFFFFFFF AND SUB PUSH2 0xDBB JUMPI PUSH0 PUSH1 0x40 MLOAD PUSH32 0x96C6FD1E00000000000000000000000000000000000000000000000000000000 DUP2 MSTORE PUSH1 0x4 ADD PUSH2 0xDB2 SWAP2 SWAP1 PUSH2 0x1A77 JUMP JUMPDEST PUSH1 0x40 MLOAD DUP1 SWAP2 SUB SWAP1 REVERT JUMPDEST PUSH0 PUSH20 0xFFFFFFFFFFFFFFFFFFFFFFFFFFFFFFFFFFFFFFFF AND DUP3 PUSH20 0xFFFFFFFFFFFFFFFFFFFFFFFFFFFFFFFFFFFFFFFF AND SUB PUSH2 0xE2B JUMPI PUSH0 PUSH1 0x40 MLOAD PUSH32 0xEC442F0500000000000000000000000000000000000000000000000000000000 DUP2 MSTORE PUSH1 0x4 ADD PUSH2 0xE22 SWAP2 SWAP1 PUSH2 0x1A77 JUMP JUMPDEST PUSH1 0x40 MLOAD DUP1 SWAP2 SUB SWAP1 REVERT JUMPDEST PUSH2 0xE36 DUP4 DUP4 DUP4 PUSH2 0xEBA JUMP JUMPDEST POP POP POP JUMP JUMPDEST PUSH0 PUSH20 0xFFFFFFFFFFFFFFFFFFFFFFFFFFFFFFFFFFFFFFFF AND DUP3 PUSH20 0xFFFFFFFFFFFFFFFFFFFFFFFFFFFFFFFFFFFFFFFF AND SUB PUSH2 0xEAB JUMPI PUSH0 PUSH1 0x40 MLOAD PUSH32 0x96C6FD1E00000000000000000000000000000000000000000000000000000000 DUP2 MSTORE PUSH1 0x4 ADD PUSH2 0xEA2 SWAP2 SWAP1 PUSH2 0x1A77 JUMP JUMPDEST PUSH1 0x40 MLOAD DUP1 SWAP2 SUB SWAP1 REVERT JUMPDEST PUSH2 0xEB6 DUP3 PUSH0 DUP4 PUSH2 0xEBA JUMP JUMPDEST POP POP JUMP JUMPDEST PUSH0 PUSH20 0xFFFFFFFFFFFFFFFFFFFFFFFFFFFFFFFFFFFFFFFF AND DUP4 PUSH20 0xFFFFFFFFFFFFFFFFFFFFFFFFFFFFFFFFFFFFFFFF AND SUB PUSH2 0xF0A JUMPI DUP1 PUSH1 0x2 PUSH0 DUP3 DUP3 SLOAD PUSH2 0xEFE SWAP2 SWAP1 PUSH2 0x16C9 JUMP JUMPDEST SWAP3 POP POP DUP2 SWAP1 SSTORE POP PUSH2 0xFD8 JUMP JUMPDEST PUSH0 DUP1 PUSH0 DUP6 PUSH20 0xFFFFFFFFFFFFFFFFFFFFFFFFFFFFFFFFFFFFFFFF AND PUSH20 0xFFFFFFFFFFFFFFFFFFFFFFFFFFFFFFFFFFFFFFFF AND DUP2 MSTORE PUSH1 0x20 ADD SWAP1 DUP2 MSTORE PUSH1 0x20 ADD PUSH0 KECCAK256 SLOAD SWAP1 POP DUP2 DUP2 LT ISZERO PUSH2 0xF93 JUMPI DUP4 DUP2 DUP4 PUSH1 0x40 MLOAD PUSH32 0xE450D38C00000000000000000000000000000000000000000000000000000000 DUP2 MSTORE PUSH1 0x4 ADD PUSH2 0xF8A SWAP4 SWAP3 SWAP2 SWAP1 PUSH2 0x1A90 JUMP JUMPDEST PUSH1 0x40 MLOAD DUP1 SWAP2 SUB SWAP1 REVERT JUMPDEST DUP2 DUP2 SUB PUSH0 DUP1 DUP7 PUSH20 0xFFFFFFFFFFFFFFFFFFFFFFFFFFFFFFFFFFFFFFFF AND PUSH20 0xFFFFFFFFFFFFFFFFFFFFFFFFFFFFFFFFFFFFFFFF AND DUP2 MSTORE PUSH1 0x20 ADD SWAP1 DUP2 MSTORE PUSH1 0x20 ADD PUSH0 KECCAK256 DUP2 SWAP1 SSTORE POP POP JUMPDEST PUSH0 PUSH20 0xFFFFFFFFFFFFFFFFFFFFFFFFFFFFFFFFFFFFFFFF AND DUP3 PUSH20 0xFFFFFFFFFFFFFFFFFFFFFFFFFFFFFFFFFFFFFFFF AND SUB PUSH2 0x101F JUMPI DUP1 PUSH1 0x2 PUSH0 DUP3 DUP3 SLOAD SUB SWAP3 POP POP DUP2 SWAP1 SSTORE POP PUSH2 0x1069 JUMP JUMPDEST DUP1 PUSH0 DUP1 DUP5 PUSH20 0xFFFFFFFFFFFFFFFFFFFFFFFFFFFFFFFFFFFFFFFF AND PUSH20 0xFFFFFFFFFFFFFFFFFFFFFFFFFFFFFFFFFFFFFFFF AND DUP2 MSTORE PUSH1 0x20 ADD SWAP1 DUP2 MSTORE PUSH1 0x20 ADD PUSH0 KECCAK256 PUSH0 DUP3 DUP3 SLOAD ADD SWAP3 POP POP DUP2 SWAP1 SSTORE POP JUMPDEST DUP2 PUSH20 0xFFFFFFFFFFFFFFFFFFFFFFFFFFFFFFFFFFFFFFFF AND DUP4 PUSH20 0xFFFFFFFFFFFFFFFFFFFFFFFFFFFFFFFFFFFFFFFF AND PUSH32 0xDDF252AD1BE2C89B69C2B068FC378DAA952BA7F163C4A11628F55A4DF523B3EF DUP4 PUSH1 0x40 MLOAD PUSH2 0x10C6 SWAP2 SWAP1 PUSH2 0x145D JUMP JUMPDEST PUSH1 0x40 MLOAD DUP1 SWAP2 SUB SWAP1 LOG3 POP POP POP JUMP JUMPDEST PUSH0 PUSH20 0xFFFFFFFFFFFFFFFFFFFFFFFFFFFFFFFFFFFFFFFF AND DUP5 PUSH20 0xFFFFFFFFFFFFFFFFFFFFFFFFFFFFFFFFFFFFFFFF AND SUB PUSH2 0x1143 JUMPI PUSH0 PUSH1 0x40 MLOAD PUSH32 0xE602DF0500000000000000000000000000000000000000000000000000000000 DUP2 MSTORE PUSH1 0x4 ADD PUSH2 0x113A SWAP2 SWAP1 PUSH2 0x1A77 JUMP JUMPDEST PUSH1 0x40 MLOAD DUP1 SWAP2 SUB SWAP1 REVERT JUMPDEST PUSH0 PUSH20 0xFFFFFFFFFFFFFFFFFFFFFFFFFFFFFFFFFFFFFFFF AND DUP4 PUSH20 0xFFFFFFFFFFFFFFFFFFFFFFFFFFFFFFFFFFFFFFFF AND SUB PUSH2 0x11B3 JUMPI PUSH0 PUSH1 0x40 MLOAD PUSH32 0x94280D6200000000000000000000000000000000000000000000000000000000 DUP2 MSTORE PUSH1 0x4 ADD PUSH2 0x11AA SWAP2 SWAP1 PUSH2 0x1A77 JUMP JUMPDEST PUSH1 0x40 MLOAD DUP1 SWAP2 SUB SWAP1 REVERT JUMPDEST DUP2 PUSH1 0x1 PUSH0 DUP7 PUSH20 0xFFFFFFFFFFFFFFFFFFFFFFFFFFFFFFFFFFFFFFFF AND PUSH20 0xFFFFFFFFFFFFFFFFFFFFFFFFFFFFFFFFFFFFFFFF AND DUP2 MSTORE PUSH1 0x20 ADD SWAP1 DUP2 MSTORE PUSH1 0x20 ADD PUSH0 KECCAK256 PUSH0 DUP6 PUSH20 0xFFFFFFFFFFFFFFFFFFFFFFFFFFFFFFFFFFFFFFFF AND PUSH20 0xFFFFFFFFFFFFFFFFFFFFFFFFFFFFFFFFFFFFFFFF AND DUP2 MSTORE PUSH1 0x20 ADD SWAP1 DUP2 MSTORE PUSH1 0x20 ADD PUSH0 KECCAK256 DUP2 SWAP1 SSTORE POP DUP1 ISZERO PUSH2 0x129C JUMPI DUP3 PUSH20 0xFFFFFFFFFFFFFFFFFFFFFFFFFFFFFFFFFFFFFFFF AND DUP5 PUSH20 0xFFFFFFFFFFFFFFFFFFFFFFFFFFFFFFFFFFFFFFFF AND PUSH32 0x8C5BE1E5EBEC7D5BD14F71427D1E84F3DD0314C0F7B2291E5B200AC8C7C3B925 DUP5 PUSH1 0x40 MLOAD PUSH2 0x1293 SWAP2 SWAP1 PUSH2 0x145D JUMP JUMPDEST PUSH1 0x40 MLOAD DUP1 SWAP2 SUB SWAP1 LOG3 JUMPDEST POP POP POP POP JUMP JUMPDEST PUSH0 DUP2 MLOAD SWAP1 POP SWAP2 SWAP1 POP JUMP JUMPDEST PUSH0 DUP3 DUP3 MSTORE PUSH1 0x20 DUP3 ADD SWAP1 POP SWAP3 SWAP2 POP POP JUMP JUMPDEST PUSH0 JUMPDEST DUP4 DUP2 LT ISZERO PUSH2 0x12D9 JUMPI DUP1 DUP3 ADD MLOAD DUP2 DUP5 ADD MSTORE PUSH1 0x20 DUP2 ADD SWAP1 POP PUSH2 0x12BE JUMP JUMPDEST PUSH0 DUP5 DUP5 ADD MSTORE POP POP POP POP JUMP JUMPDEST PUSH0 PUSH1 0x1F NOT PUSH1 0x1F DUP4 ADD AND SWAP1 POP SWAP2 SWAP1 POP JUMP JUMPDEST PUSH0 PUSH2 0x12FE DUP3 PUSH2 0x12A2 JUMP JUMPDEST PUSH2 0x1308 DUP2 DUP6 PUSH2 0x12AC JUMP JUMPDEST SWAP4 POP PUSH2 0x1318 DUP2 DUP6 PUSH1 0x20 DUP7 ADD PUSH2 0x12BC JUMP JUMPDEST PUSH2 0x1321 DUP2 PUSH2 0x12E4 JUMP JUMPDEST DUP5 ADD SWAP2 POP POP SWAP3 SWAP2 POP POP JUMP JUMPDEST PUSH0 PUSH1 0x20 DUP3 ADD SWAP1 POP DUP2 DUP2 SUB PUSH0 DUP4 ADD MSTORE PUSH2 0x1344 DUP2 DUP5 PUSH2 0x12F4 JUMP JUMPDEST SWAP1 POP SWAP3 SWAP2 POP POP JUMP JUMPDEST PUSH0 DUP1 REVERT JUMPDEST PUSH0 PUSH20 0xFFFFFFFFFFFFFFFFFFFFFFFFFFFFFFFFFFFFFFFF DUP3 AND SWAP1 POP SWAP2 SWAP1 POP JUMP JUMPDEST PUSH0 PUSH2 0x1379 DUP3 PUSH2 0x1350 JUMP JUMPDEST SWAP1 POP SWAP2 SWAP1 POP JUMP JUMPDEST PUSH2 0x1389 DUP2 PUSH2 0x136F JUMP JUMPDEST DUP2 EQ PUSH2 0x1393 JUMPI PUSH0 DUP1 REVERT JUMPDEST POP JUMP JUMPDEST PUSH0 DUP2 CALLDATALOAD SWAP1 POP PUSH2 0x13A4 DUP2 PUSH2 0x1380 JUMP JUMPDEST SWAP3 SWAP2 POP POP JUMP JUMPDEST PUSH0 DUP2 SWAP1 POP SWAP2 SWAP1 POP JUMP JUMPDEST PUSH2 0x13BC DUP2 PUSH2 0x13AA JUMP JUMPDEST DUP2 EQ PUSH2 0x13C6 JUMPI PUSH0 DUP1 REVERT JUMPDEST POP JUMP JUMPDEST PUSH0 DUP2 CALLDATALOAD SWAP1 POP PUSH2 0x13D7 DUP2 PUSH2 0x13B3 JUMP JUMPDEST SWAP3 SWAP2 POP POP JUMP JUMPDEST PUSH0 DUP1 PUSH1 0x40 DUP4 DUP6 SUB SLT ISZERO PUSH2 0x13F3 JUMPI PUSH2 0x13F2 PUSH2 0x134C JUMP JUMPDEST JUMPDEST PUSH0 PUSH2 0x1400 DUP6 DUP3 DUP7 ADD PUSH2 0x1396 JUMP JUMPDEST SWAP3 POP POP PUSH1 0x20 PUSH2 0x1411 DUP6 DUP3 DUP7 ADD PUSH2 0x13C9 JUMP JUMPDEST SWAP2 POP POP SWAP3 POP SWAP3 SWAP1 POP JUMP JUMPDEST PUSH0 DUP2 ISZERO ISZERO SWAP1 POP SWAP2 SWAP1 POP JUMP JUMPDEST PUSH2 0x142F DUP2 PUSH2 0x141B JUMP JUMPDEST DUP3 MSTORE POP POP JUMP JUMPDEST PUSH0 PUSH1 0x20 DUP3 ADD SWAP1 POP PUSH2 0x1448 PUSH0 DUP4 ADD DUP5 PUSH2 0x1426 JUMP JUMPDEST SWAP3 SWAP2 POP POP JUMP JUMPDEST PUSH2 0x1457 DUP2 PUSH2 0x13AA JUMP JUMPDEST DUP3 MSTORE POP POP JUMP JUMPDEST PUSH0 PUSH1 0x20 DUP3 ADD SWAP1 POP PUSH2 0x1470 PUSH0 DUP4 ADD DUP5 PUSH2 0x144E JUMP JUMPDEST SWAP3 SWAP2 POP POP JUMP JUMPDEST PUSH0 DUP1 PUSH0 PUSH1 0x60 DUP5 DUP7 SUB SLT ISZERO PUSH2 0x148D JUMPI PUSH2 0x148C PUSH2 0x134C JUMP JUMPDEST JUMPDEST PUSH0 PUSH2 0x149A DUP7 DUP3 DUP8 ADD PUSH2 0x1396 JUMP JUMPDEST SWAP4 POP POP PUSH1 0x20 PUSH2 0x14AB DUP7 DUP3 DUP8 ADD PUSH2 0x1396 JUMP JUMPDEST SWAP3 POP POP PUSH1 0x40 PUSH2 0x14BC DUP7 DUP3 DUP8 ADD PUSH2 0x13C9 JUMP JUMPDEST SWAP2 POP POP SWAP3 POP SWAP3 POP SWAP3 JUMP JUMPDEST PUSH0 PUSH1 0xFF DUP3 AND SWAP1 POP SWAP2 SWAP1 POP JUMP JUMPDEST PUSH2 0x14DB DUP2 PUSH2 0x14C6 JUMP JUMPDEST DUP3 MSTORE POP POP JUMP JUMPDEST PUSH0 PUSH1 0x20 DUP3 ADD SWAP1 POP PUSH2 0x14F4 PUSH0 DUP4 ADD DUP5 PUSH2 0x14D2 JUMP JUMPDEST SWAP3 SWAP2 POP POP JUMP JUMPDEST PUSH0 PUSH1 0x20 DUP3 DUP5 SUB SLT ISZERO PUSH2 0x150F JUMPI PUSH2 0x150E PUSH2 0x134C JUMP JUMPDEST JUMPDEST PUSH0 PUSH2 0x151C DUP5 DUP3 DUP6 ADD PUSH2 0x13C9 JUMP JUMPDEST SWAP2 POP POP SWAP3 SWAP2 POP POP JUMP JUMPDEST PUSH0 DUP1 PUSH1 0x40 DUP4 DUP6 SUB SLT ISZERO PUSH2 0x153B JUMPI PUSH2 0x153A PUSH2 0x134C JUMP JUMPDEST JUMPDEST PUSH0 PUSH2 0x1548 DUP6 DUP3 DUP7 ADD PUSH2 0x13C9 JUMP JUMPDEST SWAP3 POP POP PUSH1 0x20 PUSH2 0x1559 DUP6 DUP3 DUP7 ADD PUSH2 0x13C9 JUMP JUMPDEST SWAP2 POP POP SWAP3 POP SWAP3 SWAP1 POP JUMP JUMPDEST PUSH0 PUSH1 0x20 DUP3 DUP5 SUB SLT ISZERO PUSH2 0x1578 JUMPI PUSH2 0x1577 PUSH2 0x134C JUMP JUMPDEST JUMPDEST PUSH0 PUSH2 0x1585 DUP5 DUP3 DUP6 ADD PUSH2 0x1396 JUMP JUMPDEST SWAP2 POP POP SWAP3 SWAP2 POP POP JUMP JUMPDEST PUSH0 DUP1 PUSH1 0x40 DUP4 DUP6 SUB SLT ISZERO PUSH2 0x15A4 JUMPI PUSH2 0x15A3 PUSH2 0x134C JUMP JUMPDEST JUMPDEST PUSH0 PUSH2 0x15B1 DUP6 DUP3 DUP7 ADD PUSH2 0x1396 JUMP JUMPDEST SWAP3 POP POP PUSH1 0x20 PUSH2 0x15C2 DUP6 DUP3 DUP7 ADD PUSH2 0x1396 JUMP JUMPDEST SWAP2 POP POP SWAP3 POP SWAP3 SWAP1 POP JUMP JUMPDEST PUSH32 0x546F6B656E207175616E74697479206D75737420626520706F73697469766500 PUSH0 DUP3 ADD MSTORE POP JUMP JUMPDEST PUSH0 PUSH2 0x1600 PUSH1 0x1F DUP4 PUSH2 0x12AC JUMP JUMPDEST SWAP2 POP PUSH2 0x160B DUP3 PUSH2 0x15CC JUMP JUMPDEST PUSH1 0x20 DUP3 ADD SWAP1 POP SWAP2 SWAP1 POP JUMP JUMPDEST PUSH0 PUSH1 0x20 DUP3 ADD SWAP1 POP DUP2 DUP2 SUB PUSH0 DUP4 ADD MSTORE PUSH2 0x162D DUP2 PUSH2 0x15F4 JUMP JUMPDEST SWAP1 POP SWAP2 SWAP1 POP JUMP JUMPDEST PUSH32 0x496E73756666696369656E74205745492073656E740000000000000000000000 PUSH0 DUP3 ADD MSTORE POP JUMP JUMPDEST PUSH0 PUSH2 0x1668 PUSH1 0x15 DUP4 PUSH2 0x12AC JUMP JUMPDEST SWAP2 POP PUSH2 0x1673 DUP3 PUSH2 0x1634 JUMP JUMPDEST PUSH1 0x20 DUP3 ADD SWAP1 POP SWAP2 SWAP1 POP JUMP JUMPDEST PUSH0 PUSH1 0x20 DUP3 ADD SWAP1 POP DUP2 DUP2 SUB PUSH0 DUP4 ADD MSTORE PUSH2 0x1695 DUP2 PUSH2 0x165C JUMP JUMPDEST SWAP1 POP SWAP2 SWAP1 POP JUMP JUMPDEST PUSH32 0x4E487B7100000000000000000000000000000000000000000000000000000000 PUSH0 MSTORE PUSH1 0x11 PUSH1 0x4 MSTORE PUSH1 0x24 PUSH0 REVERT JUMPDEST PUSH0 PUSH2 0x16D3 DUP3 PUSH2 0x13AA JUMP JUMPDEST SWAP2 POP PUSH2 0x16DE DUP4 PUSH2 0x13AA JUMP JUMPDEST SWAP3 POP DUP3 DUP3 ADD SWAP1 POP DUP1 DUP3 GT ISZERO PUSH2 0x16F6 JUMPI PUSH2 0x16F5 PUSH2 0x169C JUMP JUMPDEST JUMPDEST SWAP3 SWAP2 POP POP JUMP JUMPDEST PUSH32 0x4E487B7100000000000000000000000000000000000000000000000000000000 PUSH0 MSTORE PUSH1 0x22 PUSH1 0x4 MSTORE PUSH1 0x24 PUSH0 REVERT JUMPDEST PUSH0 PUSH1 0x2 DUP3 DIV SWAP1 POP PUSH1 0x1 DUP3 AND DUP1 PUSH2 0x1740 JUMPI PUSH1 0x7F DUP3 AND SWAP2 POP JUMPDEST PUSH1 0x20 DUP3 LT DUP2 SUB PUSH2 0x1753 JUMPI PUSH2 0x1752 PUSH2 0x16FC JUMP JUMPDEST JUMPDEST POP SWAP2 SWAP1 POP JUMP JUMPDEST PUSH32 0x5175616E74697479206D757374206265206C657373207468616E206F72206571 PUSH0 DUP3 ADD MSTORE PUSH32 0x75616C20746F206879706F746865746963616C20737575706C79000000000000 PUSH1 0x20 DUP3 ADD MSTORE POP JUMP JUMPDEST PUSH0 PUSH2 0x17B3 PUSH1 0x3A DUP4 PUSH2 0x12AC JUMP JUMPDEST SWAP2 POP PUSH2 0x17BE DUP3 PUSH2 0x1759 JUMP JUMPDEST PUSH1 0x40 DUP3 ADD SWAP1 POP SWAP2 SWAP1 POP JUMP JUMPDEST PUSH0 PUSH1 0x20 DUP3 ADD SWAP1 POP DUP2 DUP2 SUB PUSH0 DUP4 ADD MSTORE PUSH2 0x17E0 DUP2 PUSH2 0x17A7 JUMP JUMPDEST SWAP1 POP SWAP2 SWAP1 POP JUMP JUMPDEST PUSH0 PUSH2 0x17F1 DUP3 PUSH2 0x13AA JUMP JUMPDEST SWAP2 POP PUSH2 0x17FC DUP4 PUSH2 0x13AA JUMP JUMPDEST SWAP3 POP DUP3 DUP3 SUB SWAP1 POP DUP2 DUP2 GT ISZERO PUSH2 0x1814 JUMPI PUSH2 0x1813 PUSH2 0x169C JUMP JUMPDEST JUMPDEST SWAP3 SWAP2 POP POP JUMP JUMPDEST PUSH0 PUSH2 0x1824 DUP3 PUSH2 0x13AA JUMP JUMPDEST SWAP2 POP PUSH2 0x182F DUP4 PUSH2 0x13AA JUMP JUMPDEST SWAP3 POP DUP3 DUP3 MUL PUSH2 0x183D DUP2 PUSH2 0x13AA JUMP JUMPDEST SWAP2 POP DUP3 DUP3 DIV DUP5 EQ DUP4 ISZERO OR PUSH2 0x1854 JUMPI PUSH2 0x1853 PUSH2 0x169C JUMP JUMPDEST JUMPDEST POP SWAP3 SWAP2 POP POP JUMP JUMPDEST PUSH0 PUSH2 0x1865 DUP3 PUSH2 0x13AA JUMP JUMPDEST SWAP2 POP PUSH0 DUP3 SUB PUSH2 0x1877 JUMPI PUSH2 0x1876 PUSH2 0x169C JUMP JUMPDEST JUMPDEST PUSH1 0x1 DUP3 SUB SWAP1 POP SWAP2 SWAP1 POP JUMP JUMPDEST PUSH32 0x596F75722062616C616E636520697320696E73756666696369656E7400000000 PUSH0 DUP3 ADD MSTORE POP JUMP JUMPDEST PUSH0 PUSH2 0x18B6 PUSH1 0x1C DUP4 PUSH2 0x12AC JUMP JUMPDEST SWAP2 POP PUSH2 0x18C1 DUP3 PUSH2 0x1882 JUMP JUMPDEST PUSH1 0x20 DUP3 ADD SWAP1 POP SWAP2 SWAP1 POP JUMP JUMPDEST PUSH0 PUSH1 0x20 DUP3 ADD SWAP1 POP DUP2 DUP2 SUB PUSH0 DUP4 ADD MSTORE PUSH2 0x18E3 DUP2 PUSH2 0x18AA JUMP JUMPDEST SWAP1 POP SWAP2 SWAP1 POP JUMP JUMPDEST PUSH0 DUP2 SWAP1 POP SWAP3 SWAP2 POP POP JUMP JUMPDEST POP JUMP JUMPDEST PUSH0 PUSH2 0x1902 PUSH0 DUP4 PUSH2 0x18EA JUMP JUMPDEST SWAP2 POP PUSH2 0x190D DUP3 PUSH2 0x18F4 JUMP JUMPDEST PUSH0 DUP3 ADD SWAP1 POP SWAP2 SWAP1 POP JUMP JUMPDEST PUSH0 PUSH2 0x1921 DUP3 PUSH2 0x18F7 JUMP JUMPDEST SWAP2 POP DUP2 SWAP1 POP SWAP2 SWAP1 POP JUMP JUMPDEST PUSH32 0x5061796D656E74206661696C6564000000000000000000000000000000000000 PUSH0 DUP3 ADD MSTORE POP JUMP JUMPDEST PUSH0 PUSH2 0x195F PUSH1 0xE DUP4 PUSH2 0x12AC JUMP JUMPDEST SWAP2 POP PUSH2 0x196A DUP3 PUSH2 0x192B JUMP JUMPDEST PUSH1 0x20 DUP3 ADD SWAP1 POP SWAP2 SWAP1 POP JUMP JUMPDEST PUSH0 PUSH1 0x20 DUP3 ADD SWAP1 POP DUP2 DUP2 SUB PUSH0 DUP4 ADD MSTORE PUSH2 0x198C DUP2 PUSH2 0x1953 JUMP JUMPDEST SWAP1 POP SWAP2 SWAP1 POP JUMP JUMPDEST PUSH0 PUSH2 0x199D DUP3 PUSH2 0x13AA JUMP JUMPDEST SWAP2 POP PUSH32 0xFFFFFFFFFFFFFFFFFFFFFFFFFFFFFFFFFFFFFFFFFFFFFFFFFFFFFFFFFFFFFFFF DUP3 SUB PUSH2 0x19CF JUMPI PUSH2 0x19CE PUSH2 0x169C JUMP JUMPDEST JUMPDEST PUSH1 0x1 DUP3 ADD SWAP1 POP SWAP2 SWAP1 POP JUMP JUMPDEST PUSH32 0x54686174206973206D6F7265207468616E20746F74616C20746F6B656E207375 PUSH0 DUP3 ADD MSTORE PUSH32 0x70706C792E20557365206879706F746865746963616C2070726963652E000000 PUSH1 0x20 DUP3 ADD MSTORE POP JUMP JUMPDEST PUSH0 PUSH2 0x1A34 PUSH1 0x3D DUP4 PUSH2 0x12AC JUMP JUMPDEST SWAP2 POP PUSH2 0x1A3F DUP3 PUSH2 0x19DA JUMP JUMPDEST PUSH1 0x40 DUP3 ADD SWAP1 POP SWAP2 SWAP1 POP JUMP JUMPDEST PUSH0 PUSH1 0x20 DUP3 ADD SWAP1 POP DUP2 DUP2 SUB PUSH0 DUP4 ADD MSTORE PUSH2 0x1A61 DUP2 PUSH2 0x1A28 JUMP JUMPDEST SWAP1 POP SWAP2 SWAP1 POP JUMP JUMPDEST PUSH2 0x1A71 DUP2 PUSH2 0x136F JUMP JUMPDEST DUP3 MSTORE POP POP JUMP JUMPDEST PUSH0 PUSH1 0x20 DUP3 ADD SWAP1 POP PUSH2 0x1A8A PUSH0 DUP4 ADD DUP5 PUSH2 0x1A68 JUMP JUMPDEST SWAP3 SWAP2 POP POP JUMP JUMPDEST PUSH0 PUSH1 0x60 DUP3 ADD SWAP1 POP PUSH2 0x1AA3 PUSH0 DUP4 ADD DUP7 PUSH2 0x1A68 JUMP JUMPDEST PUSH2 0x1AB0 PUSH1 0x20 DUP4 ADD DUP6 PUSH2 0x144E JUMP JUMPDEST PUSH2 0x1ABD PUSH1 0x40 DUP4 ADD DUP5 PUSH2 0x144E JUMP JUMPDEST SWAP5 SWAP4 POP POP POP POP JUMP INVALID LOG2 PUSH5 0x6970667358 0x22 SLT KECCAK256 BASEFEE 0x23 0xC0 0xCB AND 0xEB 0xCE PUSH13 0xE9DC3A430E23EA6085C0704400 0xCF DUP5 0x1E 0xE9 0x23 SWAP15 CALLVALUE PUSH22 0x9C9C3064736F6C634300081400330000000000000000 "
				},
				"gasEstimates": {
					"creation": {
						"codeDepositCost": "1381400",
						"executionCost": "infinite",
						"totalCost": "infinite"
					},
					"external": {
						"": "540",
						"allowance(address,address)": "infinite",
						"approve(address,uint256)": "infinite",
						"balanceOf(address)": "2940",
						"buyTokens(uint256)": "infinite",
						"decimals()": "361",
						"getHypotheticalPrice(uint256,uint256)": "infinite",
						"getPurchasePrice(uint256)": "infinite",
						"getSalePrice(uint256)": "infinite",
						"hypotheticalPrice()": "2448",
						"name()": "infinite",
						"purchasePrice()": "2491",
						"reserveBalance()": "2492",
						"salePrice()": "2513",
						"sellTokens(uint256)": "infinite",
						"symbol()": "infinite",
						"totalSupply()": "2500",
						"transfer(address,uint256)": "infinite",
						"transferFrom(address,address,uint256)": "infinite"
					}
				},
				"methodIdentifiers": {
					"allowance(address,address)": "dd62ed3e",
					"approve(address,uint256)": "095ea7b3",
					"balanceOf(address)": "70a08231",
					"buyTokens(uint256)": "3610724e",
					"decimals()": "313ce567",
					"getHypotheticalPrice(uint256,uint256)": "4ef5af32",
					"getPurchasePrice(uint256)": "c59d5633",
					"getSalePrice(uint256)": "f8eb5fc5",
					"hypotheticalPrice()": "8b667c79",
					"name()": "06fdde03",
					"purchasePrice()": "defd6c5f",
					"reserveBalance()": "a10954fe",
					"salePrice()": "f51f96dd",
					"sellTokens(uint256)": "6c11bcd3",
					"symbol()": "95d89b41",
					"totalSupply()": "18160ddd",
					"transfer(address,uint256)": "a9059cbb",
					"transferFrom(address,address,uint256)": "23b872dd"
				}
			},
			"storageLayout": {
				"storage": [
					{
						"astId": 159,
						"contract": "Contracts/FirstToken.sol:FirstToken",
						"label": "_balances",
						"offset": 0,
						"slot": "0",
						"type": "t_mapping(t_address,t_uint256)"
					},
					{
						"astId": 165,
						"contract": "Contracts/FirstToken.sol:FirstToken",
						"label": "_allowances",
						"offset": 0,
						"slot": "1",
						"type": "t_mapping(t_address,t_mapping(t_address,t_uint256))"
					},
					{
						"astId": 167,
						"contract": "Contracts/FirstToken.sol:FirstToken",
						"label": "_totalSupply",
						"offset": 0,
						"slot": "2",
						"type": "t_uint256"
					},
					{
						"astId": 169,
						"contract": "Contracts/FirstToken.sol:FirstToken",
						"label": "_name",
						"offset": 0,
						"slot": "3",
						"type": "t_string_storage"
					},
					{
						"astId": 171,
						"contract": "Contracts/FirstToken.sol:FirstToken",
						"label": "_symbol",
						"offset": 0,
						"slot": "4",
						"type": "t_string_storage"
					},
					{
						"astId": 799,
						"contract": "Contracts/FirstToken.sol:FirstToken",
						"label": "_totalSupply",
						"offset": 0,
						"slot": "5",
						"type": "t_uint256"
					},
					{
						"astId": 802,
						"contract": "Contracts/FirstToken.sol:FirstToken",
						"label": "purchasePrice",
						"offset": 0,
						"slot": "6",
						"type": "t_uint256"
					},
					{
						"astId": 805,
						"contract": "Contracts/FirstToken.sol:FirstToken",
						"label": "salePrice",
						"offset": 0,
						"slot": "7",
						"type": "t_uint256"
					},
					{
						"astId": 808,
						"contract": "Contracts/FirstToken.sol:FirstToken",
						"label": "hypotheticalPrice",
						"offset": 0,
						"slot": "8",
						"type": "t_uint256"
					},
					{
						"astId": 811,
						"contract": "Contracts/FirstToken.sol:FirstToken",
						"label": "reserveBalance",
						"offset": 0,
						"slot": "9",
						"type": "t_uint256"
					},
					{
						"astId": 821,
						"contract": "Contracts/FirstToken.sol:FirstToken",
						"label": "balance",
						"offset": 0,
						"slot": "10",
						"type": "t_mapping(t_address,t_uint256)"
					}
				],
				"types": {
					"t_address": {
						"encoding": "inplace",
						"label": "address",
						"numberOfBytes": "20"
					},
					"t_mapping(t_address,t_mapping(t_address,t_uint256))": {
						"encoding": "mapping",
						"key": "t_address",
						"label": "mapping(address => mapping(address => uint256))",
						"numberOfBytes": "32",
						"value": "t_mapping(t_address,t_uint256)"
					},
					"t_mapping(t_address,t_uint256)": {
						"encoding": "mapping",
						"key": "t_address",
						"label": "mapping(address => uint256)",
						"numberOfBytes": "32",
						"value": "t_uint256"
					},
					"t_string_storage": {
						"encoding": "bytes",
						"label": "string",
						"numberOfBytes": "32"
					},
					"t_uint256": {
						"encoding": "inplace",
						"label": "uint256",
						"numberOfBytes": "32"
					}
				}
			},
			"userdoc": {
				"kind": "user",
				"methods": {},
				"version": 1
			}
		}
	}
}