{
	"data": {
		"bytecode": {
			"linkReferences": {},
			"object": "60806040525f6005555f6006555f6007555f60085534801562000020575f80fd5b506040518060400160405280600a81526020017f4669727374546f6b656e000000000000000000000000000000000000000000008152506040518060400160405280600381526020017f46544b000000000000000000000000000000000000000000000000000000000081525081600390816200009e91906200031d565b508060049081620000b091906200031d565b50505062000401565b5f81519050919050565b7f4e487b71000000000000000000000000000000000000000000000000000000005f52604160045260245ffd5b7f4e487b71000000000000000000000000000000000000000000000000000000005f52602260045260245ffd5b5f60028204905060018216806200013557607f821691505b6020821081036200014b576200014a620000f0565b5b50919050565b5f819050815f5260205f209050919050565b5f6020601f8301049050919050565b5f82821b905092915050565b5f60088302620001af7fffffffffffffffffffffffffffffffffffffffffffffffffffffffffffffffff8262000172565b620001bb868362000172565b95508019841693508086168417925050509392505050565b5f819050919050565b5f819050919050565b5f62000205620001ff620001f984620001d3565b620001dc565b620001d3565b9050919050565b5f819050919050565b6200022083620001e5565b620002386200022f826200020c565b8484546200017e565b825550505050565b5f90565b6200024e62000240565b6200025b81848462000215565b505050565b5b818110156200028257620002765f8262000244565b60018101905062000261565b5050565b601f821115620002d1576200029b8162000151565b620002a68462000163565b81016020851015620002b6578190505b620002ce620002c58562000163565b83018262000260565b50505b505050565b5f82821c905092915050565b5f620002f35f1984600802620002d6565b1980831691505092915050565b5f6200030d8383620002e2565b9150826002028217905092915050565b6200032882620000b9565b67ffffffffffffffff811115620003445762000343620000c3565b5b6200035082546200011d565b6200035d82828562000286565b5f60209050601f83116001811462000393575f84156200037e578287015190505b6200038a858262000300565b865550620003f9565b601f198416620003a38662000151565b5f5b82811015620003cc57848901518255600182019150602085019450602081019050620003a5565b86831015620003ec5784890151620003e8601f891682620002e2565b8355505b6001600288020188555050505b505050505050565b611a8c806200040f5f395ff3fe608060405260043610610101575f3560e01c806370a0823111610094578063c59d563311610063578063c59d56331461034c578063dd62ed3e14610388578063defd6c5f146103c4578063f51f96dd146103ee578063f8eb5fc51461041857610112565b806370a08231146102805780638b667c79146102bc57806395d89b41146102e6578063a9059cbb1461031057610112565b8063313ce567116100d0578063313ce567146101ea5780633610724e146102145780634ef5af32146102305780636c11bcd31461025857610112565b806306fdde031461011e578063095ea7b31461014857806318160ddd1461018457806323b872dd146101ae57610112565b36610112575f61011081610454565b005b5f61011c81610454565b005b348015610129575f80fd5b5061013261055b565b60405161013f91906112bd565b60405180910390f35b348015610153575f80fd5b5061016e6004803603810190610169919061136e565b6105eb565b60405161017b91906113c6565b60405180910390f35b34801561018f575f80fd5b5061019861060d565b6040516101a591906113ee565b60405180910390f35b3480156101b9575f80fd5b506101d460048036038101906101cf9190611407565b610616565b6040516101e191906113c6565b60405180910390f35b3480156101f5575f80fd5b506101fe610644565b60405161020b9190611472565b60405180910390f35b61022e6004803603810190610229919061148b565b610454565b005b34801561023b575f80fd5b50610256600480360381019061025191906114b6565b61064c565b005b348015610263575f80fd5b5061027e6004803603810190610279919061148b565b6106fb565b005b34801561028b575f80fd5b506102a660048036038101906102a191906114f4565b6108e8565b6040516102b391906113ee565b60405180910390f35b3480156102c7575f80fd5b506102d061092d565b6040516102dd91906113ee565b60405180910390f35b3480156102f1575f80fd5b506102fa610933565b60405161030791906112bd565b60405180910390f35b34801561031b575f80fd5b506103366004803603810190610331919061136e565b6109c3565b60405161034391906113c6565b60405180910390f35b348015610357575f80fd5b50610372600480360381019061036d919061148b565b6109e5565b60405161037f91906113ee565b60405180910390f35b348015610393575f80fd5b506103ae60048036038101906103a9919061151f565b610a67565b6040516103bb91906113ee565b60405180910390f35b3480156103cf575f80fd5b506103d8610ae9565b6040516103e591906113ee565b60405180910390f35b3480156103f9575f80fd5b50610402610aef565b60405161040f91906113ee565b60405180910390f35b348015610423575f80fd5b5061043e6004803603810190610439919061148b565b610af5565b60405161044b91906113ee565b60405180910390f35b5f3390505f821161049a576040517f08c379a0000000000000000000000000000000000000000000000000000000008152600401610491906115a7565b60405180910390fd5b6104a3826109e5565b6006819055506006543410156104ee576040517f08c379a00000000000000000000000000000000000000000000000000000000081526004016104e59061160f565b60405180910390fd5b6104f88183610bb1565b61050061060d565b60058190555061050f816108e8565b60095f8373ffffffffffffffffffffffffffffffffffffffff1673ffffffffffffffffffffffffffffffffffffffff1681526020019081526020015f20819055505f6006819055505050565b60606003805461056a9061165a565b80601f01602080910402602001604051908101604052809291908181526020018280546105969061165a565b80156105e15780601f106105b8576101008083540402835291602001916105e1565b820191905f5260205f20905b8154815290600101906020018083116105c457829003601f168201915b5050505050905090565b5f806105f5610c30565b9050610602818585610c37565b600191505092915050565b5f600254905090565b5f80610620610c30565b905061062d858285610c49565b610638858585610cdc565b60019150509392505050565b5f6012905090565b5f60088190555080821115610696576040517f08c379a000000000000000000000000000000000000000000000000000000000815260040161068d906116fa565b60405180910390fd5b5f8190505b82826106a79190611745565b8111156106f6575f60018260016106be9190611778565b6106c891906117b9565b90508060085f8282546106db91906117b9565b925050819055505080806106ee906117ec565b91505061069b565b505050565b5f3390505f8211610741576040517f08c379a0000000000000000000000000000000000000000000000000000000008152600401610738906115a7565b60405180910390fd5b8160095f8373ffffffffffffffffffffffffffffffffffffffff1673ffffffffffffffffffffffffffffffffffffffff1681526020019081526020015f205410156107c1576040517f08c379a00000000000000000000000000000000000000000000000000000000081526004016107b89061185d565b60405180910390fd5b6107ca82610af5565b6007819055506107da8183610dcc565b6107e261060d565b6005819055506107f1816108e8565b60095f8373ffffffffffffffffffffffffffffffffffffffff1673ffffffffffffffffffffffffffffffffffffffff1681526020019081526020015f20819055505f8173ffffffffffffffffffffffffffffffffffffffff16600754604051610859906118a8565b5f6040518083038185875af1925050503d805f8114610893576040519150601f19603f3d011682016040523d82523d5f602084013e610898565b606091505b50509050806108dc576040517f08c379a00000000000000000000000000000000000000000000000000000000081526004016108d390611906565b60405180910390fd5b5f600781905550505050565b5f805f8373ffffffffffffffffffffffffffffffffffffffff1673ffffffffffffffffffffffffffffffffffffffff1681526020019081526020015f20549050919050565b60085481565b6060600480546109429061165a565b80601f016020809104026020016040519081016040528092919081815260200182805461096e9061165a565b80156109b95780601f10610990576101008083540402835291602001916109b9565b820191905f5260205f20905b81548152906001019060200180831161099c57829003601f168201915b5050505050905090565b5f806109cd610c30565b90506109da818585610cdc565b600191505092915050565b5f806006819055505f60055460016109fd91906117b9565b90505b60055483610a0e91906117b9565b8111610a5c575f6001826001610a249190611778565b610a2e91906117b9565b90508060065f828254610a4191906117b9565b92505081905550508080610a5490611924565b915050610a00565b506006549050919050565b5f60015f8473ffffffffffffffffffffffffffffffffffffffff1673ffffffffffffffffffffffffffffffffffffffff1681526020019081526020015f205f8373ffffffffffffffffffffffffffffffffffffffff1673ffffffffffffffffffffffffffffffffffffffff1681526020019081526020015f2054905092915050565b60065481565b60075481565b5f600554821115610b3b576040517f08c379a0000000000000000000000000000000000000000000000000000000008152600401610b32906119db565b60405180910390fd5b5f6007819055505f60055490505b82600554610b579190611745565b811115610ba6575f6001826001610b6e9190611778565b610b7891906117b9565b90508060075f828254610b8b91906117b9565b92505081905550508080610b9e906117ec565b915050610b49565b506007549050919050565b5f73ffffffffffffffffffffffffffffffffffffffff168273ffffffffffffffffffffffffffffffffffffffff1603610c21575f6040517fec442f05000000000000000000000000000000000000000000000000000000008152600401610c189190611a08565b60405180910390fd5b610c2c5f8383610e4b565b5050565b5f33905090565b610c448383836001611064565b505050565b5f610c548484610a67565b90507fffffffffffffffffffffffffffffffffffffffffffffffffffffffffffffffff811015610cd65781811015610cc7578281836040517ffb8f41b2000000000000000000000000000000000000000000000000000000008152600401610cbe93929190611a21565b60405180910390fd5b610cd584848484035f611064565b5b50505050565b5f73ffffffffffffffffffffffffffffffffffffffff168373ffffffffffffffffffffffffffffffffffffffff1603610d4c575f6040517f96c6fd1e000000000000000000000000000000000000000000000000000000008152600401610d439190611a08565b60405180910390fd5b5f73ffffffffffffffffffffffffffffffffffffffff168273ffffffffffffffffffffffffffffffffffffffff1603610dbc575f6040517fec442f05000000000000000000000000000000000000000000000000000000008152600401610db39190611a08565b60405180910390fd5b610dc7838383610e4b565b505050565b5f73ffffffffffffffffffffffffffffffffffffffff168273ffffffffffffffffffffffffffffffffffffffff1603610e3c575f6040517f96c6fd1e000000000000000000000000000000000000000000000000000000008152600401610e339190611a08565b60405180910390fd5b610e47825f83610e4b565b5050565b5f73ffffffffffffffffffffffffffffffffffffffff168373ffffffffffffffffffffffffffffffffffffffff1603610e9b578060025f828254610e8f91906117b9565b92505081905550610f69565b5f805f8573ffffffffffffffffffffffffffffffffffffffff1673ffffffffffffffffffffffffffffffffffffffff1681526020019081526020015f2054905081811015610f24578381836040517fe450d38c000000000000000000000000000000000000000000000000000000008152600401610f1b93929190611a21565b60405180910390fd5b8181035f808673ffffffffffffffffffffffffffffffffffffffff1673ffffffffffffffffffffffffffffffffffffffff1681526020019081526020015f2081905550505b5f73ffffffffffffffffffffffffffffffffffffffff168273ffffffffffffffffffffffffffffffffffffffff1603610fb0578060025f8282540392505081905550610ffa565b805f808473ffffffffffffffffffffffffffffffffffffffff1673ffffffffffffffffffffffffffffffffffffffff1681526020019081526020015f205f82825401925050819055505b8173ffffffffffffffffffffffffffffffffffffffff168373ffffffffffffffffffffffffffffffffffffffff167fddf252ad1be2c89b69c2b068fc378daa952ba7f163c4a11628f55a4df523b3ef8360405161105791906113ee565b60405180910390a3505050565b5f73ffffffffffffffffffffffffffffffffffffffff168473ffffffffffffffffffffffffffffffffffffffff16036110d4575f6040517fe602df050000000000000000000000000000000000000000000000000000000081526004016110cb9190611a08565b60405180910390fd5b5f73ffffffffffffffffffffffffffffffffffffffff168373ffffffffffffffffffffffffffffffffffffffff1603611144575f6040517f94280d6200000000000000000000000000000000000000000000000000000000815260040161113b9190611a08565b60405180910390fd5b8160015f8673ffffffffffffffffffffffffffffffffffffffff1673ffffffffffffffffffffffffffffffffffffffff1681526020019081526020015f205f8573ffffffffffffffffffffffffffffffffffffffff1673ffffffffffffffffffffffffffffffffffffffff1681526020019081526020015f2081905550801561122d578273ffffffffffffffffffffffffffffffffffffffff168473ffffffffffffffffffffffffffffffffffffffff167f8c5be1e5ebec7d5bd14f71427d1e84f3dd0314c0f7b2291e5b200ac8c7c3b9258460405161122491906113ee565b60405180910390a35b50505050565b5f81519050919050565b5f82825260208201905092915050565b5f5b8381101561126a57808201518184015260208101905061124f565b5f8484015250505050565b5f601f19601f8301169050919050565b5f61128f82611233565b611299818561123d565b93506112a981856020860161124d565b6112b281611275565b840191505092915050565b5f6020820190508181035f8301526112d58184611285565b905092915050565b5f80fd5b5f73ffffffffffffffffffffffffffffffffffffffff82169050919050565b5f61130a826112e1565b9050919050565b61131a81611300565b8114611324575f80fd5b50565b5f8135905061133581611311565b92915050565b5f819050919050565b61134d8161133b565b8114611357575f80fd5b50565b5f8135905061136881611344565b92915050565b5f8060408385031215611384576113836112dd565b5b5f61139185828601611327565b92505060206113a28582860161135a565b9150509250929050565b5f8115159050919050565b6113c0816113ac565b82525050565b5f6020820190506113d95f8301846113b7565b92915050565b6113e88161133b565b82525050565b5f6020820190506114015f8301846113df565b92915050565b5f805f6060848603121561141e5761141d6112dd565b5b5f61142b86828701611327565b935050602061143c86828701611327565b925050604061144d8682870161135a565b9150509250925092565b5f60ff82169050919050565b61146c81611457565b82525050565b5f6020820190506114855f830184611463565b92915050565b5f602082840312156114a05761149f6112dd565b5b5f6114ad8482850161135a565b91505092915050565b5f80604083850312156114cc576114cb6112dd565b5b5f6114d98582860161135a565b92505060206114ea8582860161135a565b9150509250929050565b5f60208284031215611509576115086112dd565b5b5f61151684828501611327565b91505092915050565b5f8060408385031215611535576115346112dd565b5b5f61154285828601611327565b925050602061155385828601611327565b9150509250929050565b7f546f6b656e207175616e74697479206d75737420626520706f736974697665005f82015250565b5f611591601f8361123d565b915061159c8261155d565b602082019050919050565b5f6020820190508181035f8301526115be81611585565b9050919050565b7f496e73756666696369656e74205745492073656e7400000000000000000000005f82015250565b5f6115f960158361123d565b9150611604826115c5565b602082019050919050565b5f6020820190508181035f830152611626816115ed565b9050919050565b7f4e487b71000000000000000000000000000000000000000000000000000000005f52602260045260245ffd5b5f600282049050600182168061167157607f821691505b6020821081036116845761168361162d565b5b50919050565b7f5175616e74697479206d757374206265206c657373207468616e206f722065715f8201527f75616c20746f206879706f746865746963616c20737575706c79000000000000602082015250565b5f6116e4603a8361123d565b91506116ef8261168a565b604082019050919050565b5f6020820190508181035f830152611711816116d8565b9050919050565b7f4e487b71000000000000000000000000000000000000000000000000000000005f52601160045260245ffd5b5f61174f8261133b565b915061175a8361133b565b925082820390508181111561177257611771611718565b5b92915050565b5f6117828261133b565b915061178d8361133b565b925082820261179b8161133b565b915082820484148315176117b2576117b1611718565b5b5092915050565b5f6117c38261133b565b91506117ce8361133b565b92508282019050808211156117e6576117e5611718565b5b92915050565b5f6117f68261133b565b91505f820361180857611807611718565b5b600182039050919050565b7f596f75722062616c616e636520697320696e73756666696369656e74000000005f82015250565b5f611847601c8361123d565b915061185282611813565b602082019050919050565b5f6020820190508181035f8301526118748161183b565b9050919050565b5f81905092915050565b50565b5f6118935f8361187b565b915061189e82611885565b5f82019050919050565b5f6118b282611888565b9150819050919050565b7f5061796d656e74206661696c65640000000000000000000000000000000000005f82015250565b5f6118f0600e8361123d565b91506118fb826118bc565b602082019050919050565b5f6020820190508181035f83015261191d816118e4565b9050919050565b5f61192e8261133b565b91507fffffffffffffffffffffffffffffffffffffffffffffffffffffffffffffffff82036119605761195f611718565b5b600182019050919050565b7f54686174206973206d6f7265207468616e20746f74616c20746f6b656e2073755f8201527f70706c792e20557365206879706f746865746963616c2070726963652e000000602082015250565b5f6119c5603d8361123d565b91506119d08261196b565b604082019050919050565b5f6020820190508181035f8301526119f2816119b9565b9050919050565b611a0281611300565b82525050565b5f602082019050611a1b5f8301846119f9565b92915050565b5f606082019050611a345f8301866119f9565b611a4160208301856113df565b611a4e60408301846113df565b94935050505056fea2646970667358221220a2a46b4ba5f7256517a8e560043852f1efbb1f6338ca4451e1904b057666a90964736f6c63430008140033",
			"opcodes": "PUSH1 0x80 PUSH1 0x40 MSTORE PUSH0 PUSH1 0x5 SSTORE PUSH0 PUSH1 0x6 SSTORE PUSH0 PUSH1 0x7 SSTORE PUSH0 PUSH1 0x8 SSTORE CALLVALUE DUP1 ISZERO PUSH3 0x20 JUMPI PUSH0 DUP1 REVERT JUMPDEST POP PUSH1 0x40 MLOAD DUP1 PUSH1 0x40 ADD PUSH1 0x40 MSTORE DUP1 PUSH1 0xA DUP2 MSTORE PUSH1 0x20 ADD PUSH32 0x4669727374546F6B656E00000000000000000000000000000000000000000000 DUP2 MSTORE POP PUSH1 0x40 MLOAD DUP1 PUSH1 0x40 ADD PUSH1 0x40 MSTORE DUP1 PUSH1 0x3 DUP2 MSTORE PUSH1 0x20 ADD PUSH32 0x46544B0000000000000000000000000000000000000000000000000000000000 DUP2 MSTORE POP DUP2 PUSH1 0x3 SWAP1 DUP2 PUSH3 0x9E SWAP2 SWAP1 PUSH3 0x31D JUMP JUMPDEST POP DUP1 PUSH1 0x4 SWAP1 DUP2 PUSH3 0xB0 SWAP2 SWAP1 PUSH3 0x31D JUMP JUMPDEST POP POP POP PUSH3 0x401 JUMP JUMPDEST PUSH0 DUP2 MLOAD SWAP1 POP SWAP2 SWAP1 POP JUMP JUMPDEST PUSH32 0x4E487B7100000000000000000000000000000000000000000000000000000000 PUSH0 MSTORE PUSH1 0x41 PUSH1 0x4 MSTORE PUSH1 0x24 PUSH0 REVERT JUMPDEST PUSH32 0x4E487B7100000000000000000000000000000000000000000000000000000000 PUSH0 MSTORE PUSH1 0x22 PUSH1 0x4 MSTORE PUSH1 0x24 PUSH0 REVERT JUMPDEST PUSH0 PUSH1 0x2 DUP3 DIV SWAP1 POP PUSH1 0x1 DUP3 AND DUP1 PUSH3 0x135 JUMPI PUSH1 0x7F DUP3 AND SWAP2 POP JUMPDEST PUSH1 0x20 DUP3 LT DUP2 SUB PUSH3 0x14B JUMPI PUSH3 0x14A PUSH3 0xF0 JUMP JUMPDEST JUMPDEST POP SWAP2 SWAP1 POP JUMP JUMPDEST PUSH0 DUP2 SWAP1 POP DUP2 PUSH0 MSTORE PUSH1 0x20 PUSH0 KECCAK256 SWAP1 POP SWAP2 SWAP1 POP JUMP JUMPDEST PUSH0 PUSH1 0x20 PUSH1 0x1F DUP4 ADD DIV SWAP1 POP SWAP2 SWAP1 POP JUMP JUMPDEST PUSH0 DUP3 DUP3 SHL SWAP1 POP SWAP3 SWAP2 POP POP JUMP JUMPDEST PUSH0 PUSH1 0x8 DUP4 MUL PUSH3 0x1AF PUSH32 0xFFFFFFFFFFFFFFFFFFFFFFFFFFFFFFFFFFFFFFFFFFFFFFFFFFFFFFFFFFFFFFFF DUP3 PUSH3 0x172 JUMP JUMPDEST PUSH3 0x1BB DUP7 DUP4 PUSH3 0x172 JUMP JUMPDEST SWAP6 POP DUP1 NOT DUP5 AND SWAP4 POP DUP1 DUP7 AND DUP5 OR SWAP3 POP POP POP SWAP4 SWAP3 POP POP POP JUMP JUMPDEST PUSH0 DUP2 SWAP1 POP SWAP2 SWAP1 POP JUMP JUMPDEST PUSH0 DUP2 SWAP1 POP SWAP2 SWAP1 POP JUMP JUMPDEST PUSH0 PUSH3 0x205 PUSH3 0x1FF PUSH3 0x1F9 DUP5 PUSH3 0x1D3 JUMP JUMPDEST PUSH3 0x1DC JUMP JUMPDEST PUSH3 0x1D3 JUMP JUMPDEST SWAP1 POP SWAP2 SWAP1 POP JUMP JUMPDEST PUSH0 DUP2 SWAP1 POP SWAP2 SWAP1 POP JUMP JUMPDEST PUSH3 0x220 DUP4 PUSH3 0x1E5 JUMP JUMPDEST PUSH3 0x238 PUSH3 0x22F DUP3 PUSH3 0x20C JUMP JUMPDEST DUP5 DUP5 SLOAD PUSH3 0x17E JUMP JUMPDEST DUP3 SSTORE POP POP POP POP JUMP JUMPDEST PUSH0 SWAP1 JUMP JUMPDEST PUSH3 0x24E PUSH3 0x240 JUMP JUMPDEST PUSH3 0x25B DUP2 DUP5 DUP5 PUSH3 0x215 JUMP JUMPDEST POP POP POP JUMP JUMPDEST JUMPDEST DUP2 DUP2 LT ISZERO PUSH3 0x282 JUMPI PUSH3 0x276 PUSH0 DUP3 PUSH3 0x244 JUMP JUMPDEST PUSH1 0x1 DUP2 ADD SWAP1 POP PUSH3 0x261 JUMP JUMPDEST POP POP JUMP JUMPDEST PUSH1 0x1F DUP3 GT ISZERO PUSH3 0x2D1 JUMPI PUSH3 0x29B DUP2 PUSH3 0x151 JUMP JUMPDEST PUSH3 0x2A6 DUP5 PUSH3 0x163 JUMP JUMPDEST DUP2 ADD PUSH1 0x20 DUP6 LT ISZERO PUSH3 0x2B6 JUMPI DUP2 SWAP1 POP JUMPDEST PUSH3 0x2CE PUSH3 0x2C5 DUP6 PUSH3 0x163 JUMP JUMPDEST DUP4 ADD DUP3 PUSH3 0x260 JUMP JUMPDEST POP POP JUMPDEST POP POP POP JUMP JUMPDEST PUSH0 DUP3 DUP3 SHR SWAP1 POP SWAP3 SWAP2 POP POP JUMP JUMPDEST PUSH0 PUSH3 0x2F3 PUSH0 NOT DUP5 PUSH1 0x8 MUL PUSH3 0x2D6 JUMP JUMPDEST NOT DUP1 DUP4 AND SWAP2 POP POP SWAP3 SWAP2 POP POP JUMP JUMPDEST PUSH0 PUSH3 0x30D DUP4 DUP4 PUSH3 0x2E2 JUMP JUMPDEST SWAP2 POP DUP3 PUSH1 0x2 MUL DUP3 OR SWAP1 POP SWAP3 SWAP2 POP POP JUMP JUMPDEST PUSH3 0x328 DUP3 PUSH3 0xB9 JUMP JUMPDEST PUSH8 0xFFFFFFFFFFFFFFFF DUP2 GT ISZERO PUSH3 0x344 JUMPI PUSH3 0x343 PUSH3 0xC3 JUMP JUMPDEST JUMPDEST PUSH3 0x350 DUP3 SLOAD PUSH3 0x11D JUMP JUMPDEST PUSH3 0x35D DUP3 DUP3 DUP6 PUSH3 0x286 JUMP JUMPDEST PUSH0 PUSH1 0x20 SWAP1 POP PUSH1 0x1F DUP4 GT PUSH1 0x1 DUP2 EQ PUSH3 0x393 JUMPI PUSH0 DUP5 ISZERO PUSH3 0x37E JUMPI DUP3 DUP8 ADD MLOAD SWAP1 POP JUMPDEST PUSH3 0x38A DUP6 DUP3 PUSH3 0x300 JUMP JUMPDEST DUP7 SSTORE POP PUSH3 0x3F9 JUMP JUMPDEST PUSH1 0x1F NOT DUP5 AND PUSH3 0x3A3 DUP7 PUSH3 0x151 JUMP JUMPDEST PUSH0 JUMPDEST DUP3 DUP2 LT ISZERO PUSH3 0x3CC JUMPI DUP5 DUP10 ADD MLOAD DUP3 SSTORE PUSH1 0x1 DUP3 ADD SWAP2 POP PUSH1 0x20 DUP6 ADD SWAP5 POP PUSH1 0x20 DUP2 ADD SWAP1 POP PUSH3 0x3A5 JUMP JUMPDEST DUP7 DUP4 LT ISZERO PUSH3 0x3EC JUMPI DUP5 DUP10 ADD MLOAD PUSH3 0x3E8 PUSH1 0x1F DUP10 AND DUP3 PUSH3 0x2E2 JUMP JUMPDEST DUP4 SSTORE POP JUMPDEST PUSH1 0x1 PUSH1 0x2 DUP9 MUL ADD DUP9 SSTORE POP POP POP JUMPDEST POP POP POP POP POP POP JUMP JUMPDEST PUSH2 0x1A8C DUP1 PUSH3 0x40F PUSH0 CODECOPY PUSH0 RETURN INVALID PUSH1 0x80 PUSH1 0x40 MSTORE PUSH1 0x4 CALLDATASIZE LT PUSH2 0x101 JUMPI PUSH0 CALLDATALOAD PUSH1 0xE0 SHR DUP1 PUSH4 0x70A08231 GT PUSH2 0x94 JUMPI DUP1 PUSH4 0xC59D5633 GT PUSH2 0x63 JUMPI DUP1 PUSH4 0xC59D5633 EQ PUSH2 0x34C JUMPI DUP1 PUSH4 0xDD62ED3E EQ PUSH2 0x388 JUMPI DUP1 PUSH4 0xDEFD6C5F EQ PUSH2 0x3C4 JUMPI DUP1 PUSH4 0xF51F96DD EQ PUSH2 0x3EE JUMPI DUP1 PUSH4 0xF8EB5FC5 EQ PUSH2 0x418 JUMPI PUSH2 0x112 JUMP JUMPDEST DUP1 PUSH4 0x70A08231 EQ PUSH2 0x280 JUMPI DUP1 PUSH4 0x8B667C79 EQ PUSH2 0x2BC JUMPI DUP1 PUSH4 0x95D89B41 EQ PUSH2 0x2E6 JUMPI DUP1 PUSH4 0xA9059CBB EQ PUSH2 0x310 JUMPI PUSH2 0x112 JUMP JUMPDEST DUP1 PUSH4 0x313CE567 GT PUSH2 0xD0 JUMPI DUP1 PUSH4 0x313CE567 EQ PUSH2 0x1EA JUMPI DUP1 PUSH4 0x3610724E EQ PUSH2 0x214 JUMPI DUP1 PUSH4 0x4EF5AF32 EQ PUSH2 0x230 JUMPI DUP1 PUSH4 0x6C11BCD3 EQ PUSH2 0x258 JUMPI PUSH2 0x112 JUMP JUMPDEST DUP1 PUSH4 0x6FDDE03 EQ PUSH2 0x11E JUMPI DUP1 PUSH4 0x95EA7B3 EQ PUSH2 0x148 JUMPI DUP1 PUSH4 0x18160DDD EQ PUSH2 0x184 JUMPI DUP1 PUSH4 0x23B872DD EQ PUSH2 0x1AE JUMPI PUSH2 0x112 JUMP JUMPDEST CALLDATASIZE PUSH2 0x112 JUMPI PUSH0 PUSH2 0x110 DUP2 PUSH2 0x454 JUMP JUMPDEST STOP JUMPDEST PUSH0 PUSH2 0x11C DUP2 PUSH2 0x454 JUMP JUMPDEST STOP JUMPDEST CALLVALUE DUP1 ISZERO PUSH2 0x129 JUMPI PUSH0 DUP1 REVERT JUMPDEST POP PUSH2 0x132 PUSH2 0x55B JUMP JUMPDEST PUSH1 0x40 MLOAD PUSH2 0x13F SWAP2 SWAP1 PUSH2 0x12BD JUMP JUMPDEST PUSH1 0x40 MLOAD DUP1 SWAP2 SUB SWAP1 RETURN JUMPDEST CALLVALUE DUP1 ISZERO PUSH2 0x153 JUMPI PUSH0 DUP1 REVERT JUMPDEST POP PUSH2 0x16E PUSH1 0x4 DUP1 CALLDATASIZE SUB DUP2 ADD SWAP1 PUSH2 0x169 SWAP2 SWAP1 PUSH2 0x136E JUMP JUMPDEST PUSH2 0x5EB JUMP JUMPDEST PUSH1 0x40 MLOAD PUSH2 0x17B SWAP2 SWAP1 PUSH2 0x13C6 JUMP JUMPDEST PUSH1 0x40 MLOAD DUP1 SWAP2 SUB SWAP1 RETURN JUMPDEST CALLVALUE DUP1 ISZERO PUSH2 0x18F JUMPI PUSH0 DUP1 REVERT JUMPDEST POP PUSH2 0x198 PUSH2 0x60D JUMP JUMPDEST PUSH1 0x40 MLOAD PUSH2 0x1A5 SWAP2 SWAP1 PUSH2 0x13EE JUMP JUMPDEST PUSH1 0x40 MLOAD DUP1 SWAP2 SUB SWAP1 RETURN JUMPDEST CALLVALUE DUP1 ISZERO PUSH2 0x1B9 JUMPI PUSH0 DUP1 REVERT JUMPDEST POP PUSH2 0x1D4 PUSH1 0x4 DUP1 CALLDATASIZE SUB DUP2 ADD SWAP1 PUSH2 0x1CF SWAP2 SWAP1 PUSH2 0x1407 JUMP JUMPDEST PUSH2 0x616 JUMP JUMPDEST PUSH1 0x40 MLOAD PUSH2 0x1E1 SWAP2 SWAP1 PUSH2 0x13C6 JUMP JUMPDEST PUSH1 0x40 MLOAD DUP1 SWAP2 SUB SWAP1 RETURN JUMPDEST CALLVALUE DUP1 ISZERO PUSH2 0x1F5 JUMPI PUSH0 DUP1 REVERT JUMPDEST POP PUSH2 0x1FE PUSH2 0x644 JUMP JUMPDEST PUSH1 0x40 MLOAD PUSH2 0x20B SWAP2 SWAP1 PUSH2 0x1472 JUMP JUMPDEST PUSH1 0x40 MLOAD DUP1 SWAP2 SUB SWAP1 RETURN JUMPDEST PUSH2 0x22E PUSH1 0x4 DUP1 CALLDATASIZE SUB DUP2 ADD SWAP1 PUSH2 0x229 SWAP2 SWAP1 PUSH2 0x148B JUMP JUMPDEST PUSH2 0x454 JUMP JUMPDEST STOP JUMPDEST CALLVALUE DUP1 ISZERO PUSH2 0x23B JUMPI PUSH0 DUP1 REVERT JUMPDEST POP PUSH2 0x256 PUSH1 0x4 DUP1 CALLDATASIZE SUB DUP2 ADD SWAP1 PUSH2 0x251 SWAP2 SWAP1 PUSH2 0x14B6 JUMP JUMPDEST PUSH2 0x64C JUMP JUMPDEST STOP JUMPDEST CALLVALUE DUP1 ISZERO PUSH2 0x263 JUMPI PUSH0 DUP1 REVERT JUMPDEST POP PUSH2 0x27E PUSH1 0x4 DUP1 CALLDATASIZE SUB DUP2 ADD SWAP1 PUSH2 0x279 SWAP2 SWAP1 PUSH2 0x148B JUMP JUMPDEST PUSH2 0x6FB JUMP JUMPDEST STOP JUMPDEST CALLVALUE DUP1 ISZERO PUSH2 0x28B JUMPI PUSH0 DUP1 REVERT JUMPDEST POP PUSH2 0x2A6 PUSH1 0x4 DUP1 CALLDATASIZE SUB DUP2 ADD SWAP1 PUSH2 0x2A1 SWAP2 SWAP1 PUSH2 0x14F4 JUMP JUMPDEST PUSH2 0x8E8 JUMP JUMPDEST PUSH1 0x40 MLOAD PUSH2 0x2B3 SWAP2 SWAP1 PUSH2 0x13EE JUMP JUMPDEST PUSH1 0x40 MLOAD DUP1 SWAP2 SUB SWAP1 RETURN JUMPDEST CALLVALUE DUP1 ISZERO PUSH2 0x2C7 JUMPI PUSH0 DUP1 REVERT JUMPDEST POP PUSH2 0x2D0 PUSH2 0x92D JUMP JUMPDEST PUSH1 0x40 MLOAD PUSH2 0x2DD SWAP2 SWAP1 PUSH2 0x13EE JUMP JUMPDEST PUSH1 0x40 MLOAD DUP1 SWAP2 SUB SWAP1 RETURN JUMPDEST CALLVALUE DUP1 ISZERO PUSH2 0x2F1 JUMPI PUSH0 DUP1 REVERT JUMPDEST POP PUSH2 0x2FA PUSH2 0x933 JUMP JUMPDEST PUSH1 0x40 MLOAD PUSH2 0x307 SWAP2 SWAP1 PUSH2 0x12BD JUMP JUMPDEST PUSH1 0x40 MLOAD DUP1 SWAP2 SUB SWAP1 RETURN JUMPDEST CALLVALUE DUP1 ISZERO PUSH2 0x31B JUMPI PUSH0 DUP1 REVERT JUMPDEST POP PUSH2 0x336 PUSH1 0x4 DUP1 CALLDATASIZE SUB DUP2 ADD SWAP1 PUSH2 0x331 SWAP2 SWAP1 PUSH2 0x136E JUMP JUMPDEST PUSH2 0x9C3 JUMP JUMPDEST PUSH1 0x40 MLOAD PUSH2 0x343 SWAP2 SWAP1 PUSH2 0x13C6 JUMP JUMPDEST PUSH1 0x40 MLOAD DUP1 SWAP2 SUB SWAP1 RETURN JUMPDEST CALLVALUE DUP1 ISZERO PUSH2 0x357 JUMPI PUSH0 DUP1 REVERT JUMPDEST POP PUSH2 0x372 PUSH1 0x4 DUP1 CALLDATASIZE SUB DUP2 ADD SWAP1 PUSH2 0x36D SWAP2 SWAP1 PUSH2 0x148B JUMP JUMPDEST PUSH2 0x9E5 JUMP JUMPDEST PUSH1 0x40 MLOAD PUSH2 0x37F SWAP2 SWAP1 PUSH2 0x13EE JUMP JUMPDEST PUSH1 0x40 MLOAD DUP1 SWAP2 SUB SWAP1 RETURN JUMPDEST CALLVALUE DUP1 ISZERO PUSH2 0x393 JUMPI PUSH0 DUP1 REVERT JUMPDEST POP PUSH2 0x3AE PUSH1 0x4 DUP1 CALLDATASIZE SUB DUP2 ADD SWAP1 PUSH2 0x3A9 SWAP2 SWAP1 PUSH2 0x151F JUMP JUMPDEST PUSH2 0xA67 JUMP JUMPDEST PUSH1 0x40 MLOAD PUSH2 0x3BB SWAP2 SWAP1 PUSH2 0x13EE JUMP JUMPDEST PUSH1 0x40 MLOAD DUP1 SWAP2 SUB SWAP1 RETURN JUMPDEST CALLVALUE DUP1 ISZERO PUSH2 0x3CF JUMPI PUSH0 DUP1 REVERT JUMPDEST POP PUSH2 0x3D8 PUSH2 0xAE9 JUMP JUMPDEST PUSH1 0x40 MLOAD PUSH2 0x3E5 SWAP2 SWAP1 PUSH2 0x13EE JUMP JUMPDEST PUSH1 0x40 MLOAD DUP1 SWAP2 SUB SWAP1 RETURN JUMPDEST CALLVALUE DUP1 ISZERO PUSH2 0x3F9 JUMPI PUSH0 DUP1 REVERT JUMPDEST POP PUSH2 0x402 PUSH2 0xAEF JUMP JUMPDEST PUSH1 0x40 MLOAD PUSH2 0x40F SWAP2 SWAP1 PUSH2 0x13EE JUMP JUMPDEST PUSH1 0x40 MLOAD DUP1 SWAP2 SUB SWAP1 RETURN JUMPDEST CALLVALUE DUP1 ISZERO PUSH2 0x423 JUMPI PUSH0 DUP1 REVERT JUMPDEST POP PUSH2 0x43E PUSH1 0x4 DUP1 CALLDATASIZE SUB DUP2 ADD SWAP1 PUSH2 0x439 SWAP2 SWAP1 PUSH2 0x148B JUMP JUMPDEST PUSH2 0xAF5 JUMP JUMPDEST PUSH1 0x40 MLOAD PUSH2 0x44B SWAP2 SWAP1 PUSH2 0x13EE JUMP JUMPDEST PUSH1 0x40 MLOAD DUP1 SWAP2 SUB SWAP1 RETURN JUMPDEST PUSH0 CALLER SWAP1 POP PUSH0 DUP3 GT PUSH2 0x49A JUMPI PUSH1 0x40 MLOAD PUSH32 0x8C379A000000000000000000000000000000000000000000000000000000000 DUP2 MSTORE PUSH1 0x4 ADD PUSH2 0x491 SWAP1 PUSH2 0x15A7 JUMP JUMPDEST PUSH1 0x40 MLOAD DUP1 SWAP2 SUB SWAP1 REVERT JUMPDEST PUSH2 0x4A3 DUP3 PUSH2 0x9E5 JUMP JUMPDEST PUSH1 0x6 DUP2 SWAP1 SSTORE POP PUSH1 0x6 SLOAD CALLVALUE LT ISZERO PUSH2 0x4EE JUMPI PUSH1 0x40 MLOAD PUSH32 0x8C379A000000000000000000000000000000000000000000000000000000000 DUP2 MSTORE PUSH1 0x4 ADD PUSH2 0x4E5 SWAP1 PUSH2 0x160F JUMP JUMPDEST PUSH1 0x40 MLOAD DUP1 SWAP2 SUB SWAP1 REVERT JUMPDEST PUSH2 0x4F8 DUP2 DUP4 PUSH2 0xBB1 JUMP JUMPDEST PUSH2 0x500 PUSH2 0x60D JUMP JUMPDEST PUSH1 0x5 DUP2 SWAP1 SSTORE POP PUSH2 0x50F DUP2 PUSH2 0x8E8 JUMP JUMPDEST PUSH1 0x9 PUSH0 DUP4 PUSH20 0xFFFFFFFFFFFFFFFFFFFFFFFFFFFFFFFFFFFFFFFF AND PUSH20 0xFFFFFFFFFFFFFFFFFFFFFFFFFFFFFFFFFFFFFFFF AND DUP2 MSTORE PUSH1 0x20 ADD SWAP1 DUP2 MSTORE PUSH1 0x20 ADD PUSH0 KECCAK256 DUP2 SWAP1 SSTORE POP PUSH0 PUSH1 0x6 DUP2 SWAP1 SSTORE POP POP POP JUMP JUMPDEST PUSH1 0x60 PUSH1 0x3 DUP1 SLOAD PUSH2 0x56A SWAP1 PUSH2 0x165A JUMP JUMPDEST DUP1 PUSH1 0x1F ADD PUSH1 0x20 DUP1 SWAP2 DIV MUL PUSH1 0x20 ADD PUSH1 0x40 MLOAD SWAP1 DUP2 ADD PUSH1 0x40 MSTORE DUP1 SWAP3 SWAP2 SWAP1 DUP2 DUP2 MSTORE PUSH1 0x20 ADD DUP3 DUP1 SLOAD PUSH2 0x596 SWAP1 PUSH2 0x165A JUMP JUMPDEST DUP1 ISZERO PUSH2 0x5E1 JUMPI DUP1 PUSH1 0x1F LT PUSH2 0x5B8 JUMPI PUSH2 0x100 DUP1 DUP4 SLOAD DIV MUL DUP4 MSTORE SWAP2 PUSH1 0x20 ADD SWAP2 PUSH2 0x5E1 JUMP JUMPDEST DUP3 ADD SWAP2 SWAP1 PUSH0 MSTORE PUSH1 0x20 PUSH0 KECCAK256 SWAP1 JUMPDEST DUP2 SLOAD DUP2 MSTORE SWAP1 PUSH1 0x1 ADD SWAP1 PUSH1 0x20 ADD DUP1 DUP4 GT PUSH2 0x5C4 JUMPI DUP3 SWAP1 SUB PUSH1 0x1F AND DUP3 ADD SWAP2 JUMPDEST POP POP POP POP POP SWAP1 POP SWAP1 JUMP JUMPDEST PUSH0 DUP1 PUSH2 0x5F5 PUSH2 0xC30 JUMP JUMPDEST SWAP1 POP PUSH2 0x602 DUP2 DUP6 DUP6 PUSH2 0xC37 JUMP JUMPDEST PUSH1 0x1 SWAP2 POP POP SWAP3 SWAP2 POP POP JUMP JUMPDEST PUSH0 PUSH1 0x2 SLOAD SWAP1 POP SWAP1 JUMP JUMPDEST PUSH0 DUP1 PUSH2 0x620 PUSH2 0xC30 JUMP JUMPDEST SWAP1 POP PUSH2 0x62D DUP6 DUP3 DUP6 PUSH2 0xC49 JUMP JUMPDEST PUSH2 0x638 DUP6 DUP6 DUP6 PUSH2 0xCDC JUMP JUMPDEST PUSH1 0x1 SWAP2 POP POP SWAP4 SWAP3 POP POP POP JUMP JUMPDEST PUSH0 PUSH1 0x12 SWAP1 POP SWAP1 JUMP JUMPDEST PUSH0 PUSH1 0x8 DUP2 SWAP1 SSTORE POP DUP1 DUP3 GT ISZERO PUSH2 0x696 JUMPI PUSH1 0x40 MLOAD PUSH32 0x8C379A000000000000000000000000000000000000000000000000000000000 DUP2 MSTORE PUSH1 0x4 ADD PUSH2 0x68D SWAP1 PUSH2 0x16FA JUMP JUMPDEST PUSH1 0x40 MLOAD DUP1 SWAP2 SUB SWAP1 REVERT JUMPDEST PUSH0 DUP2 SWAP1 POP JUMPDEST DUP3 DUP3 PUSH2 0x6A7 SWAP2 SWAP1 PUSH2 0x1745 JUMP JUMPDEST DUP2 GT ISZERO PUSH2 0x6F6 JUMPI PUSH0 PUSH1 0x1 DUP3 PUSH1 0x1 PUSH2 0x6BE SWAP2 SWAP1 PUSH2 0x1778 JUMP JUMPDEST PUSH2 0x6C8 SWAP2 SWAP1 PUSH2 0x17B9 JUMP JUMPDEST SWAP1 POP DUP1 PUSH1 0x8 PUSH0 DUP3 DUP3 SLOAD PUSH2 0x6DB SWAP2 SWAP1 PUSH2 0x17B9 JUMP JUMPDEST SWAP3 POP POP DUP2 SWAP1 SSTORE POP POP DUP1 DUP1 PUSH2 0x6EE SWAP1 PUSH2 0x17EC JUMP JUMPDEST SWAP2 POP POP PUSH2 0x69B JUMP JUMPDEST POP POP POP JUMP JUMPDEST PUSH0 CALLER SWAP1 POP PUSH0 DUP3 GT PUSH2 0x741 JUMPI PUSH1 0x40 MLOAD PUSH32 0x8C379A000000000000000000000000000000000000000000000000000000000 DUP2 MSTORE PUSH1 0x4 ADD PUSH2 0x738 SWAP1 PUSH2 0x15A7 JUMP JUMPDEST PUSH1 0x40 MLOAD DUP1 SWAP2 SUB SWAP1 REVERT JUMPDEST DUP2 PUSH1 0x9 PUSH0 DUP4 PUSH20 0xFFFFFFFFFFFFFFFFFFFFFFFFFFFFFFFFFFFFFFFF AND PUSH20 0xFFFFFFFFFFFFFFFFFFFFFFFFFFFFFFFFFFFFFFFF AND DUP2 MSTORE PUSH1 0x20 ADD SWAP1 DUP2 MSTORE PUSH1 0x20 ADD PUSH0 KECCAK256 SLOAD LT ISZERO PUSH2 0x7C1 JUMPI PUSH1 0x40 MLOAD PUSH32 0x8C379A000000000000000000000000000000000000000000000000000000000 DUP2 MSTORE PUSH1 0x4 ADD PUSH2 0x7B8 SWAP1 PUSH2 0x185D JUMP JUMPDEST PUSH1 0x40 MLOAD DUP1 SWAP2 SUB SWAP1 REVERT JUMPDEST PUSH2 0x7CA DUP3 PUSH2 0xAF5 JUMP JUMPDEST PUSH1 0x7 DUP2 SWAP1 SSTORE POP PUSH2 0x7DA DUP2 DUP4 PUSH2 0xDCC JUMP JUMPDEST PUSH2 0x7E2 PUSH2 0x60D JUMP JUMPDEST PUSH1 0x5 DUP2 SWAP1 SSTORE POP PUSH2 0x7F1 DUP2 PUSH2 0x8E8 JUMP JUMPDEST PUSH1 0x9 PUSH0 DUP4 PUSH20 0xFFFFFFFFFFFFFFFFFFFFFFFFFFFFFFFFFFFFFFFF AND PUSH20 0xFFFFFFFFFFFFFFFFFFFFFFFFFFFFFFFFFFFFFFFF AND DUP2 MSTORE PUSH1 0x20 ADD SWAP1 DUP2 MSTORE PUSH1 0x20 ADD PUSH0 KECCAK256 DUP2 SWAP1 SSTORE POP PUSH0 DUP2 PUSH20 0xFFFFFFFFFFFFFFFFFFFFFFFFFFFFFFFFFFFFFFFF AND PUSH1 0x7 SLOAD PUSH1 0x40 MLOAD PUSH2 0x859 SWAP1 PUSH2 0x18A8 JUMP JUMPDEST PUSH0 PUSH1 0x40 MLOAD DUP1 DUP4 SUB DUP2 DUP6 DUP8 GAS CALL SWAP3 POP POP POP RETURNDATASIZE DUP1 PUSH0 DUP2 EQ PUSH2 0x893 JUMPI PUSH1 0x40 MLOAD SWAP2 POP PUSH1 0x1F NOT PUSH1 0x3F RETURNDATASIZE ADD AND DUP3 ADD PUSH1 0x40 MSTORE RETURNDATASIZE DUP3 MSTORE RETURNDATASIZE PUSH0 PUSH1 0x20 DUP5 ADD RETURNDATACOPY PUSH2 0x898 JUMP JUMPDEST PUSH1 0x60 SWAP2 POP JUMPDEST POP POP SWAP1 POP DUP1 PUSH2 0x8DC JUMPI PUSH1 0x40 MLOAD PUSH32 0x8C379A000000000000000000000000000000000000000000000000000000000 DUP2 MSTORE PUSH1 0x4 ADD PUSH2 0x8D3 SWAP1 PUSH2 0x1906 JUMP JUMPDEST PUSH1 0x40 MLOAD DUP1 SWAP2 SUB SWAP1 REVERT JUMPDEST PUSH0 PUSH1 0x7 DUP2 SWAP1 SSTORE POP POP POP POP JUMP JUMPDEST PUSH0 DUP1 PUSH0 DUP4 PUSH20 0xFFFFFFFFFFFFFFFFFFFFFFFFFFFFFFFFFFFFFFFF AND PUSH20 0xFFFFFFFFFFFFFFFFFFFFFFFFFFFFFFFFFFFFFFFF AND DUP2 MSTORE PUSH1 0x20 ADD SWAP1 DUP2 MSTORE PUSH1 0x20 ADD PUSH0 KECCAK256 SLOAD SWAP1 POP SWAP2 SWAP1 POP JUMP JUMPDEST PUSH1 0x8 SLOAD DUP2 JUMP JUMPDEST PUSH1 0x60 PUSH1 0x4 DUP1 SLOAD PUSH2 0x942 SWAP1 PUSH2 0x165A JUMP JUMPDEST DUP1 PUSH1 0x1F ADD PUSH1 0x20 DUP1 SWAP2 DIV MUL PUSH1 0x20 ADD PUSH1 0x40 MLOAD SWAP1 DUP2 ADD PUSH1 0x40 MSTORE DUP1 SWAP3 SWAP2 SWAP1 DUP2 DUP2 MSTORE PUSH1 0x20 ADD DUP3 DUP1 SLOAD PUSH2 0x96E SWAP1 PUSH2 0x165A JUMP JUMPDEST DUP1 ISZERO PUSH2 0x9B9 JUMPI DUP1 PUSH1 0x1F LT PUSH2 0x990 JUMPI PUSH2 0x100 DUP1 DUP4 SLOAD DIV MUL DUP4 MSTORE SWAP2 PUSH1 0x20 ADD SWAP2 PUSH2 0x9B9 JUMP JUMPDEST DUP3 ADD SWAP2 SWAP1 PUSH0 MSTORE PUSH1 0x20 PUSH0 KECCAK256 SWAP1 JUMPDEST DUP2 SLOAD DUP2 MSTORE SWAP1 PUSH1 0x1 ADD SWAP1 PUSH1 0x20 ADD DUP1 DUP4 GT PUSH2 0x99C JUMPI DUP3 SWAP1 SUB PUSH1 0x1F AND DUP3 ADD SWAP2 JUMPDEST POP POP POP POP POP SWAP1 POP SWAP1 JUMP JUMPDEST PUSH0 DUP1 PUSH2 0x9CD PUSH2 0xC30 JUMP JUMPDEST SWAP1 POP PUSH2 0x9DA DUP2 DUP6 DUP6 PUSH2 0xCDC JUMP JUMPDEST PUSH1 0x1 SWAP2 POP POP SWAP3 SWAP2 POP POP JUMP JUMPDEST PUSH0 DUP1 PUSH1 0x6 DUP2 SWAP1 SSTORE POP PUSH0 PUSH1 0x5 SLOAD PUSH1 0x1 PUSH2 0x9FD SWAP2 SWAP1 PUSH2 0x17B9 JUMP JUMPDEST SWAP1 POP JUMPDEST PUSH1 0x5 SLOAD DUP4 PUSH2 0xA0E SWAP2 SWAP1 PUSH2 0x17B9 JUMP JUMPDEST DUP2 GT PUSH2 0xA5C JUMPI PUSH0 PUSH1 0x1 DUP3 PUSH1 0x1 PUSH2 0xA24 SWAP2 SWAP1 PUSH2 0x1778 JUMP JUMPDEST PUSH2 0xA2E SWAP2 SWAP1 PUSH2 0x17B9 JUMP JUMPDEST SWAP1 POP DUP1 PUSH1 0x6 PUSH0 DUP3 DUP3 SLOAD PUSH2 0xA41 SWAP2 SWAP1 PUSH2 0x17B9 JUMP JUMPDEST SWAP3 POP POP DUP2 SWAP1 SSTORE POP POP DUP1 DUP1 PUSH2 0xA54 SWAP1 PUSH2 0x1924 JUMP JUMPDEST SWAP2 POP POP PUSH2 0xA00 JUMP JUMPDEST POP PUSH1 0x6 SLOAD SWAP1 POP SWAP2 SWAP1 POP JUMP JUMPDEST PUSH0 PUSH1 0x1 PUSH0 DUP5 PUSH20 0xFFFFFFFFFFFFFFFFFFFFFFFFFFFFFFFFFFFFFFFF AND PUSH20 0xFFFFFFFFFFFFFFFFFFFFFFFFFFFFFFFFFFFFFFFF AND DUP2 MSTORE PUSH1 0x20 ADD SWAP1 DUP2 MSTORE PUSH1 0x20 ADD PUSH0 KECCAK256 PUSH0 DUP4 PUSH20 0xFFFFFFFFFFFFFFFFFFFFFFFFFFFFFFFFFFFFFFFF AND PUSH20 0xFFFFFFFFFFFFFFFFFFFFFFFFFFFFFFFFFFFFFFFF AND DUP2 MSTORE PUSH1 0x20 ADD SWAP1 DUP2 MSTORE PUSH1 0x20 ADD PUSH0 KECCAK256 SLOAD SWAP1 POP SWAP3 SWAP2 POP POP JUMP JUMPDEST PUSH1 0x6 SLOAD DUP2 JUMP JUMPDEST PUSH1 0x7 SLOAD DUP2 JUMP JUMPDEST PUSH0 PUSH1 0x5 SLOAD DUP3 GT ISZERO PUSH2 0xB3B JUMPI PUSH1 0x40 MLOAD PUSH32 0x8C379A000000000000000000000000000000000000000000000000000000000 DUP2 MSTORE PUSH1 0x4 ADD PUSH2 0xB32 SWAP1 PUSH2 0x19DB JUMP JUMPDEST PUSH1 0x40 MLOAD DUP1 SWAP2 SUB SWAP1 REVERT JUMPDEST PUSH0 PUSH1 0x7 DUP2 SWAP1 SSTORE POP PUSH0 PUSH1 0x5 SLOAD SWAP1 POP JUMPDEST DUP3 PUSH1 0x5 SLOAD PUSH2 0xB57 SWAP2 SWAP1 PUSH2 0x1745 JUMP JUMPDEST DUP2 GT ISZERO PUSH2 0xBA6 JUMPI PUSH0 PUSH1 0x1 DUP3 PUSH1 0x1 PUSH2 0xB6E SWAP2 SWAP1 PUSH2 0x1778 JUMP JUMPDEST PUSH2 0xB78 SWAP2 SWAP1 PUSH2 0x17B9 JUMP JUMPDEST SWAP1 POP DUP1 PUSH1 0x7 PUSH0 DUP3 DUP3 SLOAD PUSH2 0xB8B SWAP2 SWAP1 PUSH2 0x17B9 JUMP JUMPDEST SWAP3 POP POP DUP2 SWAP1 SSTORE POP POP DUP1 DUP1 PUSH2 0xB9E SWAP1 PUSH2 0x17EC JUMP JUMPDEST SWAP2 POP POP PUSH2 0xB49 JUMP JUMPDEST POP PUSH1 0x7 SLOAD SWAP1 POP SWAP2 SWAP1 POP JUMP JUMPDEST PUSH0 PUSH20 0xFFFFFFFFFFFFFFFFFFFFFFFFFFFFFFFFFFFFFFFF AND DUP3 PUSH20 0xFFFFFFFFFFFFFFFFFFFFFFFFFFFFFFFFFFFFFFFF AND SUB PUSH2 0xC21 JUMPI PUSH0 PUSH1 0x40 MLOAD PUSH32 0xEC442F0500000000000000000000000000000000000000000000000000000000 DUP2 MSTORE PUSH1 0x4 ADD PUSH2 0xC18 SWAP2 SWAP1 PUSH2 0x1A08 JUMP JUMPDEST PUSH1 0x40 MLOAD DUP1 SWAP2 SUB SWAP1 REVERT JUMPDEST PUSH2 0xC2C PUSH0 DUP4 DUP4 PUSH2 0xE4B JUMP JUMPDEST POP POP JUMP JUMPDEST PUSH0 CALLER SWAP1 POP SWAP1 JUMP JUMPDEST PUSH2 0xC44 DUP4 DUP4 DUP4 PUSH1 0x1 PUSH2 0x1064 JUMP JUMPDEST POP POP POP JUMP JUMPDEST PUSH0 PUSH2 0xC54 DUP5 DUP5 PUSH2 0xA67 JUMP JUMPDEST SWAP1 POP PUSH32 0xFFFFFFFFFFFFFFFFFFFFFFFFFFFFFFFFFFFFFFFFFFFFFFFFFFFFFFFFFFFFFFFF DUP2 LT ISZERO PUSH2 0xCD6 JUMPI DUP2 DUP2 LT ISZERO PUSH2 0xCC7 JUMPI DUP3 DUP2 DUP4 PUSH1 0x40 MLOAD PUSH32 0xFB8F41B200000000000000000000000000000000000000000000000000000000 DUP2 MSTORE PUSH1 0x4 ADD PUSH2 0xCBE SWAP4 SWAP3 SWAP2 SWAP1 PUSH2 0x1A21 JUMP JUMPDEST PUSH1 0x40 MLOAD DUP1 SWAP2 SUB SWAP1 REVERT JUMPDEST PUSH2 0xCD5 DUP5 DUP5 DUP5 DUP5 SUB PUSH0 PUSH2 0x1064 JUMP JUMPDEST JUMPDEST POP POP POP POP JUMP JUMPDEST PUSH0 PUSH20 0xFFFFFFFFFFFFFFFFFFFFFFFFFFFFFFFFFFFFFFFF AND DUP4 PUSH20 0xFFFFFFFFFFFFFFFFFFFFFFFFFFFFFFFFFFFFFFFF AND SUB PUSH2 0xD4C JUMPI PUSH0 PUSH1 0x40 MLOAD PUSH32 0x96C6FD1E00000000000000000000000000000000000000000000000000000000 DUP2 MSTORE PUSH1 0x4 ADD PUSH2 0xD43 SWAP2 SWAP1 PUSH2 0x1A08 JUMP JUMPDEST PUSH1 0x40 MLOAD DUP1 SWAP2 SUB SWAP1 REVERT JUMPDEST PUSH0 PUSH20 0xFFFFFFFFFFFFFFFFFFFFFFFFFFFFFFFFFFFFFFFF AND DUP3 PUSH20 0xFFFFFFFFFFFFFFFFFFFFFFFFFFFFFFFFFFFFFFFF AND SUB PUSH2 0xDBC JUMPI PUSH0 PUSH1 0x40 MLOAD PUSH32 0xEC442F0500000000000000000000000000000000000000000000000000000000 DUP2 MSTORE PUSH1 0x4 ADD PUSH2 0xDB3 SWAP2 SWAP1 PUSH2 0x1A08 JUMP JUMPDEST PUSH1 0x40 MLOAD DUP1 SWAP2 SUB SWAP1 REVERT JUMPDEST PUSH2 0xDC7 DUP4 DUP4 DUP4 PUSH2 0xE4B JUMP JUMPDEST POP POP POP JUMP JUMPDEST PUSH0 PUSH20 0xFFFFFFFFFFFFFFFFFFFFFFFFFFFFFFFFFFFFFFFF AND DUP3 PUSH20 0xFFFFFFFFFFFFFFFFFFFFFFFFFFFFFFFFFFFFFFFF AND SUB PUSH2 0xE3C JUMPI PUSH0 PUSH1 0x40 MLOAD PUSH32 0x96C6FD1E00000000000000000000000000000000000000000000000000000000 DUP2 MSTORE PUSH1 0x4 ADD PUSH2 0xE33 SWAP2 SWAP1 PUSH2 0x1A08 JUMP JUMPDEST PUSH1 0x40 MLOAD DUP1 SWAP2 SUB SWAP1 REVERT JUMPDEST PUSH2 0xE47 DUP3 PUSH0 DUP4 PUSH2 0xE4B JUMP JUMPDEST POP POP JUMP JUMPDEST PUSH0 PUSH20 0xFFFFFFFFFFFFFFFFFFFFFFFFFFFFFFFFFFFFFFFF AND DUP4 PUSH20 0xFFFFFFFFFFFFFFFFFFFFFFFFFFFFFFFFFFFFFFFF AND SUB PUSH2 0xE9B JUMPI DUP1 PUSH1 0x2 PUSH0 DUP3 DUP3 SLOAD PUSH2 0xE8F SWAP2 SWAP1 PUSH2 0x17B9 JUMP JUMPDEST SWAP3 POP POP DUP2 SWAP1 SSTORE POP PUSH2 0xF69 JUMP JUMPDEST PUSH0 DUP1 PUSH0 DUP6 PUSH20 0xFFFFFFFFFFFFFFFFFFFFFFFFFFFFFFFFFFFFFFFF AND PUSH20 0xFFFFFFFFFFFFFFFFFFFFFFFFFFFFFFFFFFFFFFFF AND DUP2 MSTORE PUSH1 0x20 ADD SWAP1 DUP2 MSTORE PUSH1 0x20 ADD PUSH0 KECCAK256 SLOAD SWAP1 POP DUP2 DUP2 LT ISZERO PUSH2 0xF24 JUMPI DUP4 DUP2 DUP4 PUSH1 0x40 MLOAD PUSH32 0xE450D38C00000000000000000000000000000000000000000000000000000000 DUP2 MSTORE PUSH1 0x4 ADD PUSH2 0xF1B SWAP4 SWAP3 SWAP2 SWAP1 PUSH2 0x1A21 JUMP JUMPDEST PUSH1 0x40 MLOAD DUP1 SWAP2 SUB SWAP1 REVERT JUMPDEST DUP2 DUP2 SUB PUSH0 DUP1 DUP7 PUSH20 0xFFFFFFFFFFFFFFFFFFFFFFFFFFFFFFFFFFFFFFFF AND PUSH20 0xFFFFFFFFFFFFFFFFFFFFFFFFFFFFFFFFFFFFFFFF AND DUP2 MSTORE PUSH1 0x20 ADD SWAP1 DUP2 MSTORE PUSH1 0x20 ADD PUSH0 KECCAK256 DUP2 SWAP1 SSTORE POP POP JUMPDEST PUSH0 PUSH20 0xFFFFFFFFFFFFFFFFFFFFFFFFFFFFFFFFFFFFFFFF AND DUP3 PUSH20 0xFFFFFFFFFFFFFFFFFFFFFFFFFFFFFFFFFFFFFFFF AND SUB PUSH2 0xFB0 JUMPI DUP1 PUSH1 0x2 PUSH0 DUP3 DUP3 SLOAD SUB SWAP3 POP POP DUP2 SWAP1 SSTORE POP PUSH2 0xFFA JUMP JUMPDEST DUP1 PUSH0 DUP1 DUP5 PUSH20 0xFFFFFFFFFFFFFFFFFFFFFFFFFFFFFFFFFFFFFFFF AND PUSH20 0xFFFFFFFFFFFFFFFFFFFFFFFFFFFFFFFFFFFFFFFF AND DUP2 MSTORE PUSH1 0x20 ADD SWAP1 DUP2 MSTORE PUSH1 0x20 ADD PUSH0 KECCAK256 PUSH0 DUP3 DUP3 SLOAD ADD SWAP3 POP POP DUP2 SWAP1 SSTORE POP JUMPDEST DUP2 PUSH20 0xFFFFFFFFFFFFFFFFFFFFFFFFFFFFFFFFFFFFFFFF AND DUP4 PUSH20 0xFFFFFFFFFFFFFFFFFFFFFFFFFFFFFFFFFFFFFFFF AND PUSH32 0xDDF252AD1BE2C89B69C2B068FC378DAA952BA7F163C4A11628F55A4DF523B3EF DUP4 PUSH1 0x40 MLOAD PUSH2 0x1057 SWAP2 SWAP1 PUSH2 0x13EE JUMP JUMPDEST PUSH1 0x40 MLOAD DUP1 SWAP2 SUB SWAP1 LOG3 POP POP POP JUMP JUMPDEST PUSH0 PUSH20 0xFFFFFFFFFFFFFFFFFFFFFFFFFFFFFFFFFFFFFFFF AND DUP5 PUSH20 0xFFFFFFFFFFFFFFFFFFFFFFFFFFFFFFFFFFFFFFFF AND SUB PUSH2 0x10D4 JUMPI PUSH0 PUSH1 0x40 MLOAD PUSH32 0xE602DF0500000000000000000000000000000000000000000000000000000000 DUP2 MSTORE PUSH1 0x4 ADD PUSH2 0x10CB SWAP2 SWAP1 PUSH2 0x1A08 JUMP JUMPDEST PUSH1 0x40 MLOAD DUP1 SWAP2 SUB SWAP1 REVERT JUMPDEST PUSH0 PUSH20 0xFFFFFFFFFFFFFFFFFFFFFFFFFFFFFFFFFFFFFFFF AND DUP4 PUSH20 0xFFFFFFFFFFFFFFFFFFFFFFFFFFFFFFFFFFFFFFFF AND SUB PUSH2 0x1144 JUMPI PUSH0 PUSH1 0x40 MLOAD PUSH32 0x94280D6200000000000000000000000000000000000000000000000000000000 DUP2 MSTORE PUSH1 0x4 ADD PUSH2 0x113B SWAP2 SWAP1 PUSH2 0x1A08 JUMP JUMPDEST PUSH1 0x40 MLOAD DUP1 SWAP2 SUB SWAP1 REVERT JUMPDEST DUP2 PUSH1 0x1 PUSH0 DUP7 PUSH20 0xFFFFFFFFFFFFFFFFFFFFFFFFFFFFFFFFFFFFFFFF AND PUSH20 0xFFFFFFFFFFFFFFFFFFFFFFFFFFFFFFFFFFFFFFFF AND DUP2 MSTORE PUSH1 0x20 ADD SWAP1 DUP2 MSTORE PUSH1 0x20 ADD PUSH0 KECCAK256 PUSH0 DUP6 PUSH20 0xFFFFFFFFFFFFFFFFFFFFFFFFFFFFFFFFFFFFFFFF AND PUSH20 0xFFFFFFFFFFFFFFFFFFFFFFFFFFFFFFFFFFFFFFFF AND DUP2 MSTORE PUSH1 0x20 ADD SWAP1 DUP2 MSTORE PUSH1 0x20 ADD PUSH0 KECCAK256 DUP2 SWAP1 SSTORE POP DUP1 ISZERO PUSH2 0x122D JUMPI DUP3 PUSH20 0xFFFFFFFFFFFFFFFFFFFFFFFFFFFFFFFFFFFFFFFF AND DUP5 PUSH20 0xFFFFFFFFFFFFFFFFFFFFFFFFFFFFFFFFFFFFFFFF AND PUSH32 0x8C5BE1E5EBEC7D5BD14F71427D1E84F3DD0314C0F7B2291E5B200AC8C7C3B925 DUP5 PUSH1 0x40 MLOAD PUSH2 0x1224 SWAP2 SWAP1 PUSH2 0x13EE JUMP JUMPDEST PUSH1 0x40 MLOAD DUP1 SWAP2 SUB SWAP1 LOG3 JUMPDEST POP POP POP POP JUMP JUMPDEST PUSH0 DUP2 MLOAD SWAP1 POP SWAP2 SWAP1 POP JUMP JUMPDEST PUSH0 DUP3 DUP3 MSTORE PUSH1 0x20 DUP3 ADD SWAP1 POP SWAP3 SWAP2 POP POP JUMP JUMPDEST PUSH0 JUMPDEST DUP4 DUP2 LT ISZERO PUSH2 0x126A JUMPI DUP1 DUP3 ADD MLOAD DUP2 DUP5 ADD MSTORE PUSH1 0x20 DUP2 ADD SWAP1 POP PUSH2 0x124F JUMP JUMPDEST PUSH0 DUP5 DUP5 ADD MSTORE POP POP POP POP JUMP JUMPDEST PUSH0 PUSH1 0x1F NOT PUSH1 0x1F DUP4 ADD AND SWAP1 POP SWAP2 SWAP1 POP JUMP JUMPDEST PUSH0 PUSH2 0x128F DUP3 PUSH2 0x1233 JUMP JUMPDEST PUSH2 0x1299 DUP2 DUP6 PUSH2 0x123D JUMP JUMPDEST SWAP4 POP PUSH2 0x12A9 DUP2 DUP6 PUSH1 0x20 DUP7 ADD PUSH2 0x124D JUMP JUMPDEST PUSH2 0x12B2 DUP2 PUSH2 0x1275 JUMP JUMPDEST DUP5 ADD SWAP2 POP POP SWAP3 SWAP2 POP POP JUMP JUMPDEST PUSH0 PUSH1 0x20 DUP3 ADD SWAP1 POP DUP2 DUP2 SUB PUSH0 DUP4 ADD MSTORE PUSH2 0x12D5 DUP2 DUP5 PUSH2 0x1285 JUMP JUMPDEST SWAP1 POP SWAP3 SWAP2 POP POP JUMP JUMPDEST PUSH0 DUP1 REVERT JUMPDEST PUSH0 PUSH20 0xFFFFFFFFFFFFFFFFFFFFFFFFFFFFFFFFFFFFFFFF DUP3 AND SWAP1 POP SWAP2 SWAP1 POP JUMP JUMPDEST PUSH0 PUSH2 0x130A DUP3 PUSH2 0x12E1 JUMP JUMPDEST SWAP1 POP SWAP2 SWAP1 POP JUMP JUMPDEST PUSH2 0x131A DUP2 PUSH2 0x1300 JUMP JUMPDEST DUP2 EQ PUSH2 0x1324 JUMPI PUSH0 DUP1 REVERT JUMPDEST POP JUMP JUMPDEST PUSH0 DUP2 CALLDATALOAD SWAP1 POP PUSH2 0x1335 DUP2 PUSH2 0x1311 JUMP JUMPDEST SWAP3 SWAP2 POP POP JUMP JUMPDEST PUSH0 DUP2 SWAP1 POP SWAP2 SWAP1 POP JUMP JUMPDEST PUSH2 0x134D DUP2 PUSH2 0x133B JUMP JUMPDEST DUP2 EQ PUSH2 0x1357 JUMPI PUSH0 DUP1 REVERT JUMPDEST POP JUMP JUMPDEST PUSH0 DUP2 CALLDATALOAD SWAP1 POP PUSH2 0x1368 DUP2 PUSH2 0x1344 JUMP JUMPDEST SWAP3 SWAP2 POP POP JUMP JUMPDEST PUSH0 DUP1 PUSH1 0x40 DUP4 DUP6 SUB SLT ISZERO PUSH2 0x1384 JUMPI PUSH2 0x1383 PUSH2 0x12DD JUMP JUMPDEST JUMPDEST PUSH0 PUSH2 0x1391 DUP6 DUP3 DUP7 ADD PUSH2 0x1327 JUMP JUMPDEST SWAP3 POP POP PUSH1 0x20 PUSH2 0x13A2 DUP6 DUP3 DUP7 ADD PUSH2 0x135A JUMP JUMPDEST SWAP2 POP POP SWAP3 POP SWAP3 SWAP1 POP JUMP JUMPDEST PUSH0 DUP2 ISZERO ISZERO SWAP1 POP SWAP2 SWAP1 POP JUMP JUMPDEST PUSH2 0x13C0 DUP2 PUSH2 0x13AC JUMP JUMPDEST DUP3 MSTORE POP POP JUMP JUMPDEST PUSH0 PUSH1 0x20 DUP3 ADD SWAP1 POP PUSH2 0x13D9 PUSH0 DUP4 ADD DUP5 PUSH2 0x13B7 JUMP JUMPDEST SWAP3 SWAP2 POP POP JUMP JUMPDEST PUSH2 0x13E8 DUP2 PUSH2 0x133B JUMP JUMPDEST DUP3 MSTORE POP POP JUMP JUMPDEST PUSH0 PUSH1 0x20 DUP3 ADD SWAP1 POP PUSH2 0x1401 PUSH0 DUP4 ADD DUP5 PUSH2 0x13DF JUMP JUMPDEST SWAP3 SWAP2 POP POP JUMP JUMPDEST PUSH0 DUP1 PUSH0 PUSH1 0x60 DUP5 DUP7 SUB SLT ISZERO PUSH2 0x141E JUMPI PUSH2 0x141D PUSH2 0x12DD JUMP JUMPDEST JUMPDEST PUSH0 PUSH2 0x142B DUP7 DUP3 DUP8 ADD PUSH2 0x1327 JUMP JUMPDEST SWAP4 POP POP PUSH1 0x20 PUSH2 0x143C DUP7 DUP3 DUP8 ADD PUSH2 0x1327 JUMP JUMPDEST SWAP3 POP POP PUSH1 0x40 PUSH2 0x144D DUP7 DUP3 DUP8 ADD PUSH2 0x135A JUMP JUMPDEST SWAP2 POP POP SWAP3 POP SWAP3 POP SWAP3 JUMP JUMPDEST PUSH0 PUSH1 0xFF DUP3 AND SWAP1 POP SWAP2 SWAP1 POP JUMP JUMPDEST PUSH2 0x146C DUP2 PUSH2 0x1457 JUMP JUMPDEST DUP3 MSTORE POP POP JUMP JUMPDEST PUSH0 PUSH1 0x20 DUP3 ADD SWAP1 POP PUSH2 0x1485 PUSH0 DUP4 ADD DUP5 PUSH2 0x1463 JUMP JUMPDEST SWAP3 SWAP2 POP POP JUMP JUMPDEST PUSH0 PUSH1 0x20 DUP3 DUP5 SUB SLT ISZERO PUSH2 0x14A0 JUMPI PUSH2 0x149F PUSH2 0x12DD JUMP JUMPDEST JUMPDEST PUSH0 PUSH2 0x14AD DUP5 DUP3 DUP6 ADD PUSH2 0x135A JUMP JUMPDEST SWAP2 POP POP SWAP3 SWAP2 POP POP JUMP JUMPDEST PUSH0 DUP1 PUSH1 0x40 DUP4 DUP6 SUB SLT ISZERO PUSH2 0x14CC JUMPI PUSH2 0x14CB PUSH2 0x12DD JUMP JUMPDEST JUMPDEST PUSH0 PUSH2 0x14D9 DUP6 DUP3 DUP7 ADD PUSH2 0x135A JUMP JUMPDEST SWAP3 POP POP PUSH1 0x20 PUSH2 0x14EA DUP6 DUP3 DUP7 ADD PUSH2 0x135A JUMP JUMPDEST SWAP2 POP POP SWAP3 POP SWAP3 SWAP1 POP JUMP JUMPDEST PUSH0 PUSH1 0x20 DUP3 DUP5 SUB SLT ISZERO PUSH2 0x1509 JUMPI PUSH2 0x1508 PUSH2 0x12DD JUMP JUMPDEST JUMPDEST PUSH0 PUSH2 0x1516 DUP5 DUP3 DUP6 ADD PUSH2 0x1327 JUMP JUMPDEST SWAP2 POP POP SWAP3 SWAP2 POP POP JUMP JUMPDEST PUSH0 DUP1 PUSH1 0x40 DUP4 DUP6 SUB SLT ISZERO PUSH2 0x1535 JUMPI PUSH2 0x1534 PUSH2 0x12DD JUMP JUMPDEST JUMPDEST PUSH0 PUSH2 0x1542 DUP6 DUP3 DUP7 ADD PUSH2 0x1327 JUMP JUMPDEST SWAP3 POP POP PUSH1 0x20 PUSH2 0x1553 DUP6 DUP3 DUP7 ADD PUSH2 0x1327 JUMP JUMPDEST SWAP2 POP POP SWAP3 POP SWAP3 SWAP1 POP JUMP JUMPDEST PUSH32 0x546F6B656E207175616E74697479206D75737420626520706F73697469766500 PUSH0 DUP3 ADD MSTORE POP JUMP JUMPDEST PUSH0 PUSH2 0x1591 PUSH1 0x1F DUP4 PUSH2 0x123D JUMP JUMPDEST SWAP2 POP PUSH2 0x159C DUP3 PUSH2 0x155D JUMP JUMPDEST PUSH1 0x20 DUP3 ADD SWAP1 POP SWAP2 SWAP1 POP JUMP JUMPDEST PUSH0 PUSH1 0x20 DUP3 ADD SWAP1 POP DUP2 DUP2 SUB PUSH0 DUP4 ADD MSTORE PUSH2 0x15BE DUP2 PUSH2 0x1585 JUMP JUMPDEST SWAP1 POP SWAP2 SWAP1 POP JUMP JUMPDEST PUSH32 0x496E73756666696369656E74205745492073656E740000000000000000000000 PUSH0 DUP3 ADD MSTORE POP JUMP JUMPDEST PUSH0 PUSH2 0x15F9 PUSH1 0x15 DUP4 PUSH2 0x123D JUMP JUMPDEST SWAP2 POP PUSH2 0x1604 DUP3 PUSH2 0x15C5 JUMP JUMPDEST PUSH1 0x20 DUP3 ADD SWAP1 POP SWAP2 SWAP1 POP JUMP JUMPDEST PUSH0 PUSH1 0x20 DUP3 ADD SWAP1 POP DUP2 DUP2 SUB PUSH0 DUP4 ADD MSTORE PUSH2 0x1626 DUP2 PUSH2 0x15ED JUMP JUMPDEST SWAP1 POP SWAP2 SWAP1 POP JUMP JUMPDEST PUSH32 0x4E487B7100000000000000000000000000000000000000000000000000000000 PUSH0 MSTORE PUSH1 0x22 PUSH1 0x4 MSTORE PUSH1 0x24 PUSH0 REVERT JUMPDEST PUSH0 PUSH1 0x2 DUP3 DIV SWAP1 POP PUSH1 0x1 DUP3 AND DUP1 PUSH2 0x1671 JUMPI PUSH1 0x7F DUP3 AND SWAP2 POP JUMPDEST PUSH1 0x20 DUP3 LT DUP2 SUB PUSH2 0x1684 JUMPI PUSH2 0x1683 PUSH2 0x162D JUMP JUMPDEST JUMPDEST POP SWAP2 SWAP1 POP JUMP JUMPDEST PUSH32 0x5175616E74697479206D757374206265206C657373207468616E206F72206571 PUSH0 DUP3 ADD MSTORE PUSH32 0x75616C20746F206879706F746865746963616C20737575706C79000000000000 PUSH1 0x20 DUP3 ADD MSTORE POP JUMP JUMPDEST PUSH0 PUSH2 0x16E4 PUSH1 0x3A DUP4 PUSH2 0x123D JUMP JUMPDEST SWAP2 POP PUSH2 0x16EF DUP3 PUSH2 0x168A JUMP JUMPDEST PUSH1 0x40 DUP3 ADD SWAP1 POP SWAP2 SWAP1 POP JUMP JUMPDEST PUSH0 PUSH1 0x20 DUP3 ADD SWAP1 POP DUP2 DUP2 SUB PUSH0 DUP4 ADD MSTORE PUSH2 0x1711 DUP2 PUSH2 0x16D8 JUMP JUMPDEST SWAP1 POP SWAP2 SWAP1 POP JUMP JUMPDEST PUSH32 0x4E487B7100000000000000000000000000000000000000000000000000000000 PUSH0 MSTORE PUSH1 0x11 PUSH1 0x4 MSTORE PUSH1 0x24 PUSH0 REVERT JUMPDEST PUSH0 PUSH2 0x174F DUP3 PUSH2 0x133B JUMP JUMPDEST SWAP2 POP PUSH2 0x175A DUP4 PUSH2 0x133B JUMP JUMPDEST SWAP3 POP DUP3 DUP3 SUB SWAP1 POP DUP2 DUP2 GT ISZERO PUSH2 0x1772 JUMPI PUSH2 0x1771 PUSH2 0x1718 JUMP JUMPDEST JUMPDEST SWAP3 SWAP2 POP POP JUMP JUMPDEST PUSH0 PUSH2 0x1782 DUP3 PUSH2 0x133B JUMP JUMPDEST SWAP2 POP PUSH2 0x178D DUP4 PUSH2 0x133B JUMP JUMPDEST SWAP3 POP DUP3 DUP3 MUL PUSH2 0x179B DUP2 PUSH2 0x133B JUMP JUMPDEST SWAP2 POP DUP3 DUP3 DIV DUP5 EQ DUP4 ISZERO OR PUSH2 0x17B2 JUMPI PUSH2 0x17B1 PUSH2 0x1718 JUMP JUMPDEST JUMPDEST POP SWAP3 SWAP2 POP POP JUMP JUMPDEST PUSH0 PUSH2 0x17C3 DUP3 PUSH2 0x133B JUMP JUMPDEST SWAP2 POP PUSH2 0x17CE DUP4 PUSH2 0x133B JUMP JUMPDEST SWAP3 POP DUP3 DUP3 ADD SWAP1 POP DUP1 DUP3 GT ISZERO PUSH2 0x17E6 JUMPI PUSH2 0x17E5 PUSH2 0x1718 JUMP JUMPDEST JUMPDEST SWAP3 SWAP2 POP POP JUMP JUMPDEST PUSH0 PUSH2 0x17F6 DUP3 PUSH2 0x133B JUMP JUMPDEST SWAP2 POP PUSH0 DUP3 SUB PUSH2 0x1808 JUMPI PUSH2 0x1807 PUSH2 0x1718 JUMP JUMPDEST JUMPDEST PUSH1 0x1 DUP3 SUB SWAP1 POP SWAP2 SWAP1 POP JUMP JUMPDEST PUSH32 0x596F75722062616C616E636520697320696E73756666696369656E7400000000 PUSH0 DUP3 ADD MSTORE POP JUMP JUMPDEST PUSH0 PUSH2 0x1847 PUSH1 0x1C DUP4 PUSH2 0x123D JUMP JUMPDEST SWAP2 POP PUSH2 0x1852 DUP3 PUSH2 0x1813 JUMP JUMPDEST PUSH1 0x20 DUP3 ADD SWAP1 POP SWAP2 SWAP1 POP JUMP JUMPDEST PUSH0 PUSH1 0x20 DUP3 ADD SWAP1 POP DUP2 DUP2 SUB PUSH0 DUP4 ADD MSTORE PUSH2 0x1874 DUP2 PUSH2 0x183B JUMP JUMPDEST SWAP1 POP SWAP2 SWAP1 POP JUMP JUMPDEST PUSH0 DUP2 SWAP1 POP SWAP3 SWAP2 POP POP JUMP JUMPDEST POP JUMP JUMPDEST PUSH0 PUSH2 0x1893 PUSH0 DUP4 PUSH2 0x187B JUMP JUMPDEST SWAP2 POP PUSH2 0x189E DUP3 PUSH2 0x1885 JUMP JUMPDEST PUSH0 DUP3 ADD SWAP1 POP SWAP2 SWAP1 POP JUMP JUMPDEST PUSH0 PUSH2 0x18B2 DUP3 PUSH2 0x1888 JUMP JUMPDEST SWAP2 POP DUP2 SWAP1 POP SWAP2 SWAP1 POP JUMP JUMPDEST PUSH32 0x5061796D656E74206661696C6564000000000000000000000000000000000000 PUSH0 DUP3 ADD MSTORE POP JUMP JUMPDEST PUSH0 PUSH2 0x18F0 PUSH1 0xE DUP4 PUSH2 0x123D JUMP JUMPDEST SWAP2 POP PUSH2 0x18FB DUP3 PUSH2 0x18BC JUMP JUMPDEST PUSH1 0x20 DUP3 ADD SWAP1 POP SWAP2 SWAP1 POP JUMP JUMPDEST PUSH0 PUSH1 0x20 DUP3 ADD SWAP1 POP DUP2 DUP2 SUB PUSH0 DUP4 ADD MSTORE PUSH2 0x191D DUP2 PUSH2 0x18E4 JUMP JUMPDEST SWAP1 POP SWAP2 SWAP1 POP JUMP JUMPDEST PUSH0 PUSH2 0x192E DUP3 PUSH2 0x133B JUMP JUMPDEST SWAP2 POP PUSH32 0xFFFFFFFFFFFFFFFFFFFFFFFFFFFFFFFFFFFFFFFFFFFFFFFFFFFFFFFFFFFFFFFF DUP3 SUB PUSH2 0x1960 JUMPI PUSH2 0x195F PUSH2 0x1718 JUMP JUMPDEST JUMPDEST PUSH1 0x1 DUP3 ADD SWAP1 POP SWAP2 SWAP1 POP JUMP JUMPDEST PUSH32 0x54686174206973206D6F7265207468616E20746F74616C20746F6B656E207375 PUSH0 DUP3 ADD MSTORE PUSH32 0x70706C792E20557365206879706F746865746963616C2070726963652E000000 PUSH1 0x20 DUP3 ADD MSTORE POP JUMP JUMPDEST PUSH0 PUSH2 0x19C5 PUSH1 0x3D DUP4 PUSH2 0x123D JUMP JUMPDEST SWAP2 POP PUSH2 0x19D0 DUP3 PUSH2 0x196B JUMP JUMPDEST PUSH1 0x40 DUP3 ADD SWAP1 POP SWAP2 SWAP1 POP JUMP JUMPDEST PUSH0 PUSH1 0x20 DUP3 ADD SWAP1 POP DUP2 DUP2 SUB PUSH0 DUP4 ADD MSTORE PUSH2 0x19F2 DUP2 PUSH2 0x19B9 JUMP JUMPDEST SWAP1 POP SWAP2 SWAP1 POP JUMP JUMPDEST PUSH2 0x1A02 DUP2 PUSH2 0x1300 JUMP JUMPDEST DUP3 MSTORE POP POP JUMP JUMPDEST PUSH0 PUSH1 0x20 DUP3 ADD SWAP1 POP PUSH2 0x1A1B PUSH0 DUP4 ADD DUP5 PUSH2 0x19F9 JUMP JUMPDEST SWAP3 SWAP2 POP POP JUMP JUMPDEST PUSH0 PUSH1 0x60 DUP3 ADD SWAP1 POP PUSH2 0x1A34 PUSH0 DUP4 ADD DUP7 PUSH2 0x19F9 JUMP JUMPDEST PUSH2 0x1A41 PUSH1 0x20 DUP4 ADD DUP6 PUSH2 0x13DF JUMP JUMPDEST PUSH2 0x1A4E PUSH1 0x40 DUP4 ADD DUP5 PUSH2 0x13DF JUMP JUMPDEST SWAP5 SWAP4 POP POP POP POP JUMP INVALID LOG2 PUSH5 0x6970667358 0x22 SLT KECCAK256 LOG2 LOG4 PUSH12 0x4BA5F7256517A8E560043852 CALL 0xEF 0xBB 0x1F PUSH4 0x38CA4451 0xE1 SWAP1 0x4B SDIV PUSH23 0x66A90964736F6C63430008140033000000000000000000 "
		},
		"gasEstimates": {
			"creation": {
				"codeDepositCost": "1359200",
				"executionCost": "infinite",
				"totalCost": "infinite"
			},
			"external": {
				"": "540",
				"allowance(address,address)": "infinite",
				"approve(address,uint256)": "infinite",
				"balanceOf(address)": "2852",
				"buyTokens(uint256)": "infinite",
				"decimals()": "361",
				"getHypotheticalPrice(uint256,uint256)": "infinite",
				"getPurchasePrice(uint256)": "infinite",
				"getSalePrice(uint256)": "infinite",
				"hypotheticalPrice()": "2470",
				"name()": "infinite",
				"purchasePrice()": "2491",
				"salePrice()": "2513",
				"sellTokens(uint256)": "infinite",
				"symbol()": "infinite",
				"totalSupply()": "2500",
				"transfer(address,uint256)": "infinite",
				"transferFrom(address,address,uint256)": "infinite"
			}
		},
		"methodIdentifiers": {
			"allowance(address,address)": "dd62ed3e",
			"approve(address,uint256)": "095ea7b3",
			"balanceOf(address)": "70a08231",
			"buyTokens(uint256)": "3610724e",
			"decimals()": "313ce567",
			"getHypotheticalPrice(uint256,uint256)": "4ef5af32",
			"getPurchasePrice(uint256)": "c59d5633",
			"getSalePrice(uint256)": "f8eb5fc5",
			"hypotheticalPrice()": "8b667c79",
			"name()": "06fdde03",
			"purchasePrice()": "defd6c5f",
			"salePrice()": "f51f96dd",
			"sellTokens(uint256)": "6c11bcd3",
			"symbol()": "95d89b41",
			"totalSupply()": "18160ddd",
			"transfer(address,uint256)": "a9059cbb",
			"transferFrom(address,address,uint256)": "23b872dd"
		}
	},
	"abi": [
		{
			"inputs": [],
			"stateMutability": "nonpayable",
			"type": "constructor"
		},
		{
			"inputs": [
				{
					"internalType": "address",
					"name": "spender",
					"type": "address"
				},
				{
					"internalType": "uint256",
					"name": "allowance",
					"type": "uint256"
				},
				{
					"internalType": "uint256",
					"name": "needed",
					"type": "uint256"
				}
			],
			"name": "ERC20InsufficientAllowance",
			"type": "error"
		},
		{
			"inputs": [
				{
					"internalType": "address",
					"name": "sender",
					"type": "address"
				},
				{
					"internalType": "uint256",
					"name": "balance",
					"type": "uint256"
				},
				{
					"internalType": "uint256",
					"name": "needed",
					"type": "uint256"
				}
			],
			"name": "ERC20InsufficientBalance",
			"type": "error"
		},
		{
			"inputs": [
				{
					"internalType": "address",
					"name": "approver",
					"type": "address"
				}
			],
			"name": "ERC20InvalidApprover",
			"type": "error"
		},
		{
			"inputs": [
				{
					"internalType": "address",
					"name": "receiver",
					"type": "address"
				}
			],
			"name": "ERC20InvalidReceiver",
			"type": "error"
		},
		{
			"inputs": [
				{
					"internalType": "address",
					"name": "sender",
					"type": "address"
				}
			],
			"name": "ERC20InvalidSender",
			"type": "error"
		},
		{
			"inputs": [
				{
					"internalType": "address",
					"name": "spender",
					"type": "address"
				}
			],
			"name": "ERC20InvalidSpender",
			"type": "error"
		},
		{
			"anonymous": false,
			"inputs": [
				{
					"indexed": true,
					"internalType": "address",
					"name": "owner",
					"type": "address"
				},
				{
					"indexed": true,
					"internalType": "address",
					"name": "spender",
					"type": "address"
				},
				{
					"indexed": false,
					"internalType": "uint256",
					"name": "value",
					"type": "uint256"
				}
			],
			"name": "Approval",
			"type": "event"
		},
		{
			"anonymous": false,
			"inputs": [
				{
					"indexed": true,
					"internalType": "address",
					"name": "from",
					"type": "address"
				},
				{
					"indexed": true,
					"internalType": "address",
					"name": "to",
					"type": "address"
				},
				{
					"indexed": false,
					"internalType": "uint256",
					"name": "value",
					"type": "uint256"
				}
			],
			"name": "Transfer",
			"type": "event"
		},
		{
			"stateMutability": "payable",
			"type": "fallback"
		},
		{
			"inputs": [
				{
					"internalType": "address",
					"name": "owner",
					"type": "address"
				},
				{
					"internalType": "address",
					"name": "spender",
					"type": "address"
				}
			],
			"name": "allowance",
			"outputs": [
				{
					"internalType": "uint256",
					"name": "",
					"type": "uint256"
				}
			],
			"stateMutability": "view",
			"type": "function"
		},
		{
			"inputs": [
				{
					"internalType": "address",
					"name": "spender",
					"type": "address"
				},
				{
					"internalType": "uint256",
					"name": "value",
					"type": "uint256"
				}
			],
			"name": "approve",
			"outputs": [
				{
					"internalType": "bool",
					"name": "",
					"type": "bool"
				}
			],
			"stateMutability": "nonpayable",
			"type": "function"
		},
		{
			"inputs": [
				{
					"internalType": "address",
					"name": "account",
					"type": "address"
				}
			],
			"name": "balanceOf",
			"outputs": [
				{
					"internalType": "uint256",
					"name": "",
					"type": "uint256"
				}
			],
			"stateMutability": "view",
			"type": "function"
		},
		{
			"inputs": [
				{
					"internalType": "uint256",
					"name": "quantity",
					"type": "uint256"
				}
			],
			"name": "buyTokens",
			"outputs": [],
			"stateMutability": "payable",
			"type": "function"
		},
		{
			"inputs": [],
			"name": "decimals",
			"outputs": [
				{
					"internalType": "uint8",
					"name": "",
					"type": "uint8"
				}
			],
			"stateMutability": "view",
			"type": "function"
		},
		{
			"inputs": [
				{
					"internalType": "uint256",
					"name": "quantity",
					"type": "uint256"
				},
				{
					"internalType": "uint256",
					"name": "hypotheticalSupply",
					"type": "uint256"
				}
			],
			"name": "getHypotheticalPrice",
			"outputs": [],
			"stateMutability": "nonpayable",
			"type": "function"
		},
		{
			"inputs": [
				{
					"internalType": "uint256",
					"name": "quantity",
					"type": "uint256"
				}
			],
			"name": "getPurchasePrice",
			"outputs": [
				{
					"internalType": "uint256",
					"name": "",
					"type": "uint256"
				}
			],
			"stateMutability": "nonpayable",
			"type": "function"
		},
		{
			"inputs": [
				{
					"internalType": "uint256",
					"name": "quantity",
					"type": "uint256"
				}
			],
			"name": "getSalePrice",
			"outputs": [
				{
					"internalType": "uint256",
					"name": "",
					"type": "uint256"
				}
			],
			"stateMutability": "nonpayable",
			"type": "function"
		},
		{
			"inputs": [],
			"name": "hypotheticalPrice",
			"outputs": [
				{
					"internalType": "uint256",
					"name": "",
					"type": "uint256"
				}
			],
			"stateMutability": "view",
			"type": "function"
		},
		{
			"inputs": [],
			"name": "name",
			"outputs": [
				{
					"internalType": "string",
					"name": "",
					"type": "string"
				}
			],
			"stateMutability": "view",
			"type": "function"
		},
		{
			"inputs": [],
			"name": "purchasePrice",
			"outputs": [
				{
					"internalType": "uint256",
					"name": "",
					"type": "uint256"
				}
			],
			"stateMutability": "view",
			"type": "function"
		},
		{
			"inputs": [],
			"name": "salePrice",
			"outputs": [
				{
					"internalType": "uint256",
					"name": "",
					"type": "uint256"
				}
			],
			"stateMutability": "view",
			"type": "function"
		},
		{
			"inputs": [
				{
					"internalType": "uint256",
					"name": "quantity",
					"type": "uint256"
				}
			],
			"name": "sellTokens",
			"outputs": [],
			"stateMutability": "nonpayable",
			"type": "function"
		},
		{
			"inputs": [],
			"name": "symbol",
			"outputs": [
				{
					"internalType": "string",
					"name": "",
					"type": "string"
				}
			],
			"stateMutability": "view",
			"type": "function"
		},
		{
			"inputs": [],
			"name": "totalSupply",
			"outputs": [
				{
					"internalType": "uint256",
					"name": "",
					"type": "uint256"
				}
			],
			"stateMutability": "view",
			"type": "function"
		},
		{
			"inputs": [
				{
					"internalType": "address",
					"name": "to",
					"type": "address"
				},
				{
					"internalType": "uint256",
					"name": "value",
					"type": "uint256"
				}
			],
			"name": "transfer",
			"outputs": [
				{
					"internalType": "bool",
					"name": "",
					"type": "bool"
				}
			],
			"stateMutability": "nonpayable",
			"type": "function"
		},
		{
			"inputs": [
				{
					"internalType": "address",
					"name": "from",
					"type": "address"
				},
				{
					"internalType": "address",
					"name": "to",
					"type": "address"
				},
				{
					"internalType": "uint256",
					"name": "value",
					"type": "uint256"
				}
			],
			"name": "transferFrom",
			"outputs": [
				{
					"internalType": "bool",
					"name": "",
					"type": "bool"
				}
			],
			"stateMutability": "nonpayable",
			"type": "function"
		},
		{
			"stateMutability": "payable",
			"type": "receive"
		}
	]
}